{
  "contractName": "BaseUpgradeableStrategyStorage",
  "abi": [
    {
      "inputs": [],
      "payable": false,
      "stateMutability": "nonpayable",
      "type": "constructor"
    },
    {
      "constant": true,
      "inputs": [],
      "name": "underlying",
      "outputs": [
        {
          "internalType": "address",
          "name": "",
          "type": "address"
        }
      ],
      "payable": false,
      "stateMutability": "view",
      "type": "function"
    },
    {
      "constant": true,
      "inputs": [],
      "name": "rewardPool",
      "outputs": [
        {
          "internalType": "address",
          "name": "",
          "type": "address"
        }
      ],
      "payable": false,
      "stateMutability": "view",
      "type": "function"
    },
    {
      "constant": true,
      "inputs": [],
      "name": "rewardToken",
      "outputs": [
        {
          "internalType": "address",
          "name": "",
          "type": "address"
        }
      ],
      "payable": false,
      "stateMutability": "view",
      "type": "function"
    },
    {
      "constant": true,
      "inputs": [],
      "name": "vault",
      "outputs": [
        {
          "internalType": "address",
          "name": "",
          "type": "address"
        }
      ],
      "payable": false,
      "stateMutability": "view",
      "type": "function"
    },
    {
      "constant": true,
      "inputs": [],
      "name": "sell",
      "outputs": [
        {
          "internalType": "bool",
          "name": "",
          "type": "bool"
        }
      ],
      "payable": false,
      "stateMutability": "view",
      "type": "function"
    },
    {
      "constant": true,
      "inputs": [],
      "name": "pausedInvesting",
      "outputs": [
        {
          "internalType": "bool",
          "name": "",
          "type": "bool"
        }
      ],
      "payable": false,
      "stateMutability": "view",
      "type": "function"
    },
    {
      "constant": true,
      "inputs": [],
      "name": "sellFloor",
      "outputs": [
        {
          "internalType": "uint256",
          "name": "",
          "type": "uint256"
        }
      ],
      "payable": false,
      "stateMutability": "view",
      "type": "function"
    },
    {
      "constant": true,
      "inputs": [],
      "name": "profitSharingNumerator",
      "outputs": [
        {
          "internalType": "uint256",
          "name": "",
          "type": "uint256"
        }
      ],
      "payable": false,
      "stateMutability": "view",
      "type": "function"
    },
    {
      "constant": true,
      "inputs": [],
      "name": "profitSharingDenominator",
      "outputs": [
        {
          "internalType": "uint256",
          "name": "",
          "type": "uint256"
        }
      ],
      "payable": false,
      "stateMutability": "view",
      "type": "function"
    },
    {
      "constant": true,
      "inputs": [],
      "name": "nextImplementation",
      "outputs": [
        {
          "internalType": "address",
          "name": "",
          "type": "address"
        }
      ],
      "payable": false,
      "stateMutability": "view",
      "type": "function"
    },
    {
      "constant": true,
      "inputs": [],
      "name": "nextImplementationTimestamp",
      "outputs": [
        {
          "internalType": "uint256",
          "name": "",
          "type": "uint256"
        }
      ],
      "payable": false,
      "stateMutability": "view",
      "type": "function"
    },
    {
      "constant": true,
      "inputs": [],
      "name": "nextImplementationDelay",
      "outputs": [
        {
          "internalType": "uint256",
          "name": "",
          "type": "uint256"
        }
      ],
      "payable": false,
      "stateMutability": "view",
      "type": "function"
    }
  ],
  "bytecode": "0x608060405234801561001057600080fd5b5060016040518080610894602291396022019050604051809103902060001c0360001b7fa1709211eeccf8f4ad5b6700d52a1a9525b5f5ae1e9e5f9e5a0c2fc23c86e53060001b1461005e57fe5b604080517f656970313936372e737472617465677953746f726167652e7661756c740000008152905190819003601d0190207fefd7c7d9ef1040fc87e7ad11fe15f86e1d11e1df03c6d7c87f7e1f4041f08d41600019909101146100be57fe5b600160405180806108d7602391396023019050604051809103902060001c0360001b7fdae0aafd977983cb1e78d8f638900ff361dc3c48c43118ca1dd77d1af3f47bbf60001b1461010b57fe5b600160405180806107e9602291396022019050604051809103902060001c0360001b7f3d9bb16e77837e25cada0cf894835418b38e8e18fbec6cfd192eb344bebfa6b860001b1461015857fe5b600160405180806108b6602191396021019050604051809103902060001c0360001b7fc403216a7704d160f6a3b5c3b149a1226a6080f0a5dd27b27d9ba9c022fa0afc60001b146101a557fe5b604080517f656970313936372e737472617465677953746f726167652e73656c6c000000008152905190819003601c0190207f656de32df98753b07482576beb0d00a6b949ebf84c066c765f54f26725221bb66000199091011461020557fe5b6001604051808061086d602791396027019050604051809103902060001c0360001b7fa07a20a2d463a602c2b891eb35f244624d9068572811f63d0e094072fb54591a60001b1461025257fe5b600160405180806108fa602e9139602e019050604051809103902060001c0360001b7fe3ee74fb7893020b457d8071ed1ef76ace2bf4903abd7b24d3ce312e9c72c02960001b1461029f57fe5b6001604051808061078f603091396030019050604051809103902060001c0360001b7f0286fd414602b432a8c80a0125e9a25de9bba96da9d5068c832ff73f09208a3b60001b146102ec57fe5b600160405180806107bf602a9139602a019050604051809103902060001c0360001b7f29f7fcd4fe2517c1963807a1ec27b0e45e67c60a874d5eeac7a0b1ab1bb8444760001b1461033957fe5b6001604051808061080b603391396033019050604051809103902060001c0360001b7f414c5263b05428f1be1bfa98e25407cc78dd031d0d3cd2a2e3d63b488804f22e60001b1461038657fe5b6001604051808061083e602f9139602f019050604051809103902060001c0360001b7f82b330ca72bcd6db11a26f10ce47ebcfe574a9c646bccbc6f1cd4478eae16b3160001b146103d357fe5b6103ad806103e26000396000f3fe608060405234801561001057600080fd5b50600436106100b45760003560e01c8063a1dab23e11610071578063a1dab23e1461012b578063a836569314610133578063b60f151a1461013b578063d3df8aa414610143578063f7c618c11461014b578063fbfa77cf14610153576100b4565b8063026a0dd0146100b957806309ff18f0146100d357806345710074146100f757806366666aa9146101135780636f307dc31461011b57806382de9c1b14610123575b600080fd5b6100c161015b565b60408051918252519081900360200190f35b6100db61018b565b604080516001600160a01b039092168252519081900360200190f35b6100ff6101b6565b604080519115158252519081900360200190f35b6100db6101e1565b6100db61020c565b6100c1610237565b6100c1610262565b6100c161028d565b6100c16102b8565b6100ff6102e3565b6100db61030e565b6100db610339565b60006101867f0286fd414602b432a8c80a0125e9a25de9bba96da9d5068c832ff73f09208a3b610360565b905090565b60006101867f29f7fcd4fe2517c1963807a1ec27b0e45e67c60a874d5eeac7a0b1ab1bb84447610360565b60006101867f656de32df98753b07482576beb0d00a6b949ebf84c066c765f54f26725221bb6610364565b60006101867f3d9bb16e77837e25cada0cf894835418b38e8e18fbec6cfd192eb344bebfa6b8610360565b60006101867fa1709211eeccf8f4ad5b6700d52a1a9525b5f5ae1e9e5f9e5a0c2fc23c86e530610360565b60006101867f414c5263b05428f1be1bfa98e25407cc78dd031d0d3cd2a2e3d63b488804f22e610360565b60006101867fc403216a7704d160f6a3b5c3b149a1226a6080f0a5dd27b27d9ba9c022fa0afc610360565b60006101867f82b330ca72bcd6db11a26f10ce47ebcfe574a9c646bccbc6f1cd4478eae16b31610360565b60006101867fe3ee74fb7893020b457d8071ed1ef76ace2bf4903abd7b24d3ce312e9c72c029610360565b60006101867fa07a20a2d463a602c2b891eb35f244624d9068572811f63d0e094072fb54591a610364565b60006101867fdae0aafd977983cb1e78d8f638900ff361dc3c48c43118ca1dd77d1af3f47bbf610360565b60006101867fefd7c7d9ef1040fc87e7ad11fe15f86e1d11e1df03c6d7c87f7e1f4041f08d415b5490565b600061036f82610360565b6001149291505056fea265627a7a72315820394929e88fb4c00c6763718a56d452f7e71a0a531a8a6f6005c90f8246a5042d64736f6c63430005100032656970313936372e737472617465677953746f726167652e70726f66697453686172696e6744656e6f6d696e61746f72656970313936372e737472617465677953746f726167652e6e657874496d706c656d656e746174696f6e656970313936372e737472617465677953746f726167652e726577617264506f6f6c656970313936372e737472617465677953746f726167652e6e657874496d706c656d656e746174696f6e54696d657374616d70656970313936372e737472617465677953746f726167652e6e657874496d706c656d656e746174696f6e44656c6179656970313936372e737472617465677953746f726167652e706175736564496e76657374696e67656970313936372e737472617465677953746f726167652e756e6465726c79696e67656970313936372e737472617465677953746f726167652e73656c6c466c6f6f72656970313936372e737472617465677953746f726167652e726577617264546f6b656e656970313936372e737472617465677953746f726167652e70726f66697453686172696e674e756d657261746f72",
  "source": "pragma solidity 0.5.16;\n\nimport \"@openzeppelin/upgrades/contracts/Initializable.sol\";\n\ncontract BaseUpgradeableStrategyStorage {\n\n  bytes32 internal constant _UNDERLYING_SLOT = 0xa1709211eeccf8f4ad5b6700d52a1a9525b5f5ae1e9e5f9e5a0c2fc23c86e530;\n  bytes32 internal constant _VAULT_SLOT = 0xefd7c7d9ef1040fc87e7ad11fe15f86e1d11e1df03c6d7c87f7e1f4041f08d41;\n\n  bytes32 internal constant _REWARD_TOKEN_SLOT = 0xdae0aafd977983cb1e78d8f638900ff361dc3c48c43118ca1dd77d1af3f47bbf;\n  bytes32 internal constant _REWARD_POOL_SLOT = 0x3d9bb16e77837e25cada0cf894835418b38e8e18fbec6cfd192eb344bebfa6b8;\n  bytes32 internal constant _SELL_FLOOR_SLOT = 0xc403216a7704d160f6a3b5c3b149a1226a6080f0a5dd27b27d9ba9c022fa0afc;\n  bytes32 internal constant _SELL_SLOT = 0x656de32df98753b07482576beb0d00a6b949ebf84c066c765f54f26725221bb6;\n  bytes32 internal constant _PAUSED_INVESTING_SLOT = 0xa07a20a2d463a602c2b891eb35f244624d9068572811f63d0e094072fb54591a;\n\n  bytes32 internal constant _PROFIT_SHARING_NUMERATOR_SLOT = 0xe3ee74fb7893020b457d8071ed1ef76ace2bf4903abd7b24d3ce312e9c72c029;\n  bytes32 internal constant _PROFIT_SHARING_DENOMINATOR_SLOT = 0x0286fd414602b432a8c80a0125e9a25de9bba96da9d5068c832ff73f09208a3b;\n\n  bytes32 internal constant _NEXT_IMPLEMENTATION_SLOT = 0x29f7fcd4fe2517c1963807a1ec27b0e45e67c60a874d5eeac7a0b1ab1bb84447;\n  bytes32 internal constant _NEXT_IMPLEMENTATION_TIMESTAMP_SLOT = 0x414c5263b05428f1be1bfa98e25407cc78dd031d0d3cd2a2e3d63b488804f22e;\n  bytes32 internal constant _NEXT_IMPLEMENTATION_DELAY_SLOT = 0x82b330ca72bcd6db11a26f10ce47ebcfe574a9c646bccbc6f1cd4478eae16b31;\n\n  constructor() public {\n    assert(_UNDERLYING_SLOT == bytes32(uint256(keccak256(\"eip1967.strategyStorage.underlying\")) - 1));\n    assert(_VAULT_SLOT == bytes32(uint256(keccak256(\"eip1967.strategyStorage.vault\")) - 1));\n    assert(_REWARD_TOKEN_SLOT == bytes32(uint256(keccak256(\"eip1967.strategyStorage.rewardToken\")) - 1));\n    assert(_REWARD_POOL_SLOT == bytes32(uint256(keccak256(\"eip1967.strategyStorage.rewardPool\")) - 1));\n    assert(_SELL_FLOOR_SLOT == bytes32(uint256(keccak256(\"eip1967.strategyStorage.sellFloor\")) - 1));\n    assert(_SELL_SLOT == bytes32(uint256(keccak256(\"eip1967.strategyStorage.sell\")) - 1));\n    assert(_PAUSED_INVESTING_SLOT == bytes32(uint256(keccak256(\"eip1967.strategyStorage.pausedInvesting\")) - 1));\n\n    assert(_PROFIT_SHARING_NUMERATOR_SLOT == bytes32(uint256(keccak256(\"eip1967.strategyStorage.profitSharingNumerator\")) - 1));\n    assert(_PROFIT_SHARING_DENOMINATOR_SLOT == bytes32(uint256(keccak256(\"eip1967.strategyStorage.profitSharingDenominator\")) - 1));\n\n    assert(_NEXT_IMPLEMENTATION_SLOT == bytes32(uint256(keccak256(\"eip1967.strategyStorage.nextImplementation\")) - 1));\n    assert(_NEXT_IMPLEMENTATION_TIMESTAMP_SLOT == bytes32(uint256(keccak256(\"eip1967.strategyStorage.nextImplementationTimestamp\")) - 1));\n    assert(_NEXT_IMPLEMENTATION_DELAY_SLOT == bytes32(uint256(keccak256(\"eip1967.strategyStorage.nextImplementationDelay\")) - 1));\n  }\n\n  function _setUnderlying(address _address) internal {\n    setAddress(_UNDERLYING_SLOT, _address);\n  }\n\n  function underlying() public view returns (address) {\n    return getAddress(_UNDERLYING_SLOT);\n  }\n\n  function _setRewardPool(address _address) internal {\n    setAddress(_REWARD_POOL_SLOT, _address);\n  }\n\n  function rewardPool() public view returns (address) {\n    return getAddress(_REWARD_POOL_SLOT);\n  }\n\n  function _setRewardToken(address _address) internal {\n    setAddress(_REWARD_TOKEN_SLOT, _address);\n  }\n\n  function rewardToken() public view returns (address) {\n    return getAddress(_REWARD_TOKEN_SLOT);\n  }\n\n  function _setVault(address _address) internal {\n    setAddress(_VAULT_SLOT, _address);\n  }\n\n  function vault() public view returns (address) {\n    return getAddress(_VAULT_SLOT);\n  }\n\n  // a flag for disabling selling for simplified emergency exit\n  function _setSell(bool _value) internal {\n    setBoolean(_SELL_SLOT, _value);\n  }\n\n  function sell() public view returns (bool) {\n    return getBoolean(_SELL_SLOT);\n  }\n\n  function _setPausedInvesting(bool _value) internal {\n    setBoolean(_PAUSED_INVESTING_SLOT, _value);\n  }\n\n  function pausedInvesting() public view returns (bool) {\n    return getBoolean(_PAUSED_INVESTING_SLOT);\n  }\n\n  function _setSellFloor(uint256 _value) internal {\n    setUint256(_SELL_FLOOR_SLOT, _value);\n  }\n\n  function sellFloor() public view returns (uint256) {\n    return getUint256(_SELL_FLOOR_SLOT);\n  }\n\n  function _setProfitSharingNumerator(uint256 _value) internal {\n    setUint256(_PROFIT_SHARING_NUMERATOR_SLOT, _value);\n  }\n\n  function profitSharingNumerator() public view returns (uint256) {\n    return getUint256(_PROFIT_SHARING_NUMERATOR_SLOT);\n  }\n\n  function _setProfitSharingDenominator(uint256 _value) internal {\n    setUint256(_PROFIT_SHARING_DENOMINATOR_SLOT, _value);\n  }\n\n  function profitSharingDenominator() public view returns (uint256) {\n    return getUint256(_PROFIT_SHARING_DENOMINATOR_SLOT);\n  }\n\n  // upgradeability\n\n  function _setNextImplementation(address _address) internal {\n    setAddress(_NEXT_IMPLEMENTATION_SLOT, _address);\n  }\n\n  function nextImplementation() public view returns (address) {\n    return getAddress(_NEXT_IMPLEMENTATION_SLOT);\n  }\n\n  function _setNextImplementationTimestamp(uint256 _value) internal {\n    setUint256(_NEXT_IMPLEMENTATION_TIMESTAMP_SLOT, _value);\n  }\n\n  function nextImplementationTimestamp() public view returns (uint256) {\n    return getUint256(_NEXT_IMPLEMENTATION_TIMESTAMP_SLOT);\n  }\n\n  function _setNextImplementationDelay(uint256 _value) internal {\n    setUint256(_NEXT_IMPLEMENTATION_DELAY_SLOT, _value);\n  }\n\n  function nextImplementationDelay() public view returns (uint256) {\n    return getUint256(_NEXT_IMPLEMENTATION_DELAY_SLOT);\n  }\n\n  function setBoolean(bytes32 slot, bool _value) internal {\n    setUint256(slot, _value ? 1 : 0);\n  }\n\n  function getBoolean(bytes32 slot) internal view returns (bool) {\n    return (getUint256(slot) == 1);\n  }\n\n  function setAddress(bytes32 slot, address _address) internal {\n    // solhint-disable-next-line no-inline-assembly\n    assembly {\n      sstore(slot, _address)\n    }\n  }\n\n  function setUint256(bytes32 slot, uint256 _value) internal {\n    // solhint-disable-next-line no-inline-assembly\n    assembly {\n      sstore(slot, _value)\n    }\n  }\n\n  function getAddress(bytes32 slot) internal view returns (address str) {\n    // solhint-disable-next-line no-inline-assembly\n    assembly {\n      str := sload(slot)\n    }\n  }\n\n  function getUint256(bytes32 slot) internal view returns (uint256 str) {\n    // solhint-disable-next-line no-inline-assembly\n    assembly {\n      str := sload(slot)\n    }\n  }\n}\n",
  "sourcePath": "/home/madhav/Vaults/contracts/strategies/upgradability/BaseUpgradeableStrategyStorage.sol",
  "compiler": {
    "name": "solc",
    "version": "0.5.16+commit.9c3226ce.Emscripten.clang"
  },
  "schemaVersion": "3.2.5",
  "updatedAt": "2020-12-05T16:27:35.073Z",
  "devdoc": {
    "methods": {}
  },
  "userdoc": {
    "methods": {}
  }
}