{
  "contractName": "BaseUpgradeableStrategy",
  "abi": [
    {
      "inputs": [],
      "payable": false,
      "stateMutability": "nonpayable",
      "type": "constructor"
    },
    {
      "anonymous": false,
      "inputs": [
        {
          "indexed": false,
          "internalType": "uint256",
          "name": "profitAmount",
          "type": "uint256"
        },
        {
          "indexed": false,
          "internalType": "uint256",
          "name": "feeAmount",
          "type": "uint256"
        },
        {
          "indexed": false,
          "internalType": "uint256",
          "name": "timestamp",
          "type": "uint256"
        }
      ],
      "name": "ProfitLogInReward",
      "type": "event"
    },
    {
      "anonymous": false,
      "inputs": [
        {
          "indexed": false,
          "internalType": "bool",
          "name": "sell",
          "type": "bool"
        },
        {
          "indexed": false,
          "internalType": "bool",
          "name": "floor",
          "type": "bool"
        }
      ],
      "name": "ProfitsNotCollected",
      "type": "event"
    },
    {
      "constant": true,
      "inputs": [],
      "name": "controller",
      "outputs": [
        {
          "internalType": "address",
          "name": "",
          "type": "address"
        }
      ],
      "payable": false,
      "stateMutability": "view",
      "type": "function"
    },
    {
      "constant": true,
      "inputs": [],
      "name": "governance",
      "outputs": [
        {
          "internalType": "address",
          "name": "",
          "type": "address"
        }
      ],
      "payable": false,
      "stateMutability": "view",
      "type": "function"
    },
    {
      "constant": true,
      "inputs": [],
      "name": "nextImplementation",
      "outputs": [
        {
          "internalType": "address",
          "name": "",
          "type": "address"
        }
      ],
      "payable": false,
      "stateMutability": "view",
      "type": "function"
    },
    {
      "constant": true,
      "inputs": [],
      "name": "nextImplementationDelay",
      "outputs": [
        {
          "internalType": "uint256",
          "name": "",
          "type": "uint256"
        }
      ],
      "payable": false,
      "stateMutability": "view",
      "type": "function"
    },
    {
      "constant": true,
      "inputs": [],
      "name": "nextImplementationTimestamp",
      "outputs": [
        {
          "internalType": "uint256",
          "name": "",
          "type": "uint256"
        }
      ],
      "payable": false,
      "stateMutability": "view",
      "type": "function"
    },
    {
      "constant": true,
      "inputs": [],
      "name": "pausedInvesting",
      "outputs": [
        {
          "internalType": "bool",
          "name": "",
          "type": "bool"
        }
      ],
      "payable": false,
      "stateMutability": "view",
      "type": "function"
    },
    {
      "constant": true,
      "inputs": [],
      "name": "profitSharingDenominator",
      "outputs": [
        {
          "internalType": "uint256",
          "name": "",
          "type": "uint256"
        }
      ],
      "payable": false,
      "stateMutability": "view",
      "type": "function"
    },
    {
      "constant": true,
      "inputs": [],
      "name": "profitSharingNumerator",
      "outputs": [
        {
          "internalType": "uint256",
          "name": "",
          "type": "uint256"
        }
      ],
      "payable": false,
      "stateMutability": "view",
      "type": "function"
    },
    {
      "constant": true,
      "inputs": [],
      "name": "rewardPool",
      "outputs": [
        {
          "internalType": "address",
          "name": "",
          "type": "address"
        }
      ],
      "payable": false,
      "stateMutability": "view",
      "type": "function"
    },
    {
      "constant": true,
      "inputs": [],
      "name": "rewardToken",
      "outputs": [
        {
          "internalType": "address",
          "name": "",
          "type": "address"
        }
      ],
      "payable": false,
      "stateMutability": "view",
      "type": "function"
    },
    {
      "constant": true,
      "inputs": [],
      "name": "sell",
      "outputs": [
        {
          "internalType": "bool",
          "name": "",
          "type": "bool"
        }
      ],
      "payable": false,
      "stateMutability": "view",
      "type": "function"
    },
    {
      "constant": true,
      "inputs": [],
      "name": "sellFloor",
      "outputs": [
        {
          "internalType": "uint256",
          "name": "",
          "type": "uint256"
        }
      ],
      "payable": false,
      "stateMutability": "view",
      "type": "function"
    },
    {
      "constant": false,
      "inputs": [
        {
          "internalType": "address",
          "name": "_store",
          "type": "address"
        }
      ],
      "name": "setStorage",
      "outputs": [],
      "payable": false,
      "stateMutability": "nonpayable",
      "type": "function"
    },
    {
      "constant": true,
      "inputs": [],
      "name": "underlying",
      "outputs": [
        {
          "internalType": "address",
          "name": "",
          "type": "address"
        }
      ],
      "payable": false,
      "stateMutability": "view",
      "type": "function"
    },
    {
      "constant": true,
      "inputs": [],
      "name": "vault",
      "outputs": [
        {
          "internalType": "address",
          "name": "",
          "type": "address"
        }
      ],
      "payable": false,
      "stateMutability": "view",
      "type": "function"
    },
    {
      "constant": false,
      "inputs": [
        {
          "internalType": "address",
          "name": "_storage",
          "type": "address"
        },
        {
          "internalType": "address",
          "name": "_underlying",
          "type": "address"
        },
        {
          "internalType": "address",
          "name": "_vault",
          "type": "address"
        },
        {
          "internalType": "address",
          "name": "_rewardPool",
          "type": "address"
        },
        {
          "internalType": "address",
          "name": "_rewardToken",
          "type": "address"
        },
        {
          "internalType": "uint256",
          "name": "_profitSharingNumerator",
          "type": "uint256"
        },
        {
          "internalType": "uint256",
          "name": "_profitSharingDenominator",
          "type": "uint256"
        },
        {
          "internalType": "bool",
          "name": "_sell",
          "type": "bool"
        },
        {
          "internalType": "uint256",
          "name": "_sellFloor",
          "type": "uint256"
        },
        {
          "internalType": "uint256",
          "name": "_implementationChangeDelay",
          "type": "uint256"
        }
      ],
      "name": "initialize",
      "outputs": [],
      "payable": false,
      "stateMutability": "nonpayable",
      "type": "function"
    },
    {
      "constant": false,
      "inputs": [
        {
          "internalType": "address",
          "name": "_storage",
          "type": "address"
        }
      ],
      "name": "initialize",
      "outputs": [],
      "payable": false,
      "stateMutability": "nonpayable",
      "type": "function"
    },
    {
      "constant": false,
      "inputs": [
        {
          "internalType": "address",
          "name": "impl",
          "type": "address"
        }
      ],
      "name": "scheduleUpgrade",
      "outputs": [],
      "payable": false,
      "stateMutability": "nonpayable",
      "type": "function"
    },
    {
      "constant": true,
      "inputs": [],
      "name": "shouldUpgrade",
      "outputs": [
        {
          "internalType": "bool",
          "name": "",
          "type": "bool"
        },
        {
          "internalType": "address",
          "name": "",
          "type": "address"
        }
      ],
      "payable": false,
      "stateMutability": "view",
      "type": "function"
    }
  ],
  "bytecode": "0x60806040523480156200001157600080fd5b50604080517f656970313936372e676f7665726e61626c65496e69742e73746f7261676500008152905190819003601e0190207fa7ec62784904ff31cbcc32d09932a58e7f1e4476e1d041995b37c917990b16dc600019909101146200007357fe5b6001604051808062001300602291396022019050604051809103902060001c0360001b7fa1709211eeccf8f4ad5b6700d52a1a9525b5f5ae1e9e5f9e5a0c2fc23c86e53060001b14620000c257fe5b604080517f656970313936372e737472617465677953746f726167652e7661756c740000008152905190819003601d0190207fefd7c7d9ef1040fc87e7ad11fe15f86e1d11e1df03c6d7c87f7e1f4041f08d41600019909101146200012357fe5b6001604051808062001343602391396023019050604051809103902060001c0360001b7fdae0aafd977983cb1e78d8f638900ff361dc3c48c43118ca1dd77d1af3f47bbf60001b146200017257fe5b6001604051808062001255602291396022019050604051809103902060001c0360001b7f3d9bb16e77837e25cada0cf894835418b38e8e18fbec6cfd192eb344bebfa6b860001b14620001c157fe5b6001604051808062001322602191396021019050604051809103902060001c0360001b7fc403216a7704d160f6a3b5c3b149a1226a6080f0a5dd27b27d9ba9c022fa0afc60001b146200021057fe5b604080517f656970313936372e737472617465677953746f726167652e73656c6c000000008152905190819003601c0190207f656de32df98753b07482576beb0d00a6b949ebf84c066c765f54f26725221bb6600019909101146200027157fe5b60016040518080620012d9602791396027019050604051809103902060001c0360001b7fa07a20a2d463a602c2b891eb35f244624d9068572811f63d0e094072fb54591a60001b14620002c057fe5b6001604051808062001366602e9139602e019050604051809103902060001c0360001b7fe3ee74fb7893020b457d8071ed1ef76ace2bf4903abd7b24d3ce312e9c72c02960001b146200030f57fe5b60016040518080620011fb603091396030019050604051809103902060001c0360001b7f0286fd414602b432a8c80a0125e9a25de9bba96da9d5068c832ff73f09208a3b60001b146200035e57fe5b600160405180806200122b602a9139602a019050604051809103902060001c0360001b7f29f7fcd4fe2517c1963807a1ec27b0e45e67c60a874d5eeac7a0b1ab1bb8444760001b14620003ad57fe5b6001604051808062001277603391396033019050604051809103902060001c0360001b7f414c5263b05428f1be1bfa98e25407cc78dd031d0d3cd2a2e3d63b488804f22e60001b14620003fc57fe5b60016040518080620012aa602f9139602f019050604051809103902060001c0360001b7f82b330ca72bcd6db11a26f10ce47ebcfe574a9c646bccbc6f1cd4478eae16b3160001b146200044b57fe5b610da0806200045b6000396000f3fe608060405234801561001057600080fd5b50600436106101215760003560e01c80639137c1a7116100ad578063c4d66de811610071578063c4d66de81461029a578063d3df8aa4146102c0578063f77c4791146102c8578063f7c618c1146102d0578063fbfa77cf146102d857610121565b80639137c1a7146102315780639d16acfd14610257578063a1dab23e14610282578063a83656931461028a578063b60f151a1461029257610121565b806345710074116100f457806345710074146101f55780635aa6e6751461021157806366666aa9146102195780636f307dc31461022157806382de9c1b1461022957610121565b8063026a0dd014610126578063051917941461014057806309ff18f0146101ab5780630c80447a146101cf575b600080fd5b61012e6102e0565b60408051918252519081900360200190f35b6101a9600480360361014081101561015757600080fd5b506001600160a01b0381358116916020810135821691604082013581169160608101358216916080820135169060a08101359060c08101359060e0810135151590610100810135906101200135610310565b005b6101b3610420565b604080516001600160a01b039092168252519081900360200190f35b6101a9600480360360208110156101e557600080fd5b50356001600160a01b031661044b565b6101fd610542565b604080519115158252519081900360200190f35b6101b361056d565b6101b36105e0565b6101b361060b565b61012e610636565b6101a96004803603602081101561024757600080fd5b50356001600160a01b0316610661565b61025f610790565b6040805192151583526001600160a01b0390911660208301528051918290030190f35b61012e6107dc565b61012e610807565b61012e610832565b6101a9600480360360208110156102b057600080fd5b50356001600160a01b031661085d565b6101fd610909565b6101b3610934565b6101b3610976565b6101b36109a1565b600061030b7f0286fd414602b432a8c80a0125e9a25de9bba96da9d5068c832ff73f09208a3b6109c8565b905090565b600054610100900460ff168061032957506103296109cc565b80610337575060005460ff16155b6103725760405162461bcd60e51b815260040180806020018281038252602e815260200180610d3e602e913960400191505060405180910390fd5b600054610100900460ff1615801561039d576000805460ff1961ff0019909116610100171660011790555b6103a68b61085d565b6103af8a6109d2565b6103b8896109fc565b6103c188610a26565b6103ca87610a50565b6103d386610a7a565b6103dc85610aa4565b6103e584610ace565b6103ee83610af8565b6103f782610b22565b6104016000610b4c565b8015610413576000805461ff00191690555b5050505050505050505050565b600061030b7f29f7fcd4fe2517c1963807a1ec27b0e45e67c60a874d5eeac7a0b1ab1bb844476109c8565b610453610b76565b6001600160a01b031663dee1f0e4336040518263ffffffff1660e01b815260040180826001600160a01b03166001600160a01b0316815260200191505060206040518083038186803b1580156104a857600080fd5b505afa1580156104bc573d6000803e3d6000fd5b505050506040513d60208110156104d257600080fd5b5051610516576040805162461bcd60e51b815260206004820152600e60248201526d4e6f7420676f7665726e616e636560901b604482015290519081900360640190fd5b61051f81610b9b565b61053f61053a61052d610807565b429063ffffffff610bc516565b610c26565b50565b600061030b7f656de32df98753b07482576beb0d00a6b949ebf84c066c765f54f26725221bb6610c50565b6000610577610b76565b6001600160a01b0316635aa6e6756040518163ffffffff1660e01b815260040160206040518083038186803b1580156105af57600080fd5b505afa1580156105c3573d6000803e3d6000fd5b505050506040513d60208110156105d957600080fd5b5051905090565b600061030b7f3d9bb16e77837e25cada0cf894835418b38e8e18fbec6cfd192eb344bebfa6b86109c8565b600061030b7fa1709211eeccf8f4ad5b6700d52a1a9525b5f5ae1e9e5f9e5a0c2fc23c86e5306109c8565b600061030b7f414c5263b05428f1be1bfa98e25407cc78dd031d0d3cd2a2e3d63b488804f22e6109c8565b610669610b76565b6001600160a01b031663dee1f0e4336040518263ffffffff1660e01b815260040180826001600160a01b03166001600160a01b0316815260200191505060206040518083038186803b1580156106be57600080fd5b505afa1580156106d2573d6000803e3d6000fd5b505050506040513d60208110156106e857600080fd5b505161072c576040805162461bcd60e51b815260206004820152600e60248201526d4e6f7420676f7665726e616e636560901b604482015290519081900360640190fd5b6001600160a01b038116610787576040805162461bcd60e51b815260206004820152601e60248201527f6e65772073746f726167652073686f756c646e277420626520656d7074790000604482015290519081900360640190fd5b61053f81610c64565b60008061079b610636565b158015906107af57506107ac610636565b42115b80156107cc575060006107c0610420565b6001600160a01b031614155b6107d4610420565b915091509091565b600061030b7fc403216a7704d160f6a3b5c3b149a1226a6080f0a5dd27b27d9ba9c022fa0afc6109c8565b600061030b7f82b330ca72bcd6db11a26f10ce47ebcfe574a9c646bccbc6f1cd4478eae16b316109c8565b600061030b7fe3ee74fb7893020b457d8071ed1ef76ace2bf4903abd7b24d3ce312e9c72c0296109c8565b600054610100900460ff168061087657506108766109cc565b80610884575060005460ff16155b6108bf5760405162461bcd60e51b815260040180806020018281038252602e815260200180610d3e602e913960400191505060405180910390fd5b600054610100900460ff161580156108ea576000805460ff1961ff0019909116610100171660011790555b6108f382610c88565b8015610905576000805461ff00191690555b5050565b600061030b7fa07a20a2d463a602c2b891eb35f244624d9068572811f63d0e094072fb54591a610c50565b600061093e610b76565b6001600160a01b031663f77c47916040518163ffffffff1660e01b815260040160206040518083038186803b1580156105af57600080fd5b600061030b7fdae0aafd977983cb1e78d8f638900ff361dc3c48c43118ca1dd77d1af3f47bbf6109c8565b600061030b7fefd7c7d9ef1040fc87e7ad11fe15f86e1d11e1df03c6d7c87f7e1f4041f08d415b5490565b303b1590565b61053f7fa1709211eeccf8f4ad5b6700d52a1a9525b5f5ae1e9e5f9e5a0c2fc23c86e53082610d1e565b61053f7fefd7c7d9ef1040fc87e7ad11fe15f86e1d11e1df03c6d7c87f7e1f4041f08d4182610d1e565b61053f7f3d9bb16e77837e25cada0cf894835418b38e8e18fbec6cfd192eb344bebfa6b882610d1e565b61053f7fdae0aafd977983cb1e78d8f638900ff361dc3c48c43118ca1dd77d1af3f47bbf82610d1e565b61053f7fe3ee74fb7893020b457d8071ed1ef76ace2bf4903abd7b24d3ce312e9c72c02982610d1e565b61053f7f0286fd414602b432a8c80a0125e9a25de9bba96da9d5068c832ff73f09208a3b82610d1e565b61053f7f656de32df98753b07482576beb0d00a6b949ebf84c066c765f54f26725221bb682610d22565b61053f7fc403216a7704d160f6a3b5c3b149a1226a6080f0a5dd27b27d9ba9c022fa0afc82610d1e565b61053f7f82b330ca72bcd6db11a26f10ce47ebcfe574a9c646bccbc6f1cd4478eae16b3182610d1e565b61053f7fa07a20a2d463a602c2b891eb35f244624d9068572811f63d0e094072fb54591a82610d22565b7fa7ec62784904ff31cbcc32d09932a58e7f1e4476e1d041995b37c917990b16dc5490565b61053f7f29f7fcd4fe2517c1963807a1ec27b0e45e67c60a874d5eeac7a0b1ab1bb8444782610d1e565b600082820183811015610c1f576040805162461bcd60e51b815260206004820152601b60248201527f536166654d6174683a206164646974696f6e206f766572666c6f770000000000604482015290519081900360640190fd5b9392505050565b61053f7f414c5263b05428f1be1bfa98e25407cc78dd031d0d3cd2a2e3d63b488804f22e82610d1e565b6000610c5b826109c8565b60011492915050565b7fa7ec62784904ff31cbcc32d09932a58e7f1e4476e1d041995b37c917990b16dc55565b600054610100900460ff1680610ca15750610ca16109cc565b80610caf575060005460ff16155b610cea5760405162461bcd60e51b815260040180806020018281038252602e815260200180610d3e602e913960400191505060405180910390fd5b600054610100900460ff16158015610d15576000805460ff1961ff0019909116610100171660011790555b6108f382610c64565b9055565b6109058282610d32576000610d35565b60015b60ff16610d1e56fe436f6e747261637420696e7374616e63652068617320616c7265616479206265656e20696e697469616c697a6564a265627a7a72315820684bc10e5643895f4f394e2da639a5131c62fbf5f0783f20b89ca7a5fcfc677e64736f6c63430005100032656970313936372e737472617465677953746f726167652e70726f66697453686172696e6744656e6f6d696e61746f72656970313936372e737472617465677953746f726167652e6e657874496d706c656d656e746174696f6e656970313936372e737472617465677953746f726167652e726577617264506f6f6c656970313936372e737472617465677953746f726167652e6e657874496d706c656d656e746174696f6e54696d657374616d70656970313936372e737472617465677953746f726167652e6e657874496d706c656d656e746174696f6e44656c6179656970313936372e737472617465677953746f726167652e706175736564496e76657374696e67656970313936372e737472617465677953746f726167652e756e6465726c79696e67656970313936372e737472617465677953746f726167652e73656c6c466c6f6f72656970313936372e737472617465677953746f726167652e726577617264546f6b656e656970313936372e737472617465677953746f726167652e70726f66697453686172696e674e756d657261746f72",
  "source": "pragma solidity 0.5.16;\n\nimport \"@openzeppelin/upgrades/contracts/Initializable.sol\";\nimport \"./BaseUpgradeableStrategyStorage.sol\";\nimport \"../../ControllableInit.sol\";\nimport \"../../hardworkInterface/IController.sol\";\nimport \"@openzeppelin/contracts/token/ERC20/IERC20.sol\";\nimport \"@openzeppelin/contracts/math/SafeMath.sol\";\nimport \"@openzeppelin/contracts/token/ERC20/SafeERC20.sol\";\n\ncontract BaseUpgradeableStrategy is Initializable, ControllableInit, BaseUpgradeableStrategyStorage {\n  using SafeMath for uint256;\n  using SafeERC20 for IERC20;\n\n  event ProfitsNotCollected(bool sell, bool floor);\n  event ProfitLogInReward(uint256 profitAmount, uint256 feeAmount, uint256 timestamp);\n\n  modifier restricted() {\n    require(msg.sender == vault() || msg.sender == controller()\n      || msg.sender == governance(),\n      \"The sender has to be the controller, governance, or vault\");\n    _;\n  }\n\n  // This is only used in `investAllUnderlying()`\n  // The user can still freely withdraw from the strategy\n  modifier onlyNotPausedInvesting() {\n    require(!pausedInvesting(), \"Action blocked as the strategy is in emergency state\");\n    _;\n  }\n\n  constructor() public BaseUpgradeableStrategyStorage() {\n  }\n\n  function initialize(\n    address _storage,\n    address _underlying,\n    address _vault,\n    address _rewardPool,\n    address _rewardToken,\n    uint256 _profitSharingNumerator,\n    uint256 _profitSharingDenominator,\n    bool _sell,\n    uint256 _sellFloor,\n    uint256 _implementationChangeDelay\n  ) public initializer {\n    ControllableInit.initialize(\n      _storage\n    );\n    _setUnderlying(_underlying);\n    _setVault(_vault);\n    _setRewardPool(_rewardPool);\n    _setRewardToken(_rewardToken);\n    _setProfitSharingNumerator(_profitSharingNumerator);\n    _setProfitSharingDenominator(_profitSharingDenominator);\n\n    _setSell(_sell);\n    _setSellFloor(_sellFloor);\n    _setNextImplementationDelay(_implementationChangeDelay);\n    _setPausedInvesting(false);\n  }\n\n  /**\n  * Schedules an upgrade for this vault's proxy.\n  */\n  function scheduleUpgrade(address impl) public onlyGovernance {\n    _setNextImplementation(impl);\n    _setNextImplementationTimestamp(block.timestamp.add(nextImplementationDelay()));\n  }\n\n  function _finalizeUpgrade() internal {\n    _setNextImplementation(address(0));\n    _setNextImplementationTimestamp(0);\n  }\n\n  function shouldUpgrade() external view returns (bool, address) {\n    return (\n      nextImplementationTimestamp() != 0\n        && block.timestamp > nextImplementationTimestamp()\n        && nextImplementation() != address(0),\n      nextImplementation()\n    );\n  }\n\n  // reward notification\n\n  function notifyProfitInRewardToken(uint256 _rewardBalance) internal {\n    if( _rewardBalance > 0 ){\n      uint256 feeAmount = _rewardBalance.mul(profitSharingNumerator()).div(profitSharingDenominator());\n      emit ProfitLogInReward(_rewardBalance, feeAmount, block.timestamp);\n      IERC20(rewardToken()).safeApprove(controller(), 0);\n      IERC20(rewardToken()).safeApprove(controller(), feeAmount);\n\n      IController(controller()).notifyFee(\n        rewardToken(),\n        feeAmount\n      );\n    } else {\n      emit ProfitLogInReward(0, 0, block.timestamp);\n    }\n  }\n}\n",
  "sourcePath": "/home/madhav/Vaults/contracts/strategies/upgradability/BaseUpgradeableStrategy.sol",
  "compiler": {
    "name": "solc",
    "version": "0.5.16+commit.9c3226ce.Emscripten.clang"
  },
  "schemaVersion": "3.2.5",
  "updatedAt": "2020-12-05T16:27:35.069Z",
  "devdoc": {
    "methods": {}
  },
  "userdoc": {
    "methods": {
      "scheduleUpgrade(address)": {
        "notice": "Schedules an upgrade for this vault's proxy."
      }
    }
  }
}