{
  "contractName": "CompoundWETHFoldStrategy",
  "abi": [
    {
      "inputs": [
        {
          "internalType": "address",
          "name": "_storage",
          "type": "address"
        },
        {
          "internalType": "address",
          "name": "_underlying",
          "type": "address"
        },
        {
          "internalType": "address",
          "name": "_ctoken",
          "type": "address"
        },
        {
          "internalType": "address",
          "name": "_vault",
          "type": "address"
        },
        {
          "internalType": "address",
          "name": "_comptroller",
          "type": "address"
        },
        {
          "internalType": "address",
          "name": "_comp",
          "type": "address"
        },
        {
          "internalType": "address",
          "name": "_uniswap",
          "type": "address"
        }
      ],
      "payable": false,
      "stateMutability": "nonpayable",
      "type": "constructor"
    },
    {
      "anonymous": false,
      "inputs": [
        {
          "indexed": false,
          "internalType": "uint256",
          "name": "amount",
          "type": "uint256"
        }
      ],
      "name": "Liquidated",
      "type": "event"
    },
    {
      "anonymous": false,
      "inputs": [
        {
          "indexed": false,
          "internalType": "uint256",
          "name": "profitAmount",
          "type": "uint256"
        },
        {
          "indexed": false,
          "internalType": "uint256",
          "name": "feeAmount",
          "type": "uint256"
        },
        {
          "indexed": false,
          "internalType": "uint256",
          "name": "timestamp",
          "type": "uint256"
        }
      ],
      "name": "ProfitLogInReward",
      "type": "event"
    },
    {
      "anonymous": false,
      "inputs": [],
      "name": "ProfitNotClaimed",
      "type": "event"
    },
    {
      "anonymous": false,
      "inputs": [],
      "name": "TooLowBalance",
      "type": "event"
    },
    {
      "payable": true,
      "stateMutability": "payable",
      "type": "fallback"
    },
    {
      "constant": true,
      "inputs": [],
      "name": "_weth",
      "outputs": [
        {
          "internalType": "contract IERC20",
          "name": "",
          "type": "address"
        }
      ],
      "payable": false,
      "stateMutability": "view",
      "type": "function"
    },
    {
      "constant": true,
      "inputs": [],
      "name": "allowEmergencyLiquidityShortage",
      "outputs": [
        {
          "internalType": "bool",
          "name": "",
          "type": "bool"
        }
      ],
      "payable": false,
      "stateMutability": "view",
      "type": "function"
    },
    {
      "constant": true,
      "inputs": [],
      "name": "borrowMinThreshold",
      "outputs": [
        {
          "internalType": "uint256",
          "name": "",
          "type": "uint256"
        }
      ],
      "payable": false,
      "stateMutability": "view",
      "type": "function"
    },
    {
      "constant": true,
      "inputs": [],
      "name": "borrowedInUnderlying",
      "outputs": [
        {
          "internalType": "uint256",
          "name": "",
          "type": "uint256"
        }
      ],
      "payable": false,
      "stateMutability": "view",
      "type": "function"
    },
    {
      "constant": false,
      "inputs": [],
      "name": "claimComp",
      "outputs": [],
      "payable": false,
      "stateMutability": "nonpayable",
      "type": "function"
    },
    {
      "constant": true,
      "inputs": [],
      "name": "collateralFactorDenominator",
      "outputs": [
        {
          "internalType": "uint256",
          "name": "",
          "type": "uint256"
        }
      ],
      "payable": false,
      "stateMutability": "view",
      "type": "function"
    },
    {
      "constant": true,
      "inputs": [],
      "name": "collateralFactorNumerator",
      "outputs": [
        {
          "internalType": "uint256",
          "name": "",
          "type": "uint256"
        }
      ],
      "payable": false,
      "stateMutability": "view",
      "type": "function"
    },
    {
      "constant": true,
      "inputs": [],
      "name": "comp",
      "outputs": [
        {
          "internalType": "contract ERC20Detailed",
          "name": "",
          "type": "address"
        }
      ],
      "payable": false,
      "stateMutability": "view",
      "type": "function"
    },
    {
      "constant": true,
      "inputs": [],
      "name": "comptroller",
      "outputs": [
        {
          "internalType": "contract ComptrollerInterface",
          "name": "",
          "type": "address"
        }
      ],
      "payable": false,
      "stateMutability": "view",
      "type": "function"
    },
    {
      "constant": true,
      "inputs": [],
      "name": "controller",
      "outputs": [
        {
          "internalType": "address",
          "name": "",
          "type": "address"
        }
      ],
      "payable": false,
      "stateMutability": "view",
      "type": "function"
    },
    {
      "constant": true,
      "inputs": [],
      "name": "ctoken",
      "outputs": [
        {
          "internalType": "contract CompleteCToken",
          "name": "",
          "type": "address"
        }
      ],
      "payable": false,
      "stateMutability": "view",
      "type": "function"
    },
    {
      "constant": true,
      "inputs": [],
      "name": "folds",
      "outputs": [
        {
          "internalType": "uint256",
          "name": "",
          "type": "uint256"
        }
      ],
      "payable": false,
      "stateMutability": "view",
      "type": "function"
    },
    {
      "constant": true,
      "inputs": [],
      "name": "getLiquidity",
      "outputs": [
        {
          "internalType": "uint256",
          "name": "",
          "type": "uint256"
        }
      ],
      "payable": false,
      "stateMutability": "view",
      "type": "function"
    },
    {
      "constant": true,
      "inputs": [],
      "name": "governance",
      "outputs": [
        {
          "internalType": "address",
          "name": "",
          "type": "address"
        }
      ],
      "payable": false,
      "stateMutability": "view",
      "type": "function"
    },
    {
      "constant": true,
      "inputs": [],
      "name": "liquidationAllowed",
      "outputs": [
        {
          "internalType": "bool",
          "name": "",
          "type": "bool"
        }
      ],
      "payable": false,
      "stateMutability": "view",
      "type": "function"
    },
    {
      "constant": true,
      "inputs": [],
      "name": "liquidityLoanCurrent",
      "outputs": [
        {
          "internalType": "uint256",
          "name": "",
          "type": "uint256"
        }
      ],
      "payable": false,
      "stateMutability": "view",
      "type": "function"
    },
    {
      "constant": true,
      "inputs": [],
      "name": "liquidityLoanTarget",
      "outputs": [
        {
          "internalType": "uint256",
          "name": "",
          "type": "uint256"
        }
      ],
      "payable": false,
      "stateMutability": "view",
      "type": "function"
    },
    {
      "constant": true,
      "inputs": [],
      "name": "liquidityRecipient",
      "outputs": [
        {
          "internalType": "address",
          "name": "",
          "type": "address"
        }
      ],
      "payable": false,
      "stateMutability": "view",
      "type": "function"
    },
    {
      "constant": true,
      "inputs": [],
      "name": "profitSharingDenominator",
      "outputs": [
        {
          "internalType": "uint256",
          "name": "",
          "type": "uint256"
        }
      ],
      "payable": false,
      "stateMutability": "view",
      "type": "function"
    },
    {
      "constant": true,
      "inputs": [],
      "name": "profitSharingNumerator",
      "outputs": [
        {
          "internalType": "uint256",
          "name": "",
          "type": "uint256"
        }
      ],
      "payable": false,
      "stateMutability": "view",
      "type": "function"
    },
    {
      "constant": true,
      "inputs": [],
      "name": "rewardToken",
      "outputs": [
        {
          "internalType": "address",
          "name": "",
          "type": "address"
        }
      ],
      "payable": false,
      "stateMutability": "view",
      "type": "function"
    },
    {
      "constant": true,
      "inputs": [],
      "name": "sellFloor",
      "outputs": [
        {
          "internalType": "uint256",
          "name": "",
          "type": "uint256"
        }
      ],
      "payable": false,
      "stateMutability": "view",
      "type": "function"
    },
    {
      "constant": false,
      "inputs": [
        {
          "internalType": "address",
          "name": "_store",
          "type": "address"
        }
      ],
      "name": "setStorage",
      "outputs": [],
      "payable": false,
      "stateMutability": "nonpayable",
      "type": "function"
    },
    {
      "constant": true,
      "inputs": [],
      "name": "store",
      "outputs": [
        {
          "internalType": "contract Storage",
          "name": "",
          "type": "address"
        }
      ],
      "payable": false,
      "stateMutability": "view",
      "type": "function"
    },
    {
      "constant": true,
      "inputs": [],
      "name": "suppliedInUnderlying",
      "outputs": [
        {
          "internalType": "uint256",
          "name": "",
          "type": "uint256"
        }
      ],
      "payable": false,
      "stateMutability": "view",
      "type": "function"
    },
    {
      "constant": true,
      "inputs": [],
      "name": "tenWeth",
      "outputs": [
        {
          "internalType": "uint256",
          "name": "",
          "type": "uint256"
        }
      ],
      "payable": false,
      "stateMutability": "view",
      "type": "function"
    },
    {
      "constant": true,
      "inputs": [],
      "name": "underlying",
      "outputs": [
        {
          "internalType": "contract ERC20Detailed",
          "name": "",
          "type": "address"
        }
      ],
      "payable": false,
      "stateMutability": "view",
      "type": "function"
    },
    {
      "constant": true,
      "inputs": [],
      "name": "uniswapRouterV2",
      "outputs": [
        {
          "internalType": "address",
          "name": "",
          "type": "address"
        }
      ],
      "payable": false,
      "stateMutability": "view",
      "type": "function"
    },
    {
      "constant": true,
      "inputs": [
        {
          "internalType": "address",
          "name": "",
          "type": "address"
        }
      ],
      "name": "unsalvagableTokens",
      "outputs": [
        {
          "internalType": "bool",
          "name": "",
          "type": "bool"
        }
      ],
      "payable": false,
      "stateMutability": "view",
      "type": "function"
    },
    {
      "constant": true,
      "inputs": [],
      "name": "vault",
      "outputs": [
        {
          "internalType": "address",
          "name": "",
          "type": "address"
        }
      ],
      "payable": false,
      "stateMutability": "view",
      "type": "function"
    },
    {
      "constant": true,
      "inputs": [],
      "name": "depositArbCheck",
      "outputs": [
        {
          "internalType": "bool",
          "name": "",
          "type": "bool"
        }
      ],
      "payable": false,
      "stateMutability": "view",
      "type": "function"
    },
    {
      "constant": false,
      "inputs": [],
      "name": "investAllUnderlying",
      "outputs": [],
      "payable": false,
      "stateMutability": "nonpayable",
      "type": "function"
    },
    {
      "constant": false,
      "inputs": [],
      "name": "withdrawAllToVault",
      "outputs": [],
      "payable": false,
      "stateMutability": "nonpayable",
      "type": "function"
    },
    {
      "constant": false,
      "inputs": [],
      "name": "emergencyExit",
      "outputs": [],
      "payable": false,
      "stateMutability": "nonpayable",
      "type": "function"
    },
    {
      "constant": false,
      "inputs": [
        {
          "internalType": "uint256",
          "name": "amountUnderlying",
          "type": "uint256"
        }
      ],
      "name": "withdrawToVault",
      "outputs": [],
      "payable": false,
      "stateMutability": "nonpayable",
      "type": "function"
    },
    {
      "constant": false,
      "inputs": [],
      "name": "doHardWork",
      "outputs": [],
      "payable": false,
      "stateMutability": "nonpayable",
      "type": "function"
    },
    {
      "constant": false,
      "inputs": [
        {
          "internalType": "address",
          "name": "recipient",
          "type": "address"
        },
        {
          "internalType": "address",
          "name": "token",
          "type": "address"
        },
        {
          "internalType": "uint256",
          "name": "amount",
          "type": "uint256"
        }
      ],
      "name": "salvage",
      "outputs": [],
      "payable": false,
      "stateMutability": "nonpayable",
      "type": "function"
    },
    {
      "constant": true,
      "inputs": [],
      "name": "investedUnderlyingBalance",
      "outputs": [
        {
          "internalType": "uint256",
          "name": "",
          "type": "uint256"
        }
      ],
      "payable": false,
      "stateMutability": "view",
      "type": "function"
    },
    {
      "constant": false,
      "inputs": [
        {
          "internalType": "bool",
          "name": "allowed",
          "type": "bool"
        }
      ],
      "name": "setLiquidationAllowed",
      "outputs": [],
      "payable": false,
      "stateMutability": "nonpayable",
      "type": "function"
    },
    {
      "constant": false,
      "inputs": [
        {
          "internalType": "bool",
          "name": "allowed",
          "type": "bool"
        }
      ],
      "name": "setAllowLiquidityShortage",
      "outputs": [],
      "payable": false,
      "stateMutability": "nonpayable",
      "type": "function"
    },
    {
      "constant": false,
      "inputs": [
        {
          "internalType": "uint256",
          "name": "value",
          "type": "uint256"
        }
      ],
      "name": "setSellFloor",
      "outputs": [],
      "payable": false,
      "stateMutability": "nonpayable",
      "type": "function"
    },
    {
      "constant": false,
      "inputs": [],
      "name": "provideLoan",
      "outputs": [],
      "payable": false,
      "stateMutability": "nonpayable",
      "type": "function"
    },
    {
      "constant": false,
      "inputs": [
        {
          "internalType": "uint256",
          "name": "amount",
          "type": "uint256"
        }
      ],
      "name": "settleLoan",
      "outputs": [],
      "payable": false,
      "stateMutability": "nonpayable",
      "type": "function"
    },
    {
      "constant": false,
      "inputs": [
        {
          "internalType": "address",
          "name": "recipient",
          "type": "address"
        }
      ],
      "name": "setLiquidityRecipient",
      "outputs": [],
      "payable": false,
      "stateMutability": "nonpayable",
      "type": "function"
    },
    {
      "constant": false,
      "inputs": [
        {
          "internalType": "uint256",
          "name": "threshold",
          "type": "uint256"
        }
      ],
      "name": "setBorrowMinThreshold",
      "outputs": [],
      "payable": false,
      "stateMutability": "nonpayable",
      "type": "function"
    },
    {
      "constant": false,
      "inputs": [
        {
          "internalType": "uint256",
          "name": "numerator",
          "type": "uint256"
        }
      ],
      "name": "setCollateralFactorNumerator",
      "outputs": [],
      "payable": false,
      "stateMutability": "nonpayable",
      "type": "function"
    },
    {
      "constant": false,
      "inputs": [
        {
          "internalType": "uint256",
          "name": "target",
          "type": "uint256"
        }
      ],
      "name": "setLiquidityLoanTarget",
      "outputs": [],
      "payable": false,
      "stateMutability": "nonpayable",
      "type": "function"
    },
    {
      "constant": false,
      "inputs": [
        {
          "internalType": "uint256",
          "name": "_folds",
          "type": "uint256"
        }
      ],
      "name": "setFolds",
      "outputs": [],
      "payable": false,
      "stateMutability": "nonpayable",
      "type": "function"
    }
  ],
  "bytecode": "0x6080604052600580546001600160a01b03191673c02aaa39b223fe8d0a0e5c4f27ead9083c756cc21790556010805460ff19908116600117909155600060118190556012805490921690915560646013556103e860145560158190556019553480156200006b57600080fd5b5060405162003ff838038062003ff8833981810160405260e08110156200009157600080fd5b508051602082015160408301516060840151608085015160a086015160c0909601519495939492939192909190858584898581806001600160a01b03811662000121576040805162461bcd60e51b815260206004820152601e60248201527f6e65772073746f726167652073686f756c646e277420626520656d7074790000604482015290519081900360640190fd5b600080546001600160a01b039283166001600160a01b03199182161790915560038054601e60019081556064600255600160a01b60ff60a01b1997861692851692909217969096161790556007805482168784161790556004805482168984161790556006805490911691871691909117905550604080518281528082019091526060925090602080830190803883390190505090508281600081518110620001c657fe5b6001600160a01b03928316602091820292909201810191909152600754604051631853304760e31b815260048101838152855160248301528551929094169363c299823893869391928392604490910191858101910280838360005b838110156200023c57818101518382015260200162000222565b5050505090500192505050600060405180830381600087803b1580156200026257600080fd5b505af115801562000277573d6000803e3d6000fd5b505050506040513d6000823e601f3d908101601f191682016040526020811015620002a157600080fd5b8101908080516040519392919084640100000000821115620002c257600080fd5b908301906020820185811115620002d857600080fd5b8251866020820283011164010000000082111715620002f657600080fd5b82525081516020918201928201910280838360005b83811015620003255781810151838201526020016200030b565b505050509050016040525050505050505050856001600160a01b0316846001600160a01b0316636f307dc36040518163ffffffff1660e01b815260040160206040518083038186803b1580156200037b57600080fd5b505afa15801562000390573d6000803e3d6000fd5b505050506040513d6020811015620003a757600080fd5b50516001600160a01b031614620003f05760405162461bcd60e51b815260040180806020018281038252602181526020018062003fd76021913960400191505060405180910390fd5b600a80546001600160a01b03199081166001600160a01b0395861617909155600c80548216938516938417905560088054821697851697881790556009805482169685169687179055600b8054821695851695909517909455600d80549094169216919091179091556000928352601a6020526040808420805460ff199081166001908117909255938552818520805485168217905591845283208054909216179055613b3291508190620004a590396000f3fe6080604052600436106102935760003560e01c8063627c96ca1161015a578063bde10bcb116100c1578063d47749d71161007a578063d47749d71461077d578063d610101b146107a7578063f48d0c4a146107bc578063f77c4791146107d1578063f7c618c1146107e6578063fbfa77cf146107fb57610293565b8063bde10bcb146106c0578063bfd131f1146106ea578063c2a2a07b146106ff578063c739d3e414610714578063ccf3eb9f1461073e578063ce8c42e81461075357610293565b8063a176459511610113578063a17645951461062d578063a1dab23e14610642578063b5d7a94f14610657578063b60f151a1461066c578063ba09591e14610681578063bbfb2007146106ab57610293565b8063627c96ca1461057c5780636f307dc3146105915780637f09d3f3146105a65780639137c1a7146105d05780639642a65f14610603578063975057e71461061857610293565b806345d01e4a116101fe578063588cfb84116101b7578063588cfb84146104e7578063596fa9e3146104fc5780635976317f146105115780635aa6e6751461053d5780635fe3b56714610552578063622377491461056757610293565b806345d01e4a1461044b5780634a8cfa69146104605780634fa5d85414610475578063501859461461048a57806355b9b4a8146104bd5780635641ec03146104d257610293565b8063215677c211610250578063215677c21461038357806327e4d202146103985780632c040845146103c2578063373aff7f146103d75780633b3085791461040a5780633fd8cd981461041f57610293565b8063026a0dd0146102955780630910a510146102bc57806309e5f66c146102d1578063109d0af8146102fa5780631113ef521461032b5780631bd85bdb1461036e575b005b3480156102a157600080fd5b506102aa610810565b60408051918252519081900360200190f35b3480156102c857600080fd5b506102aa610816565b3480156102dd57600080fd5b506102e661088c565b604080519115158252519081900360200190f35b34801561030657600080fd5b5061030f610895565b604080516001600160a01b039092168252519081900360200190f35b34801561033757600080fd5b506102936004803603606081101561034e57600080fd5b506001600160a01b038135811691602081013590911690604001356108a4565b34801561037a57600080fd5b506102936109d4565b34801561038f57600080fd5b506102aa610a3a565b3480156103a457600080fd5b50610293600480360360208110156103bb57600080fd5b5035610a46565b3480156103ce57600080fd5b506102aa610b04565b3480156103e357600080fd5b50610293600480360360208110156103fa57600080fd5b50356001600160a01b0316610b0a565b34801561041657600080fd5b506102aa610c38565b34801561042b57600080fd5b506102936004803603602081101561044257600080fd5b50351515610c3e565b34801561045757600080fd5b506102aa610ce0565b34801561046c57600080fd5b50610293610d9c565b34801561048157600080fd5b50610293611075565b34801561049657600080fd5b506102e6600480360360208110156104ad57600080fd5b50356001600160a01b0316611158565b3480156104c957600080fd5b506102aa61116d565b3480156104de57600080fd5b50610293611173565b3480156104f357600080fd5b506102aa611281565b34801561050857600080fd5b5061030f611287565b34801561051d57600080fd5b506102936004803603602081101561053457600080fd5b50351515611296565b34801561054957600080fd5b5061030f611338565b34801561055e57600080fd5b5061030f611387565b34801561057357600080fd5b506102aa611396565b34801561058857600080fd5b506102aa61139c565b34801561059d57600080fd5b5061030f6113a2565b3480156105b257600080fd5b50610293600480360360208110156105c957600080fd5b50356113b1565b3480156105dc57600080fd5b50610293600480360360208110156105f357600080fd5b50356001600160a01b0316611695565b34801561060f57600080fd5b5061030f6117cb565b34801561062457600080fd5b5061030f6117da565b34801561063957600080fd5b5061030f6117e9565b34801561064e57600080fd5b506102aa6117f8565b34801561066357600080fd5b506102aa6117fe565b34801561067857600080fd5b506102aa611804565b34801561068d57600080fd5b50610293600480360360208110156106a457600080fd5b503561180a565b3480156106b757600080fd5b5061029361189e565b3480156106cc57600080fd5b50610293600480360360208110156106e357600080fd5b5035611b69565b3480156106f657600080fd5b50610293611c27565b34801561070b57600080fd5b506102e6611deb565b34801561072057600080fd5b506102936004803603602081101561073757600080fd5b5035611df0565b34801561074a57600080fd5b5061030f611eef565b34801561075f57600080fd5b506102936004803603602081101561077657600080fd5b5035611efe565b34801561078957600080fd5b50610293600480360360208110156107a057600080fd5b5035612066565b3480156107b357600080fd5b506102aa612124565b3480156107c857600080fd5b506102e661212a565b3480156107dd57600080fd5b5061030f612133565b3480156107f257600080fd5b5061030f612182565b34801561080757600080fd5b5061030f612191565b60025481565b60065460408051631d8e90d160e11b815290516000926001600160a01b031691633b1d21a2916004808301926020929190829003018186803b15801561085b57600080fd5b505afa15801561086f573d6000803e3d6000fd5b505050506040513d602081101561088557600080fd5b5051905090565b60105460ff1681565b600c546001600160a01b031681565b600054604080516337b87c3960e21b815233600482015290516001600160a01b039092169163dee1f0e491602480820192602092909190829003018186803b1580156108ef57600080fd5b505afa158015610903573d6000803e3d6000fd5b505050506040513d602081101561091957600080fd5b505161095d576040805162461bcd60e51b815260206004820152600e60248201526d4e6f7420676f7665726e616e636560901b604482015290519081900360640190fd5b6001600160a01b0382166000908152601a602052604090205460ff16156109b55760405162461bcd60e51b81526004018080602001828103825260228152602001806139356022913960400191505060405180910390fd5b6109cf6001600160a01b038316848363ffffffff6121a016565b505050565b600754604080516374d7814960e11b815230600482015290516001600160a01b039092169163e9af02929160248082019260009290919082900301818387803b158015610a2057600080fd5b505af1158015610a34573d6000803e3d6000fd5b50505050565b678ac7230489e8000081565b600054604080516337b87c3960e21b815233600482015290516001600160a01b039092169163dee1f0e491602480820192602092909190829003018186803b158015610a9157600080fd5b505afa158015610aa5573d6000803e3d6000fd5b505050506040513d6020811015610abb57600080fd5b5051610aff576040805162461bcd60e51b815260206004820152600e60248201526d4e6f7420676f7665726e616e636560901b604482015290519081900360640190fd5b601855565b60195481565b600054604080516337b87c3960e21b815233600482015290516001600160a01b039092169163dee1f0e491602480820192602092909190829003018186803b158015610b5557600080fd5b505afa158015610b69573d6000803e3d6000fd5b505050506040513d6020811015610b7f57600080fd5b5051610bc3576040805162461bcd60e51b815260206004820152600e60248201526d4e6f7420676f7665726e616e636560901b604482015290519081900360640190fd5b6016546001600160a01b03161580610bdb5750601754155b610c165760405162461bcd60e51b81526004018080602001828103825260338152602001806139a86033913960400191505060405180910390fd5b601680546001600160a01b0319166001600160a01b0392909216919091179055565b60175481565b600b546001600160a01b0316331480610c6f5750610c5a612133565b6001600160a01b0316336001600160a01b0316145b80610c925750610c7d611338565b6001600160a01b0316336001600160a01b0316145b610ccd5760405162461bcd60e51b815260040180806020018281038252602c81526020018061397c602c913960400191505060405180910390fd5b6012805460ff1916911515919091179055565b601754600f54600e54600854604080516370a0823160e01b81523060048201529051600095610d97959094610d8b949193610d7f9391926001600160a01b0316916370a0823191602480820192602092909190829003018186803b158015610d4757600080fd5b505afa158015610d5b573d6000803e3d6000fd5b505050506040513d6020811015610d7157600080fd5b50519063ffffffff6121f216565b9063ffffffff61225516565b9063ffffffff6121f216565b905090565b600b546001600160a01b0316331480610dcd5750610db8612133565b6001600160a01b0316336001600160a01b0316145b80610df05750610ddb611338565b6001600160a01b0316336001600160a01b0316145b610e2b5760405162461bcd60e51b815260040180806020018281038252602c81526020018061397c602c913960400191505060405180910390fd5b600854604080516370a0823160e01b815230600482015290516000926001600160a01b0316916370a08231916024808301926020929190829003018186803b158015610e7657600080fd5b505afa158015610e8a573d6000803e3d6000fd5b505050506040513d6020811015610ea057600080fd5b50519050610ead81612297565b60005b601554811015610f79576000610ee3601454610ed76013548661247190919063ffffffff16565b9063ffffffff6124ca16565b9050610eee8161250c565b600854604080516370a0823160e01b815230600482015290516001600160a01b03909216916370a0823191602480820192602092909190829003018186803b158015610f3957600080fd5b505afa158015610f4d573d6000803e3d6000fd5b505050506040513d6020811015610f6357600080fd5b50519250610f7083612297565b50600101610eb0565b505060095460408051633af9e66960e01b815230600482015290516001600160a01b0390921691633af9e669916024808201926020929091908290030181600087803b158015610fc857600080fd5b505af1158015610fdc573d6000803e3d6000fd5b505050506040513d6020811015610ff257600080fd5b5051600e55600954604080516305eff7ef60e21b815230600482015290516001600160a01b03909216916317bfdfbc916024808201926020929091908290030181600087803b15801561104457600080fd5b505af1158015611058573d6000803e3d6000fd5b505050506040513d602081101561106e57600080fd5b5051600f55565b600b546001600160a01b03163314806110a65750611091612133565b6001600160a01b0316336001600160a01b0316145b806110c957506110b4611338565b6001600160a01b0316336001600160a01b0316145b6111045760405162461bcd60e51b815260040180806020018281038252602c81526020018061397c602c913960400191505060405180910390fd5b60105460ff1615611124576111176109d4565b61111f612632565b61114e565b6040517f6e180aeefd7fd43a105253e3c10a794670b4c6ef64e8a4d8879de77cfb09d61290600090a15b611156610d9c565b565b601a6020526000908152604090205460ff1681565b60185481565b600054604080516337b87c3960e21b815233600482015290516001600160a01b039092169163dee1f0e491602480820192602092909190829003018186803b1580156111be57600080fd5b505afa1580156111d2573d6000803e3d6000fd5b505050506040513d60208110156111e857600080fd5b505161122c576040805162461bcd60e51b815260206004820152600e60248201526d4e6f7420676f7665726e616e636560901b604482015290519081900360640190fd5b611234612a5d565b60095460408051633af9e66960e01b815230600482015290516001600160a01b0390921691633af9e669916024808201926020929091908290030181600087803b158015610fc857600080fd5b60155481565b600d546001600160a01b031681565b600b546001600160a01b03163314806112c757506112b2612133565b6001600160a01b0316336001600160a01b0316145b806112ea57506112d5611338565b6001600160a01b0316336001600160a01b0316145b6113255760405162461bcd60e51b815260040180806020018281038252602c81526020018061397c602c913960400191505060405180910390fd5b6010805460ff1916911515919091179055565b60008060009054906101000a90046001600160a01b03166001600160a01b0316635aa6e6756040518163ffffffff1660e01b815260040160206040518083038186803b15801561085b57600080fd5b600a546001600160a01b031681565b60145481565b600f5481565b6008546001600160a01b031681565b6017546113cc90678ac7230489e8000063ffffffff6121f216565b6113d4610ce0565b1115806113f957506113e4611338565b6001600160a01b0316336001600160a01b0316145b6114345760405162461bcd60e51b815260040180806020018281038252602e8152602001806139db602e913960400191505060405180910390fd5b32331461147d576040805162461bcd60e51b81526020600482015260126024820152716e6f20736d61727420636f6e74726163747360701b604482015290519081900360640190fd5b6017546114895761159a565b601660009054906101000a90046001600160a01b03166001600160a01b0316636527ba5c6040518163ffffffff1660e01b8152600401600060405180830381600087803b1580156114d957600080fd5b505af11580156114ed573d6000803e3d6000fd5b505060165460085461151593506001600160a01b03908116925016308463ffffffff612aaf16565b601754611528908263ffffffff61225516565b601781905561159a57601660009054906101000a90046001600160a01b03166001600160a01b031663cfc9b68c6040518163ffffffff1660e01b8152600401600060405180830381600087803b15801561158157600080fd5b505af1158015611595573d6000803e3d6000fd5b505050505b60095460408051633af9e66960e01b815230600482015290516001600160a01b0390921691633af9e669916024808201926020929091908290030181600087803b1580156115e757600080fd5b505af11580156115fb573d6000803e3d6000fd5b505050506040513d602081101561161157600080fd5b5051600e55600954604080516305eff7ef60e21b815230600482015290516001600160a01b03909216916317bfdfbc916024808201926020929091908290030181600087803b15801561166357600080fd5b505af1158015611677573d6000803e3d6000fd5b505050506040513d602081101561168d57600080fd5b5051600f5550565b600054604080516337b87c3960e21b815233600482015290516001600160a01b039092169163dee1f0e491602480820192602092909190829003018186803b1580156116e057600080fd5b505afa1580156116f4573d6000803e3d6000fd5b505050506040513d602081101561170a57600080fd5b505161174e576040805162461bcd60e51b815260206004820152600e60248201526d4e6f7420676f7665726e616e636560901b604482015290519081900360640190fd5b6001600160a01b0381166117a9576040805162461bcd60e51b815260206004820152601e60248201527f6e65772073746f726167652073686f756c646e277420626520656d7074790000604482015290519081900360640190fd5b600080546001600160a01b0319166001600160a01b0392909216919091179055565b6016546001600160a01b031681565b6000546001600160a01b031681565b6005546001600160a01b031681565b60115481565b60135481565b60015481565b600b546001600160a01b031633148061183b5750611826612133565b6001600160a01b0316336001600160a01b0316145b8061185e5750611849611338565b6001600160a01b0316336001600160a01b0316145b6118995760405162461bcd60e51b815260040180806020018281038252602c81526020018061397c602c913960400191505060405180910390fd5b601155565b600054604080516337b87c3960e21b815233600482015290516001600160a01b039092169163dee1f0e491602480820192602092909190829003018186803b1580156118e957600080fd5b505afa1580156118fd573d6000803e3d6000fd5b505050506040513d602081101561191357600080fd5b5051611957576040805162461bcd60e51b815260206004820152600e60248201526d4e6f7420676f7665726e616e636560901b604482015290519081900360640190fd5b61195f612a5d565b6018546017541080156119e65750600854604080516370a0823160e01b815230600482015290516000926001600160a01b0316916370a08231916024808301926020929190829003018186803b1580156119b857600080fd5b505afa1580156119cc573d6000803e3d6000fd5b505050506040513d60208110156119e257600080fd5b5051115b80156119fc57506016546001600160a01b031615155b15611b61576000611a99611a1d60175460185461225590919063ffffffff16565b600854604080516370a0823160e01b815230600482015290516001600160a01b03909216916370a0823191602480820192602092909190829003018186803b158015611a6857600080fd5b505afa158015611a7c573d6000803e3d6000fd5b505050506040513d6020811015611a9257600080fd5b5051612b09565b601654600854919250611ac0916001600160a01b039081169116600063ffffffff612b1f16565b601654600854611ae3916001600160a01b0391821691168363ffffffff612b1f16565b601654604080516346401fe160e11b81526004810184905290516001600160a01b0390921691638c803fc29160248082019260009290919082900301818387803b158015611b3057600080fd5b505af1158015611b44573d6000803e3d6000fd5b5050601754611b5c925090508263ffffffff6121f216565b601755505b611234610d9c565b600054604080516337b87c3960e21b815233600482015290516001600160a01b039092169163dee1f0e491602480820192602092909190829003018186803b158015611bb457600080fd5b505afa158015611bc8573d6000803e3d6000fd5b505050506040513d6020811015611bde57600080fd5b5051611c22576040805162461bcd60e51b815260206004820152600e60248201526d4e6f7420676f7665726e616e636560901b604482015290519081900360640190fd5b601955565b600b546001600160a01b0316331480611c585750611c43612133565b6001600160a01b0316336001600160a01b0316145b80611c7b5750611c66611338565b6001600160a01b0316336001600160a01b0316145b611cb65760405162461bcd60e51b815260040180806020018281038252602c81526020018061397c602c913960400191505060405180910390fd5b60125460ff1615611cce57611cc9612a5d565b611cd6565b611cd6612c32565b600854604080516370a0823160e01b815230600482015290516000926001600160a01b0316916370a08231916024808301926020929190829003018186803b158015611d2157600080fd5b505afa158015611d35573d6000803e3d6000fd5b505050506040513d6020811015611d4b57600080fd5b5051111561123457600b54600854604080516370a0823160e01b81523060048201529051611234936001600160a01b039081169316916370a08231916024808301926020929190829003018186803b158015611da657600080fd5b505afa158015611dba573d6000803e3d6000fd5b505050506040513d6020811015611dd057600080fd5b50516008546001600160a01b0316919063ffffffff6121a016565b600190565b600054604080516337b87c3960e21b815233600482015290516001600160a01b039092169163dee1f0e491602480820192602092909190829003018186803b158015611e3b57600080fd5b505afa158015611e4f573d6000803e3d6000fd5b505050506040513d6020811015611e6557600080fd5b5051611ea9576040805162461bcd60e51b815260206004820152600e60248201526d4e6f7420676f7665726e616e636560901b604482015290519081900360640190fd5b6102e4811115611eea5760405162461bcd60e51b81526004018080602001828103825260258152602001806139576025913960400191505060405180910390fd5b601355565b6009546001600160a01b031681565b600b546001600160a01b0316331480611f2f5750611f1a612133565b6001600160a01b0316336001600160a01b0316145b80611f525750611f3d611338565b6001600160a01b0316336001600160a01b0316145b611f8d5760405162461bcd60e51b815260040180806020018281038252602c81526020018061397c602c913960400191505060405180910390fd5b600854604080516370a0823160e01b815230600482015290516001600160a01b03909216916370a0823191602480820192602092909190829003018186803b158015611fd857600080fd5b505afa158015611fec573d6000803e3d6000fd5b505050506040513d602081101561200257600080fd5b5051811161203257600b5460085461202d916001600160a01b0391821691168363ffffffff6121a016565b61159a565b61203b81612dc6565b600b5460085461205e916001600160a01b0391821691168363ffffffff6121a016565b61159a610d9c565b600054604080516337b87c3960e21b815233600482015290516001600160a01b039092169163dee1f0e491602480820192602092909190829003018186803b1580156120b157600080fd5b505afa1580156120c5573d6000803e3d6000fd5b505050506040513d60208110156120db57600080fd5b505161211f576040805162461bcd60e51b815260206004820152600e60248201526d4e6f7420676f7665726e616e636560901b604482015290519081900360640190fd5b601555565b600e5481565b60125460ff1681565b60008060009054906101000a90046001600160a01b03166001600160a01b031663f77c47916040518163ffffffff1660e01b815260040160206040518083038186803b15801561085b57600080fd5b6003546001600160a01b031681565b600b546001600160a01b031681565b604080516001600160a01b038416602482015260448082018490528251808303909101815260649091019091526020810180516001600160e01b031663a9059cbb60e01b1790526109cf908490612f31565b60008282018381101561224c576040805162461bcd60e51b815260206004820152601b60248201527f536166654d6174683a206164646974696f6e206f766572666c6f770000000000604482015290519081900360640190fd5b90505b92915050565b600061224c83836040518060400160405280601e81526020017f536166654d6174683a207375627472616374696f6e206f766572666c6f7700008152506130e9565b600354600160a01b900460ff166122f5576040805162461bcd60e51b815260206004820152601f60248201527f5265656e7472616e637947756172643a207265656e7472616e742063616c6c00604482015290519081900360640190fd5b6003805460ff60a01b1916905560048054604080516370a0823160e01b81523093810193909352516000926001600160a01b03909216916370a08231916024808301926020929190829003018186803b15801561235157600080fd5b505afa158015612365573d6000803e3d6000fd5b505050506040513d602081101561237b57600080fd5b505190508082101561238a5750805b60055460408051632e1a7d4d60e01b81526004810184905290516001600160a01b03909216918291632e1a7d4d91602480830192600092919082900301818387803b1580156123d857600080fd5b505af11580156123ec573d6000803e3d6000fd5b50505050600660009054906101000a90046001600160a01b03166001600160a01b0316631249c58b836040518263ffffffff1660e01b81526004016000604051808303818588803b15801561244057600080fd5b505af1158015612454573d6000803e3d6000fd5b50506003805460ff60a01b1916600160a01b179055505050505050565b6000826124805750600061224f565b8282028284828161248d57fe5b041461224c5760405162461bcd60e51b8152600401808060200182810382526021815260200180613a2d6021913960400191505060405180910390fd5b600061224c83836040518060400160405280601a81526020017f536166654d6174683a206469766973696f6e206279207a65726f000000000000815250613180565b6006546040805163317afabb60e21b81526004810184905290516000926001600160a01b03169163c5ebeaec91602480830192602092919082900301818787803b15801561255957600080fd5b505af115801561256d573d6000803e3d6000fd5b505050506040513d602081101561258357600080fd5b5051905080156125ca576040805162461bcd60e51b815260206004820152600d60248201526c109bdc9c9bddc819985a5b1959609a1b604482015290519081900360640190fd5b60055460408051630d0e30db60e41b815290516001600160a01b0390921691829163d0e30db091479160048082019260009290919082900301818588803b15801561261457600080fd5b505af1158015612628573d6000803e3d6000fd5b5050505050505050565b600c54604080516370a0823160e01b815230600482015290516000926001600160a01b0316916370a08231916024808301926020929190829003018186803b15801561267d57600080fd5b505afa158015612691573d6000803e3d6000fd5b505050506040513d60208110156126a757600080fd5b50516011549091508110806126ba575080155b156126ee576040517fd26ff69ffdb9c21e34f9b534127733d71db1159e23eb2e5105a07b91fa2768ac90600090a150611156565b6126f7816131e5565b600c54604080516370a0823160e01b815230600482015290516001600160a01b03909216916370a0823191602480820192602092909190829003018186803b15801561274257600080fd5b505afa158015612756573d6000803e3d6000fd5b505050506040513d602081101561276c57600080fd5b50516040805182815290519192507fc9e9d7cf3944e82f1fe222573e1c9acf5a2f6cd29aa9639bc8078065f091bb6b919081900360200190a1600d54600c546001916127cc916001600160a01b039081169116600063ffffffff612b1f16565b600d54600c546127ef916001600160a01b0391821691168463ffffffff612b1f16565b60408051600280825260608083018452926020830190803883395050600c5482519293506001600160a01b03169183915060009061282957fe5b6001600160a01b03928316602091820292909201015260085482519116908290600190811061285457fe5b6001600160a01b03928316602091820292909201810191909152600854604080516370a0823160e01b8152306004820152905160009492909216926370a0823192602480840193829003018186803b1580156128af57600080fd5b505afa1580156128c3573d6000803e3d6000fd5b505050506040513d60208110156128d957600080fd5b5051600d546040516338ed173960e01b815260048101878152602482018790523060648301819052426084840181905260a060448501908152885160a486015288519697506001600160a01b03909516956338ed1739958b958b958b95949390929160c401906020878101910280838360005b8381101561296457818101518382015260200161294c565b505050509050019650505050505050600060405180830381600087803b15801561298d57600080fd5b505af11580156129a1573d6000803e3d6000fd5b505050506040513d6000823e601f3d908101601f1916820160405260208110156129ca57600080fd5b81019080805160405193929190846401000000008211156129ea57600080fd5b9083019060208201858111156129ff57600080fd5b8251866020820283011164010000000082111715612a1c57600080fd5b82525081516020918201928201910280838360005b83811015612a49578181015183820152602001612a31565b505050509050016040525050505050505050565b60105460ff1615612a7d57612a706109d4565b612a78612632565b612aa7565b6040517f6e180aeefd7fd43a105253e3c10a794670b4c6ef64e8a4d8879de77cfb09d61290600090a15b611234613352565b604080516001600160a01b0385811660248301528416604482015260648082018490528251808303909101815260849091019091526020810180516001600160e01b03166323b872dd60e01b179052610a34908590612f31565b6000818310612b18578161224c565b5090919050565b801580612ba5575060408051636eb1769f60e11b81523060048201526001600160a01b03848116602483015291519185169163dd62ed3e91604480820192602092909190829003018186803b158015612b7757600080fd5b505afa158015612b8b573d6000803e3d6000fd5b505050506040513d6020811015612ba157600080fd5b5051155b612be05760405162461bcd60e51b8152600401808060200182810382526036815260200180613ac86036913960400191505060405180910390fd5b604080516001600160a01b038416602482015260448082018490528251808303909101815260649091019091526020810180516001600160e01b031663095ea7b360e01b1790526109cf908490612f31565b60175415612c715760405162461bcd60e51b8152600401808060200182810382526024815260200180613a096024913960400191505060405180910390fd5b60105460ff1615612c9157612c846109d4565b612c8c612632565b612cbb565b6040517f6e180aeefd7fd43a105253e3c10a794670b4c6ef64e8a4d8879de77cfb09d61290600090a15b60095460408051633af9e66960e01b815230600482015290516000926001600160a01b031691633af9e66991602480830192602092919082900301818787803b158015612d0757600080fd5b505af1158015612d1b573d6000803e3d6000fd5b505050506040513d6020811015612d3157600080fd5b5051600954604080516305eff7ef60e21b815230600482015290519293506000926001600160a01b03909216916317bfdfbc9160248082019260209290919082900301818787803b158015612d8557600080fd5b505af1158015612d99573d6000803e3d6000fd5b505050506040513d6020811015612daf57600080fd5b50519050610f79612dc6838363ffffffff61225516565b60095460408051631d8e90d160e11b8152905183926001600160a01b031691633b1d21a2916004808301926020929190829003018186803b158015612e0a57600080fd5b505afa158015612e1e573d6000803e3d6000fd5b505050506040513d6020811015612e3457600080fd5b50511015612e735760405162461bcd60e51b8152600401808060200182810382526022815260200180613aa66022913960400191505060405180910390fd5b612e7b613352565b600854604080516370a0823160e01b8152306004820152905183926001600160a01b0316916370a08231916024808301926020929190829003018186803b158015612ec557600080fd5b505afa158015612ed9573d6000803e3d6000fd5b505050506040513d6020811015612eef57600080fd5b50511015612f2e5760405162461bcd60e51b815260040180806020018281038252602e815260200180613a4e602e913960400191505060405180910390fd5b50565b612f43826001600160a01b0316613363565b612f94576040805162461bcd60e51b815260206004820152601f60248201527f5361666545524332303a2063616c6c20746f206e6f6e2d636f6e747261637400604482015290519081900360640190fd5b60006060836001600160a01b0316836040518082805190602001908083835b60208310612fd25780518252601f199092019160209182019101612fb3565b6001836020036101000a0380198251168184511680821785525050505050509050019150506000604051808303816000865af19150503d8060008114613034576040519150601f19603f3d011682016040523d82523d6000602084013e613039565b606091505b509150915081613090576040805162461bcd60e51b815260206004820181905260248201527f5361666545524332303a206c6f772d6c6576656c2063616c6c206661696c6564604482015290519081900360640190fd5b805115610a34578080602001905160208110156130ac57600080fd5b5051610a345760405162461bcd60e51b815260040180806020018281038252602a815260200180613a7c602a913960400191505060405180910390fd5b600081848411156131785760405162461bcd60e51b81526004018080602001828103825283818151815260200191508051906020019080838360005b8381101561313d578181015183820152602001613125565b50505050905090810190601f16801561316a5780820380516001836020036101000a031916815260200191505b509250505060405180910390fd5b505050900390565b600081836131cf5760405162461bcd60e51b815260206004820181815283516024840152835190928392604490910191908501908083836000831561313d578181015183820152602001613125565b5060008385816131db57fe5b0495945050505050565b8015613310576000613208600254610ed76001548561247190919063ffffffff16565b6040805184815260208101839052428183015290519192507f33fd2845a0f10293482de360244dd4ad31ddbb4b8c4a1ded3875cf8ebfba184b919081900360600190a1613270613256612133565b6003546001600160a01b031690600063ffffffff612b1f16565b61329461327b612133565b6003546001600160a01b0316908363ffffffff612b1f16565b61329c612133565b60035460408051631ee0d7e560e31b81526001600160a01b039283166004820152602481018590529051929091169163f706bf289160448082019260009290919082900301818387803b1580156132f257600080fd5b505af1158015613306573d6000803e3d6000fd5b5050505050612f2e565b6040805160008082526020820152428183015290517f33fd2845a0f10293482de360244dd4ad31ddbb4b8c4a1ded3875cf8ebfba184b9181900360600190a150565b61115660135460145460195461339f565b6000813f7fc5d2460186f7233c927e7db2dcc703c0e500b653ca82273b7bfad8045d85a47081811480159061339757508115155b949350505050565b60065460408051631d8e90d160e11b815290516000926001600160a01b031691633b1d21a2916004808301926020929190829003018186803b1580156133e457600080fd5b505afa1580156133f8573d6000803e3d6000fd5b505050506040513d602081101561340e57600080fd5b505160065460408051633af9e66960e01b815230600482015290519293506000926001600160a01b0390921691633af9e6699160248082019260209290919082900301818787803b15801561346257600080fd5b505af1158015613476573d6000803e3d6000fd5b505050506040513d602081101561348c57600080fd5b5051600654604080516305eff7ef60e21b815230600482015290519293506000926001600160a01b03909216916317bfdfbc9160248082019260209290919082900301818787803b1580156134e057600080fd5b505af11580156134f4573d6000803e3d6000fd5b505050506040513d602081101561350a57600080fd5b505190505b8381111561377557600061354187610ed761353182600263ffffffff6124ca16565b610d8b868b63ffffffff61247116565b90506000613555848363ffffffff61225516565b90506135696135648287612b09565b61378a565b60048054604080516370a0823160e01b81523093810193909352516000926001600160a01b03909216916370a08231916024808301926020929190829003018186803b1580156135b857600080fd5b505afa1580156135cc573d6000803e3d6000fd5b505050506040513d60208110156135e257600080fd5b505190506135f86135f38583612b09565b613800565b600660009054906101000a90046001600160a01b03166001600160a01b0316633b1d21a26040518163ffffffff1660e01b815260040160206040518083038186803b15801561364657600080fd5b505afa15801561365a573d6000803e3d6000fd5b505050506040513d602081101561367057600080fd5b5051600654604080516305eff7ef60e21b815230600482015290519298506001600160a01b03909116916317bfdfbc916024808201926020929091908290030181600087803b1580156136c257600080fd5b505af11580156136d6573d6000803e3d6000fd5b505050506040513d60208110156136ec57600080fd5b505160065460408051633af9e66960e01b815230600482015290519296506001600160a01b0390911691633af9e669916024808201926020929091908290030181600087803b15801561373e57600080fd5b505af1158015613752573d6000803e3d6000fd5b505050506040513d602081101561376857600080fd5b5051945061350f92505050565b6137826135648484612b09565b505050505050565b8015612f2e57613799816138b6565b60055460408051630d0e30db60e41b815290516001600160a01b0390921691829163d0e30db091479160048082019260009290919082900301818588803b1580156137e357600080fd5b505af11580156137f7573d6000803e3d6000fd5b50505050505050565b60055460408051632e1a7d4d60e01b81526004810184905290516001600160a01b03909216918291632e1a7d4d91602480830192600092919082900301818387803b15801561384e57600080fd5b505af1158015613862573d6000803e3d6000fd5b50505050600660009054906101000a90046001600160a01b03166001600160a01b0316634e4d9fea836040518263ffffffff1660e01b81526004016000604051808303818588803b1580156137e357600080fd5b8015612f2e576006546040805163852a12e360e01b81526004810184905290516001600160a01b039092169163852a12e3916024808201926020929091908290030181600087803b15801561390a57600080fd5b505af115801561391e573d6000803e3d6000fd5b505050506040513d60208110156109cf57600080fdfe746f6b656e20697320646566696e6564206173206e6f742073616c76616761626c65436f6c6c61746572616c20666163746f722063616e6e6f74206265207468697320686967685468652073656e6465722068617320746f2062652074686520636f6e74726f6c6c6572206f72207661756c744c697175696469747920726563697069656e742077617320616c7265616479207365742c20616e64206861732061206c6f616e4275666665722065786973747320616e64207468652063616c6c6572206973206e6f7420676f7665726e616e63654c6971756964697479206c6f616e206d75737420626520736574746c6564206669727374536166654d6174683a206d756c7469706c69636174696f6e206f766572666c6f77556e61626c6520746f2077697468647261772074686520656e7469726520616d6f756e74556e6465726c79696e675361666545524332303a204552433230206f7065726174696f6e20646964206e6f7420737563636565646d61726b657420636173682063616e6e6f7420636f766572206c69717569646974795361666545524332303a20617070726f76652066726f6d206e6f6e2d7a65726f20746f206e6f6e2d7a65726f20616c6c6f77616e6365a265627a7a72315820c28bb672fed6882dc2ad0a2dcb645d9a1e00e974a959951134f13585b89058cf64736f6c634300051000327661756c7420646f6573206e6f7420737570706f727420756e6465726c79696e67",
  "source": "pragma solidity 0.5.16;\n\nimport \"@openzeppelin/contracts/math/Math.sol\";\nimport \"@openzeppelin/contracts/math/SafeMath.sol\";\nimport \"@openzeppelin/contracts/token/ERC20/ERC20Detailed.sol\";\nimport \"@openzeppelin/contracts/token/ERC20/SafeERC20.sol\";\nimport \"./CompoundInteractor.sol\";\nimport \"./CompleteCToken.sol\";\nimport \"../LiquidityRecipient.sol\";\nimport \"../../Controllable.sol\";\nimport \"../RewardTokenProfitNotifier.sol\";\nimport \"../../compound/ComptrollerInterface.sol\";\nimport \"../../compound/CTokenInterfaces.sol\";\nimport \"../../hardworkInterface/IStrategy.sol\";\nimport \"../../uniswap/interfaces/IUniswapV2Router02.sol\";\nimport \"../../hardworkInterface/IVault.sol\";\n\ncontract CompoundWETHFoldStrategy is IStrategy, RewardTokenProfitNotifier, CompoundInteractor {\n\n  using SafeMath for uint256;\n  using SafeERC20 for IERC20;\n\n  event ProfitNotClaimed();\n  event TooLowBalance();\n\n  ERC20Detailed public underlying;\n  CompleteCToken public ctoken;\n  ComptrollerInterface public comptroller;\n\n  address public vault;\n  ERC20Detailed public comp; // this will be Cream or Comp\n\n  address public uniswapRouterV2;\n  uint256 public suppliedInUnderlying;\n  uint256 public borrowedInUnderlying;\n  bool public liquidationAllowed = true;\n  uint256 public sellFloor = 0;\n  bool public allowEmergencyLiquidityShortage = false;\n  uint256 public collateralFactorNumerator = 100;\n  uint256 public collateralFactorDenominator = 1000;\n  uint256 public folds = 0;\n\n  // The strategy supplying liquidity to Uniswap\n  address public liquidityRecipient;\n  // The current loan\n  uint256 public liquidityLoanCurrent;\n  // The target loan\n  uint256 public liquidityLoanTarget;\n\n  uint256 public constant tenWeth = 10 * 1e18;\n\n  uint256 public borrowMinThreshold = 0;\n\n  // These tokens cannot be claimed by the controller\n  mapping(address => bool) public unsalvagableTokens;\n\n  modifier restricted() {\n    require(msg.sender == vault || msg.sender == address(controller()) || msg.sender == address(governance()),\n      \"The sender has to be the controller or vault\");\n    _;\n  }\n\n  event Liquidated(\n    uint256 amount\n  );\n\n  constructor(\n    address _storage,\n    address _underlying,\n    address _ctoken,\n    address _vault,\n    address _comptroller,\n    address _comp,\n    address _uniswap\n  )\n  RewardTokenProfitNotifier(_storage, _comp)\n  CompoundInteractor(_underlying, _ctoken, _comptroller) public {\n    require(IVault(_vault).underlying() == _underlying, \"vault does not support underlying\");\n    comptroller = ComptrollerInterface(_comptroller);\n    comp = ERC20Detailed(_comp);\n    underlying = ERC20Detailed(_underlying);\n    ctoken = CompleteCToken(_ctoken);\n    vault = _vault;\n    uniswapRouterV2 = _uniswap;\n\n    // set these tokens to be not salvagable\n    unsalvagableTokens[_underlying] = true;\n    unsalvagableTokens[_ctoken] = true;\n    unsalvagableTokens[_comp] = true;\n  }\n\n  modifier updateSupplyInTheEnd() {\n    _;\n    suppliedInUnderlying = ctoken.balanceOfUnderlying(address(this));\n    borrowedInUnderlying = ctoken.borrowBalanceCurrent(address(this));\n  }\n\n  function depositArbCheck() public view returns (bool) {\n    // there's no arb here.\n    return true;\n  }\n\n  /**\n  * The strategy invests by supplying the underlying as a collateral.\n  */\n  function investAllUnderlying() public restricted updateSupplyInTheEnd {\n    uint256 balance = underlying.balanceOf(address(this));\n    _supplyEtherInWETH(balance);\n    for (uint256 i = 0; i < folds; i++) {\n      uint256 borrowAmount = balance.mul(collateralFactorNumerator).div(collateralFactorDenominator);\n      _borrowInWETH(borrowAmount);\n      balance = underlying.balanceOf(address(this));\n      _supplyEtherInWETH(balance);\n    }\n  }\n\n  /**\n  * Exits Compound and transfers everything to the vault.\n  */\n  function withdrawAllToVault() external restricted updateSupplyInTheEnd {\n    if (allowEmergencyLiquidityShortage) {\n      withdrawMaximum();\n    } else {\n      withdrawAllWeInvested();\n    }\n    if (underlying.balanceOf(address(this)) > 0) {\n      IERC20(address(underlying)).safeTransfer(vault, underlying.balanceOf(address(this)));\n    }\n  }\n\n  function emergencyExit() external onlyGovernance updateSupplyInTheEnd {\n    withdrawMaximum();\n  }\n\n  function withdrawMaximum() internal updateSupplyInTheEnd {\n    if (liquidationAllowed) {\n      claimComp();\n      liquidateComp();\n    } else {\n      emit ProfitNotClaimed();\n    }\n    redeemMaximum();\n  }\n\n  function withdrawAllWeInvested() internal updateSupplyInTheEnd {\n    require(liquidityLoanCurrent == 0, \"Liquidity loan must be settled first\");\n    if (liquidationAllowed) {\n      claimComp();\n      liquidateComp();\n    } else {\n      emit ProfitNotClaimed();\n    }\n    uint256 _currentSuppliedBalance = ctoken.balanceOfUnderlying(address(this));\n    uint256 _currentBorrowedBalance = ctoken.borrowBalanceCurrent(address(this));\n\n    mustRedeemPartial(_currentSuppliedBalance.sub(_currentBorrowedBalance));\n  }\n\n  function withdrawToVault(uint256 amountUnderlying) external restricted updateSupplyInTheEnd {\n    if (amountUnderlying <= underlying.balanceOf(address(this))) {\n      IERC20(address(underlying)).safeTransfer(vault, amountUnderlying);\n      return;\n    }\n\n    // get some of the underlying\n    mustRedeemPartial(amountUnderlying);\n\n    // transfer the amount requested (or the amount we have) back to vault\n    IERC20(address(underlying)).safeTransfer(vault, amountUnderlying);\n\n    // invest back to compound\n    investAllUnderlying();\n  }\n\n  /**\n  * Withdraws all assets, liquidates COMP/CREAM, and invests again in the required ratio.\n  */\n  function doHardWork() public restricted {\n    if (liquidationAllowed) {\n      claimComp();\n      liquidateComp();\n    } else {\n      emit ProfitNotClaimed();\n    }\n    investAllUnderlying();\n  }\n\n  /**\n  * Redeems maximum that can be redeemed from Compound.\n  * Redeem the minimum of the underlying we own, and the underlying that the cToken can\n  * immediately retrieve. Ensures that `redeemMaximum` doesn't fail silently.\n  *\n  * DOES NOT ensure that the strategy cUnderlying balance becomes 0.\n  */\n  function redeemMaximum() internal {\n    redeemMaximumWethWithLoan(\n      collateralFactorNumerator,\n      collateralFactorDenominator,\n      borrowMinThreshold\n    );\n  }\n\n  /**\n  * Redeems `amountUnderlying` or fails.\n  */\n  function mustRedeemPartial(uint256 amountUnderlying) internal {\n    require(\n      ctoken.getCash() >= amountUnderlying,\n      \"market cash cannot cover liquidity\"\n    );\n    redeemMaximum();\n    require(underlying.balanceOf(address(this)) >= amountUnderlying, \"Unable to withdraw the entire amountUnderlying\");\n  }\n\n  /**\n  * Salvages a token.\n  */\n  function salvage(address recipient, address token, uint256 amount) public onlyGovernance {\n    // To make sure that governance cannot come in and take away the coins\n    require(!unsalvagableTokens[token], \"token is defined as not salvagable\");\n    IERC20(token).safeTransfer(recipient, amount);\n  }\n\n  function liquidateComp() internal {\n    uint256 balance = comp.balanceOf(address(this));\n    if (balance < sellFloor || balance == 0) {\n      emit TooLowBalance();\n      return;\n    }\n\n    // give a profit share to fee forwarder, which re-distributes this to\n    // the profit sharing pools\n    notifyProfitInRewardToken(balance);\n\n    balance = comp.balanceOf(address(this));\n\n    emit Liquidated(balance);\n    // we can accept 1 as minimum as this will be called by trusted roles only\n    uint256 amountOutMin = 1;\n    IERC20(address(comp)).safeApprove(address(uniswapRouterV2), 0);\n    IERC20(address(comp)).safeApprove(address(uniswapRouterV2), balance);\n    address[] memory path = new address[](2);\n    path[0] = address(comp);\n    path[1] = address(underlying);\n\n    uint256 wethBefore = underlying.balanceOf(address(this));\n    IUniswapV2Router02(uniswapRouterV2).swapExactTokensForTokens(\n      balance,\n      amountOutMin,\n      path,\n      address(this),\n      block.timestamp\n    );\n  }\n\n  /**\n  * Returns the current balance. Ignores COMP/CREAM that was not liquidated and invested.\n  */\n  function investedUnderlyingBalance() public view returns (uint256) {\n    // underlying in this strategy + underlying redeemable from Compound/Cream + loan\n    return underlying.balanceOf(address(this))\n      .add(suppliedInUnderlying)\n      .sub(borrowedInUnderlying)\n      .add(liquidityLoanCurrent);\n  }\n\n  /**\n  * Allows liquidation\n  */\n  function setLiquidationAllowed(\n    bool allowed\n  ) external restricted {\n    liquidationAllowed = allowed;\n  }\n\n  function setAllowLiquidityShortage(\n    bool allowed\n  ) external restricted {\n    allowEmergencyLiquidityShortage = allowed;\n  }\n\n  function setSellFloor(uint256 value) external restricted {\n    sellFloor = value;\n  }\n\n  /**\n  * Provides a loan to the liquidity strategy. Sends in funds to fill out the loan target amount,\n  * if they are available.\n  */\n  function provideLoan() public onlyGovernance updateSupplyInTheEnd {\n    withdrawMaximum();\n    if (liquidityLoanCurrent < liquidityLoanTarget\n      && IERC20(underlying).balanceOf(address(this)) > 0\n      && liquidityRecipient != address(0)\n    ) {\n      uint256 diff = Math.min(\n        liquidityLoanTarget.sub(liquidityLoanCurrent),\n        IERC20(underlying).balanceOf(address(this))\n      );\n      IERC20(underlying).safeApprove(liquidityRecipient, 0);\n      IERC20(underlying).safeApprove(liquidityRecipient, diff);\n      // use the pull pattern so that this fails if the contract is not set properly\n      LiquidityRecipient(liquidityRecipient).takeLoan(diff);\n      liquidityLoanCurrent = liquidityLoanCurrent.add(diff);\n    }\n    investAllUnderlying();\n  }\n\n\n  /**\n  * Settles a loan amount by forcing withdrawal inside the liquidity strategy, and then transferring\n  * the funds back to this strategy. This way, the loan can be settled partially, or completely.\n  * The method can be invoked only by EOAs to avoid market manipulation, and only by the governance\n  * unless there is not more than 10 WETH left in this strategy.\n  */\n  function settleLoan(uint256 amount) public updateSupplyInTheEnd {\n    require(\n      // the only funds in are in the loan, other than 10 WETH\n      investedUnderlyingBalance() <= liquidityLoanCurrent.add(tenWeth)\n      // or the governance wants this to happen\n      || msg.sender == governance(),\n      \"Buffer exists and the caller is not governance\"\n    );\n    // market manipulation prevention\n    require(tx.origin == msg.sender, \"no smart contracts\");\n\n    if (liquidityLoanCurrent == 0) {\n      return;\n    }\n\n    LiquidityRecipient(liquidityRecipient).settleLoan();\n    IERC20(underlying).safeTransferFrom(liquidityRecipient, address(this), amount);\n    liquidityLoanCurrent = liquidityLoanCurrent.sub(amount);\n    if (liquidityLoanCurrent == 0) {\n      LiquidityRecipient(liquidityRecipient).wethOverdraft();\n    }\n  }\n\n  function setLiquidityRecipient(address recipient) public onlyGovernance {\n    require(liquidityRecipient == address(0) || liquidityLoanCurrent == 0,\n      \"Liquidity recipient was already set, and has a loan\");\n    liquidityRecipient = recipient;\n  }\n\n  function setBorrowMinThreshold(uint256 threshold) public onlyGovernance {\n    borrowMinThreshold = threshold;\n  }\n\n  // updating collateral factor\n  // note 1: one should settle the loan first before calling this\n  // note 2: collateralFactorDenominator is 1000, therefore, for 20%, you need 200\n  function setCollateralFactorNumerator(uint256 numerator) public onlyGovernance {\n    require(numerator <= 740, \"Collateral factor cannot be this high\");\n    collateralFactorNumerator = numerator;\n  }\n\n  function setLiquidityLoanTarget(uint256 target) public onlyGovernance {\n    liquidityLoanTarget = target;\n  }\n\n  function setFolds(uint256 _folds) public onlyGovernance {\n    folds = _folds;\n  }\n}\n",
  "sourcePath": "/home/madhav/Vaults/contracts/strategies/compound/CompoundWETHFoldStrategy.sol",
  "compiler": {
    "name": "solc",
    "version": "0.5.16+commit.9c3226ce.Emscripten.clang"
  },
  "schemaVersion": "3.2.5",
  "updatedAt": "2020-12-05T16:27:35.029Z",
  "devdoc": {
    "methods": {}
  },
  "userdoc": {
    "methods": {
      "claimComp()": {
        "notice": "Get COMP"
      },
      "doHardWork()": {
        "notice": "Withdraws all assets, liquidates COMP/CREAM, and invests again in the required ratio."
      },
      "investAllUnderlying()": {
        "notice": "The strategy invests by supplying the underlying as a collateral."
      },
      "investedUnderlyingBalance()": {
        "notice": "Returns the current balance. Ignores COMP/CREAM that was not liquidated and invested."
      },
      "provideLoan()": {
        "notice": "Provides a loan to the liquidity strategy. Sends in funds to fill out the loan target amount, if they are available."
      },
      "salvage(address,address,uint256)": {
        "notice": "Salvages a token."
      },
      "setLiquidationAllowed(bool)": {
        "notice": "Allows liquidation"
      },
      "settleLoan(uint256)": {
        "notice": "Settles a loan amount by forcing withdrawal inside the liquidity strategy, and then transferring the funds back to this strategy. This way, the loan can be settled partially, or completely. The method can be invoked only by EOAs to avoid market manipulation, and only by the governance unless there is not more than 10 WETH left in this strategy."
      },
      "withdrawAllToVault()": {
        "notice": "Exits Compound and transfers everything to the vault."
      }
    }
  }
}