{
  "contractName": "CompoundStrategy",
  "abi": [
    {
      "inputs": [
        {
          "internalType": "address",
          "name": "_storage",
          "type": "address"
        },
        {
          "internalType": "address",
          "name": "_underlying",
          "type": "address"
        },
        {
          "internalType": "address",
          "name": "_ctoken",
          "type": "address"
        },
        {
          "internalType": "address",
          "name": "_vault",
          "type": "address"
        },
        {
          "internalType": "address",
          "name": "_comptroller",
          "type": "address"
        },
        {
          "internalType": "address",
          "name": "_comp",
          "type": "address"
        },
        {
          "internalType": "address",
          "name": "_uniswap",
          "type": "address"
        }
      ],
      "payable": false,
      "stateMutability": "nonpayable",
      "type": "constructor"
    },
    {
      "anonymous": false,
      "inputs": [
        {
          "indexed": false,
          "internalType": "uint256",
          "name": "oldBalance",
          "type": "uint256"
        },
        {
          "indexed": false,
          "internalType": "uint256",
          "name": "newBalance",
          "type": "uint256"
        },
        {
          "indexed": false,
          "internalType": "uint256",
          "name": "feeAmount",
          "type": "uint256"
        },
        {
          "indexed": false,
          "internalType": "uint256",
          "name": "timestamp",
          "type": "uint256"
        }
      ],
      "name": "ProfitLog",
      "type": "event"
    },
    {
      "payable": true,
      "stateMutability": "payable",
      "type": "fallback"
    },
    {
      "constant": true,
      "inputs": [],
      "name": "_weth",
      "outputs": [
        {
          "internalType": "contract IERC20",
          "name": "",
          "type": "address"
        }
      ],
      "payable": false,
      "stateMutability": "view",
      "type": "function"
    },
    {
      "constant": true,
      "inputs": [],
      "name": "borrowed",
      "outputs": [
        {
          "internalType": "uint256",
          "name": "",
          "type": "uint256"
        }
      ],
      "payable": false,
      "stateMutability": "view",
      "type": "function"
    },
    {
      "constant": false,
      "inputs": [],
      "name": "claimComp",
      "outputs": [],
      "payable": false,
      "stateMutability": "nonpayable",
      "type": "function"
    },
    {
      "constant": true,
      "inputs": [],
      "name": "comp",
      "outputs": [
        {
          "internalType": "contract ERC20Detailed",
          "name": "",
          "type": "address"
        }
      ],
      "payable": false,
      "stateMutability": "view",
      "type": "function"
    },
    {
      "constant": true,
      "inputs": [],
      "name": "comptroller",
      "outputs": [
        {
          "internalType": "contract ComptrollerInterface",
          "name": "",
          "type": "address"
        }
      ],
      "payable": false,
      "stateMutability": "view",
      "type": "function"
    },
    {
      "constant": true,
      "inputs": [],
      "name": "controller",
      "outputs": [
        {
          "internalType": "address",
          "name": "",
          "type": "address"
        }
      ],
      "payable": false,
      "stateMutability": "view",
      "type": "function"
    },
    {
      "constant": true,
      "inputs": [],
      "name": "ctoken",
      "outputs": [
        {
          "internalType": "contract CompleteCToken",
          "name": "",
          "type": "address"
        }
      ],
      "payable": false,
      "stateMutability": "view",
      "type": "function"
    },
    {
      "constant": true,
      "inputs": [],
      "name": "getLiquidity",
      "outputs": [
        {
          "internalType": "uint256",
          "name": "",
          "type": "uint256"
        }
      ],
      "payable": false,
      "stateMutability": "view",
      "type": "function"
    },
    {
      "constant": true,
      "inputs": [],
      "name": "governance",
      "outputs": [
        {
          "internalType": "address",
          "name": "",
          "type": "address"
        }
      ],
      "payable": false,
      "stateMutability": "view",
      "type": "function"
    },
    {
      "constant": true,
      "inputs": [],
      "name": "profitComp",
      "outputs": [
        {
          "internalType": "uint256",
          "name": "",
          "type": "uint256"
        }
      ],
      "payable": false,
      "stateMutability": "view",
      "type": "function"
    },
    {
      "constant": true,
      "inputs": [],
      "name": "profitSharingDenominator",
      "outputs": [
        {
          "internalType": "uint256",
          "name": "",
          "type": "uint256"
        }
      ],
      "payable": false,
      "stateMutability": "view",
      "type": "function"
    },
    {
      "constant": true,
      "inputs": [],
      "name": "profitSharingNumerator",
      "outputs": [
        {
          "internalType": "uint256",
          "name": "",
          "type": "uint256"
        }
      ],
      "payable": false,
      "stateMutability": "view",
      "type": "function"
    },
    {
      "constant": true,
      "inputs": [],
      "name": "ratioDenominator",
      "outputs": [
        {
          "internalType": "uint256",
          "name": "",
          "type": "uint256"
        }
      ],
      "payable": false,
      "stateMutability": "view",
      "type": "function"
    },
    {
      "constant": true,
      "inputs": [],
      "name": "ratioNumerator",
      "outputs": [
        {
          "internalType": "uint256",
          "name": "",
          "type": "uint256"
        }
      ],
      "payable": false,
      "stateMutability": "view",
      "type": "function"
    },
    {
      "constant": false,
      "inputs": [
        {
          "internalType": "address",
          "name": "_store",
          "type": "address"
        }
      ],
      "name": "setStorage",
      "outputs": [],
      "payable": false,
      "stateMutability": "nonpayable",
      "type": "function"
    },
    {
      "constant": true,
      "inputs": [],
      "name": "store",
      "outputs": [
        {
          "internalType": "contract Storage",
          "name": "",
          "type": "address"
        }
      ],
      "payable": false,
      "stateMutability": "view",
      "type": "function"
    },
    {
      "constant": true,
      "inputs": [],
      "name": "supplied",
      "outputs": [
        {
          "internalType": "uint256",
          "name": "",
          "type": "uint256"
        }
      ],
      "payable": false,
      "stateMutability": "view",
      "type": "function"
    },
    {
      "constant": true,
      "inputs": [],
      "name": "toleranceNumerator",
      "outputs": [
        {
          "internalType": "uint256",
          "name": "",
          "type": "uint256"
        }
      ],
      "payable": false,
      "stateMutability": "view",
      "type": "function"
    },
    {
      "constant": true,
      "inputs": [],
      "name": "underlying",
      "outputs": [
        {
          "internalType": "contract ERC20Detailed",
          "name": "",
          "type": "address"
        }
      ],
      "payable": false,
      "stateMutability": "view",
      "type": "function"
    },
    {
      "constant": true,
      "inputs": [],
      "name": "uniswapRouterV2",
      "outputs": [
        {
          "internalType": "address",
          "name": "",
          "type": "address"
        }
      ],
      "payable": false,
      "stateMutability": "view",
      "type": "function"
    },
    {
      "constant": true,
      "inputs": [
        {
          "internalType": "address",
          "name": "",
          "type": "address"
        }
      ],
      "name": "unsalvagableTokens",
      "outputs": [
        {
          "internalType": "bool",
          "name": "",
          "type": "bool"
        }
      ],
      "payable": false,
      "stateMutability": "view",
      "type": "function"
    },
    {
      "constant": true,
      "inputs": [],
      "name": "vault",
      "outputs": [
        {
          "internalType": "address",
          "name": "",
          "type": "address"
        }
      ],
      "payable": false,
      "stateMutability": "view",
      "type": "function"
    },
    {
      "constant": true,
      "inputs": [],
      "name": "depositArbCheck",
      "outputs": [
        {
          "internalType": "bool",
          "name": "",
          "type": "bool"
        }
      ],
      "payable": false,
      "stateMutability": "view",
      "type": "function"
    },
    {
      "constant": false,
      "inputs": [],
      "name": "investAllUnderlying",
      "outputs": [],
      "payable": false,
      "stateMutability": "nonpayable",
      "type": "function"
    },
    {
      "constant": false,
      "inputs": [],
      "name": "withdrawAllToVault",
      "outputs": [],
      "payable": false,
      "stateMutability": "nonpayable",
      "type": "function"
    },
    {
      "constant": false,
      "inputs": [
        {
          "internalType": "uint256",
          "name": "amountUnderlying",
          "type": "uint256"
        }
      ],
      "name": "withdrawToVault",
      "outputs": [],
      "payable": false,
      "stateMutability": "nonpayable",
      "type": "function"
    },
    {
      "constant": false,
      "inputs": [],
      "name": "outsideTolerance",
      "outputs": [
        {
          "internalType": "bool",
          "name": "",
          "type": "bool"
        }
      ],
      "payable": false,
      "stateMutability": "nonpayable",
      "type": "function"
    },
    {
      "constant": false,
      "inputs": [],
      "name": "doHardWork",
      "outputs": [],
      "payable": false,
      "stateMutability": "nonpayable",
      "type": "function"
    },
    {
      "constant": false,
      "inputs": [
        {
          "internalType": "address",
          "name": "recipient",
          "type": "address"
        },
        {
          "internalType": "address",
          "name": "token",
          "type": "address"
        },
        {
          "internalType": "uint256",
          "name": "amount",
          "type": "uint256"
        }
      ],
      "name": "salvage",
      "outputs": [],
      "payable": false,
      "stateMutability": "nonpayable",
      "type": "function"
    },
    {
      "constant": false,
      "inputs": [
        {
          "internalType": "uint256",
          "name": "numerator",
          "type": "uint256"
        },
        {
          "internalType": "uint256",
          "name": "denominator",
          "type": "uint256"
        },
        {
          "internalType": "uint256",
          "name": "tolerance",
          "type": "uint256"
        }
      ],
      "name": "setRatio",
      "outputs": [],
      "payable": false,
      "stateMutability": "nonpayable",
      "type": "function"
    },
    {
      "constant": true,
      "inputs": [],
      "name": "investExact",
      "outputs": [
        {
          "internalType": "uint256",
          "name": "",
          "type": "uint256"
        },
        {
          "internalType": "uint256",
          "name": "",
          "type": "uint256"
        }
      ],
      "payable": false,
      "stateMutability": "view",
      "type": "function"
    },
    {
      "constant": true,
      "inputs": [],
      "name": "investedUnderlyingBalance",
      "outputs": [
        {
          "internalType": "uint256",
          "name": "",
          "type": "uint256"
        }
      ],
      "payable": false,
      "stateMutability": "view",
      "type": "function"
    }
  ],
  "bytecode": "0x6080604052600580546001600160a01b03191673c02aaa39b223fe8d0a0e5c4f27ead9083c756cc21790553480156200003757600080fd5b50604051620039b0380380620039b0833981810160405260e08110156200005d57600080fd5b508051602082015160408301516060840151608085015160a086015160c0909601519495939492939192909190858584898381806001600160a01b038116620000ed576040805162461bcd60e51b815260206004820152601e60248201527f6e65772073746f726167652073686f756c646e277420626520656d7074790000604482015290519081900360640190fd5b600080546001600160a01b039283166001600160a01b03199182161790915560038054601e60019081556064600255600160a01b60ff60a01b19978616928516929092179690961617905560078054821687841617905560048054821689841617905560068054909116918716919091179055506040805182815280820190915260609250906020808301908038833901905050905082816000815181106200019257fe5b6001600160a01b03928316602091820292909201810191909152600754604051631853304760e31b815260048101838152855160248301528551929094169363c299823893869391928392604490910191858101910280838360005b8381101562000208578181015183820152602001620001ee565b5050505090500192505050600060405180830381600087803b1580156200022e57600080fd5b505af115801562000243573d6000803e3d6000fd5b505050506040513d6000823e601f3d908101601f1916820160405260208110156200026d57600080fd5b81019080805160405193929190846401000000008211156200028e57600080fd5b908301906020820185811115620002a457600080fd5b8251866020820283011164010000000082111715620002c257600080fd5b82525081516020918201928201910280838360005b83811015620002f1578181015183820152602001620002d7565b50505050905001604052505050505050505082600a60006101000a8154816001600160a01b0302191690836001600160a01b0316021790555081600c60006101000a8154816001600160a01b0302191690836001600160a01b0316021790555085600860006101000a8154816001600160a01b0302191690836001600160a01b0316021790555084600960006101000a8154816001600160a01b0302191690836001600160a01b0316021790555083600b60006101000a8154816001600160a01b0302191690836001600160a01b031602179055506000600e819055506064600f81905550600060108190555080600d60006101000a8154816001600160a01b0302191690836001600160a01b03160217905550600160146000886001600160a01b03166001600160a01b0316815260200190815260200160002060006101000a81548160ff021916908315150217905550600160146000876001600160a01b03166001600160a01b0316815260200190815260200160002060006101000a81548160ff021916908315150217905550600160146000846001600160a01b03166001600160a01b0316815260200190815260200160002060006101000a81548160ff021916908315150217905550505050505050506134da80620004d66000396000f3fe6080604052600436106101e35760003560e01c806369609c4211610102578063bfd131f111610095578063ce8c42e811610064578063ce8c42e814610517578063f6787d8a14610541578063f77c479114610556578063fbfa77cf1461056b576101e3565b8063bfd131f1146104a2578063c2a2a07b146104b7578063c9d715de146104cc578063ccf3eb9f14610502576101e3565b8063975057e7116100d1578063975057e71461044e578063a176459514610463578063b60f151a14610478578063b813ef651461048d576101e3565b806369609c42146103dc5780636e422831146103f15780636f307dc3146104065780639137c1a71461041b576101e3565b80633b2424391161017a5780635018594611610149578063501859461461036a578063596fa9e31461039d5780635aa6e675146103b25780635fe3b567146103c7576101e3565b80633b2424391461031657806345d01e4a1461032b5780634a8cfa69146103405780634fa5d85414610355576101e3565b80631113ef52116101b65780631113ef52146102805780631bd85bdb146102c35780631da7766a146102d8578063366bae4914610301576101e3565b8063026a0dd0146101e5578063043f58491461020c5780630910a5101461023a578063109d0af81461024f575b005b3480156101f157600080fd5b506101fa610580565b60408051918252519081900360200190f35b34801561021857600080fd5b50610221610586565b6040805192835260208301919091528051918290030190f35b34801561024657600080fd5b506101fa6106cb565b34801561025b57600080fd5b50610264610742565b604080516001600160a01b039092168252519081900360200190f35b34801561028c57600080fd5b506101e3600480360360608110156102a357600080fd5b506001600160a01b03813581169160208101359091169060400135610751565b3480156102cf57600080fd5b506101e3610881565b3480156102e457600080fd5b506102ed6108e7565b604080519115158252519081900360200190f35b34801561030d57600080fd5b506101fa610a59565b34801561032257600080fd5b506101fa610a5f565b34801561033757600080fd5b506101fa610a65565b34801561034c57600080fd5b506101e3610b22565b34801561036157600080fd5b506101e3610f04565b34801561037657600080fd5b506102ed6004803603602081101561038d57600080fd5b50356001600160a01b0316610fea565b3480156103a957600080fd5b50610264610fff565b3480156103be57600080fd5b5061026461100e565b3480156103d357600080fd5b5061026461105d565b3480156103e857600080fd5b506101fa61106c565b3480156103fd57600080fd5b506101fa611072565b34801561041257600080fd5b50610264611078565b34801561042757600080fd5b506101e36004803603602081101561043e57600080fd5b50356001600160a01b0316611087565b34801561045a57600080fd5b506102646111bd565b34801561046f57600080fd5b506102646111cc565b34801561048457600080fd5b506101fa6111db565b34801561049957600080fd5b506101fa6111e1565b3480156104ae57600080fd5b506101e36111e7565b3480156104c357600080fd5b506102ed6112f3565b3480156104d857600080fd5b506101e3600480360360608110156104ef57600080fd5b50803590602081013590604001356112f8565b34801561050e57600080fd5b506102646114b2565b34801561052357600080fd5b506101e36004803603602081101561053a57600080fd5b50356114c1565b34801561054d57600080fd5b506101fa611a12565b34801561056257600080fd5b50610264611a18565b34801561057757600080fd5b50610264611a67565b60025481565b600080600f54600e54106105e1576040805162461bcd60e51b815260206004820152601a60248201527f776520636f756c6420626f72726f7720696e66696e6974656c79000000000000604482015290519081900360640190fd5b600e546105f3575060009050806106c7565b600854604080516370a0823160e01b815230600482015290516000926001600160a01b0316916370a08231916024808301926020929190829003018186803b15801561063e57600080fd5b505afa158015610652573d6000803e3d6000fd5b505050506040513d602081101561066857600080fd5b5051600e54600f549192506000916106aa9161068a919063ffffffff611a7616565b600f5461069e90859063ffffffff611ac116565b9063ffffffff611b1a16565b905060006106be828463ffffffff611a7616565b91945090925050505b9091565b60065460408051631d8e90d160e11b815290516000926001600160a01b031691633b1d21a2916004808301926020929190829003018186803b15801561071057600080fd5b505afa158015610724573d6000803e3d6000fd5b505050506040513d602081101561073a57600080fd5b505190505b90565b600c546001600160a01b031681565b600054604080516337b87c3960e21b815233600482015290516001600160a01b039092169163dee1f0e491602480820192602092909190829003018186803b15801561079c57600080fd5b505afa1580156107b0573d6000803e3d6000fd5b505050506040513d60208110156107c657600080fd5b505161080a576040805162461bcd60e51b815260206004820152600e60248201526d4e6f7420676f7665726e616e636560901b604482015290519081900360640190fd5b6001600160a01b03821660009081526014602052604090205460ff16156108625760405162461bcd60e51b81526004018080602001828103825260228152602001806133856022913960400191505060405180910390fd5b61087c6001600160a01b038316848363ffffffff611b5c16565b505050565b600754604080516374d7814960e11b815230600482015290516001600160a01b039092169163e9af02929160248082019260009290919082900301818387803b1580156108cd57600080fd5b505af11580156108e1573d6000803e3d6000fd5b50505050565b600954604080516305eff7ef60e21b815230600482015290516000926001600160a01b0316916317bfdfbc91602480830192602092919082900301818787803b15801561093357600080fd5b505af1158015610947573d6000803e3d6000fd5b505050506040513d602081101561095d57600080fd5b505160135560095460408051633af9e66960e01b815230600482015290516001600160a01b0390921691633af9e669916024808201926020929091908290030181600087803b1580156109af57600080fd5b505af11580156109c3573d6000803e3d6000fd5b505050506040513d60208110156109d957600080fd5b50516012819055600f54600e546000926109fe929161069e919063ffffffff611ac116565b90506000610a1f600f5461069e601054601254611ac190919063ffffffff16565b9050610a31828263ffffffff611bae16565b6013541180610a5257506013548290610a50908363ffffffff611bae16565b105b9250505090565b60105481565b600f5481565b601254600854604080516370a0823160e01b815230600482015290516000938493610af59391926001600160a01b03909116916370a08231916024808301926020929190829003018186803b158015610abd57600080fd5b505afa158015610ad1573d6000803e3d6000fd5b505050506040513d6020811015610ae757600080fd5b50519063ffffffff611bae16565b90508060135411610b1957601354610b1490829063ffffffff611a7616565b610b1c565b60005b91505090565b600080610b2d610586565b600854604080516370a0823160e01b815230600482015290519395509193506000926001600160a01b03909116916370a08231916024808301926020929190829003018186803b158015610b8057600080fd5b505afa158015610b94573d6000803e3d6000fd5b505050506040513d6020811015610baa57600080fd5b50519050600083821015610c6057600854600b54604080516370a0823160e01b81526001600160a01b039283166004820152905191909216916370a08231916024808301926020929190829003018186803b158015610c0857600080fd5b505afa158015610c1c573d6000803e3d6000fd5b505050506040513d6020811015610c3257600080fd5b505190508015610c6057600b54600854610c60916001600160a01b039182169116308463ffffffff611c0816565b6000805b85821015610ccf576000610c86610c81888563ffffffff611a7616565b611c62565b9050610c98838263ffffffff611bae16565b92506000610cb4610caf888563ffffffff611a7616565b611dfc565b9050610cc6838263ffffffff611bae16565b92505050610c64565b8215610cf857600b54600854610cf8916001600160a01b0391821691168563ffffffff611b5c16565b505060095460408051633af9e66960e01b815230600482015290516001600160a01b039092169550633af9e66994506024808201945060209350908290030181600087803b158015610d4957600080fd5b505af1158015610d5d573d6000803e3d6000fd5b505050506040513d6020811015610d7357600080fd5b5051601255600954604080516305eff7ef60e21b815230600482015290516001600160a01b03909216916317bfdfbc916024808201926020929091908290030181600087803b158015610dc557600080fd5b505af1158015610dd9573d6000803e3d6000fd5b505050506040513d6020811015610def57600080fd5b5051601355600a5460095460408051638e8f294b60e01b81526001600160a01b03928316600482015281516000949390931692638e8f294b92602480840193919291829003018186803b158015610e4557600080fd5b505afa158015610e59573d6000803e3d6000fd5b505050506040513d6040811015610e6f57600080fd5b506020015190506000610ea2633b9aca0061069e610e93858363ffffffff611b1a16565b6012549063ffffffff611ac116565b9050806013541080610eb45750601354155b610f00576040805162461bcd60e51b8152602060048201526018602482015277576520776f756c6420676574206c6971756964617465642160401b604482015290519081900360640190fd5b5050565b600b546001600160a01b0316331480610f355750610f20611a18565b6001600160a01b0316336001600160a01b0316145b610f705760405162461bcd60e51b815260040180806020018281038252602c8152602001806133d1602c913960400191505060405180910390fd5b610f786108e7565b15610f8557610f85612012565b610f8d610881565b610f9561238d565b610f9d610b22565b60095460408051633af9e66960e01b815230600482015290516001600160a01b0390921691633af9e669916024808201926020929091908290030181600087803b158015610d4957600080fd5b60146020526000908152604090205460ff1681565b600d546001600160a01b031681565b60008060009054906101000a90046001600160a01b03166001600160a01b0316635aa6e6756040518163ffffffff1660e01b815260040160206040518083038186803b15801561071057600080fd5b600a546001600160a01b031681565b60135481565b60125481565b6008546001600160a01b031681565b600054604080516337b87c3960e21b815233600482015290516001600160a01b039092169163dee1f0e491602480820192602092909190829003018186803b1580156110d257600080fd5b505afa1580156110e6573d6000803e3d6000fd5b505050506040513d60208110156110fc57600080fd5b5051611140576040805162461bcd60e51b815260206004820152600e60248201526d4e6f7420676f7665726e616e636560901b604482015290519081900360640190fd5b6001600160a01b03811661119b576040805162461bcd60e51b815260206004820152601e60248201527f6e65772073746f726167652073686f756c646e277420626520656d7074790000604482015290519081900360640190fd5b600080546001600160a01b0319166001600160a01b0392909216919091179055565b6000546001600160a01b031681565b6005546001600160a01b031681565b60015481565b60115481565b600b546001600160a01b03163314806112185750611203611a18565b6001600160a01b0316336001600160a01b0316145b6112535760405162461bcd60e51b815260040180806020018281038252602c8152602001806133d1602c913960400191505060405180910390fd5b61125b612012565b600b54600854604080516370a0823160e01b81523060048201529051610f9d936001600160a01b039081169316916370a08231916024808301926020929190829003018186803b1580156112ae57600080fd5b505afa1580156112c2573d6000803e3d6000fd5b505050506040513d60208110156112d857600080fd5b50516008546001600160a01b0316919063ffffffff611b5c16565b600190565b6000546040805163b429afeb60e01b815233600482015290516001600160a01b039092169163b429afeb91602480820192602092909190829003018186803b15801561134357600080fd5b505afa158015611357573d6000803e3d6000fd5b505050506040513d602081101561136d57600080fd5b5051806113ed5750600054604080516337b87c3960e21b815233600482015290516001600160a01b039092169163dee1f0e491602480820192602092909190829003018186803b1580156113c057600080fd5b505afa1580156113d4573d6000803e3d6000fd5b505050506040513d60208110156113ea57600080fd5b50515b6114285760405162461bcd60e51b815260040180806020018281038252602b81526020018061335a602b913960400191505060405180910390fd5b8183106114665760405162461bcd60e51b815260040180806020018281038252602a8152602001806133a7602a913960400191505060405180910390fd5b8281106114a45760405162461bcd60e51b815260040180806020018281038252602881526020018061341e6028913960400191505060405180910390fd5b600e92909255600f55601055565b6009546001600160a01b031681565b600b546001600160a01b03163314806114f257506114dd611a18565b6001600160a01b0316336001600160a01b0316145b61152d5760405162461bcd60e51b815260040180806020018281038252602c8152602001806133d1602c913960400191505060405180910390fd5b600854604080516370a0823160e01b815230600482015290516001600160a01b03909216916370a0823191602480820192602092909190829003018186803b15801561157857600080fd5b505afa15801561158c573d6000803e3d6000fd5b505050506040513d60208110156115a257600080fd5b505181116115d257600b546008546115cd916001600160a01b0391821691168363ffffffff611b5c16565b61181d565b600854600b54604080516370a0823160e01b81526001600160a01b039283166004820152905160009392909216916370a0823191602480820192602092909190829003018186803b15801561162657600080fd5b505afa15801561163a573d6000803e3d6000fd5b505050506040513d602081101561165057600080fd5b5051600b54600854919250611679916001600160a01b039081169116308463ffffffff611c0816565b611681612816565b5061168a61293a565b50600b546008546116ae916001600160a01b0391821691168363ffffffff611b5c16565b600854604080516370a0823160e01b8152306004820152905184926001600160a01b0316916370a08231916024808301926020929190829003018186803b1580156116f857600080fd5b505afa15801561170c573d6000803e3d6000fd5b505050506040513d602081101561172257600080fd5b505110156117e357611732612012565b600b54600854604080516370a0823160e01b815230600482015290516117d6936001600160a01b03908116936117bd939116916370a0823191602480820192602092909190829003018186803b15801561178b57600080fd5b505afa15801561179f573d6000803e3d6000fd5b505050506040513d60208110156117b557600080fd5b505185612b89565b6008546001600160a01b0316919063ffffffff611b5c16565b6117de610b22565b611806565b600b54600854611806916001600160a01b0391821691168463ffffffff611b5c16565b61180e6108e7565b1561181b5761181b610f04565b505b60095460408051633af9e66960e01b815230600482015290516001600160a01b0390921691633af9e669916024808201926020929091908290030181600087803b15801561186a57600080fd5b505af115801561187e573d6000803e3d6000fd5b505050506040513d602081101561189457600080fd5b5051601255600954604080516305eff7ef60e21b815230600482015290516001600160a01b03909216916317bfdfbc916024808201926020929091908290030181600087803b1580156118e657600080fd5b505af11580156118fa573d6000803e3d6000fd5b505050506040513d602081101561191057600080fd5b5051601355600a5460095460408051638e8f294b60e01b81526001600160a01b03928316600482015281516000949390931692638e8f294b92602480840193919291829003018186803b15801561196657600080fd5b505afa15801561197a573d6000803e3d6000fd5b505050506040513d604081101561199057600080fd5b5060200151905060006119b4633b9aca0061069e610e93858363ffffffff611b1a16565b90508060135410806119c65750601354155b61087c576040805162461bcd60e51b8152602060048201526018602482015277576520776f756c6420676574206c6971756964617465642160401b604482015290519081900360640190fd5b600e5481565b60008060009054906101000a90046001600160a01b03166001600160a01b031663f77c47916040518163ffffffff1660e01b815260040160206040518083038186803b15801561071057600080fd5b600b546001600160a01b031681565b6000611ab883836040518060400160405280601e81526020017f536166654d6174683a207375627472616374696f6e206f766572666c6f770000815250612b9f565b90505b92915050565b600082611ad057506000611abb565b82820282848281611add57fe5b0414611ab85760405162461bcd60e51b81526004018080602001828103825260218152602001806133fd6021913960400191505060405180910390fd5b6000611ab883836040518060400160405280601a81526020017f536166654d6174683a206469766973696f6e206279207a65726f000000000000815250612c36565b604080516001600160a01b038416602482015260448082018490528251808303909101815260649091019091526020810180516001600160e01b031663a9059cbb60e01b17905261087c908490612c9b565b600082820183811015611ab8576040805162461bcd60e51b815260206004820152601b60248201527f536166654d6174683a206164646974696f6e206f766572666c6f770000000000604482015290519081900360640190fd5b604080516001600160a01b0385811660248301528416604482015260648082018490528251808303909101815260849091019091526020810180516001600160e01b03166323b872dd60e01b1790526108e1908590612c9b565b60048054604080516370a0823160e01b815230938101939093525160009283926001600160a01b0316916370a0823191602480820192602092909190829003018186803b158015611cb257600080fd5b505afa158015611cc6573d6000803e3d6000fd5b505050506040513d6020811015611cdc57600080fd5b5051905080831015611ceb5750815b600654600454611d0f916001600160a01b039182169116600063ffffffff612e5316565b600654600454611d32916001600160a01b0391821691168363ffffffff612e5316565b6006546040805163140e25ad60e31b81526004810184905290516000926001600160a01b03169163a0712d6891602480830192602092919082900301818787803b158015611d7f57600080fd5b505af1158015611d93573d6000803e3d6000fd5b505050506040513d6020811015611da957600080fd5b505190508015611df3576040805162461bcd60e51b815260206004820152601060248201526f14dd5c1c1b1e5a5b99c819985a5b195960821b604482015290519081900360640190fd5b5090505b919050565b600a5460095460408051638e8f294b60e01b81526001600160a01b039283166004820152815160009485941692638e8f294b9260248082019391829003018186803b158015611e4a57600080fd5b505afa158015611e5e573d6000803e3d6000fd5b505050506040513d6040811015611e7457600080fd5b50602001519050611e908164e8d4a5100063ffffffff611b1a16565b600954604080516305eff7ef60e21b815230600482015290519293506000926001600160a01b03909216916317bfdfbc9160248082019260209290919082900301818787803b158015611ee257600080fd5b505af1158015611ef6573d6000803e3d6000fd5b505050506040513d6020811015611f0c57600080fd5b505160095460408051633af9e66960e01b815230600482015290519293506000926001600160a01b0390921691633af9e6699160248082019260209290919082900301818787803b158015611f6057600080fd5b505af1158015611f74573d6000803e3d6000fd5b505050506040513d6020811015611f8a57600080fd5b505190506000611fa7620f424061069e848763ffffffff611ac116565b9050600081841015611fc857611fc3828563ffffffff611a7616565b611fcb565b60005b905080611fe057600095505050505050611df7565b808711611ffd57611ff087612f66565b8695505050505050611df7565b61200681612f66565b9450611df79350505050565b61201a610881565b61202261238d565b600854600b54604080516370a0823160e01b81526001600160a01b039283166004820152905160009392909216916370a0823191602480820192602092909190829003018186803b15801561207657600080fd5b505afa15801561208a573d6000803e3d6000fd5b505050506040513d60208110156120a057600080fd5b5051600b546008549192506120c9916001600160a01b039081169116308463ffffffff611c0816565b60095460408051633af9e66960e01b815230600482015290516001600160a01b0390921691633af9e669916024808201926020929091908290030181600087803b15801561211657600080fd5b505af115801561212a573d6000803e3d6000fd5b505050506040513d602081101561214057600080fd5b5051601255600954604080516305eff7ef60e21b815230600482015290516001600160a01b03909216916317bfdfbc916024808201926020929091908290030181600087803b15801561219257600080fd5b505af11580156121a6573d6000803e3d6000fd5b505050506040513d60208110156121bc57600080fd5b50516013556008546040805163313ce56760e01b8152905160009261224e92600a926001600160a01b039092169163313ce56791600480820192602092909190829003018186803b15801561221057600080fd5b505afa158015612224573d6000803e3d6000fd5b505050506040513d602081101561223a57600080fd5b505160ff16600a0a9063ffffffff611b1a16565b90505b80601254111561236a57612263612816565b5061226c61293a565b5060095460408051633af9e66960e01b815230600482015290516001600160a01b0390921691633af9e669916024808201926020929091908290030181600087803b1580156122ba57600080fd5b505af11580156122ce573d6000803e3d6000fd5b505050506040513d60208110156122e457600080fd5b5051601255600954604080516305eff7ef60e21b815230600482015290516001600160a01b03909216916317bfdfbc916024808201926020929091908290030181600087803b15801561233657600080fd5b505af115801561234a573d6000803e3d6000fd5b505050506040513d602081101561236057600080fd5b5051601355612251565b600b54600854610f00916001600160a01b0391821691168463ffffffff611b5c16565b600854604080516370a0823160e01b815230600482015290516000926001600160a01b0316916370a08231916024808301926020929190829003018186803b1580156123d857600080fd5b505afa1580156123ec573d6000803e3d6000fd5b505050506040513d602081101561240257600080fd5b5051600c54604080516370a0823160e01b815230600482015290519293506000926001600160a01b03909216916370a0823191602480820192602092909190829003018186803b15801561245557600080fd5b505afa158015612469573d6000803e3d6000fd5b505050506040513d602081101561247f57600080fd5b50519050801561279457600c54600d546040805163095ea7b360e01b81526001600160a01b039283166004820152602481018590529051600193929092169163095ea7b3916044808201926020929091908290030181600087803b1580156124e657600080fd5b505af11580156124fa573d6000803e3d6000fd5b505050506040513d602081101561251057600080fd5b5050604080516003808252608082019092526060916020820183803883395050600c5482519293506001600160a01b03169183915060009061254e57fe5b6001600160a01b03928316602091820292909201810191909152600d54604080516315ab88c960e31b81529051919093169263ad5c4648926004808301939192829003018186803b1580156125a257600080fd5b505afa1580156125b6573d6000803e3d6000fd5b505050506040513d60208110156125cc57600080fd5b50518151829060019081106125dd57fe5b6001600160a01b03928316602091820292909201015260085482519116908290600290811061260857fe5b6001600160a01b03928316602091820292909201810191909152600d546040516338ed173960e01b815260048101878152602482018790523060648301819052426084840181905260a060448501908152885160a4860152885195909716966338ed1739968b968b968b96939260c490910191878201910280838360005b8381101561269e578181015183820152602001612686565b505050509050019650505050505050600060405180830381600087803b1580156126c757600080fd5b505af11580156126db573d6000803e3d6000fd5b505050506040513d6000823e601f3d908101601f19168201604052602081101561270457600080fd5b810190808051604051939291908464010000000082111561272457600080fd5b90830190602082018581111561273957600080fd5b825186602082028301116401000000008211171561275657600080fd5b82525081516020918201928201910280838360005b8381101561278357818101518382015260200161276b565b505050509050016040525050505050505b600854604080516370a0823160e01b81523060048201529051610f009285926001600160a01b03909116916370a0823191602480820192602092909190829003018186803b1580156127e557600080fd5b505afa1580156127f9573d6000803e3d6000fd5b505050506040513d602081101561280f57600080fd5b5051613024565b600854604080516370a0823160e01b8152306004820152905160009283926001600160a01b03909116916370a0823191602480820192602092909190829003018186803b15801561286657600080fd5b505afa15801561287a573d6000803e3d6000fd5b505050506040513d602081101561289057600080fd5b50519050806128a357600091505061073f565b600954604080516305eff7ef60e21b815230600482015290516000926001600160a01b0316916317bfdfbc91602480830192602092919082900301818787803b1580156128ef57600080fd5b505af1158015612903573d6000803e3d6000fd5b505050506040513d602081101561291957600080fd5b5051905060006129298383612b89565b90508015610a5257610a52816131b7565b600a5460095460408051638e8f294b60e01b81526001600160a01b039283166004820152815160009485941692638e8f294b9260248082019391829003018186803b15801561298857600080fd5b505afa15801561299c573d6000803e3d6000fd5b505050506040513d60408110156129b257600080fd5b50602090810151600954604080516305eff7ef60e21b815230600482015290519294506000936001600160a01b03909216926317bfdfbc9260248084019391929182900301818787803b158015612a0857600080fd5b505af1158015612a1c573d6000803e3d6000fd5b505050506040513d6020811015612a3257600080fd5b505160095460408051633af9e66960e01b815230600482015290519293506000926001600160a01b0390921691633af9e6699160248082019260209290919082900301818787803b158015612a8657600080fd5b505af1158015612a9a573d6000803e3d6000fd5b505050506040513d6020811015612ab057600080fd5b505190506000612ae1612acd85633b9aca0063ffffffff611b1a16565b61069e85633b9aca0063ffffffff611ac116565b90506000818311612af3576000612b03565b612b03838363ffffffff611a7616565b90506000612b5a600a600860009054906101000a90046001600160a01b03166001600160a01b031663313ce5676040518163ffffffff1660e01b815260040160206040518083038186803b15801561221057600080fd5b905080821115612b7a57612b6d8261329f565b50945061073f9350505050565b6000965050505050505061073f565b6000818310612b985781611ab8565b5090919050565b60008184841115612c2e5760405162461bcd60e51b81526004018080602001828103825283818151815260200191508051906020019080838360005b83811015612bf3578181015183820152602001612bdb565b50505050905090810190601f168015612c205780820380516001836020036101000a031916815260200191505b509250505060405180910390fd5b505050900390565b60008183612c855760405162461bcd60e51b8152602060048201818152835160248401528351909283926044909101919085019080838360008315612bf3578181015183820152602001612bdb565b506000838581612c9157fe5b0495945050505050565b612cad826001600160a01b031661331d565b612cfe576040805162461bcd60e51b815260206004820152601f60248201527f5361666545524332303a2063616c6c20746f206e6f6e2d636f6e747261637400604482015290519081900360640190fd5b60006060836001600160a01b0316836040518082805190602001908083835b60208310612d3c5780518252601f199092019160209182019101612d1d565b6001836020036101000a0380198251168184511680821785525050505050509050019150506000604051808303816000865af19150503d8060008114612d9e576040519150601f19603f3d011682016040523d82523d6000602084013e612da3565b606091505b509150915081612dfa576040805162461bcd60e51b815260206004820181905260248201527f5361666545524332303a206c6f772d6c6576656c2063616c6c206661696c6564604482015290519081900360640190fd5b8051156108e157808060200190516020811015612e1657600080fd5b50516108e15760405162461bcd60e51b815260040180806020018281038252602a815260200180613446602a913960400191505060405180910390fd5b801580612ed9575060408051636eb1769f60e11b81523060048201526001600160a01b03848116602483015291519185169163dd62ed3e91604480820192602092909190829003018186803b158015612eab57600080fd5b505afa158015612ebf573d6000803e3d6000fd5b505050506040513d6020811015612ed557600080fd5b5051155b612f145760405162461bcd60e51b81526004018080602001828103825260368152602001806134706036913960400191505060405180910390fd5b604080516001600160a01b038416602482015260448082018490528251808303909101815260649091019091526020810180516001600160e01b031663095ea7b360e01b17905261087c908490612c9b565b6006546040805163317afabb60e21b81526004810184905290516000926001600160a01b03169163c5ebeaec91602480830192602092919082900301818787803b158015612fb357600080fd5b505af1158015612fc7573d6000803e3d6000fd5b505050506040513d6020811015612fdd57600080fd5b505190508015610f00576040805162461bcd60e51b815260206004820152600d60248201526c109bdc9c9bddc819985a5b1959609a1b604482015290519081900360640190fd5b8181111561316d57600061303e828463ffffffff611a7616565b9050600061305d60025461069e60015485611ac190919063ffffffff16565b604080518681526020810186905280820183905242606082015290519192507f0b34b93979d93253da0e9e54841c680c66377f129a340ef2a37e802865e40588919081900360800190a16130cc6130b2611a18565b6003546001600160a01b031690600063ffffffff612e5316565b6130f06130d7611a18565b6003546001600160a01b0316908363ffffffff612e5316565b6130f8611a18565b60035460408051631ee0d7e560e31b81526001600160a01b039283166004820152602481018590529051929091169163f706bf289160448082019260009290919082900301818387803b15801561314e57600080fd5b505af1158015613162573d6000803e3d6000fd5b505050505050610f00565b604080518381526020810183905260008183015242606082015290517f0b34b93979d93253da0e9e54841c680c66377f129a340ef2a37e802865e405889181900360800190a15050565b6006546004546131db916001600160a01b039182169116600063ffffffff612e5316565b6006546004546131fe916001600160a01b0391821691168363ffffffff612e5316565b6006546040805163073a938160e11b81526004810184905290516001600160a01b0390921691630e752702916024808201926020929091908290030181600087803b15801561324c57600080fd5b505af1158015613260573d6000803e3d6000fd5b505050506040513d602081101561327657600080fd5b505060065460045461329c916001600160a01b039182169116600063ffffffff612e5316565b50565b801561329c576006546040805163852a12e360e01b81526004810184905290516001600160a01b039092169163852a12e3916024808201926020929091908290030181600087803b1580156132f357600080fd5b505af1158015613307573d6000803e3d6000fd5b505050506040513d602081101561087c57600080fd5b6000813f7fc5d2460186f7233c927e7db2dcc703c0e500b653ca82273b7bfad8045d85a47081811480159061335157508115155b94935050505056fe5468652063616c6c6572206d75737420626520636f6e74726f6c6c6572206f7220676f7665726e616e6365746f6b656e20697320646566696e6564206173206e6f742073616c76616761626c656e756d657261746f72206d75737420626520736d616c6c6572207468616e2064656e6f6d696e61746f725468652073656e6465722068617320746f2062652074686520636f6e74726f6c6c6572206f72207661756c74536166654d6174683a206d756c7469706c69636174696f6e206f766572666c6f77746f6c6572616e6365206d75737420626520736d616c6c6572207468616e206e756d657261746f725361666545524332303a204552433230206f7065726174696f6e20646964206e6f7420737563636565645361666545524332303a20617070726f76652066726f6d206e6f6e2d7a65726f20746f206e6f6e2d7a65726f20616c6c6f77616e6365a265627a7a723158204fbaf57a9f04a60a3dc1af32ae1cac451d04cfccfaf1fb38de1475c868e6bf2e64736f6c63430005100032",
  "source": "pragma solidity 0.5.16;\n\nimport \"@openzeppelin/contracts/math/Math.sol\";\nimport \"@openzeppelin/contracts/math/SafeMath.sol\";\nimport \"@openzeppelin/contracts/token/ERC20/ERC20Detailed.sol\";\nimport \"@openzeppelin/contracts/token/ERC20/SafeERC20.sol\";\nimport \"./CompoundInteractor.sol\";\nimport \"./CompleteCToken.sol\";\nimport \"../../Controllable.sol\";\nimport \"../ProfitNotifier.sol\";\nimport \"../../compound/ComptrollerInterface.sol\";\nimport \"../../compound/CTokenInterfaces.sol\";\nimport \"../../hardworkInterface/IStrategy.sol\";\nimport \"../../uniswap/interfaces/IUniswapV2Router02.sol\";\n\ncontract CompoundStrategy is IStrategy, ProfitNotifier, CompoundInteractor {\n\n  using SafeMath for uint256;\n  using SafeERC20 for IERC20;\n\n  ERC20Detailed public underlying;\n  CompleteCToken public ctoken;\n  ComptrollerInterface public comptroller;\n\n  uint256 constant mantissaScale = 10 ** 18;\n  uint256 constant mantissaHalfScale = 10 ** 9;\n  address public vault;\n  ERC20Detailed public comp;\n\n  address public uniswapRouterV2;\n  uint256 public ratioNumerator;\n  uint256 public ratioDenominator;\n  uint256 public toleranceNumerator;\n  uint256 public profitComp;\n  uint256 public supplied;\n  uint256 public borrowed;\n\n  // These tokens cannot be claimed by the controller\n  mapping (address => bool) public unsalvagableTokens;\n\n  modifier restricted() {\n    require(msg.sender == vault || msg.sender == address(controller()),\n      \"The sender has to be the controller or vault\");\n    _;\n  }\n\n  modifier protectCollateral() {\n    _;\n    supplied = ctoken.balanceOfUnderlying(address(this));\n    borrowed = ctoken.borrowBalanceCurrent(address(this));\n    (, uint256 collateralFactorMantissa) = comptroller.markets(address(ctoken));\n    uint256 canBorrow = supplied\n      .mul(collateralFactorMantissa.div(mantissaHalfScale))\n      .div(mantissaHalfScale);\n\n    require(borrowed < canBorrow || borrowed == 0, \"We would get liquidated!\");\n  }\n\n  constructor(\n    address _storage,\n    address _underlying,\n    address _ctoken,\n    address _vault,\n    address _comptroller,\n    address _comp,\n    address _uniswap\n  )\n  ProfitNotifier(_storage, _underlying)\n  CompoundInteractor(_underlying, _ctoken, _comptroller) public {\n    comptroller = ComptrollerInterface(_comptroller);\n    // COMP: 0xc00e94Cb662C3520282E6f5717214004A7f26888\n    comp = ERC20Detailed(_comp);\n    underlying = ERC20Detailed(_underlying);\n    ctoken = CompleteCToken(_ctoken);\n    vault = _vault;\n    ratioNumerator = 0;\n    ratioDenominator = 100;\n    toleranceNumerator = 0;\n    uniswapRouterV2 = _uniswap;\n\n    // set these tokens to be not salvagable\n    unsalvagableTokens[_underlying] = true;\n    unsalvagableTokens[_ctoken] = true;\n    unsalvagableTokens[_comp] = true;\n  }\n\n  function depositArbCheck() public view returns(bool) {\n    return true;\n  }\n\n  /**\n  * The strategy invests by supplying the underlying as a collateral and taking\n  * a loan in the required ratio. The borrowed money is then re-supplied.\n  */\n  function investAllUnderlying() public protectCollateral {\n\n    (uint256 amountIn, uint256 amountOut) = investExact();\n\n    uint256 balance = underlying.balanceOf(address(this));\n\n    // get more cash from vault\n    uint256 vaultLoan = 0;\n    if (balance < amountIn) {\n      vaultLoan = underlying.balanceOf(vault);\n      if (vaultLoan > 0) {\n        IERC20(address(underlying)).safeTransferFrom(vault, address(this), vaultLoan);\n      }\n    }\n\n    // we are out of options, now we need to roll\n    uint256 suppliedRoll = 0;\n    uint256 borrowedRoll = 0;\n    while(suppliedRoll < amountIn) {\n      uint256 nowSupplied = _supply(amountIn.sub(suppliedRoll));\n      suppliedRoll = suppliedRoll.add(nowSupplied);\n\n      uint256 nowBorrowed = borrow(amountOut.sub(borrowedRoll));\n      borrowedRoll = borrowedRoll.add(nowBorrowed);\n    }\n\n    // state of supply/loan will be updated by the modifier\n\n    // return loans\n    if (vaultLoan > 0) {\n      IERC20(address(underlying)).safeTransfer(vault, vaultLoan);\n    }\n  }\n\n  /**\n  * Exits Compound and transfers everything to the vault.\n  */\n  function withdrawAllToVault() external restricted protectCollateral {\n    withdrawAll();\n    IERC20(address(underlying)).safeTransfer(vault, underlying.balanceOf(address(this)));\n  }\n\n  function withdrawAll() internal {\n    claimComp();\n    liquidateComp();\n    // now we have all balance we possibly could; the rest must be covered by a flash loan\n\n    // borrow more cash from vault to speed up repaying the loan\n    uint256 vaultLoan = underlying.balanceOf(vault);\n    IERC20(address(underlying)).safeTransferFrom(vault, address(this), vaultLoan);\n\n    // we always supplied more than necessary due to the set investment ratio\n    // we can redeem everything\n    supplied = ctoken.balanceOfUnderlying(address(this));\n    borrowed = ctoken.borrowBalanceCurrent(address(this));\n    uint256 dust = (10 ** uint256(underlying.decimals())).div(10);\n    while(supplied > dust) {\n      repayMaximum();\n      redeemMaximum();\n      supplied = ctoken.balanceOfUnderlying(address(this));\n      borrowed = ctoken.borrowBalanceCurrent(address(this));\n    }\n\n    // return loans\n    IERC20(address(underlying)).safeTransfer(vault, vaultLoan);\n  }\n\n  function withdrawToVault(uint256 amountUnderlying) external restricted protectCollateral {\n    if (amountUnderlying <= underlying.balanceOf(address(this))) {\n      IERC20(address(underlying)).safeTransfer(vault, amountUnderlying);\n      return;\n    }\n\n    // we are expected to have nothing sitting around, so we should borrow\n    // get more cash from vault\n    uint256 vaultLoan = underlying.balanceOf(vault);\n    IERC20(address(underlying)).safeTransferFrom(vault, address(this), vaultLoan);\n\n    // we assume that right now, we are invested in a proper collateralization ratio\n    // if the current balance (after the vault loan) is enough to repay and redeem the required\n    // amount, we just do it\n\n    repayMaximum();\n    redeemMaximum();\n\n    // by repaying and redeeming maximum, we have strictly more than we had before, and we can\n    // repay the vault loan\n    IERC20(address(underlying)).safeTransfer(vault, vaultLoan);\n\n    // if we now have enough, we can transfer the funds, otherwise the user is taking out large\n    // volume of money that could destroy our collateralization ratio\n    // if that is the case, we just withdraw all\n    if (underlying.balanceOf(address(this)) < amountUnderlying) {\n      withdrawAll();\n      IERC20(address(underlying)).safeTransfer(\n        vault, Math.min(underlying.balanceOf(address(this)), amountUnderlying)\n      );\n      investAllUnderlying();\n    } else {\n      IERC20(address(underlying)).safeTransfer(vault, amountUnderlying);\n    }\n\n    // if we broke the invested ratio too much, we will have to do hard work\n    if (outsideTolerance()) {\n      doHardWork();\n    }\n\n    // state of supply/loan will be updated by the modifier\n  }\n\n  function outsideTolerance() public returns(bool) {\n    borrowed = ctoken.borrowBalanceCurrent(address(this));\n    supplied = ctoken.balanceOfUnderlying(address(this));\n\n    uint256 allowedLoan = supplied.mul(ratioNumerator).div(ratioDenominator);\n    uint256 tolerance = supplied.mul(toleranceNumerator).div(ratioDenominator);\n    return borrowed > allowedLoan.add(tolerance) || borrowed.add(tolerance) < allowedLoan;\n  }\n\n\n  /**\n  * Withdraws all assets, liquidates COMP, and invests again in the required ratio.\n  */\n  function doHardWork() public protectCollateral restricted {\n    if (outsideTolerance()) {\n      // there is a difference between how we are invested and how we want to be invested\n      // we should withdraw all and rebalance\n      withdrawAll();\n    }\n\n    claimComp();\n    liquidateComp();\n    investAllUnderlying();\n\n    // state of supply/loan will be updated by the modifier\n  }\n\n  /**\n  * Redeems maximum that can be redeemed from Compound.\n  */\n  function redeemMaximum() internal returns (uint256) {\n    // redeem as much as we can\n    (, uint256 collateralFactorMantissa) = comptroller.markets(address(ctoken));\n\n    uint256 loan = ctoken.borrowBalanceCurrent(address(this));\n    uint256 supply = ctoken.balanceOfUnderlying(address(this));\n    uint256 needToKeep = loan\n      .mul(mantissaHalfScale)\n      .div(collateralFactorMantissa.div(mantissaHalfScale));\n    uint256 canRedeem = supply > needToKeep ? supply.sub(needToKeep) : 0;\n    uint256 dust = (10 ** uint256(underlying.decimals())).div(10);\n    if (canRedeem > dust) {\n      _redeemUnderlying(canRedeem);\n      return canRedeem;\n    } else {\n      return 0;\n    }\n  }\n\n  /**\n  * Borrows the amount if possible, otherwise borrows as much as we can. Returns the real amount\n  * borrowed.\n  */\n  function borrow(uint256 amountUnderlying) internal returns(uint256) {\n    // borrow as much as we can\n    (, uint256 collateralFactorMantissa) = comptroller.markets(address(ctoken));\n    collateralFactorMantissa = collateralFactorMantissa.div(10 ** 12);\n\n    uint256 loan = ctoken.borrowBalanceCurrent(address(this));\n    uint256 supply = ctoken.balanceOfUnderlying(address(this));\n    uint256 max = supply.mul(collateralFactorMantissa).div(10 ** 6);\n    uint256 canBorrow = loan >= max ? 0 : max.sub(loan);\n\n    if (canBorrow == 0) {\n      return 0;\n    }\n\n    if (amountUnderlying <= canBorrow) {\n      _borrow(amountUnderlying);\n      return amountUnderlying;\n    } else {\n      _borrow(canBorrow);\n      return canBorrow;\n    }\n  }\n\n\n  /**\n  * Repay as much as we can, but at most what is needed.\n  */\n  function repayMaximum() internal returns (uint256) {\n    uint256 balance = underlying.balanceOf(address(this));\n    if (balance == 0) {\n      // there is nothing to work with\n      return 0;\n    }\n    uint256 loan = ctoken.borrowBalanceCurrent(address(this));\n    uint256 repayAmount = Math.min(balance, loan);\n    if (repayAmount > 0) {\n      _repay(repayAmount);\n    }\n    return repayAmount;\n  }\n\n  /**\n  * Salvages a token.\n  */\n  function salvage(address recipient, address token, uint256 amount) public onlyGovernance {\n    // To make sure that governance cannot come in and take away the coins\n    require(!unsalvagableTokens[token], \"token is defined as not salvagable\");\n    IERC20(token).safeTransfer(recipient, amount);\n  }\n\n  function setRatio(uint256 numerator,\n    uint256 denominator,\n    uint256 tolerance) public onlyControllerOrGovernance {\n    require(numerator < denominator, \"numerator must be smaller than denominator\");\n    require(tolerance < numerator, \"tolerance must be smaller than numerator\");\n    ratioNumerator = numerator;\n    ratioDenominator = denominator;\n    toleranceNumerator = tolerance;\n  }\n\n  function liquidateComp() internal {\n    uint256 oldBalance = underlying.balanceOf(address(this));\n    uint256 balance = comp.balanceOf(address(this));\n    if (balance > 0) {\n      // we can accept 1 as minimum as this will be called by trusted roles only\n      uint256 amountOutMin = 1;\n      comp.approve(address(uniswapRouterV2), balance);\n      address[] memory path = new address[](3);\n      path[0] = address(comp);\n      path[1] = IUniswapV2Router02(uniswapRouterV2).WETH();\n      path[2] = address(underlying);\n      IUniswapV2Router02(uniswapRouterV2).swapExactTokensForTokens(\n        balance,\n        amountOutMin,\n        path,\n        address(this),\n        block.timestamp\n      );\n    }\n    // give a profit share to fee forwarder, which re-distributes this to\n    // the profit sharing pools\n    notifyProfit(\n      oldBalance, underlying.balanceOf(address(this))\n      // no fail on 0x0 address or 0 amount, hard work was done!\n    );\n  }\n\n  /**\n  * Based on the current balance and the collateralization ratio that is desired, the function\n  * returns a tuple indicating how much funds should be invested in, and how much funds should\n  * be borrowed back. The difference between the current balance and how much should be invested\n  * needs to be obtained either by executing the roll several times, or by getting a flash loan.\n  */\n  function investExact() public view returns (uint256, uint256) {\n    require(ratioNumerator < ratioDenominator, \"we could borrow infinitely\");\n    if (ratioNumerator == 0) {\n      return (0,0);\n    }\n\n    uint256 balance = underlying.balanceOf(address(this));\n    uint256 totalIn = balance.mul(ratioDenominator).div(ratioDenominator.sub(ratioNumerator));\n    uint256 totalOut = totalIn.sub(balance);\n    return (totalIn, totalOut);\n  }\n\n  /**\n  * Returns the current balance. Ignores COMP that was not liquidated and invested.\n  */\n  function investedUnderlyingBalance() public view returns (uint256) {\n    uint256 assets = underlying.balanceOf(address(this)).add(supplied);\n    return borrowed > assets ? 0 : assets.sub(borrowed);\n  }\n}\n",
  "sourcePath": "/home/madhav/Vaults/contracts/strategies/compound/CompoundStrategy.sol",
  "compiler": {
    "name": "solc",
    "version": "0.5.16+commit.9c3226ce.Emscripten.clang"
  },
  "schemaVersion": "3.2.5",
  "updatedAt": "2020-12-05T16:27:35.009Z",
  "devdoc": {
    "methods": {}
  },
  "userdoc": {
    "methods": {
      "claimComp()": {
        "notice": "Get COMP"
      },
      "doHardWork()": {
        "notice": "Withdraws all assets, liquidates COMP, and invests again in the required ratio."
      },
      "investAllUnderlying()": {
        "notice": "The strategy invests by supplying the underlying as a collateral and taking a loan in the required ratio. The borrowed money is then re-supplied."
      },
      "investExact()": {
        "notice": "Based on the current balance and the collateralization ratio that is desired, the function returns a tuple indicating how much funds should be invested in, and how much funds should be borrowed back. The difference between the current balance and how much should be invested needs to be obtained either by executing the roll several times, or by getting a flash loan."
      },
      "investedUnderlyingBalance()": {
        "notice": "Returns the current balance. Ignores COMP that was not liquidated and invested."
      },
      "salvage(address,address,uint256)": {
        "notice": "Salvages a token."
      },
      "withdrawAllToVault()": {
        "notice": "Exits Compound and transfers everything to the vault."
      }
    }
  }
}