{
  "contractName": "CompoundNoFoldStrategy",
  "abi": [
    {
      "inputs": [
        {
          "internalType": "address",
          "name": "_storage",
          "type": "address"
        },
        {
          "internalType": "address",
          "name": "_underlying",
          "type": "address"
        },
        {
          "internalType": "address",
          "name": "_ctoken",
          "type": "address"
        },
        {
          "internalType": "address",
          "name": "_vault",
          "type": "address"
        },
        {
          "internalType": "address",
          "name": "_comptroller",
          "type": "address"
        },
        {
          "internalType": "address",
          "name": "_comp",
          "type": "address"
        },
        {
          "internalType": "address",
          "name": "_uniswap",
          "type": "address"
        }
      ],
      "payable": false,
      "stateMutability": "nonpayable",
      "type": "constructor"
    },
    {
      "anonymous": false,
      "inputs": [
        {
          "indexed": false,
          "internalType": "uint256",
          "name": "profitAmount",
          "type": "uint256"
        },
        {
          "indexed": false,
          "internalType": "uint256",
          "name": "feeAmount",
          "type": "uint256"
        },
        {
          "indexed": false,
          "internalType": "uint256",
          "name": "timestamp",
          "type": "uint256"
        }
      ],
      "name": "ProfitLogInReward",
      "type": "event"
    },
    {
      "anonymous": false,
      "inputs": [],
      "name": "ProfitNotClaimed",
      "type": "event"
    },
    {
      "anonymous": false,
      "inputs": [],
      "name": "TooLowBalance",
      "type": "event"
    },
    {
      "payable": true,
      "stateMutability": "payable",
      "type": "fallback"
    },
    {
      "constant": true,
      "inputs": [],
      "name": "_weth",
      "outputs": [
        {
          "internalType": "contract IERC20",
          "name": "",
          "type": "address"
        }
      ],
      "payable": false,
      "stateMutability": "view",
      "type": "function"
    },
    {
      "constant": true,
      "inputs": [],
      "name": "allowEmergencyLiquidityShortage",
      "outputs": [
        {
          "internalType": "bool",
          "name": "",
          "type": "bool"
        }
      ],
      "payable": false,
      "stateMutability": "view",
      "type": "function"
    },
    {
      "constant": false,
      "inputs": [],
      "name": "claimComp",
      "outputs": [],
      "payable": false,
      "stateMutability": "nonpayable",
      "type": "function"
    },
    {
      "constant": true,
      "inputs": [],
      "name": "comp",
      "outputs": [
        {
          "internalType": "contract ERC20Detailed",
          "name": "",
          "type": "address"
        }
      ],
      "payable": false,
      "stateMutability": "view",
      "type": "function"
    },
    {
      "constant": true,
      "inputs": [],
      "name": "comptroller",
      "outputs": [
        {
          "internalType": "contract ComptrollerInterface",
          "name": "",
          "type": "address"
        }
      ],
      "payable": false,
      "stateMutability": "view",
      "type": "function"
    },
    {
      "constant": true,
      "inputs": [],
      "name": "controller",
      "outputs": [
        {
          "internalType": "address",
          "name": "",
          "type": "address"
        }
      ],
      "payable": false,
      "stateMutability": "view",
      "type": "function"
    },
    {
      "constant": true,
      "inputs": [],
      "name": "ctoken",
      "outputs": [
        {
          "internalType": "contract CompleteCToken",
          "name": "",
          "type": "address"
        }
      ],
      "payable": false,
      "stateMutability": "view",
      "type": "function"
    },
    {
      "constant": true,
      "inputs": [],
      "name": "getLiquidity",
      "outputs": [
        {
          "internalType": "uint256",
          "name": "",
          "type": "uint256"
        }
      ],
      "payable": false,
      "stateMutability": "view",
      "type": "function"
    },
    {
      "constant": true,
      "inputs": [],
      "name": "governance",
      "outputs": [
        {
          "internalType": "address",
          "name": "",
          "type": "address"
        }
      ],
      "payable": false,
      "stateMutability": "view",
      "type": "function"
    },
    {
      "constant": true,
      "inputs": [],
      "name": "liquidationAllowed",
      "outputs": [
        {
          "internalType": "bool",
          "name": "",
          "type": "bool"
        }
      ],
      "payable": false,
      "stateMutability": "view",
      "type": "function"
    },
    {
      "constant": true,
      "inputs": [],
      "name": "profitSharingDenominator",
      "outputs": [
        {
          "internalType": "uint256",
          "name": "",
          "type": "uint256"
        }
      ],
      "payable": false,
      "stateMutability": "view",
      "type": "function"
    },
    {
      "constant": true,
      "inputs": [],
      "name": "profitSharingNumerator",
      "outputs": [
        {
          "internalType": "uint256",
          "name": "",
          "type": "uint256"
        }
      ],
      "payable": false,
      "stateMutability": "view",
      "type": "function"
    },
    {
      "constant": true,
      "inputs": [],
      "name": "rewardToken",
      "outputs": [
        {
          "internalType": "address",
          "name": "",
          "type": "address"
        }
      ],
      "payable": false,
      "stateMutability": "view",
      "type": "function"
    },
    {
      "constant": true,
      "inputs": [],
      "name": "sellFloor",
      "outputs": [
        {
          "internalType": "uint256",
          "name": "",
          "type": "uint256"
        }
      ],
      "payable": false,
      "stateMutability": "view",
      "type": "function"
    },
    {
      "constant": false,
      "inputs": [
        {
          "internalType": "address",
          "name": "_store",
          "type": "address"
        }
      ],
      "name": "setStorage",
      "outputs": [],
      "payable": false,
      "stateMutability": "nonpayable",
      "type": "function"
    },
    {
      "constant": true,
      "inputs": [],
      "name": "store",
      "outputs": [
        {
          "internalType": "contract Storage",
          "name": "",
          "type": "address"
        }
      ],
      "payable": false,
      "stateMutability": "view",
      "type": "function"
    },
    {
      "constant": true,
      "inputs": [],
      "name": "suppliedInUnderlying",
      "outputs": [
        {
          "internalType": "uint256",
          "name": "",
          "type": "uint256"
        }
      ],
      "payable": false,
      "stateMutability": "view",
      "type": "function"
    },
    {
      "constant": true,
      "inputs": [],
      "name": "underlying",
      "outputs": [
        {
          "internalType": "contract ERC20Detailed",
          "name": "",
          "type": "address"
        }
      ],
      "payable": false,
      "stateMutability": "view",
      "type": "function"
    },
    {
      "constant": true,
      "inputs": [],
      "name": "uniswapRouterV2",
      "outputs": [
        {
          "internalType": "address",
          "name": "",
          "type": "address"
        }
      ],
      "payable": false,
      "stateMutability": "view",
      "type": "function"
    },
    {
      "constant": true,
      "inputs": [
        {
          "internalType": "address",
          "name": "",
          "type": "address"
        }
      ],
      "name": "unsalvagableTokens",
      "outputs": [
        {
          "internalType": "bool",
          "name": "",
          "type": "bool"
        }
      ],
      "payable": false,
      "stateMutability": "view",
      "type": "function"
    },
    {
      "constant": true,
      "inputs": [],
      "name": "vault",
      "outputs": [
        {
          "internalType": "address",
          "name": "",
          "type": "address"
        }
      ],
      "payable": false,
      "stateMutability": "view",
      "type": "function"
    },
    {
      "constant": true,
      "inputs": [],
      "name": "depositArbCheck",
      "outputs": [
        {
          "internalType": "bool",
          "name": "",
          "type": "bool"
        }
      ],
      "payable": false,
      "stateMutability": "view",
      "type": "function"
    },
    {
      "constant": false,
      "inputs": [],
      "name": "investAllUnderlying",
      "outputs": [],
      "payable": false,
      "stateMutability": "nonpayable",
      "type": "function"
    },
    {
      "constant": false,
      "inputs": [],
      "name": "withdrawAllToVault",
      "outputs": [],
      "payable": false,
      "stateMutability": "nonpayable",
      "type": "function"
    },
    {
      "constant": false,
      "inputs": [],
      "name": "emergencyExit",
      "outputs": [],
      "payable": false,
      "stateMutability": "nonpayable",
      "type": "function"
    },
    {
      "constant": false,
      "inputs": [
        {
          "internalType": "uint256",
          "name": "amountUnderlying",
          "type": "uint256"
        }
      ],
      "name": "withdrawToVault",
      "outputs": [],
      "payable": false,
      "stateMutability": "nonpayable",
      "type": "function"
    },
    {
      "constant": false,
      "inputs": [],
      "name": "doHardWork",
      "outputs": [],
      "payable": false,
      "stateMutability": "nonpayable",
      "type": "function"
    },
    {
      "constant": false,
      "inputs": [
        {
          "internalType": "address",
          "name": "recipient",
          "type": "address"
        },
        {
          "internalType": "address",
          "name": "token",
          "type": "address"
        },
        {
          "internalType": "uint256",
          "name": "amount",
          "type": "uint256"
        }
      ],
      "name": "salvage",
      "outputs": [],
      "payable": false,
      "stateMutability": "nonpayable",
      "type": "function"
    },
    {
      "constant": true,
      "inputs": [],
      "name": "investedUnderlyingBalance",
      "outputs": [
        {
          "internalType": "uint256",
          "name": "",
          "type": "uint256"
        }
      ],
      "payable": false,
      "stateMutability": "view",
      "type": "function"
    },
    {
      "constant": false,
      "inputs": [
        {
          "internalType": "bool",
          "name": "allowed",
          "type": "bool"
        }
      ],
      "name": "setLiquidationAllowed",
      "outputs": [],
      "payable": false,
      "stateMutability": "nonpayable",
      "type": "function"
    },
    {
      "constant": false,
      "inputs": [
        {
          "internalType": "bool",
          "name": "allowed",
          "type": "bool"
        }
      ],
      "name": "setAllowLiquidityShortage",
      "outputs": [],
      "payable": false,
      "stateMutability": "nonpayable",
      "type": "function"
    },
    {
      "constant": false,
      "inputs": [
        {
          "internalType": "uint256",
          "name": "value",
          "type": "uint256"
        }
      ],
      "name": "setSellFloor",
      "outputs": [],
      "payable": false,
      "stateMutability": "nonpayable",
      "type": "function"
    }
  ],
  "bytecode": "0x6080604052600580546001600160a01b03191673c02aaa39b223fe8d0a0e5c4f27ead9083c756cc2179055600f805460ff1990811660011790915560006010556011805490911690553480156200005557600080fd5b50604051620028ec380380620028ec833981810160405260e08110156200007b57600080fd5b508051602082015160408301516060840151608085015160a086015160c0909601519495939492939192909190858584898581806001600160a01b0381166200010b576040805162461bcd60e51b815260206004820152601e60248201527f6e65772073746f726167652073686f756c646e277420626520656d7074790000604482015290519081900360640190fd5b600080546001600160a01b039283166001600160a01b03199182161790915560038054601e60019081556064600255600160a01b60ff60a01b1997861692851692909217969096161790556007805482168784161790556004805482168984161790556006805490911691871691909117905550604080518281528082019091526060925090602080830190803883390190505090508281600081518110620001b057fe5b6001600160a01b03928316602091820292909201810191909152600754604051631853304760e31b815260048101838152855160248301528551929094169363c299823893869391928392604490910191858101910280838360005b83811015620002265781810151838201526020016200020c565b5050505090500192505050600060405180830381600087803b1580156200024c57600080fd5b505af115801562000261573d6000803e3d6000fd5b505050506040513d6000823e601f3d908101601f1916820160405260208110156200028b57600080fd5b8101908080516040519392919084640100000000821115620002ac57600080fd5b908301906020820185811115620002c257600080fd5b8251866020820283011164010000000082111715620002e057600080fd5b82525081516020918201928201910280838360005b838110156200030f578181015183820152602001620002f5565b505050509050016040525050505050505050856001600160a01b0316846001600160a01b0316636f307dc36040518163ffffffff1660e01b815260040160206040518083038186803b1580156200036557600080fd5b505afa1580156200037a573d6000803e3d6000fd5b505050506040513d60208110156200039157600080fd5b50516001600160a01b031614620003da5760405162461bcd60e51b8152600401808060200182810382526021815260200180620028cb6021913960400191505060405180910390fd5b600a80546001600160a01b03199081166001600160a01b0395861617909155600c80548216938516938417905560088054821697851697881790556009805482169685169687179055600b8054821695851695909517909455600d8054909416921691909117909155600092835260126020526040808420805460ff19908116600190811790925593855281852080548516821790559184528320805490921617905561243c915081906200048f90396000f3fe6080604052600436106101e35760003560e01c80636f307dc311610102578063c2a2a07b11610095578063f48d0c4a11610064578063f48d0c4a14610535578063f77c47911461054a578063f7c618c11461055f578063fbfa77cf14610574576101e3565b8063c2a2a07b146104cc578063ccf3eb9f146104e1578063ce8c42e8146104f6578063d610101b14610520576101e3565b8063a1dab23e116100d1578063a1dab23e14610463578063b60f151a14610478578063ba09591e1461048d578063bfd131f1146104b7576101e3565b80636f307dc3146103f15780639137c1a714610406578063975057e714610439578063a17645951461044e576101e3565b80634a8cfa691161017a578063596fa9e311610149578063596fa9e3146103865780635976317f1461039b5780635aa6e675146103c75780635fe3b567146103dc576101e3565b80634a8cfa69146103145780634fa5d85414610329578063501859461461033e5780635641ec0314610371576101e3565b80631113ef52116101b65780631113ef521461027b5780631bd85bdb146102be5780633fd8cd98146102d357806345d01e4a146102ff576101e3565b8063026a0dd0146101e55780630910a5101461020c57806309e5f66c14610221578063109d0af81461024a575b005b3480156101f157600080fd5b506101fa610589565b60408051918252519081900360200190f35b34801561021857600080fd5b506101fa61058f565b34801561022d57600080fd5b50610236610605565b604080519115158252519081900360200190f35b34801561025657600080fd5b5061025f61060e565b604080516001600160a01b039092168252519081900360200190f35b34801561028757600080fd5b506101e36004803603606081101561029e57600080fd5b506001600160a01b0381358116916020810135909116906040013561061d565b3480156102ca57600080fd5b506101e361074d565b3480156102df57600080fd5b506101e3600480360360208110156102f657600080fd5b503515156107b3565b34801561030b57600080fd5b506101fa610855565b34801561032057600080fd5b506101e36108e9565b34801561033557600080fd5b506101e3610a7a565b34801561034a57600080fd5b506102366004803603602081101561036157600080fd5b50356001600160a01b0316610b5d565b34801561037d57600080fd5b506101e3610b72565b34801561039257600080fd5b5061025f610c80565b3480156103a757600080fd5b506101e3600480360360208110156103be57600080fd5b50351515610c8f565b3480156103d357600080fd5b5061025f610d31565b3480156103e857600080fd5b5061025f610d80565b3480156103fd57600080fd5b5061025f610d8f565b34801561041257600080fd5b506101e36004803603602081101561042957600080fd5b50356001600160a01b0316610d9e565b34801561044557600080fd5b5061025f610ed4565b34801561045a57600080fd5b5061025f610ee3565b34801561046f57600080fd5b506101fa610ef2565b34801561048457600080fd5b506101fa610ef8565b34801561049957600080fd5b506101e3600480360360208110156104b057600080fd5b5035610efe565b3480156104c357600080fd5b506101e3610f92565b3480156104d857600080fd5b506102366110d9565b3480156104ed57600080fd5b5061025f6110de565b34801561050257600080fd5b506101e36004803603602081101561051957600080fd5b50356110ed565b34801561052c57600080fd5b506101fa6112d4565b34801561054157600080fd5b506102366112da565b34801561055657600080fd5b5061025f6112e3565b34801561056b57600080fd5b5061025f611332565b34801561058057600080fd5b5061025f611341565b60025481565b60065460408051631d8e90d160e11b815290516000926001600160a01b031691633b1d21a2916004808301926020929190829003018186803b1580156105d457600080fd5b505afa1580156105e8573d6000803e3d6000fd5b505050506040513d60208110156105fe57600080fd5b5051905090565b600f5460ff1681565b600c546001600160a01b031681565b600054604080516337b87c3960e21b815233600482015290516001600160a01b039092169163dee1f0e491602480820192602092909190829003018186803b15801561066857600080fd5b505afa15801561067c573d6000803e3d6000fd5b505050506040513d602081101561069257600080fd5b50516106d6576040805162461bcd60e51b815260206004820152600e60248201526d4e6f7420676f7665726e616e636560901b604482015290519081900360640190fd5b6001600160a01b03821660009081526012602052604090205460ff161561072e5760405162461bcd60e51b81526004018080602001828103825260228152602001806123176022913960400191505060405180910390fd5b6107486001600160a01b038316848363ffffffff61135016565b505050565b600754604080516374d7814960e11b815230600482015290516001600160a01b039092169163e9af02929160248082019260009290919082900301818387803b15801561079957600080fd5b505af11580156107ad573d6000803e3d6000fd5b50505050565b600b546001600160a01b03163314806107e457506107cf6112e3565b6001600160a01b0316336001600160a01b0316145b8061080757506107f2610d31565b6001600160a01b0316336001600160a01b0316145b6108425760405162461bcd60e51b815260040180806020018281038252602c815260200180612339602c913960400191505060405180910390fd5b6011805460ff1916911515919091179055565b600e54600854604080516370a0823160e01b815230600482015290516000936108e49390926001600160a01b03909116916370a0823191602480820192602092909190829003018186803b1580156108ac57600080fd5b505afa1580156108c0573d6000803e3d6000fd5b505050506040513d60208110156108d657600080fd5b50519063ffffffff6113a216565b905090565b600b546001600160a01b031633148061091a57506109056112e3565b6001600160a01b0316336001600160a01b0316145b8061093d5750610928610d31565b6001600160a01b0316336001600160a01b0316145b6109785760405162461bcd60e51b815260040180806020018281038252602c815260200180612339602c913960400191505060405180910390fd5b600854604080516370a0823160e01b815230600482015290516000926001600160a01b0316916370a08231916024808301926020929190829003018186803b1580156109c357600080fd5b505afa1580156109d7573d6000803e3d6000fd5b505050506040513d60208110156109ed57600080fd5b505190506109fa81611405565b505060095460408051633af9e66960e01b815230600482015290516001600160a01b0390921691633af9e669916024808201926020929091908290030181600087803b158015610a4957600080fd5b505af1158015610a5d573d6000803e3d6000fd5b505050506040513d6020811015610a7357600080fd5b5051600e55565b600b546001600160a01b0316331480610aab5750610a966112e3565b6001600160a01b0316336001600160a01b0316145b80610ace5750610ab9610d31565b6001600160a01b0316336001600160a01b0316145b610b095760405162461bcd60e51b815260040180806020018281038252602c815260200180612339602c913960400191505060405180910390fd5b600f5460ff1615610b2957610b1c61074d565b610b2461159d565b610b53565b6040517f6e180aeefd7fd43a105253e3c10a794670b4c6ef64e8a4d8879de77cfb09d61290600090a15b610b5b6108e9565b565b60126020526000908152604090205460ff1681565b600054604080516337b87c3960e21b815233600482015290516001600160a01b039092169163dee1f0e491602480820192602092909190829003018186803b158015610bbd57600080fd5b505afa158015610bd1573d6000803e3d6000fd5b505050506040513d6020811015610be757600080fd5b5051610c2b576040805162461bcd60e51b815260206004820152600e60248201526d4e6f7420676f7665726e616e636560901b604482015290519081900360640190fd5b610c336119a1565b60095460408051633af9e66960e01b815230600482015290516001600160a01b0390921691633af9e669916024808201926020929091908290030181600087803b158015610a4957600080fd5b600d546001600160a01b031681565b600b546001600160a01b0316331480610cc05750610cab6112e3565b6001600160a01b0316336001600160a01b0316145b80610ce35750610cce610d31565b6001600160a01b0316336001600160a01b0316145b610d1e5760405162461bcd60e51b815260040180806020018281038252602c815260200180612339602c913960400191505060405180910390fd5b600f805460ff1916911515919091179055565b60008060009054906101000a90046001600160a01b03166001600160a01b0316635aa6e6756040518163ffffffff1660e01b815260040160206040518083038186803b1580156105d457600080fd5b600a546001600160a01b031681565b6008546001600160a01b031681565b600054604080516337b87c3960e21b815233600482015290516001600160a01b039092169163dee1f0e491602480820192602092909190829003018186803b158015610de957600080fd5b505afa158015610dfd573d6000803e3d6000fd5b505050506040513d6020811015610e1357600080fd5b5051610e57576040805162461bcd60e51b815260206004820152600e60248201526d4e6f7420676f7665726e616e636560901b604482015290519081900360640190fd5b6001600160a01b038116610eb2576040805162461bcd60e51b815260206004820152601e60248201527f6e65772073746f726167652073686f756c646e277420626520656d7074790000604482015290519081900360640190fd5b600080546001600160a01b0319166001600160a01b0392909216919091179055565b6000546001600160a01b031681565b6005546001600160a01b031681565b60105481565b60015481565b600b546001600160a01b0316331480610f2f5750610f1a6112e3565b6001600160a01b0316336001600160a01b0316145b80610f525750610f3d610d31565b6001600160a01b0316336001600160a01b0316145b610f8d5760405162461bcd60e51b815260040180806020018281038252602c815260200180612339602c913960400191505060405180910390fd5b601055565b600b546001600160a01b0316331480610fc35750610fae6112e3565b6001600160a01b0316336001600160a01b0316145b80610fe65750610fd1610d31565b6001600160a01b0316336001600160a01b0316145b6110215760405162461bcd60e51b815260040180806020018281038252602c815260200180612339602c913960400191505060405180910390fd5b60115460ff1615611039576110346119a1565b611041565b6110416119f3565b600b54600854604080516370a0823160e01b81523060048201529051610c33936001600160a01b039081169316916370a08231916024808301926020929190829003018186803b15801561109457600080fd5b505afa1580156110a8573d6000803e3d6000fd5b505050506040513d60208110156110be57600080fd5b50516008546001600160a01b0316919063ffffffff61135016565b600190565b6009546001600160a01b031681565b600b546001600160a01b031633148061111e57506111096112e3565b6001600160a01b0316336001600160a01b0316145b80611141575061112c610d31565b6001600160a01b0316336001600160a01b0316145b61117c5760405162461bcd60e51b815260040180806020018281038252602c815260200180612339602c913960400191505060405180910390fd5b600854604080516370a0823160e01b815230600482015290516001600160a01b03909216916370a0823191602480820192602092909190829003018186803b1580156111c757600080fd5b505afa1580156111db573d6000803e3d6000fd5b505050506040513d60208110156111f157600080fd5b5051811161122157600b5460085461121c916001600160a01b0391821691168363ffffffff61135016565b611255565b61122a81611b0e565b600b5460085461124d916001600160a01b0391821691168363ffffffff61135016565b6112556108e9565b60095460408051633af9e66960e01b815230600482015290516001600160a01b0390921691633af9e669916024808201926020929091908290030181600087803b1580156112a257600080fd5b505af11580156112b6573d6000803e3d6000fd5b505050506040513d60208110156112cc57600080fd5b5051600e5550565b600e5481565b60115460ff1681565b60008060009054906101000a90046001600160a01b03166001600160a01b031663f77c47916040518163ffffffff1660e01b815260040160206040518083038186803b1580156105d457600080fd5b6003546001600160a01b031681565b600b546001600160a01b031681565b604080516001600160a01b038416602482015260448082018490528251808303909101815260649091019091526020810180516001600160e01b031663a9059cbb60e01b179052610748908490611bc7565b6000828201838110156113fc576040805162461bcd60e51b815260206004820152601b60248201527f536166654d6174683a206164646974696f6e206f766572666c6f770000000000604482015290519081900360640190fd5b90505b92915050565b60048054604080516370a0823160e01b815230938101939093525160009283926001600160a01b0316916370a0823191602480820192602092909190829003018186803b15801561145557600080fd5b505afa158015611469573d6000803e3d6000fd5b505050506040513d602081101561147f57600080fd5b505190508083101561148e5750815b6006546004546114b2916001600160a01b039182169116600063ffffffff611d7f16565b6006546004546114d5916001600160a01b0391821691168363ffffffff611d7f16565b6006546040805163140e25ad60e31b81526004810184905290516000926001600160a01b03169163a0712d6891602480830192602092919082900301818787803b15801561152257600080fd5b505af1158015611536573d6000803e3d6000fd5b505050506040513d602081101561154c57600080fd5b505190508015611596576040805162461bcd60e51b815260206004820152601060248201526f14dd5c1c1b1e5a5b99c819985a5b195960821b604482015290519081900360640190fd5b5092915050565b600c54604080516370a0823160e01b815230600482015290516000926001600160a01b0316916370a08231916024808301926020929190829003018186803b1580156115e857600080fd5b505afa1580156115fc573d6000803e3d6000fd5b505050506040513d602081101561161257600080fd5b5051601054909150811015611650576040517fd26ff69ffdb9c21e34f9b534127733d71db1159e23eb2e5105a07b91fa2768ac90600090a150610b5b565b61165981611e92565b600c54604080516370a0823160e01b815230600482015290516001600160a01b03909216916370a0823191602480820192602092909190829003018186803b1580156116a457600080fd5b505afa1580156116b8573d6000803e3d6000fd5b505050506040513d60208110156116ce57600080fd5b5051600d54600c549192506001916116fa916001600160a01b039182169116600063ffffffff611d7f16565b600d54600c5461171d916001600160a01b0391821691168463ffffffff611d7f16565b604080516003808252608082019092526060916020820183803883395050600c5482519293506001600160a01b03169183915060009061175957fe5b6001600160a01b03928316602091820292909201810191909152600d54604080516315ab88c960e31b81529051919093169263ad5c4648926004808301939192829003018186803b1580156117ad57600080fd5b505afa1580156117c1573d6000803e3d6000fd5b505050506040513d60208110156117d757600080fd5b50518151829060019081106117e857fe5b6001600160a01b03928316602091820292909201015260085482519116908290600290811061181357fe5b6001600160a01b03928316602091820292909201810191909152600d546040516338ed173960e01b815260048101878152602482018790523060648301819052426084840181905260a060448501908152885160a4860152885195909716966338ed1739968b968b968b96939260c490910191878201910280838360005b838110156118a9578181015183820152602001611891565b505050509050019650505050505050600060405180830381600087803b1580156118d257600080fd5b505af11580156118e6573d6000803e3d6000fd5b505050506040513d6000823e601f3d908101601f19168201604052602081101561190f57600080fd5b810190808051604051939291908464010000000082111561192f57600080fd5b90830190602082018581111561194457600080fd5b825186602082028301116401000000008211171561196157600080fd5b82525081516020918201928201910280838360005b8381101561198e578181015183820152602001611976565b5050505090500160405250505050505050565b600f5460ff16156119c1576119b461074d565b6119bc61159d565b6119eb565b6040517f6e180aeefd7fd43a105253e3c10a794670b4c6ef64e8a4d8879de77cfb09d61290600090a15b610c3361200b565b600f5460ff1615611a1357611a0661074d565b611a0e61159d565b611a3d565b6040517f6e180aeefd7fd43a105253e3c10a794670b4c6ef64e8a4d8879de77cfb09d61290600090a15b60095460408051633af9e66960e01b815230600482015290516000926001600160a01b031691633af9e66991602480830192602092919082900301818787803b158015611a8957600080fd5b505af1158015611a9d573d6000803e3d6000fd5b505050506040513d6020811015611ab357600080fd5b50519050611ac081611b0e565b5060095460408051633af9e66960e01b815230600482015290516001600160a01b0390921691633af9e669916024808201926020929091908290030181600087803b158015610a4957600080fd5b60095460408051631d8e90d160e11b8152905183926001600160a01b031691633b1d21a2916004808301926020929190829003018186803b158015611b5257600080fd5b505afa158015611b66573d6000803e3d6000fd5b505050506040513d6020811015611b7c57600080fd5b50511015611bbb5760405162461bcd60e51b81526004018080602001828103825260228152602001806123b06022913960400191505060405180910390fd5b611bc481612013565b50565b611bd9826001600160a01b0316612091565b611c2a576040805162461bcd60e51b815260206004820152601f60248201527f5361666545524332303a2063616c6c20746f206e6f6e2d636f6e747261637400604482015290519081900360640190fd5b60006060836001600160a01b0316836040518082805190602001908083835b60208310611c685780518252601f199092019160209182019101611c49565b6001836020036101000a0380198251168184511680821785525050505050509050019150506000604051808303816000865af19150503d8060008114611cca576040519150601f19603f3d011682016040523d82523d6000602084013e611ccf565b606091505b509150915081611d26576040805162461bcd60e51b815260206004820181905260248201527f5361666545524332303a206c6f772d6c6576656c2063616c6c206661696c6564604482015290519081900360640190fd5b8051156107ad57808060200190516020811015611d4257600080fd5b50516107ad5760405162461bcd60e51b815260040180806020018281038252602a815260200180612386602a913960400191505060405180910390fd5b801580611e05575060408051636eb1769f60e11b81523060048201526001600160a01b03848116602483015291519185169163dd62ed3e91604480820192602092909190829003018186803b158015611dd757600080fd5b505afa158015611deb573d6000803e3d6000fd5b505050506040513d6020811015611e0157600080fd5b5051155b611e405760405162461bcd60e51b81526004018080602001828103825260368152602001806123d26036913960400191505060405180910390fd5b604080516001600160a01b038416602482015260448082018490528251808303909101815260649091019091526020810180516001600160e01b031663095ea7b360e01b179052610748908490611bc7565b8015611fc9576000611ec1600254611eb5600154856120cd90919063ffffffff16565b9063ffffffff61212616565b6040805184815260208101839052428183015290519192507f33fd2845a0f10293482de360244dd4ad31ddbb4b8c4a1ded3875cf8ebfba184b919081900360600190a1611f29611f0f6112e3565b6003546001600160a01b031690600063ffffffff611d7f16565b611f4d611f346112e3565b6003546001600160a01b0316908363ffffffff611d7f16565b611f556112e3565b60035460408051631ee0d7e560e31b81526001600160a01b039283166004820152602481018590529051929091169163f706bf289160448082019260009290919082900301818387803b158015611fab57600080fd5b505af1158015611fbf573d6000803e3d6000fd5b5050505050611bc4565b6040805160008082526020820152428183015290517f33fd2845a0f10293482de360244dd4ad31ddbb4b8c4a1ded3875cf8ebfba184b9181900360600190a150565b610b5b612168565b8015611bc4576006546040805163852a12e360e01b81526004810184905290516001600160a01b039092169163852a12e3916024808201926020929091908290030181600087803b15801561206757600080fd5b505af115801561207b573d6000803e3d6000fd5b505050506040513d602081101561074857600080fd5b6000813f7fc5d2460186f7233c927e7db2dcc703c0e500b653ca82273b7bfad8045d85a4708181148015906120c557508115155b949350505050565b6000826120dc575060006113ff565b828202828482816120e957fe5b04146113fc5760405162461bcd60e51b81526004018080602001828103825260218152602001806123656021913960400191505060405180910390fd5b60006113fc83836040518060400160405280601a81526020017f536166654d6174683a206469766973696f6e206279207a65726f000000000000815250612274565b60065460408051631d8e90d160e11b815290516000926001600160a01b031691633b1d21a2916004808301926020929190829003018186803b1580156121ad57600080fd5b505afa1580156121c1573d6000803e3d6000fd5b505050506040513d60208110156121d757600080fd5b505160065460408051633af9e66960e01b815230600482015290519293506000926001600160a01b0390921691633af9e6699160248082019260209290919082900301818787803b15801561222b57600080fd5b505af115801561223f573d6000803e3d6000fd5b505050506040513d602081101561225557600080fd5b50519050612270818310612269578161226b565b825b612013565b5050565b600081836123005760405162461bcd60e51b81526004018080602001828103825283818151815260200191508051906020019080838360005b838110156122c55781810151838201526020016122ad565b50505050905090810190601f1680156122f25780820380516001836020036101000a031916815260200191505b509250505060405180910390fd5b50600083858161230c57fe5b049594505050505056fe746f6b656e20697320646566696e6564206173206e6f742073616c76616761626c655468652073656e6465722068617320746f2062652074686520636f6e74726f6c6c6572206f72207661756c74536166654d6174683a206d756c7469706c69636174696f6e206f766572666c6f775361666545524332303a204552433230206f7065726174696f6e20646964206e6f7420737563636565646d61726b657420636173682063616e6e6f7420636f766572206c69717569646974795361666545524332303a20617070726f76652066726f6d206e6f6e2d7a65726f20746f206e6f6e2d7a65726f20616c6c6f77616e6365a265627a7a72315820ee3d213b221e37c6f264fa4c0d78f663318d340b73ac18afa2e0b6d1dcc05a7864736f6c634300051000327661756c7420646f6573206e6f7420737570706f727420756e6465726c79696e67",
  "source": "pragma solidity 0.5.16;\n\nimport \"@openzeppelin/contracts/math/Math.sol\";\nimport \"@openzeppelin/contracts/math/SafeMath.sol\";\nimport \"@openzeppelin/contracts/token/ERC20/ERC20Detailed.sol\";\nimport \"@openzeppelin/contracts/token/ERC20/SafeERC20.sol\";\nimport \"./CompoundInteractor.sol\";\nimport \"./CompleteCToken.sol\";\nimport \"../LiquidityRecipient.sol\";\nimport \"../../Controllable.sol\";\nimport \"../RewardTokenProfitNotifier.sol\";\nimport \"../../compound/ComptrollerInterface.sol\";\nimport \"../../compound/CTokenInterfaces.sol\";\nimport \"../../hardworkInterface/IStrategy.sol\";\nimport \"../../uniswap/interfaces/IUniswapV2Router02.sol\";\nimport \"../../hardworkInterface/IVault.sol\";\n\ncontract CompoundNoFoldStrategy is IStrategy, RewardTokenProfitNotifier, CompoundInteractor {\n\n  using SafeMath for uint256;\n  using SafeERC20 for IERC20;\n\n  event ProfitNotClaimed();\n  event TooLowBalance();\n\n  ERC20Detailed public underlying;\n  CompleteCToken public ctoken;\n  ComptrollerInterface public comptroller;\n\n  address public vault;\n  ERC20Detailed public comp; // this will be Cream or Comp\n\n  address public uniswapRouterV2;\n  uint256 public suppliedInUnderlying;\n  bool public liquidationAllowed = true;\n  uint256 public sellFloor = 0;\n  bool public allowEmergencyLiquidityShortage = false;\n\n  // These tokens cannot be claimed by the controller\n  mapping(address => bool) public unsalvagableTokens;\n\n  modifier restricted() {\n    require(msg.sender == vault || msg.sender == address(controller()) || msg.sender == address(governance()),\n      \"The sender has to be the controller or vault\");\n    _;\n  }\n\n  constructor(\n    address _storage,\n    address _underlying,\n    address _ctoken,\n    address _vault,\n    address _comptroller,\n    address _comp,\n    address _uniswap\n  )\n  RewardTokenProfitNotifier(_storage, _comp)\n  CompoundInteractor(_underlying, _ctoken, _comptroller) public {\n    require(IVault(_vault).underlying() == _underlying, \"vault does not support underlying\");\n    comptroller = ComptrollerInterface(_comptroller);\n    comp = ERC20Detailed(_comp);\n    underlying = ERC20Detailed(_underlying);\n    ctoken = CompleteCToken(_ctoken);\n    vault = _vault;\n    uniswapRouterV2 = _uniswap;\n\n    // set these tokens to be not salvagable\n    unsalvagableTokens[_underlying] = true;\n    unsalvagableTokens[_ctoken] = true;\n    unsalvagableTokens[_comp] = true;\n  }\n\n  modifier updateSupplyInTheEnd() {\n    _;\n    suppliedInUnderlying = ctoken.balanceOfUnderlying(address(this));\n  }\n\n  function depositArbCheck() public view returns (bool) {\n    // there's no arb here.\n    return true;\n  }\n\n  /**\n  * The strategy invests by supplying the underlying as a collateral.\n  */\n  function investAllUnderlying() public restricted updateSupplyInTheEnd {\n    uint256 balance = underlying.balanceOf(address(this));\n    _supply(balance);\n  }\n\n  /**\n  * Exits Compound and transfers everything to the vault.\n  */\n  function withdrawAllToVault() external restricted updateSupplyInTheEnd {\n    if (allowEmergencyLiquidityShortage) {\n      withdrawMaximum();\n    } else {\n      withdrawAllWeInvested();\n    }\n    IERC20(address(underlying)).safeTransfer(vault, underlying.balanceOf(address(this)));\n  }\n\n  function emergencyExit() external onlyGovernance updateSupplyInTheEnd {\n    withdrawMaximum();\n  }\n\n  function withdrawMaximum() internal updateSupplyInTheEnd {\n    if (liquidationAllowed) {\n      claimComp();\n      liquidateComp();\n    } else {\n      emit ProfitNotClaimed();\n    }\n    redeemMaximum();\n  }\n\n  function withdrawAllWeInvested() internal updateSupplyInTheEnd {\n    if (liquidationAllowed) {\n      claimComp();\n      liquidateComp();\n    } else {\n      emit ProfitNotClaimed();\n    }\n    uint256 currentBalance = ctoken.balanceOfUnderlying(address(this));\n    mustRedeemPartial(currentBalance);\n  }\n\n  function withdrawToVault(uint256 amountUnderlying) external restricted updateSupplyInTheEnd {\n    if (amountUnderlying <= underlying.balanceOf(address(this))) {\n      IERC20(address(underlying)).safeTransfer(vault, amountUnderlying);\n      return;\n    }\n\n    // get some of the underlying\n    mustRedeemPartial(amountUnderlying);\n\n    // transfer the amount requested (or the amount we have) back to vault\n    IERC20(address(underlying)).safeTransfer(vault, amountUnderlying);\n\n    // invest back to cream\n    investAllUnderlying();\n  }\n\n  /**\n  * Withdraws all assets, liquidates COMP/CREAM, and invests again in the required ratio.\n  */\n  function doHardWork() public restricted {\n    if (liquidationAllowed) {\n      claimComp();\n      liquidateComp();\n    } else {\n      emit ProfitNotClaimed();\n    }\n    investAllUnderlying();\n  }\n\n  /**\n  * Redeems maximum that can be redeemed from Compound.\n  * Redeem the minimum of the underlying we own, and the underlying that the cToken can\n  * immediately retrieve. Ensures that `redeemMaximum` doesn't fail silently.\n  *\n  * DOES NOT ensure that the strategy cUnderlying balance becomes 0.\n  */\n  function redeemMaximum() internal {\n    redeemMaximumToken();\n  }\n\n  /**\n  * Redeems `amountUnderlying` or fails.\n  */\n  function mustRedeemPartial(uint256 amountUnderlying) internal {\n    require(\n      ctoken.getCash() >= amountUnderlying,\n      \"market cash cannot cover liquidity\"\n    );\n    _redeemUnderlying(amountUnderlying);\n  }\n\n  /**\n  * Salvages a token.\n  */\n  function salvage(address recipient, address token, uint256 amount) public onlyGovernance {\n    // To make sure that governance cannot come in and take away the coins\n    require(!unsalvagableTokens[token], \"token is defined as not salvagable\");\n    IERC20(token).safeTransfer(recipient, amount);\n  }\n\n  function liquidateComp() internal {\n    uint256 balance = comp.balanceOf(address(this));\n    if (balance < sellFloor) {\n      emit TooLowBalance();\n      return;\n    }\n\n    // give a profit share to fee forwarder, which re-distributes this to\n    // the profit sharing pools\n    notifyProfitInRewardToken(balance);\n\n    balance = comp.balanceOf(address(this));\n    // we can accept 1 as minimum as this will be called by trusted roles only\n    uint256 amountOutMin = 1;\n    IERC20(address(comp)).safeApprove(address(uniswapRouterV2), 0);\n    IERC20(address(comp)).safeApprove(address(uniswapRouterV2), balance);\n    address[] memory path = new address[](3);\n    path[0] = address(comp);\n    path[1] = IUniswapV2Router02(uniswapRouterV2).WETH();\n    path[2] = address(underlying);\n    IUniswapV2Router02(uniswapRouterV2).swapExactTokensForTokens(\n      balance,\n      amountOutMin,\n      path,\n      address(this),\n      block.timestamp\n    );\n  }\n\n  /**\n  * Returns the current balance. Ignores COMP/CREAM that was not liquidated and invested.\n  */\n  function investedUnderlyingBalance() public view returns (uint256) {\n    // underlying in this strategy + underlying redeemable from Compound/Cream\n    return underlying.balanceOf(address(this)).add(suppliedInUnderlying);\n  }\n\n  /**\n  * Allows liquidation\n  */\n  function setLiquidationAllowed(\n    bool allowed\n  ) external restricted {\n    liquidationAllowed = allowed;\n  }\n\n  function setAllowLiquidityShortage(\n    bool allowed\n  ) external restricted {\n    allowEmergencyLiquidityShortage = allowed;\n  }\n\n  function setSellFloor(uint256 value) external restricted {\n    sellFloor = value;\n  }\n}\n",
  "sourcePath": "/home/madhav/Vaults/contracts/strategies/compound/CompoundNoFoldStrategy.sol",
  "compiler": {
    "name": "solc",
    "version": "0.5.16+commit.9c3226ce.Emscripten.clang"
  },
  "schemaVersion": "3.2.5",
  "updatedAt": "2020-12-05T16:27:34.992Z",
  "devdoc": {
    "methods": {}
  },
  "userdoc": {
    "methods": {
      "claimComp()": {
        "notice": "Get COMP"
      },
      "doHardWork()": {
        "notice": "Withdraws all assets, liquidates COMP/CREAM, and invests again in the required ratio."
      },
      "investAllUnderlying()": {
        "notice": "The strategy invests by supplying the underlying as a collateral."
      },
      "investedUnderlyingBalance()": {
        "notice": "Returns the current balance. Ignores COMP/CREAM that was not liquidated and invested."
      },
      "salvage(address,address,uint256)": {
        "notice": "Salvages a token."
      },
      "setLiquidationAllowed(bool)": {
        "notice": "Allows liquidation"
      },
      "withdrawAllToVault()": {
        "notice": "Exits Compound and transfers everything to the vault."
      }
    }
  }
}