{
  "contractName": "CompoundApyOracle",
  "abi": [
    {
      "inputs": [
        {
          "internalType": "address",
          "name": "_underlying",
          "type": "address"
        },
        {
          "internalType": "address",
          "name": "_ctoken",
          "type": "address"
        },
        {
          "internalType": "address",
          "name": "_comptroller",
          "type": "address"
        }
      ],
      "payable": false,
      "stateMutability": "nonpayable",
      "type": "constructor"
    },
    {
      "anonymous": false,
      "inputs": [
        {
          "indexed": true,
          "internalType": "address",
          "name": "previousOwner",
          "type": "address"
        },
        {
          "indexed": true,
          "internalType": "address",
          "name": "newOwner",
          "type": "address"
        }
      ],
      "name": "OwnershipTransferred",
      "type": "event"
    },
    {
      "constant": true,
      "inputs": [],
      "name": "apyDecimals",
      "outputs": [
        {
          "internalType": "uint256",
          "name": "",
          "type": "uint256"
        }
      ],
      "payable": false,
      "stateMutability": "view",
      "type": "function"
    },
    {
      "constant": true,
      "inputs": [],
      "name": "blocksPerYear",
      "outputs": [
        {
          "internalType": "uint256",
          "name": "",
          "type": "uint256"
        }
      ],
      "payable": false,
      "stateMutability": "view",
      "type": "function"
    },
    {
      "constant": true,
      "inputs": [],
      "name": "compPrice",
      "outputs": [
        {
          "internalType": "uint256",
          "name": "",
          "type": "uint256"
        }
      ],
      "payable": false,
      "stateMutability": "view",
      "type": "function"
    },
    {
      "constant": true,
      "inputs": [],
      "name": "comptroller",
      "outputs": [
        {
          "internalType": "contract ComptrollerInterface",
          "name": "",
          "type": "address"
        }
      ],
      "payable": false,
      "stateMutability": "view",
      "type": "function"
    },
    {
      "constant": true,
      "inputs": [],
      "name": "ctoken",
      "outputs": [
        {
          "internalType": "contract CompleteCToken",
          "name": "",
          "type": "address"
        }
      ],
      "payable": false,
      "stateMutability": "view",
      "type": "function"
    },
    {
      "constant": true,
      "inputs": [],
      "name": "isOwner",
      "outputs": [
        {
          "internalType": "bool",
          "name": "",
          "type": "bool"
        }
      ],
      "payable": false,
      "stateMutability": "view",
      "type": "function"
    },
    {
      "constant": true,
      "inputs": [],
      "name": "owner",
      "outputs": [
        {
          "internalType": "address",
          "name": "",
          "type": "address"
        }
      ],
      "payable": false,
      "stateMutability": "view",
      "type": "function"
    },
    {
      "constant": true,
      "inputs": [],
      "name": "profitComp",
      "outputs": [
        {
          "internalType": "uint256",
          "name": "",
          "type": "uint256"
        }
      ],
      "payable": false,
      "stateMutability": "view",
      "type": "function"
    },
    {
      "constant": true,
      "inputs": [],
      "name": "ratioDenominator",
      "outputs": [
        {
          "internalType": "uint256",
          "name": "",
          "type": "uint256"
        }
      ],
      "payable": false,
      "stateMutability": "view",
      "type": "function"
    },
    {
      "constant": true,
      "inputs": [],
      "name": "ratioNumerator",
      "outputs": [
        {
          "internalType": "uint256",
          "name": "",
          "type": "uint256"
        }
      ],
      "payable": false,
      "stateMutability": "view",
      "type": "function"
    },
    {
      "constant": false,
      "inputs": [],
      "name": "renounceOwnership",
      "outputs": [],
      "payable": false,
      "stateMutability": "nonpayable",
      "type": "function"
    },
    {
      "constant": false,
      "inputs": [
        {
          "internalType": "address",
          "name": "newOwner",
          "type": "address"
        }
      ],
      "name": "transferOwnership",
      "outputs": [],
      "payable": false,
      "stateMutability": "nonpayable",
      "type": "function"
    },
    {
      "constant": true,
      "inputs": [],
      "name": "underlying",
      "outputs": [
        {
          "internalType": "contract ERC20Detailed",
          "name": "",
          "type": "address"
        }
      ],
      "payable": false,
      "stateMutability": "view",
      "type": "function"
    },
    {
      "constant": true,
      "inputs": [
        {
          "internalType": "uint256",
          "name": "underlyingAmount",
          "type": "uint256"
        }
      ],
      "name": "getCostOfBorrowing",
      "outputs": [
        {
          "internalType": "uint256",
          "name": "",
          "type": "uint256"
        }
      ],
      "payable": false,
      "stateMutability": "view",
      "type": "function"
    },
    {
      "constant": true,
      "inputs": [
        {
          "internalType": "uint256",
          "name": "underlyingAmount",
          "type": "uint256"
        }
      ],
      "name": "getYearEndAssets",
      "outputs": [
        {
          "internalType": "uint256",
          "name": "",
          "type": "uint256"
        }
      ],
      "payable": false,
      "stateMutability": "view",
      "type": "function"
    },
    {
      "constant": false,
      "inputs": [
        {
          "internalType": "uint256",
          "name": "underlyingAmount",
          "type": "uint256"
        }
      ],
      "name": "updateExpectedCompProfit",
      "outputs": [],
      "payable": false,
      "stateMutability": "nonpayable",
      "type": "function"
    },
    {
      "constant": true,
      "inputs": [
        {
          "internalType": "uint256",
          "name": "",
          "type": "uint256"
        }
      ],
      "name": "getExpectedCompProfit",
      "outputs": [
        {
          "internalType": "uint256",
          "name": "",
          "type": "uint256"
        }
      ],
      "payable": false,
      "stateMutability": "view",
      "type": "function"
    },
    {
      "constant": true,
      "inputs": [
        {
          "internalType": "uint256",
          "name": "underlyingAmount",
          "type": "uint256"
        }
      ],
      "name": "getApy",
      "outputs": [
        {
          "internalType": "uint256",
          "name": "",
          "type": "uint256"
        }
      ],
      "payable": false,
      "stateMutability": "view",
      "type": "function"
    },
    {
      "constant": false,
      "inputs": [
        {
          "internalType": "uint256",
          "name": "price",
          "type": "uint256"
        }
      ],
      "name": "setCompPrice",
      "outputs": [],
      "payable": false,
      "stateMutability": "nonpayable",
      "type": "function"
    }
  ],
  "bytecode": "0x6080604052604b6004556064600555622014806006556305f5e10060075534801561002957600080fd5b50604051610f09380380610f098339818101604052606081101561004c57600080fd5b508051602082015160409092015190919060006100706001600160e01b0361017316565b600080546001600160a01b0319166001600160a01b0383169081178255604051929350917f8be0079c531659141344cd1fd0a4f28419497f9722a3daafe3b4186f6b6457e0908290a350600380546001600160a01b038084166001600160a01b031992831617909255600180548684169083161790819055600280548685169316929092179091556040805163313ce56760e01b81529051919092169163313ce567916004808301926020929190829003018186803b15801561013257600080fd5b505afa158015610146573d6000803e3d6000fd5b505050506040513d602081101561015c57600080fd5b505160ff16600a0a60960260095550610177915050565b3390565b610d83806101866000396000f3fe608060405234801561001057600080fd5b50600436106101215760003560e01c80638da5cb5b116100ad578063b813ef6511610071578063b813ef6514610243578063c17449891461024b578063ccf3eb9f14610268578063f2fde38b14610270578063f6787d8a1461029657610121565b80638da5cb5b146101f25780638f32d59b146101fa578063a385fb9614610216578063b1b1b2821461021e578063b3b60b7e1461023b57610121565b80633e79c52b116100f45780633e79c52b146101825780635fe3b5671461019f5780636f307dc3146101c3578063715018a6146101cb5780637b520d1b146101d557610121565b80630934280c146101265780630d62033614610155578063171b9e0a1461015d5780633b2424391461017a575b600080fd5b6101436004803603602081101561013c57600080fd5b503561029e565b60408051918252519081900360200190f35b610143610399565b6101436004803603602081101561017357600080fd5b503561039f565b610143610454565b6101436004803603602081101561019857600080fd5b503561045a565b6101a76104cf565b604080516001600160a01b039092168252519081900360200190f35b6101a76104de565b6101d36104ed565b005b610143600480360360208110156101eb57600080fd5b503561057e565b6101a7610585565b610202610594565b604080519115158252519081900360200190f35b6101436105b8565b6101d36004803603602081101561023457600080fd5b50356105be565b61014361060a565b610143610610565b6101d36004803603602081101561026157600080fd5b5035610616565b6101a7610934565b6101d36004803603602081101561028657600080fd5b50356001600160a01b0316610943565b610143610996565b600080600260009054906101000a90046001600160a01b03166001600160a01b031663f8f9da286040518163ffffffff1660e01b815260040160206040518083038186803b1580156102ef57600080fd5b505afa158015610303573d6000803e3d6000fd5b505050506040513d602081101561031957600080fd5b5051905060006103556402540be400610349670de0b6b3a764000061033d8661099c565b9063ffffffff610a0716565b9063ffffffff610a5216565b9050600061037460055461034960045488610a9490919063ffffffff16565b905061038e6305f5e100610349848463ffffffff610a9416565b93505050505b919050565b60075481565b600080600260009054906101000a90046001600160a01b03166001600160a01b031663ae9d70b06040518163ffffffff1660e01b815260040160206040518083038186803b1580156103f057600080fd5b505afa158015610404573d6000803e3d6000fd5b505050506040513d602081101561041a57600080fd5b5051905060006104326402540be4006103498461099c565b905061044c6305f5e100610349868463ffffffff610a9416565b949350505050565b60055481565b6000806104668361029e565b9050600061048f8461033d61047a8761057e565b6104838861039f565b9063ffffffff610aed16565b90508181116104a357600092505050610394565b61044c846103496007546064026104c38686610a0790919063ffffffff16565b9063ffffffff610a9416565b6003546001600160a01b031681565b6001546001600160a01b031681565b6104f5610594565b610534576040805162461bcd60e51b81526020600482018190526024820152600080516020610d2f833981519152604482015290519081900360640190fd5b600080546040516001600160a01b03909116907f8be0079c531659141344cd1fd0a4f28419497f9722a3daafe3b4186f6b6457e0908390a3600080546001600160a01b0319169055565b5060085490565b6000546001600160a01b031690565b600080546001600160a01b03166105a9610b47565b6001600160a01b031614905090565b60065481565b6105c6610594565b610605576040805162461bcd60e51b81526020600482018190526024820152600080516020610d2f833981519152604482015290519081900360640190fd5b600955565b60095481565b60085481565b61061e610594565b61065d576040805162461bcd60e51b81526020600482018190526024820152600080516020610d2f833981519152604482015290519081900360640190fd5b60035460025460408051631d7b33d760e01b81526001600160a01b03928316600482015290516000939290921691631d7b33d791602480820192602092909190829003018186803b1580156106b157600080fd5b505afa1580156106c5573d6000803e3d6000fd5b505050506040513d60208110156106db57600080fd5b505160025460408051630e759dd360e31b815290519293506000926001600160a01b03909216916373acee989160048082019260209290919082900301818787803b15801561072957600080fd5b505af115801561073d573d6000803e3d6000fd5b505050506040513d602081101561075357600080fd5b5051600554600454919250600091610777919061034990879063ffffffff610a9416565b9050600061079e61078e848463ffffffff610aed16565b610349868563ffffffff610a9416565b905060006107b760065483610a9490919063ffffffff16565b90506000600260009054906101000a90046001600160a01b03166001600160a01b0316633b1d21a26040518163ffffffff1660e01b815260040160206040518083038186803b15801561080957600080fd5b505afa15801561081d573d6000803e3d6000fd5b505050506040513d602081101561083357600080fd5b50519050600061085c61084c838a63ffffffff610aed16565b610349898b63ffffffff610a9416565b9050600061087560065483610a9490919063ffffffff16565b9050610926600160009054906101000a90046001600160a01b03166001600160a01b031663313ce5676040518163ffffffff1660e01b815260040160206040518083038186803b1580156108c857600080fd5b505afa1580156108dc573d6000803e3d6000fd5b505050506040513d60208110156108f257600080fd5b505160ff16600a0a610349610917670de0b6b3a764000082868a63ffffffff610aed16565b6009549063ffffffff610a9416565b600855505050505050505050565b6002546001600160a01b031681565b61094b610594565b61098a576040805162461bcd60e51b81526020600482018190526024820152600080516020610d2f833981519152604482015290519081900360640190fd5b61099381610b4b565b50565b60045481565b6006546000906064670de0b6b3a76400008401045b81156109fd57600282066109d657600290910490662386f26fc10000908002046109f8565b6064670de0b6b3a764000085010402662386f26fc10000810490506001820391505b6109b1565b6064029392505050565b6000610a4983836040518060400160405280601e81526020017f536166654d6174683a207375627472616374696f6e206f766572666c6f770000815250610beb565b90505b92915050565b6000610a4983836040518060400160405280601a81526020017f536166654d6174683a206469766973696f6e206279207a65726f000000000000815250610c82565b600082610aa357506000610a4c565b82820282848281610ab057fe5b0414610a495760405162461bcd60e51b8152600401808060200182810382526021815260200180610d0e6021913960400191505060405180910390fd5b600082820183811015610a49576040805162461bcd60e51b815260206004820152601b60248201527f536166654d6174683a206164646974696f6e206f766572666c6f770000000000604482015290519081900360640190fd5b3390565b6001600160a01b038116610b905760405162461bcd60e51b8152600401808060200182810382526026815260200180610ce86026913960400191505060405180910390fd5b600080546040516001600160a01b03808516939216917f8be0079c531659141344cd1fd0a4f28419497f9722a3daafe3b4186f6b6457e091a3600080546001600160a01b0319166001600160a01b0392909216919091179055565b60008184841115610c7a5760405162461bcd60e51b81526004018080602001828103825283818151815260200191508051906020019080838360005b83811015610c3f578181015183820152602001610c27565b50505050905090810190601f168015610c6c5780820380516001836020036101000a031916815260200191505b509250505060405180910390fd5b505050900390565b60008183610cd15760405162461bcd60e51b8152602060048201818152835160248401528351909283926044909101919085019080838360008315610c3f578181015183820152602001610c27565b506000838581610cdd57fe5b049594505050505056fe4f776e61626c653a206e6577206f776e657220697320746865207a65726f2061646472657373536166654d6174683a206d756c7469706c69636174696f6e206f766572666c6f774f776e61626c653a2063616c6c6572206973206e6f7420746865206f776e6572a265627a7a723158204e49e79994c1ee0ac07e03be758da9b9732bfb9ddbd1ed0c7b73f79aeb8f5b4e64736f6c63430005100032",
  "source": "pragma solidity 0.5.16;\n\nimport \"@openzeppelin/contracts/math/Math.sol\";\nimport \"@openzeppelin/contracts/token/ERC20/ERC20Detailed.sol\";\nimport \"@openzeppelin/contracts/ownership/Ownable.sol\";\nimport \"@openzeppelin/contracts/math/SafeMath.sol\";\nimport \"../../compound/ComptrollerInterface.sol\";\nimport \"../../compound/CTokenInterfaces.sol\";\nimport \"../../hardworkInterface/IStrategy.sol\";\nimport \"./CompoundInteractor.sol\";\nimport \"./CompleteCToken.sol\";\n\ncontract CompoundApyOracle is Ownable {\n\n  using SafeMath for uint256;\n\n  ERC20Detailed public underlying;\n  CompleteCToken public ctoken;\n  ComptrollerInterface public comptroller;\n\n  uint256 public ratioNumerator = 75;\n  uint256 public ratioDenominator = 100;\n  uint256 public blocksPerYear = 4 * 60 * 24 * 365;\n  uint256 public apyDecimals = 10 ** 8;\n  uint256 public profitComp;\n  uint256 public compPrice;\n\n  constructor(\n    address _underlying,\n    address _ctoken,\n    address _comptroller\n  ) public {\n    comptroller = ComptrollerInterface(_comptroller);\n    // COMP: 0xc00e94Cb662C3520282E6f5717214004A7f26888\n    underlying = ERC20Detailed(_underlying);\n    ctoken = CompleteCToken(_ctoken);\n    compPrice = 150 * (10 ** uint256(underlying.decimals()));\n  }\n\n  /**\n  * Converts interest per block into APY. It is assumed that the interest is scaled to 1e18\n  * (so that 1e18) is 100%, and that it is bigger than 100.\n  */\n  function annualize(uint256 interest) internal view returns (uint256) {\n    uint256 i = blocksPerYear;\n    uint256 result = 10 ** 18 + interest;\n    // divide by 100 to make some space for calculating powers\n    result = result / 100;\n    while (i > 0) {\n      if (i % 2 == 0) {\n        result = result * result;\n        result = result / (10 ** 16);\n        i = i / 2;\n      } else {\n        result = result * ((10 ** 18 + interest) / 100);\n        result = result / (10 ** 16);\n        i = i - 1;\n      }\n    }\n    return result * 100;\n  }\n\n  /**\n  * Calculates the interest charge for borrowing a portion of the underlying amount\n  * given by the desired collateral ratio. The result is an approximation.\n  */\n  function getCostOfBorrowing(uint256 underlyingAmount) public view returns (uint256) {\n    uint256 borrowRateMantissa = ctoken.borrowRatePerBlock();\n    // divide to make space for multiplication\n    uint256 interest = annualize(borrowRateMantissa).sub(10 ** 18).div(10 ** 10);\n    uint256 borrowAmount = underlyingAmount.mul(ratioNumerator).div(ratioDenominator);\n    return interest.mul(borrowAmount).div(10 ** 8);\n  }\n\n  /**\n  * Calculates the value of the underlyingAmount after accumulating interest\n  * over a year, compounded in each block. The result is an approximation.\n  */\n  function getYearEndAssets(uint256 underlyingAmount) public view returns (uint256) {\n    uint256 supplyRateMantissa = ctoken.supplyRatePerBlock();\n    // divide to make space for multiplication\n    uint256 apy = annualize(supplyRateMantissa).div(10 ** 10);\n    return underlyingAmount.mul(apy).div(10 ** 8);\n  }\n\n  /**\n  * Calculates and stores profit from COMP over one year if the given underlying amount\n  * was supplied and borrowed against in the give collateral ratio. This must be called\n  * periodically to get the APY roughly accurate as the total borrow amounts in Compound\n  * change.\n  */\n  function updateExpectedCompProfit(uint256 underlyingAmount) public onlyOwner {\n    // COMP issued per block to suppliers OR borrowers * (1 * 10 ^ 18)\n    uint256 compSpeed = comptroller.compSpeeds(address(ctoken));\n\n    // COMP from borrowing\n    // !!! This is not a view function\n    uint256 borrows = ctoken.totalBorrowsCurrent();\n    uint256 ourBorrow = underlyingAmount.mul(ratioNumerator).div(ratioDenominator);\n    uint256 compPerBlockForBorrow = compSpeed.mul(ourBorrow).div(borrows.add(ourBorrow));\n    uint256 borrowComp = compPerBlockForBorrow.mul(blocksPerYear);\n\n    // COMP from supplying\n    uint256 cash = ctoken.getCash();\n    uint256 compPerBlockForSupply = compSpeed\n        .mul(underlyingAmount)\n        .div(cash.add(underlyingAmount));\n    uint256 supplyComp = compPerBlockForSupply.mul(blocksPerYear);\n\n    profitComp = compPrice\n        .mul(supplyComp.add(borrowComp).div(10 ** 18))\n        .div(10 ** uint256(underlying.decimals()));\n  }\n\n  function getExpectedCompProfit(uint256 /* underlyingAmount */) public view returns (uint256) {\n    return profitComp;\n  }\n\n  /**\n  * Returns the APY for the underlying amount. Uses COMP profit stored in this contract.\n  */\n  function getApy(uint256 underlyingAmount) external view returns (uint256) {\n    uint256 totalCost = getCostOfBorrowing(underlyingAmount);\n    uint256 totalGain = getYearEndAssets(underlyingAmount)\n        .add(getExpectedCompProfit(underlyingAmount))\n        .sub(underlyingAmount);\n\n    if (totalGain <= totalCost) {\n      return 0;\n    }\n    return totalGain.sub(totalCost).mul(100 * apyDecimals).div(underlyingAmount);\n  }\n\n  /**\n  * Returns the price of COMP in the units of underlying.\n  */\n  function setCompPrice(uint256 price) public onlyOwner {\n    compPrice = price;\n  }\n}\n",
  "sourcePath": "/home/madhav/Vaults/contracts/strategies/compound/CompoundApyOracle.sol",
  "compiler": {
    "name": "solc",
    "version": "0.5.16+commit.9c3226ce.Emscripten.clang"
  },
  "schemaVersion": "3.2.5",
  "updatedAt": "2020-12-05T16:27:34.980Z",
  "devdoc": {
    "methods": {
      "isOwner()": {
        "details": "Returns true if the caller is the current owner."
      },
      "owner()": {
        "details": "Returns the address of the current owner."
      },
      "renounceOwnership()": {
        "details": "Leaves the contract without owner. It will not be possible to call `onlyOwner` functions anymore. Can only be called by the current owner.     * NOTE: Renouncing ownership will leave the contract without an owner, thereby removing any functionality that is only available to the owner."
      },
      "transferOwnership(address)": {
        "details": "Transfers ownership of the contract to a new account (`newOwner`). Can only be called by the current owner."
      }
    }
  },
  "userdoc": {
    "methods": {
      "getApy(uint256)": {
        "notice": "Returns the APY for the underlying amount. Uses COMP profit stored in this contract."
      },
      "getCostOfBorrowing(uint256)": {
        "notice": "Calculates the interest charge for borrowing a portion of the underlying amount given by the desired collateral ratio. The result is an approximation."
      },
      "getYearEndAssets(uint256)": {
        "notice": "Calculates the value of the underlyingAmount after accumulating interest over a year, compounded in each block. The result is an approximation."
      },
      "setCompPrice(uint256)": {
        "notice": "Returns the price of COMP in the units of underlying."
      },
      "updateExpectedCompProfit(uint256)": {
        "notice": "Calculates and stores profit from COMP over one year if the given underlying amount was supplied and borrowed against in the give collateral ratio. This must be called periodically to get the APY roughly accurate as the total borrow amounts in Compound change."
      }
    }
  }
}