{
  "contractName": "CompoundWETHFoldStrategyMainnet",
  "abi": [
    {
      "inputs": [
        {
          "internalType": "address",
          "name": "_storage",
          "type": "address"
        },
        {
          "internalType": "address",
          "name": "_vault",
          "type": "address"
        }
      ],
      "payable": false,
      "stateMutability": "nonpayable",
      "type": "constructor"
    },
    {
      "anonymous": false,
      "inputs": [
        {
          "indexed": false,
          "internalType": "uint256",
          "name": "amount",
          "type": "uint256"
        }
      ],
      "name": "Liquidated",
      "type": "event"
    },
    {
      "anonymous": false,
      "inputs": [
        {
          "indexed": false,
          "internalType": "uint256",
          "name": "profitAmount",
          "type": "uint256"
        },
        {
          "indexed": false,
          "internalType": "uint256",
          "name": "feeAmount",
          "type": "uint256"
        },
        {
          "indexed": false,
          "internalType": "uint256",
          "name": "timestamp",
          "type": "uint256"
        }
      ],
      "name": "ProfitLogInReward",
      "type": "event"
    },
    {
      "anonymous": false,
      "inputs": [],
      "name": "ProfitNotClaimed",
      "type": "event"
    },
    {
      "anonymous": false,
      "inputs": [],
      "name": "TooLowBalance",
      "type": "event"
    },
    {
      "payable": true,
      "stateMutability": "payable",
      "type": "fallback"
    },
    {
      "constant": true,
      "inputs": [],
      "name": "__comp",
      "outputs": [
        {
          "internalType": "address",
          "name": "",
          "type": "address"
        }
      ],
      "payable": false,
      "stateMutability": "view",
      "type": "function"
    },
    {
      "constant": true,
      "inputs": [],
      "name": "__comptroller",
      "outputs": [
        {
          "internalType": "address",
          "name": "",
          "type": "address"
        }
      ],
      "payable": false,
      "stateMutability": "view",
      "type": "function"
    },
    {
      "constant": true,
      "inputs": [],
      "name": "__ctoken",
      "outputs": [
        {
          "internalType": "address",
          "name": "",
          "type": "address"
        }
      ],
      "payable": false,
      "stateMutability": "view",
      "type": "function"
    },
    {
      "constant": true,
      "inputs": [],
      "name": "__underlying",
      "outputs": [
        {
          "internalType": "address",
          "name": "",
          "type": "address"
        }
      ],
      "payable": false,
      "stateMutability": "view",
      "type": "function"
    },
    {
      "constant": true,
      "inputs": [],
      "name": "__uniswap",
      "outputs": [
        {
          "internalType": "address",
          "name": "",
          "type": "address"
        }
      ],
      "payable": false,
      "stateMutability": "view",
      "type": "function"
    },
    {
      "constant": true,
      "inputs": [],
      "name": "_weth",
      "outputs": [
        {
          "internalType": "contract IERC20",
          "name": "",
          "type": "address"
        }
      ],
      "payable": false,
      "stateMutability": "view",
      "type": "function"
    },
    {
      "constant": true,
      "inputs": [],
      "name": "allowEmergencyLiquidityShortage",
      "outputs": [
        {
          "internalType": "bool",
          "name": "",
          "type": "bool"
        }
      ],
      "payable": false,
      "stateMutability": "view",
      "type": "function"
    },
    {
      "constant": true,
      "inputs": [],
      "name": "borrowMinThreshold",
      "outputs": [
        {
          "internalType": "uint256",
          "name": "",
          "type": "uint256"
        }
      ],
      "payable": false,
      "stateMutability": "view",
      "type": "function"
    },
    {
      "constant": true,
      "inputs": [],
      "name": "borrowedInUnderlying",
      "outputs": [
        {
          "internalType": "uint256",
          "name": "",
          "type": "uint256"
        }
      ],
      "payable": false,
      "stateMutability": "view",
      "type": "function"
    },
    {
      "constant": false,
      "inputs": [],
      "name": "claimComp",
      "outputs": [],
      "payable": false,
      "stateMutability": "nonpayable",
      "type": "function"
    },
    {
      "constant": true,
      "inputs": [],
      "name": "collateralFactorDenominator",
      "outputs": [
        {
          "internalType": "uint256",
          "name": "",
          "type": "uint256"
        }
      ],
      "payable": false,
      "stateMutability": "view",
      "type": "function"
    },
    {
      "constant": true,
      "inputs": [],
      "name": "collateralFactorNumerator",
      "outputs": [
        {
          "internalType": "uint256",
          "name": "",
          "type": "uint256"
        }
      ],
      "payable": false,
      "stateMutability": "view",
      "type": "function"
    },
    {
      "constant": true,
      "inputs": [],
      "name": "comp",
      "outputs": [
        {
          "internalType": "contract ERC20Detailed",
          "name": "",
          "type": "address"
        }
      ],
      "payable": false,
      "stateMutability": "view",
      "type": "function"
    },
    {
      "constant": true,
      "inputs": [],
      "name": "comptroller",
      "outputs": [
        {
          "internalType": "contract ComptrollerInterface",
          "name": "",
          "type": "address"
        }
      ],
      "payable": false,
      "stateMutability": "view",
      "type": "function"
    },
    {
      "constant": true,
      "inputs": [],
      "name": "controller",
      "outputs": [
        {
          "internalType": "address",
          "name": "",
          "type": "address"
        }
      ],
      "payable": false,
      "stateMutability": "view",
      "type": "function"
    },
    {
      "constant": true,
      "inputs": [],
      "name": "ctoken",
      "outputs": [
        {
          "internalType": "contract CompleteCToken",
          "name": "",
          "type": "address"
        }
      ],
      "payable": false,
      "stateMutability": "view",
      "type": "function"
    },
    {
      "constant": true,
      "inputs": [],
      "name": "depositArbCheck",
      "outputs": [
        {
          "internalType": "bool",
          "name": "",
          "type": "bool"
        }
      ],
      "payable": false,
      "stateMutability": "view",
      "type": "function"
    },
    {
      "constant": false,
      "inputs": [],
      "name": "doHardWork",
      "outputs": [],
      "payable": false,
      "stateMutability": "nonpayable",
      "type": "function"
    },
    {
      "constant": false,
      "inputs": [],
      "name": "emergencyExit",
      "outputs": [],
      "payable": false,
      "stateMutability": "nonpayable",
      "type": "function"
    },
    {
      "constant": true,
      "inputs": [],
      "name": "folds",
      "outputs": [
        {
          "internalType": "uint256",
          "name": "",
          "type": "uint256"
        }
      ],
      "payable": false,
      "stateMutability": "view",
      "type": "function"
    },
    {
      "constant": true,
      "inputs": [],
      "name": "getLiquidity",
      "outputs": [
        {
          "internalType": "uint256",
          "name": "",
          "type": "uint256"
        }
      ],
      "payable": false,
      "stateMutability": "view",
      "type": "function"
    },
    {
      "constant": true,
      "inputs": [],
      "name": "governance",
      "outputs": [
        {
          "internalType": "address",
          "name": "",
          "type": "address"
        }
      ],
      "payable": false,
      "stateMutability": "view",
      "type": "function"
    },
    {
      "constant": false,
      "inputs": [],
      "name": "investAllUnderlying",
      "outputs": [],
      "payable": false,
      "stateMutability": "nonpayable",
      "type": "function"
    },
    {
      "constant": true,
      "inputs": [],
      "name": "investedUnderlyingBalance",
      "outputs": [
        {
          "internalType": "uint256",
          "name": "",
          "type": "uint256"
        }
      ],
      "payable": false,
      "stateMutability": "view",
      "type": "function"
    },
    {
      "constant": true,
      "inputs": [],
      "name": "liquidationAllowed",
      "outputs": [
        {
          "internalType": "bool",
          "name": "",
          "type": "bool"
        }
      ],
      "payable": false,
      "stateMutability": "view",
      "type": "function"
    },
    {
      "constant": true,
      "inputs": [],
      "name": "liquidityLoanCurrent",
      "outputs": [
        {
          "internalType": "uint256",
          "name": "",
          "type": "uint256"
        }
      ],
      "payable": false,
      "stateMutability": "view",
      "type": "function"
    },
    {
      "constant": true,
      "inputs": [],
      "name": "liquidityLoanTarget",
      "outputs": [
        {
          "internalType": "uint256",
          "name": "",
          "type": "uint256"
        }
      ],
      "payable": false,
      "stateMutability": "view",
      "type": "function"
    },
    {
      "constant": true,
      "inputs": [],
      "name": "liquidityRecipient",
      "outputs": [
        {
          "internalType": "address",
          "name": "",
          "type": "address"
        }
      ],
      "payable": false,
      "stateMutability": "view",
      "type": "function"
    },
    {
      "constant": true,
      "inputs": [],
      "name": "profitSharingDenominator",
      "outputs": [
        {
          "internalType": "uint256",
          "name": "",
          "type": "uint256"
        }
      ],
      "payable": false,
      "stateMutability": "view",
      "type": "function"
    },
    {
      "constant": true,
      "inputs": [],
      "name": "profitSharingNumerator",
      "outputs": [
        {
          "internalType": "uint256",
          "name": "",
          "type": "uint256"
        }
      ],
      "payable": false,
      "stateMutability": "view",
      "type": "function"
    },
    {
      "constant": false,
      "inputs": [],
      "name": "provideLoan",
      "outputs": [],
      "payable": false,
      "stateMutability": "nonpayable",
      "type": "function"
    },
    {
      "constant": true,
      "inputs": [],
      "name": "rewardToken",
      "outputs": [
        {
          "internalType": "address",
          "name": "",
          "type": "address"
        }
      ],
      "payable": false,
      "stateMutability": "view",
      "type": "function"
    },
    {
      "constant": false,
      "inputs": [
        {
          "internalType": "address",
          "name": "recipient",
          "type": "address"
        },
        {
          "internalType": "address",
          "name": "token",
          "type": "address"
        },
        {
          "internalType": "uint256",
          "name": "amount",
          "type": "uint256"
        }
      ],
      "name": "salvage",
      "outputs": [],
      "payable": false,
      "stateMutability": "nonpayable",
      "type": "function"
    },
    {
      "constant": true,
      "inputs": [],
      "name": "sellFloor",
      "outputs": [
        {
          "internalType": "uint256",
          "name": "",
          "type": "uint256"
        }
      ],
      "payable": false,
      "stateMutability": "view",
      "type": "function"
    },
    {
      "constant": false,
      "inputs": [
        {
          "internalType": "bool",
          "name": "allowed",
          "type": "bool"
        }
      ],
      "name": "setAllowLiquidityShortage",
      "outputs": [],
      "payable": false,
      "stateMutability": "nonpayable",
      "type": "function"
    },
    {
      "constant": false,
      "inputs": [
        {
          "internalType": "uint256",
          "name": "threshold",
          "type": "uint256"
        }
      ],
      "name": "setBorrowMinThreshold",
      "outputs": [],
      "payable": false,
      "stateMutability": "nonpayable",
      "type": "function"
    },
    {
      "constant": false,
      "inputs": [
        {
          "internalType": "uint256",
          "name": "numerator",
          "type": "uint256"
        }
      ],
      "name": "setCollateralFactorNumerator",
      "outputs": [],
      "payable": false,
      "stateMutability": "nonpayable",
      "type": "function"
    },
    {
      "constant": false,
      "inputs": [
        {
          "internalType": "uint256",
          "name": "_folds",
          "type": "uint256"
        }
      ],
      "name": "setFolds",
      "outputs": [],
      "payable": false,
      "stateMutability": "nonpayable",
      "type": "function"
    },
    {
      "constant": false,
      "inputs": [
        {
          "internalType": "bool",
          "name": "allowed",
          "type": "bool"
        }
      ],
      "name": "setLiquidationAllowed",
      "outputs": [],
      "payable": false,
      "stateMutability": "nonpayable",
      "type": "function"
    },
    {
      "constant": false,
      "inputs": [
        {
          "internalType": "uint256",
          "name": "target",
          "type": "uint256"
        }
      ],
      "name": "setLiquidityLoanTarget",
      "outputs": [],
      "payable": false,
      "stateMutability": "nonpayable",
      "type": "function"
    },
    {
      "constant": false,
      "inputs": [
        {
          "internalType": "address",
          "name": "recipient",
          "type": "address"
        }
      ],
      "name": "setLiquidityRecipient",
      "outputs": [],
      "payable": false,
      "stateMutability": "nonpayable",
      "type": "function"
    },
    {
      "constant": false,
      "inputs": [
        {
          "internalType": "uint256",
          "name": "value",
          "type": "uint256"
        }
      ],
      "name": "setSellFloor",
      "outputs": [],
      "payable": false,
      "stateMutability": "nonpayable",
      "type": "function"
    },
    {
      "constant": false,
      "inputs": [
        {
          "internalType": "address",
          "name": "_store",
          "type": "address"
        }
      ],
      "name": "setStorage",
      "outputs": [],
      "payable": false,
      "stateMutability": "nonpayable",
      "type": "function"
    },
    {
      "constant": false,
      "inputs": [
        {
          "internalType": "uint256",
          "name": "amount",
          "type": "uint256"
        }
      ],
      "name": "settleLoan",
      "outputs": [],
      "payable": false,
      "stateMutability": "nonpayable",
      "type": "function"
    },
    {
      "constant": true,
      "inputs": [],
      "name": "store",
      "outputs": [
        {
          "internalType": "contract Storage",
          "name": "",
          "type": "address"
        }
      ],
      "payable": false,
      "stateMutability": "view",
      "type": "function"
    },
    {
      "constant": true,
      "inputs": [],
      "name": "suppliedInUnderlying",
      "outputs": [
        {
          "internalType": "uint256",
          "name": "",
          "type": "uint256"
        }
      ],
      "payable": false,
      "stateMutability": "view",
      "type": "function"
    },
    {
      "constant": true,
      "inputs": [],
      "name": "tenWeth",
      "outputs": [
        {
          "internalType": "uint256",
          "name": "",
          "type": "uint256"
        }
      ],
      "payable": false,
      "stateMutability": "view",
      "type": "function"
    },
    {
      "constant": true,
      "inputs": [],
      "name": "underlying",
      "outputs": [
        {
          "internalType": "contract ERC20Detailed",
          "name": "",
          "type": "address"
        }
      ],
      "payable": false,
      "stateMutability": "view",
      "type": "function"
    },
    {
      "constant": true,
      "inputs": [],
      "name": "uniswapRouterV2",
      "outputs": [
        {
          "internalType": "address",
          "name": "",
          "type": "address"
        }
      ],
      "payable": false,
      "stateMutability": "view",
      "type": "function"
    },
    {
      "constant": true,
      "inputs": [
        {
          "internalType": "address",
          "name": "",
          "type": "address"
        }
      ],
      "name": "unsalvagableTokens",
      "outputs": [
        {
          "internalType": "bool",
          "name": "",
          "type": "bool"
        }
      ],
      "payable": false,
      "stateMutability": "view",
      "type": "function"
    },
    {
      "constant": true,
      "inputs": [],
      "name": "vault",
      "outputs": [
        {
          "internalType": "address",
          "name": "",
          "type": "address"
        }
      ],
      "payable": false,
      "stateMutability": "view",
      "type": "function"
    },
    {
      "constant": false,
      "inputs": [],
      "name": "withdrawAllToVault",
      "outputs": [],
      "payable": false,
      "stateMutability": "nonpayable",
      "type": "function"
    },
    {
      "constant": false,
      "inputs": [
        {
          "internalType": "uint256",
          "name": "amountUnderlying",
          "type": "uint256"
        }
      ],
      "name": "withdrawToVault",
      "outputs": [],
      "payable": false,
      "stateMutability": "nonpayable",
      "type": "function"
    }
  ],
  "bytecode": "0x6080604052600580546001600160a01b03191673c02aaa39b223fe8d0a0e5c4f27ead9083c756cc21790556010805460ff19908116600117909155600060118190556012805490921690915560646013556103e860145560158190556019553480156200006b57600080fd5b506040516200415938038062004159833981810160405260408110156200009157600080fd5b5080516020909101518173c02aaa39b223fe8d0a0e5c4f27ead9083c756cc2734ddc2d193948926d02f9b1fe9e1daa0718270ed583733d9819210a31b4961b30ef54be2aed79b9c9cd3b73c00e94cb662c3520282e6f5717214004a7f26888737a250d5630b4cf539739df2c5dacb4c659f2488d858584898581806001600160a01b03811662000168576040805162461bcd60e51b815260206004820152601e60248201527f6e65772073746f726167652073686f756c646e277420626520656d7074790000604482015290519081900360640190fd5b600080546001600160a01b039283166001600160a01b03199182161790915560038054601e60019081556064600255600160a01b60ff60a01b19978616928516929092179690961617905560078054821687841617905560048054821689841617905560068054909116918716919091179055506040805182815280820190915260609250906020808301908038833901905050905082816000815181106200020d57fe5b6001600160a01b03928316602091820292909201810191909152600754604051631853304760e31b815260048101838152855160248301528551929094169363c299823893869391928392604490910191858101910280838360005b838110156200028357818101518382015260200162000269565b5050505090500192505050600060405180830381600087803b158015620002a957600080fd5b505af1158015620002be573d6000803e3d6000fd5b505050506040513d6000823e601f3d908101601f191682016040526020811015620002e857600080fd5b81019080805160405193929190846401000000008211156200030957600080fd5b9083019060208201858111156200031f57600080fd5b82518660208202830111640100000000821117156200033d57600080fd5b82525081516020918201928201910280838360005b838110156200036c57818101518382015260200162000352565b505050509050016040525050505050505050856001600160a01b0316846001600160a01b0316636f307dc36040518163ffffffff1660e01b815260040160206040518083038186803b158015620003c257600080fd5b505afa158015620003d7573d6000803e3d6000fd5b505050506040513d6020811015620003ee57600080fd5b50516001600160a01b031614620004375760405162461bcd60e51b8152600401808060200182810382526021815260200180620041386021913960400191505060405180910390fd5b600a80546001600160a01b03199081166001600160a01b0395861617909155600c80548216938516938417905560088054821697851697881790556009805482169685169687179055600b8054821695851695909517909455600d80549094169216919091179091556000928352601a6020526040808420805460ff199081166001908117909255938552818520805485168217905591845283208054909216179055613c4a9350839250620004ee9150396000f3fe6080604052600436106102ca5760003560e01c8063627c96ca1161017b578063bbfb2007116100d7578063d47749d711610085578063d47749d714610808578063d610101b14610832578063d9cef72514610847578063f48d0c4a1461085c578063f77c479114610871578063f7c618c114610886578063fbfa77cf1461089b576102ca565b8063bbfb200714610736578063bde10bcb1461074b578063bfd131f114610775578063c2a2a07b1461078a578063c739d3e41461079f578063ccf3eb9f146107c9578063ce8c42e8146107de576102ca565b80639642a65f116101345780639642a65f1461068e578063975057e7146106a3578063a1764595146106b8578063a1dab23e146106cd578063b5d7a94f146106e2578063b60f151a146106f7578063ba09591e1461070c576102ca565b8063627c96ca146105dd5780636f307dc3146105f257806377be00f3146106075780637f09d3f31461061c5780639137c1a71461064657806392501f2914610679576102ca565b80634990f6dc1161022a578063588cfb84116101e3578063588cfb8414610533578063596fa9e3146105485780635976317f1461055d5780635aa6e675146105895780635dbeffe51461059e5780635fe3b567146105b357806362237749146105c8576102ca565b80634990f6dc146104975780634a8cfa69146104ac5780634fa5d854146104c157806350185946146104d657806355b9b4a8146105095780635641ec031461051e576102ca565b8063215677c211610287578063215677c2146103ba57806327e4d202146103cf5780632c040845146103f9578063373aff7f1461040e5780633b308579146104415780633fd8cd981461045657806345d01e4a14610482576102ca565b8063026a0dd0146102cc5780630910a510146102f357806309e5f66c14610308578063109d0af8146103315780631113ef52146103625780631bd85bdb146103a5575b005b3480156102d857600080fd5b506102e16108b0565b60408051918252519081900360200190f35b3480156102ff57600080fd5b506102e16108b6565b34801561031457600080fd5b5061031d61092c565b604080519115158252519081900360200190f35b34801561033d57600080fd5b50610346610935565b604080516001600160a01b039092168252519081900360200190f35b34801561036e57600080fd5b506102ca6004803603606081101561038557600080fd5b506001600160a01b03813581169160208101359091169060400135610944565b3480156103b157600080fd5b506102ca610a74565b3480156103c657600080fd5b506102e1610ada565b3480156103db57600080fd5b506102ca600480360360208110156103f257600080fd5b5035610ae6565b34801561040557600080fd5b506102e1610ba4565b34801561041a57600080fd5b506102ca6004803603602081101561043157600080fd5b50356001600160a01b0316610baa565b34801561044d57600080fd5b506102e1610cd8565b34801561046257600080fd5b506102ca6004803603602081101561047957600080fd5b50351515610cde565b34801561048e57600080fd5b506102e1610d80565b3480156104a357600080fd5b50610346610e3c565b3480156104b857600080fd5b506102ca610e54565b3480156104cd57600080fd5b506102ca61112d565b3480156104e257600080fd5b5061031d600480360360208110156104f957600080fd5b50356001600160a01b0316611210565b34801561051557600080fd5b506102e1611225565b34801561052a57600080fd5b506102ca61122b565b34801561053f57600080fd5b506102e1611339565b34801561055457600080fd5b5061034661133f565b34801561056957600080fd5b506102ca6004803603602081101561058057600080fd5b5035151561134e565b34801561059557600080fd5b506103466113f0565b3480156105aa57600080fd5b5061034661143f565b3480156105bf57600080fd5b50610346611457565b3480156105d457600080fd5b506102e1611466565b3480156105e957600080fd5b506102e161146c565b3480156105fe57600080fd5b50610346611472565b34801561061357600080fd5b50610346611481565b34801561062857600080fd5b506102ca6004803603602081101561063f57600080fd5b5035611499565b34801561065257600080fd5b506102ca6004803603602081101561066957600080fd5b50356001600160a01b031661177d565b34801561068557600080fd5b506103466118b3565b34801561069a57600080fd5b506103466118cb565b3480156106af57600080fd5b506103466118da565b3480156106c457600080fd5b506103466118e9565b3480156106d957600080fd5b506102e16118f8565b3480156106ee57600080fd5b506102e16118fe565b34801561070357600080fd5b506102e1611904565b34801561071857600080fd5b506102ca6004803603602081101561072f57600080fd5b503561190a565b34801561074257600080fd5b506102ca61199e565b34801561075757600080fd5b506102ca6004803603602081101561076e57600080fd5b5035611c69565b34801561078157600080fd5b506102ca611d27565b34801561079657600080fd5b5061031d611eeb565b3480156107ab57600080fd5b506102ca600480360360208110156107c257600080fd5b5035611ef0565b3480156107d557600080fd5b50610346611fef565b3480156107ea57600080fd5b506102ca6004803603602081101561080157600080fd5b5035611ffe565b34801561081457600080fd5b506102ca6004803603602081101561082b57600080fd5b5035612166565b34801561083e57600080fd5b506102e1612224565b34801561085357600080fd5b5061034661222a565b34801561086857600080fd5b5061031d612242565b34801561087d57600080fd5b5061034661224b565b34801561089257600080fd5b5061034661229a565b3480156108a757600080fd5b506103466122a9565b60025481565b60065460408051631d8e90d160e11b815290516000926001600160a01b031691633b1d21a2916004808301926020929190829003018186803b1580156108fb57600080fd5b505afa15801561090f573d6000803e3d6000fd5b505050506040513d602081101561092557600080fd5b5051905090565b60105460ff1681565b600c546001600160a01b031681565b600054604080516337b87c3960e21b815233600482015290516001600160a01b039092169163dee1f0e491602480820192602092909190829003018186803b15801561098f57600080fd5b505afa1580156109a3573d6000803e3d6000fd5b505050506040513d60208110156109b957600080fd5b50516109fd576040805162461bcd60e51b815260206004820152600e60248201526d4e6f7420676f7665726e616e636560901b604482015290519081900360640190fd5b6001600160a01b0382166000908152601a602052604090205460ff1615610a555760405162461bcd60e51b8152600401808060200182810382526022815260200180613a4d6022913960400191505060405180910390fd5b610a6f6001600160a01b038316848363ffffffff6122b816565b505050565b600754604080516374d7814960e11b815230600482015290516001600160a01b039092169163e9af02929160248082019260009290919082900301818387803b158015610ac057600080fd5b505af1158015610ad4573d6000803e3d6000fd5b50505050565b678ac7230489e8000081565b600054604080516337b87c3960e21b815233600482015290516001600160a01b039092169163dee1f0e491602480820192602092909190829003018186803b158015610b3157600080fd5b505afa158015610b45573d6000803e3d6000fd5b505050506040513d6020811015610b5b57600080fd5b5051610b9f576040805162461bcd60e51b815260206004820152600e60248201526d4e6f7420676f7665726e616e636560901b604482015290519081900360640190fd5b601855565b60195481565b600054604080516337b87c3960e21b815233600482015290516001600160a01b039092169163dee1f0e491602480820192602092909190829003018186803b158015610bf557600080fd5b505afa158015610c09573d6000803e3d6000fd5b505050506040513d6020811015610c1f57600080fd5b5051610c63576040805162461bcd60e51b815260206004820152600e60248201526d4e6f7420676f7665726e616e636560901b604482015290519081900360640190fd5b6016546001600160a01b03161580610c7b5750601754155b610cb65760405162461bcd60e51b8152600401808060200182810382526033815260200180613ac06033913960400191505060405180910390fd5b601680546001600160a01b0319166001600160a01b0392909216919091179055565b60175481565b600b546001600160a01b0316331480610d0f5750610cfa61224b565b6001600160a01b0316336001600160a01b0316145b80610d325750610d1d6113f0565b6001600160a01b0316336001600160a01b0316145b610d6d5760405162461bcd60e51b815260040180806020018281038252602c815260200180613a94602c913960400191505060405180910390fd5b6012805460ff1916911515919091179055565b601754600f54600e54600854604080516370a0823160e01b81523060048201529051600095610e37959094610e2b949193610e1f9391926001600160a01b0316916370a0823191602480820192602092909190829003018186803b158015610de757600080fd5b505afa158015610dfb573d6000803e3d6000fd5b505050506040513d6020811015610e1157600080fd5b50519063ffffffff61230a16565b9063ffffffff61236d16565b9063ffffffff61230a16565b905090565b73c02aaa39b223fe8d0a0e5c4f27ead9083c756cc281565b600b546001600160a01b0316331480610e855750610e7061224b565b6001600160a01b0316336001600160a01b0316145b80610ea85750610e936113f0565b6001600160a01b0316336001600160a01b0316145b610ee35760405162461bcd60e51b815260040180806020018281038252602c815260200180613a94602c913960400191505060405180910390fd5b600854604080516370a0823160e01b815230600482015290516000926001600160a01b0316916370a08231916024808301926020929190829003018186803b158015610f2e57600080fd5b505afa158015610f42573d6000803e3d6000fd5b505050506040513d6020811015610f5857600080fd5b50519050610f65816123af565b60005b601554811015611031576000610f9b601454610f8f6013548661258990919063ffffffff16565b9063ffffffff6125e216565b9050610fa681612624565b600854604080516370a0823160e01b815230600482015290516001600160a01b03909216916370a0823191602480820192602092909190829003018186803b158015610ff157600080fd5b505afa158015611005573d6000803e3d6000fd5b505050506040513d602081101561101b57600080fd5b50519250611028836123af565b50600101610f68565b505060095460408051633af9e66960e01b815230600482015290516001600160a01b0390921691633af9e669916024808201926020929091908290030181600087803b15801561108057600080fd5b505af1158015611094573d6000803e3d6000fd5b505050506040513d60208110156110aa57600080fd5b5051600e55600954604080516305eff7ef60e21b815230600482015290516001600160a01b03909216916317bfdfbc916024808201926020929091908290030181600087803b1580156110fc57600080fd5b505af1158015611110573d6000803e3d6000fd5b505050506040513d602081101561112657600080fd5b5051600f55565b600b546001600160a01b031633148061115e575061114961224b565b6001600160a01b0316336001600160a01b0316145b80611181575061116c6113f0565b6001600160a01b0316336001600160a01b0316145b6111bc5760405162461bcd60e51b815260040180806020018281038252602c815260200180613a94602c913960400191505060405180910390fd5b60105460ff16156111dc576111cf610a74565b6111d761274a565b611206565b6040517f6e180aeefd7fd43a105253e3c10a794670b4c6ef64e8a4d8879de77cfb09d61290600090a15b61120e610e54565b565b601a6020526000908152604090205460ff1681565b60185481565b600054604080516337b87c3960e21b815233600482015290516001600160a01b039092169163dee1f0e491602480820192602092909190829003018186803b15801561127657600080fd5b505afa15801561128a573d6000803e3d6000fd5b505050506040513d60208110156112a057600080fd5b50516112e4576040805162461bcd60e51b815260206004820152600e60248201526d4e6f7420676f7665726e616e636560901b604482015290519081900360640190fd5b6112ec612b75565b60095460408051633af9e66960e01b815230600482015290516001600160a01b0390921691633af9e669916024808201926020929091908290030181600087803b15801561108057600080fd5b60155481565b600d546001600160a01b031681565b600b546001600160a01b031633148061137f575061136a61224b565b6001600160a01b0316336001600160a01b0316145b806113a2575061138d6113f0565b6001600160a01b0316336001600160a01b0316145b6113dd5760405162461bcd60e51b815260040180806020018281038252602c815260200180613a94602c913960400191505060405180910390fd5b6010805460ff1916911515919091179055565b60008060009054906101000a90046001600160a01b03166001600160a01b0316635aa6e6756040518163ffffffff1660e01b815260040160206040518083038186803b1580156108fb57600080fd5b73c00e94cb662c3520282e6f5717214004a7f2688881565b600a546001600160a01b031681565b60145481565b600f5481565b6008546001600160a01b031681565b737a250d5630b4cf539739df2c5dacb4c659f2488d81565b6017546114b490678ac7230489e8000063ffffffff61230a16565b6114bc610d80565b1115806114e157506114cc6113f0565b6001600160a01b0316336001600160a01b0316145b61151c5760405162461bcd60e51b815260040180806020018281038252602e815260200180613af3602e913960400191505060405180910390fd5b323314611565576040805162461bcd60e51b81526020600482015260126024820152716e6f20736d61727420636f6e74726163747360701b604482015290519081900360640190fd5b60175461157157611682565b601660009054906101000a90046001600160a01b03166001600160a01b0316636527ba5c6040518163ffffffff1660e01b8152600401600060405180830381600087803b1580156115c157600080fd5b505af11580156115d5573d6000803e3d6000fd5b50506016546008546115fd93506001600160a01b03908116925016308463ffffffff612bc716565b601754611610908263ffffffff61236d16565b601781905561168257601660009054906101000a90046001600160a01b03166001600160a01b031663cfc9b68c6040518163ffffffff1660e01b8152600401600060405180830381600087803b15801561166957600080fd5b505af115801561167d573d6000803e3d6000fd5b505050505b60095460408051633af9e66960e01b815230600482015290516001600160a01b0390921691633af9e669916024808201926020929091908290030181600087803b1580156116cf57600080fd5b505af11580156116e3573d6000803e3d6000fd5b505050506040513d60208110156116f957600080fd5b5051600e55600954604080516305eff7ef60e21b815230600482015290516001600160a01b03909216916317bfdfbc916024808201926020929091908290030181600087803b15801561174b57600080fd5b505af115801561175f573d6000803e3d6000fd5b505050506040513d602081101561177557600080fd5b5051600f5550565b600054604080516337b87c3960e21b815233600482015290516001600160a01b039092169163dee1f0e491602480820192602092909190829003018186803b1580156117c857600080fd5b505afa1580156117dc573d6000803e3d6000fd5b505050506040513d60208110156117f257600080fd5b5051611836576040805162461bcd60e51b815260206004820152600e60248201526d4e6f7420676f7665726e616e636560901b604482015290519081900360640190fd5b6001600160a01b038116611891576040805162461bcd60e51b815260206004820152601e60248201527f6e65772073746f726167652073686f756c646e277420626520656d7074790000604482015290519081900360640190fd5b600080546001600160a01b0319166001600160a01b0392909216919091179055565b733d9819210a31b4961b30ef54be2aed79b9c9cd3b81565b6016546001600160a01b031681565b6000546001600160a01b031681565b6005546001600160a01b031681565b60115481565b60135481565b60015481565b600b546001600160a01b031633148061193b575061192661224b565b6001600160a01b0316336001600160a01b0316145b8061195e57506119496113f0565b6001600160a01b0316336001600160a01b0316145b6119995760405162461bcd60e51b815260040180806020018281038252602c815260200180613a94602c913960400191505060405180910390fd5b601155565b600054604080516337b87c3960e21b815233600482015290516001600160a01b039092169163dee1f0e491602480820192602092909190829003018186803b1580156119e957600080fd5b505afa1580156119fd573d6000803e3d6000fd5b505050506040513d6020811015611a1357600080fd5b5051611a57576040805162461bcd60e51b815260206004820152600e60248201526d4e6f7420676f7665726e616e636560901b604482015290519081900360640190fd5b611a5f612b75565b601854601754108015611ae65750600854604080516370a0823160e01b815230600482015290516000926001600160a01b0316916370a08231916024808301926020929190829003018186803b158015611ab857600080fd5b505afa158015611acc573d6000803e3d6000fd5b505050506040513d6020811015611ae257600080fd5b5051115b8015611afc57506016546001600160a01b031615155b15611c61576000611b99611b1d60175460185461236d90919063ffffffff16565b600854604080516370a0823160e01b815230600482015290516001600160a01b03909216916370a0823191602480820192602092909190829003018186803b158015611b6857600080fd5b505afa158015611b7c573d6000803e3d6000fd5b505050506040513d6020811015611b9257600080fd5b5051612c21565b601654600854919250611bc0916001600160a01b039081169116600063ffffffff612c3716565b601654600854611be3916001600160a01b0391821691168363ffffffff612c3716565b601654604080516346401fe160e11b81526004810184905290516001600160a01b0390921691638c803fc29160248082019260009290919082900301818387803b158015611c3057600080fd5b505af1158015611c44573d6000803e3d6000fd5b5050601754611c5c925090508263ffffffff61230a16565b601755505b6112ec610e54565b600054604080516337b87c3960e21b815233600482015290516001600160a01b039092169163dee1f0e491602480820192602092909190829003018186803b158015611cb457600080fd5b505afa158015611cc8573d6000803e3d6000fd5b505050506040513d6020811015611cde57600080fd5b5051611d22576040805162461bcd60e51b815260206004820152600e60248201526d4e6f7420676f7665726e616e636560901b604482015290519081900360640190fd5b601955565b600b546001600160a01b0316331480611d585750611d4361224b565b6001600160a01b0316336001600160a01b0316145b80611d7b5750611d666113f0565b6001600160a01b0316336001600160a01b0316145b611db65760405162461bcd60e51b815260040180806020018281038252602c815260200180613a94602c913960400191505060405180910390fd5b60125460ff1615611dce57611dc9612b75565b611dd6565b611dd6612d4a565b600854604080516370a0823160e01b815230600482015290516000926001600160a01b0316916370a08231916024808301926020929190829003018186803b158015611e2157600080fd5b505afa158015611e35573d6000803e3d6000fd5b505050506040513d6020811015611e4b57600080fd5b505111156112ec57600b54600854604080516370a0823160e01b815230600482015290516112ec936001600160a01b039081169316916370a08231916024808301926020929190829003018186803b158015611ea657600080fd5b505afa158015611eba573d6000803e3d6000fd5b505050506040513d6020811015611ed057600080fd5b50516008546001600160a01b0316919063ffffffff6122b816565b600190565b600054604080516337b87c3960e21b815233600482015290516001600160a01b039092169163dee1f0e491602480820192602092909190829003018186803b158015611f3b57600080fd5b505afa158015611f4f573d6000803e3d6000fd5b505050506040513d6020811015611f6557600080fd5b5051611fa9576040805162461bcd60e51b815260206004820152600e60248201526d4e6f7420676f7665726e616e636560901b604482015290519081900360640190fd5b6102e4811115611fea5760405162461bcd60e51b8152600401808060200182810382526025815260200180613a6f6025913960400191505060405180910390fd5b601355565b6009546001600160a01b031681565b600b546001600160a01b031633148061202f575061201a61224b565b6001600160a01b0316336001600160a01b0316145b80612052575061203d6113f0565b6001600160a01b0316336001600160a01b0316145b61208d5760405162461bcd60e51b815260040180806020018281038252602c815260200180613a94602c913960400191505060405180910390fd5b600854604080516370a0823160e01b815230600482015290516001600160a01b03909216916370a0823191602480820192602092909190829003018186803b1580156120d857600080fd5b505afa1580156120ec573d6000803e3d6000fd5b505050506040513d602081101561210257600080fd5b5051811161213257600b5460085461212d916001600160a01b0391821691168363ffffffff6122b816565b611682565b61213b81612ede565b600b5460085461215e916001600160a01b0391821691168363ffffffff6122b816565b611682610e54565b600054604080516337b87c3960e21b815233600482015290516001600160a01b039092169163dee1f0e491602480820192602092909190829003018186803b1580156121b157600080fd5b505afa1580156121c5573d6000803e3d6000fd5b505050506040513d60208110156121db57600080fd5b505161221f576040805162461bcd60e51b815260206004820152600e60248201526d4e6f7420676f7665726e616e636560901b604482015290519081900360640190fd5b601555565b600e5481565b734ddc2d193948926d02f9b1fe9e1daa0718270ed581565b60125460ff1681565b60008060009054906101000a90046001600160a01b03166001600160a01b031663f77c47916040518163ffffffff1660e01b815260040160206040518083038186803b1580156108fb57600080fd5b6003546001600160a01b031681565b600b546001600160a01b031681565b604080516001600160a01b038416602482015260448082018490528251808303909101815260649091019091526020810180516001600160e01b031663a9059cbb60e01b179052610a6f908490613049565b600082820183811015612364576040805162461bcd60e51b815260206004820152601b60248201527f536166654d6174683a206164646974696f6e206f766572666c6f770000000000604482015290519081900360640190fd5b90505b92915050565b600061236483836040518060400160405280601e81526020017f536166654d6174683a207375627472616374696f6e206f766572666c6f770000815250613201565b600354600160a01b900460ff1661240d576040805162461bcd60e51b815260206004820152601f60248201527f5265656e7472616e637947756172643a207265656e7472616e742063616c6c00604482015290519081900360640190fd5b6003805460ff60a01b1916905560048054604080516370a0823160e01b81523093810193909352516000926001600160a01b03909216916370a08231916024808301926020929190829003018186803b15801561246957600080fd5b505afa15801561247d573d6000803e3d6000fd5b505050506040513d602081101561249357600080fd5b50519050808210156124a25750805b60055460408051632e1a7d4d60e01b81526004810184905290516001600160a01b03909216918291632e1a7d4d91602480830192600092919082900301818387803b1580156124f057600080fd5b505af1158015612504573d6000803e3d6000fd5b50505050600660009054906101000a90046001600160a01b03166001600160a01b0316631249c58b836040518263ffffffff1660e01b81526004016000604051808303818588803b15801561255857600080fd5b505af115801561256c573d6000803e3d6000fd5b50506003805460ff60a01b1916600160a01b179055505050505050565b60008261259857506000612367565b828202828482816125a557fe5b04146123645760405162461bcd60e51b8152600401808060200182810382526021815260200180613b456021913960400191505060405180910390fd5b600061236483836040518060400160405280601a81526020017f536166654d6174683a206469766973696f6e206279207a65726f000000000000815250613298565b6006546040805163317afabb60e21b81526004810184905290516000926001600160a01b03169163c5ebeaec91602480830192602092919082900301818787803b15801561267157600080fd5b505af1158015612685573d6000803e3d6000fd5b505050506040513d602081101561269b57600080fd5b5051905080156126e2576040805162461bcd60e51b815260206004820152600d60248201526c109bdc9c9bddc819985a5b1959609a1b604482015290519081900360640190fd5b60055460408051630d0e30db60e41b815290516001600160a01b0390921691829163d0e30db091479160048082019260009290919082900301818588803b15801561272c57600080fd5b505af1158015612740573d6000803e3d6000fd5b5050505050505050565b600c54604080516370a0823160e01b815230600482015290516000926001600160a01b0316916370a08231916024808301926020929190829003018186803b15801561279557600080fd5b505afa1580156127a9573d6000803e3d6000fd5b505050506040513d60208110156127bf57600080fd5b50516011549091508110806127d2575080155b15612806576040517fd26ff69ffdb9c21e34f9b534127733d71db1159e23eb2e5105a07b91fa2768ac90600090a15061120e565b61280f816132fd565b600c54604080516370a0823160e01b815230600482015290516001600160a01b03909216916370a0823191602480820192602092909190829003018186803b15801561285a57600080fd5b505afa15801561286e573d6000803e3d6000fd5b505050506040513d602081101561288457600080fd5b50516040805182815290519192507fc9e9d7cf3944e82f1fe222573e1c9acf5a2f6cd29aa9639bc8078065f091bb6b919081900360200190a1600d54600c546001916128e4916001600160a01b039081169116600063ffffffff612c3716565b600d54600c54612907916001600160a01b0391821691168463ffffffff612c3716565b60408051600280825260608083018452926020830190803883395050600c5482519293506001600160a01b03169183915060009061294157fe5b6001600160a01b03928316602091820292909201015260085482519116908290600190811061296c57fe5b6001600160a01b03928316602091820292909201810191909152600854604080516370a0823160e01b8152306004820152905160009492909216926370a0823192602480840193829003018186803b1580156129c757600080fd5b505afa1580156129db573d6000803e3d6000fd5b505050506040513d60208110156129f157600080fd5b5051600d546040516338ed173960e01b815260048101878152602482018790523060648301819052426084840181905260a060448501908152885160a486015288519697506001600160a01b03909516956338ed1739958b958b958b95949390929160c401906020878101910280838360005b83811015612a7c578181015183820152602001612a64565b505050509050019650505050505050600060405180830381600087803b158015612aa557600080fd5b505af1158015612ab9573d6000803e3d6000fd5b505050506040513d6000823e601f3d908101601f191682016040526020811015612ae257600080fd5b8101908080516040519392919084640100000000821115612b0257600080fd5b908301906020820185811115612b1757600080fd5b8251866020820283011164010000000082111715612b3457600080fd5b82525081516020918201928201910280838360005b83811015612b61578181015183820152602001612b49565b505050509050016040525050505050505050565b60105460ff1615612b9557612b88610a74565b612b9061274a565b612bbf565b6040517f6e180aeefd7fd43a105253e3c10a794670b4c6ef64e8a4d8879de77cfb09d61290600090a15b6112ec61346a565b604080516001600160a01b0385811660248301528416604482015260648082018490528251808303909101815260849091019091526020810180516001600160e01b03166323b872dd60e01b179052610ad4908590613049565b6000818310612c305781612364565b5090919050565b801580612cbd575060408051636eb1769f60e11b81523060048201526001600160a01b03848116602483015291519185169163dd62ed3e91604480820192602092909190829003018186803b158015612c8f57600080fd5b505afa158015612ca3573d6000803e3d6000fd5b505050506040513d6020811015612cb957600080fd5b5051155b612cf85760405162461bcd60e51b8152600401808060200182810382526036815260200180613be06036913960400191505060405180910390fd5b604080516001600160a01b038416602482015260448082018490528251808303909101815260649091019091526020810180516001600160e01b031663095ea7b360e01b179052610a6f908490613049565b60175415612d895760405162461bcd60e51b8152600401808060200182810382526024815260200180613b216024913960400191505060405180910390fd5b60105460ff1615612da957612d9c610a74565b612da461274a565b612dd3565b6040517f6e180aeefd7fd43a105253e3c10a794670b4c6ef64e8a4d8879de77cfb09d61290600090a15b60095460408051633af9e66960e01b815230600482015290516000926001600160a01b031691633af9e66991602480830192602092919082900301818787803b158015612e1f57600080fd5b505af1158015612e33573d6000803e3d6000fd5b505050506040513d6020811015612e4957600080fd5b5051600954604080516305eff7ef60e21b815230600482015290519293506000926001600160a01b03909216916317bfdfbc9160248082019260209290919082900301818787803b158015612e9d57600080fd5b505af1158015612eb1573d6000803e3d6000fd5b505050506040513d6020811015612ec757600080fd5b50519050611031612ede838363ffffffff61236d16565b60095460408051631d8e90d160e11b8152905183926001600160a01b031691633b1d21a2916004808301926020929190829003018186803b158015612f2257600080fd5b505afa158015612f36573d6000803e3d6000fd5b505050506040513d6020811015612f4c57600080fd5b50511015612f8b5760405162461bcd60e51b8152600401808060200182810382526022815260200180613bbe6022913960400191505060405180910390fd5b612f9361346a565b600854604080516370a0823160e01b8152306004820152905183926001600160a01b0316916370a08231916024808301926020929190829003018186803b158015612fdd57600080fd5b505afa158015612ff1573d6000803e3d6000fd5b505050506040513d602081101561300757600080fd5b505110156130465760405162461bcd60e51b815260040180806020018281038252602e815260200180613b66602e913960400191505060405180910390fd5b50565b61305b826001600160a01b031661347b565b6130ac576040805162461bcd60e51b815260206004820152601f60248201527f5361666545524332303a2063616c6c20746f206e6f6e2d636f6e747261637400604482015290519081900360640190fd5b60006060836001600160a01b0316836040518082805190602001908083835b602083106130ea5780518252601f1990920191602091820191016130cb565b6001836020036101000a0380198251168184511680821785525050505050509050019150506000604051808303816000865af19150503d806000811461314c576040519150601f19603f3d011682016040523d82523d6000602084013e613151565b606091505b5091509150816131a8576040805162461bcd60e51b815260206004820181905260248201527f5361666545524332303a206c6f772d6c6576656c2063616c6c206661696c6564604482015290519081900360640190fd5b805115610ad4578080602001905160208110156131c457600080fd5b5051610ad45760405162461bcd60e51b815260040180806020018281038252602a815260200180613b94602a913960400191505060405180910390fd5b600081848411156132905760405162461bcd60e51b81526004018080602001828103825283818151815260200191508051906020019080838360005b8381101561325557818101518382015260200161323d565b50505050905090810190601f1680156132825780820380516001836020036101000a031916815260200191505b509250505060405180910390fd5b505050900390565b600081836132e75760405162461bcd60e51b815260206004820181815283516024840152835190928392604490910191908501908083836000831561325557818101518382015260200161323d565b5060008385816132f357fe5b0495945050505050565b8015613428576000613320600254610f8f6001548561258990919063ffffffff16565b6040805184815260208101839052428183015290519192507f33fd2845a0f10293482de360244dd4ad31ddbb4b8c4a1ded3875cf8ebfba184b919081900360600190a161338861336e61224b565b6003546001600160a01b031690600063ffffffff612c3716565b6133ac61339361224b565b6003546001600160a01b0316908363ffffffff612c3716565b6133b461224b565b60035460408051631ee0d7e560e31b81526001600160a01b039283166004820152602481018590529051929091169163f706bf289160448082019260009290919082900301818387803b15801561340a57600080fd5b505af115801561341e573d6000803e3d6000fd5b5050505050613046565b6040805160008082526020820152428183015290517f33fd2845a0f10293482de360244dd4ad31ddbb4b8c4a1ded3875cf8ebfba184b9181900360600190a150565b61120e6013546014546019546134b7565b6000813f7fc5d2460186f7233c927e7db2dcc703c0e500b653ca82273b7bfad8045d85a4708181148015906134af57508115155b949350505050565b60065460408051631d8e90d160e11b815290516000926001600160a01b031691633b1d21a2916004808301926020929190829003018186803b1580156134fc57600080fd5b505afa158015613510573d6000803e3d6000fd5b505050506040513d602081101561352657600080fd5b505160065460408051633af9e66960e01b815230600482015290519293506000926001600160a01b0390921691633af9e6699160248082019260209290919082900301818787803b15801561357a57600080fd5b505af115801561358e573d6000803e3d6000fd5b505050506040513d60208110156135a457600080fd5b5051600654604080516305eff7ef60e21b815230600482015290519293506000926001600160a01b03909216916317bfdfbc9160248082019260209290919082900301818787803b1580156135f857600080fd5b505af115801561360c573d6000803e3d6000fd5b505050506040513d602081101561362257600080fd5b505190505b8381111561388d57600061365987610f8f61364982600263ffffffff6125e216565b610e2b868b63ffffffff61258916565b9050600061366d848363ffffffff61236d16565b905061368161367c8287612c21565b6138a2565b60048054604080516370a0823160e01b81523093810193909352516000926001600160a01b03909216916370a08231916024808301926020929190829003018186803b1580156136d057600080fd5b505afa1580156136e4573d6000803e3d6000fd5b505050506040513d60208110156136fa57600080fd5b5051905061371061370b8583612c21565b613918565b600660009054906101000a90046001600160a01b03166001600160a01b0316633b1d21a26040518163ffffffff1660e01b815260040160206040518083038186803b15801561375e57600080fd5b505afa158015613772573d6000803e3d6000fd5b505050506040513d602081101561378857600080fd5b5051600654604080516305eff7ef60e21b815230600482015290519298506001600160a01b03909116916317bfdfbc916024808201926020929091908290030181600087803b1580156137da57600080fd5b505af11580156137ee573d6000803e3d6000fd5b505050506040513d602081101561380457600080fd5b505160065460408051633af9e66960e01b815230600482015290519296506001600160a01b0390911691633af9e669916024808201926020929091908290030181600087803b15801561385657600080fd5b505af115801561386a573d6000803e3d6000fd5b505050506040513d602081101561388057600080fd5b5051945061362792505050565b61389a61367c8484612c21565b505050505050565b8015613046576138b1816139ce565b60055460408051630d0e30db60e41b815290516001600160a01b0390921691829163d0e30db091479160048082019260009290919082900301818588803b1580156138fb57600080fd5b505af115801561390f573d6000803e3d6000fd5b50505050505050565b60055460408051632e1a7d4d60e01b81526004810184905290516001600160a01b03909216918291632e1a7d4d91602480830192600092919082900301818387803b15801561396657600080fd5b505af115801561397a573d6000803e3d6000fd5b50505050600660009054906101000a90046001600160a01b03166001600160a01b0316634e4d9fea836040518263ffffffff1660e01b81526004016000604051808303818588803b1580156138fb57600080fd5b8015613046576006546040805163852a12e360e01b81526004810184905290516001600160a01b039092169163852a12e3916024808201926020929091908290030181600087803b158015613a2257600080fd5b505af1158015613a36573d6000803e3d6000fd5b505050506040513d6020811015610a6f57600080fdfe746f6b656e20697320646566696e6564206173206e6f742073616c76616761626c65436f6c6c61746572616c20666163746f722063616e6e6f74206265207468697320686967685468652073656e6465722068617320746f2062652074686520636f6e74726f6c6c6572206f72207661756c744c697175696469747920726563697069656e742077617320616c7265616479207365742c20616e64206861732061206c6f616e4275666665722065786973747320616e64207468652063616c6c6572206973206e6f7420676f7665726e616e63654c6971756964697479206c6f616e206d75737420626520736574746c6564206669727374536166654d6174683a206d756c7469706c69636174696f6e206f766572666c6f77556e61626c6520746f2077697468647261772074686520656e7469726520616d6f756e74556e6465726c79696e675361666545524332303a204552433230206f7065726174696f6e20646964206e6f7420737563636565646d61726b657420636173682063616e6e6f7420636f766572206c69717569646974795361666545524332303a20617070726f76652066726f6d206e6f6e2d7a65726f20746f206e6f6e2d7a65726f20616c6c6f77616e6365a265627a7a72315820c9eae12af6b20820f09ac141df43b4ee9472eb657e46475587ccbb41beedbcf664736f6c634300051000327661756c7420646f6573206e6f7420737570706f727420756e6465726c79696e67",
  "source": "pragma solidity 0.5.16;\n\nimport \"./CompoundWETHFoldStrategy.sol\";\n\ncontract CompoundWETHFoldStrategyMainnet is CompoundWETHFoldStrategy {\n\n  // token addresses\n  address constant public __underlying = address(0xC02aaA39b223FE8D0A0e5C4F27eAD9083C756Cc2);\n  address constant public __ctoken = address(0x4Ddc2D193948926D02f9B1fE9e1daa0718270ED5);\n  address constant public __comptroller = address(0x3d9819210A31b4961b30EF54bE2aeD79B9c9Cd3B);\n  address constant public __comp = address(0xc00e94Cb662C3520282E6f5717214004A7f26888);\n  address constant public __uniswap = address(0x7a250d5630B4cF539739dF2C5dAcb4c659F2488D);\n\n  constructor(\n    address _storage,\n    address _vault\n  )\n  CompoundWETHFoldStrategy(\n    _storage,\n    __underlying,\n    __ctoken,\n    _vault,\n    __comptroller,\n    __comp,\n    __uniswap\n  )\n  public {\n  }\n\n}\n",
  "sourcePath": "/home/madhav/Vaults/contracts/strategies/compound/CompoundWETHFoldStrategyMainnet.sol",
  "compiler": {
    "name": "solc",
    "version": "0.5.16+commit.9c3226ce.Emscripten.clang"
  },
  "schemaVersion": "3.2.5",
  "updatedAt": "2020-12-05T16:27:35.044Z",
  "devdoc": {
    "methods": {}
  },
  "userdoc": {
    "methods": {
      "claimComp()": {
        "notice": "Get COMP"
      },
      "doHardWork()": {
        "notice": "Withdraws all assets, liquidates COMP/CREAM, and invests again in the required ratio."
      },
      "investAllUnderlying()": {
        "notice": "The strategy invests by supplying the underlying as a collateral."
      },
      "investedUnderlyingBalance()": {
        "notice": "Returns the current balance. Ignores COMP/CREAM that was not liquidated and invested."
      },
      "provideLoan()": {
        "notice": "Provides a loan to the liquidity strategy. Sends in funds to fill out the loan target amount, if they are available."
      },
      "salvage(address,address,uint256)": {
        "notice": "Salvages a token."
      },
      "setLiquidationAllowed(bool)": {
        "notice": "Allows liquidation"
      },
      "settleLoan(uint256)": {
        "notice": "Settles a loan amount by forcing withdrawal inside the liquidity strategy, and then transferring the funds back to this strategy. This way, the loan can be settled partially, or completely. The method can be invoked only by EOAs to avoid market manipulation, and only by the governance unless there is not more than 10 WETH left in this strategy."
      },
      "withdrawAllToVault()": {
        "notice": "Exits Compound and transfers everything to the vault."
      }
    }
  }
}