{
  "contractName": "CompoundNoFoldStrategyUSDCMainnet",
  "abi": [
    {
      "inputs": [
        {
          "internalType": "address",
          "name": "_storage",
          "type": "address"
        },
        {
          "internalType": "address",
          "name": "_vault",
          "type": "address"
        }
      ],
      "payable": false,
      "stateMutability": "nonpayable",
      "type": "constructor"
    },
    {
      "anonymous": false,
      "inputs": [
        {
          "indexed": false,
          "internalType": "uint256",
          "name": "profitAmount",
          "type": "uint256"
        },
        {
          "indexed": false,
          "internalType": "uint256",
          "name": "feeAmount",
          "type": "uint256"
        },
        {
          "indexed": false,
          "internalType": "uint256",
          "name": "timestamp",
          "type": "uint256"
        }
      ],
      "name": "ProfitLogInReward",
      "type": "event"
    },
    {
      "anonymous": false,
      "inputs": [],
      "name": "ProfitNotClaimed",
      "type": "event"
    },
    {
      "anonymous": false,
      "inputs": [],
      "name": "TooLowBalance",
      "type": "event"
    },
    {
      "payable": true,
      "stateMutability": "payable",
      "type": "fallback"
    },
    {
      "constant": true,
      "inputs": [],
      "name": "__comp",
      "outputs": [
        {
          "internalType": "address",
          "name": "",
          "type": "address"
        }
      ],
      "payable": false,
      "stateMutability": "view",
      "type": "function"
    },
    {
      "constant": true,
      "inputs": [],
      "name": "__comptroller",
      "outputs": [
        {
          "internalType": "address",
          "name": "",
          "type": "address"
        }
      ],
      "payable": false,
      "stateMutability": "view",
      "type": "function"
    },
    {
      "constant": true,
      "inputs": [],
      "name": "__ctoken",
      "outputs": [
        {
          "internalType": "address",
          "name": "",
          "type": "address"
        }
      ],
      "payable": false,
      "stateMutability": "view",
      "type": "function"
    },
    {
      "constant": true,
      "inputs": [],
      "name": "__underlying",
      "outputs": [
        {
          "internalType": "address",
          "name": "",
          "type": "address"
        }
      ],
      "payable": false,
      "stateMutability": "view",
      "type": "function"
    },
    {
      "constant": true,
      "inputs": [],
      "name": "__uniswap",
      "outputs": [
        {
          "internalType": "address",
          "name": "",
          "type": "address"
        }
      ],
      "payable": false,
      "stateMutability": "view",
      "type": "function"
    },
    {
      "constant": true,
      "inputs": [],
      "name": "_weth",
      "outputs": [
        {
          "internalType": "contract IERC20",
          "name": "",
          "type": "address"
        }
      ],
      "payable": false,
      "stateMutability": "view",
      "type": "function"
    },
    {
      "constant": true,
      "inputs": [],
      "name": "allowEmergencyLiquidityShortage",
      "outputs": [
        {
          "internalType": "bool",
          "name": "",
          "type": "bool"
        }
      ],
      "payable": false,
      "stateMutability": "view",
      "type": "function"
    },
    {
      "constant": false,
      "inputs": [],
      "name": "claimComp",
      "outputs": [],
      "payable": false,
      "stateMutability": "nonpayable",
      "type": "function"
    },
    {
      "constant": true,
      "inputs": [],
      "name": "comp",
      "outputs": [
        {
          "internalType": "contract ERC20Detailed",
          "name": "",
          "type": "address"
        }
      ],
      "payable": false,
      "stateMutability": "view",
      "type": "function"
    },
    {
      "constant": true,
      "inputs": [],
      "name": "comptroller",
      "outputs": [
        {
          "internalType": "contract ComptrollerInterface",
          "name": "",
          "type": "address"
        }
      ],
      "payable": false,
      "stateMutability": "view",
      "type": "function"
    },
    {
      "constant": true,
      "inputs": [],
      "name": "controller",
      "outputs": [
        {
          "internalType": "address",
          "name": "",
          "type": "address"
        }
      ],
      "payable": false,
      "stateMutability": "view",
      "type": "function"
    },
    {
      "constant": true,
      "inputs": [],
      "name": "ctoken",
      "outputs": [
        {
          "internalType": "contract CompleteCToken",
          "name": "",
          "type": "address"
        }
      ],
      "payable": false,
      "stateMutability": "view",
      "type": "function"
    },
    {
      "constant": true,
      "inputs": [],
      "name": "depositArbCheck",
      "outputs": [
        {
          "internalType": "bool",
          "name": "",
          "type": "bool"
        }
      ],
      "payable": false,
      "stateMutability": "view",
      "type": "function"
    },
    {
      "constant": false,
      "inputs": [],
      "name": "doHardWork",
      "outputs": [],
      "payable": false,
      "stateMutability": "nonpayable",
      "type": "function"
    },
    {
      "constant": false,
      "inputs": [],
      "name": "emergencyExit",
      "outputs": [],
      "payable": false,
      "stateMutability": "nonpayable",
      "type": "function"
    },
    {
      "constant": true,
      "inputs": [],
      "name": "getLiquidity",
      "outputs": [
        {
          "internalType": "uint256",
          "name": "",
          "type": "uint256"
        }
      ],
      "payable": false,
      "stateMutability": "view",
      "type": "function"
    },
    {
      "constant": true,
      "inputs": [],
      "name": "governance",
      "outputs": [
        {
          "internalType": "address",
          "name": "",
          "type": "address"
        }
      ],
      "payable": false,
      "stateMutability": "view",
      "type": "function"
    },
    {
      "constant": false,
      "inputs": [],
      "name": "investAllUnderlying",
      "outputs": [],
      "payable": false,
      "stateMutability": "nonpayable",
      "type": "function"
    },
    {
      "constant": true,
      "inputs": [],
      "name": "investedUnderlyingBalance",
      "outputs": [
        {
          "internalType": "uint256",
          "name": "",
          "type": "uint256"
        }
      ],
      "payable": false,
      "stateMutability": "view",
      "type": "function"
    },
    {
      "constant": true,
      "inputs": [],
      "name": "liquidationAllowed",
      "outputs": [
        {
          "internalType": "bool",
          "name": "",
          "type": "bool"
        }
      ],
      "payable": false,
      "stateMutability": "view",
      "type": "function"
    },
    {
      "constant": true,
      "inputs": [],
      "name": "profitSharingDenominator",
      "outputs": [
        {
          "internalType": "uint256",
          "name": "",
          "type": "uint256"
        }
      ],
      "payable": false,
      "stateMutability": "view",
      "type": "function"
    },
    {
      "constant": true,
      "inputs": [],
      "name": "profitSharingNumerator",
      "outputs": [
        {
          "internalType": "uint256",
          "name": "",
          "type": "uint256"
        }
      ],
      "payable": false,
      "stateMutability": "view",
      "type": "function"
    },
    {
      "constant": true,
      "inputs": [],
      "name": "rewardToken",
      "outputs": [
        {
          "internalType": "address",
          "name": "",
          "type": "address"
        }
      ],
      "payable": false,
      "stateMutability": "view",
      "type": "function"
    },
    {
      "constant": false,
      "inputs": [
        {
          "internalType": "address",
          "name": "recipient",
          "type": "address"
        },
        {
          "internalType": "address",
          "name": "token",
          "type": "address"
        },
        {
          "internalType": "uint256",
          "name": "amount",
          "type": "uint256"
        }
      ],
      "name": "salvage",
      "outputs": [],
      "payable": false,
      "stateMutability": "nonpayable",
      "type": "function"
    },
    {
      "constant": true,
      "inputs": [],
      "name": "sellFloor",
      "outputs": [
        {
          "internalType": "uint256",
          "name": "",
          "type": "uint256"
        }
      ],
      "payable": false,
      "stateMutability": "view",
      "type": "function"
    },
    {
      "constant": false,
      "inputs": [
        {
          "internalType": "bool",
          "name": "allowed",
          "type": "bool"
        }
      ],
      "name": "setAllowLiquidityShortage",
      "outputs": [],
      "payable": false,
      "stateMutability": "nonpayable",
      "type": "function"
    },
    {
      "constant": false,
      "inputs": [
        {
          "internalType": "bool",
          "name": "allowed",
          "type": "bool"
        }
      ],
      "name": "setLiquidationAllowed",
      "outputs": [],
      "payable": false,
      "stateMutability": "nonpayable",
      "type": "function"
    },
    {
      "constant": false,
      "inputs": [
        {
          "internalType": "uint256",
          "name": "value",
          "type": "uint256"
        }
      ],
      "name": "setSellFloor",
      "outputs": [],
      "payable": false,
      "stateMutability": "nonpayable",
      "type": "function"
    },
    {
      "constant": false,
      "inputs": [
        {
          "internalType": "address",
          "name": "_store",
          "type": "address"
        }
      ],
      "name": "setStorage",
      "outputs": [],
      "payable": false,
      "stateMutability": "nonpayable",
      "type": "function"
    },
    {
      "constant": true,
      "inputs": [],
      "name": "store",
      "outputs": [
        {
          "internalType": "contract Storage",
          "name": "",
          "type": "address"
        }
      ],
      "payable": false,
      "stateMutability": "view",
      "type": "function"
    },
    {
      "constant": true,
      "inputs": [],
      "name": "suppliedInUnderlying",
      "outputs": [
        {
          "internalType": "uint256",
          "name": "",
          "type": "uint256"
        }
      ],
      "payable": false,
      "stateMutability": "view",
      "type": "function"
    },
    {
      "constant": true,
      "inputs": [],
      "name": "underlying",
      "outputs": [
        {
          "internalType": "contract ERC20Detailed",
          "name": "",
          "type": "address"
        }
      ],
      "payable": false,
      "stateMutability": "view",
      "type": "function"
    },
    {
      "constant": true,
      "inputs": [],
      "name": "uniswapRouterV2",
      "outputs": [
        {
          "internalType": "address",
          "name": "",
          "type": "address"
        }
      ],
      "payable": false,
      "stateMutability": "view",
      "type": "function"
    },
    {
      "constant": true,
      "inputs": [
        {
          "internalType": "address",
          "name": "",
          "type": "address"
        }
      ],
      "name": "unsalvagableTokens",
      "outputs": [
        {
          "internalType": "bool",
          "name": "",
          "type": "bool"
        }
      ],
      "payable": false,
      "stateMutability": "view",
      "type": "function"
    },
    {
      "constant": true,
      "inputs": [],
      "name": "vault",
      "outputs": [
        {
          "internalType": "address",
          "name": "",
          "type": "address"
        }
      ],
      "payable": false,
      "stateMutability": "view",
      "type": "function"
    },
    {
      "constant": false,
      "inputs": [],
      "name": "withdrawAllToVault",
      "outputs": [],
      "payable": false,
      "stateMutability": "nonpayable",
      "type": "function"
    },
    {
      "constant": false,
      "inputs": [
        {
          "internalType": "uint256",
          "name": "amountUnderlying",
          "type": "uint256"
        }
      ],
      "name": "withdrawToVault",
      "outputs": [],
      "payable": false,
      "stateMutability": "nonpayable",
      "type": "function"
    }
  ],
  "bytecode": "0x6080604052600580546001600160a01b03191673c02aaa39b223fe8d0a0e5c4f27ead9083c756cc2179055600f805460ff1990811660011790915560006010556011805490911690553480156200005557600080fd5b5060405162002a4d38038062002a4d833981810160405260408110156200007b57600080fd5b5080516020909101518173a0b86991c6218b36c1d19d4a2e9eb0ce3606eb487339aa39c021dfbae8fac545936693ac917d5e756383733d9819210a31b4961b30ef54be2aed79b9c9cd3b73c00e94cb662c3520282e6f5717214004a7f26888737a250d5630b4cf539739df2c5dacb4c659f2488d858584898581806001600160a01b03811662000152576040805162461bcd60e51b815260206004820152601e60248201527f6e65772073746f726167652073686f756c646e277420626520656d7074790000604482015290519081900360640190fd5b600080546001600160a01b039283166001600160a01b03199182161790915560038054601e60019081556064600255600160a01b60ff60a01b1997861692851692909217969096161790556007805482168784161790556004805482168984161790556006805490911691871691909117905550604080518281528082019091526060925090602080830190803883390190505090508281600081518110620001f757fe5b6001600160a01b03928316602091820292909201810191909152600754604051631853304760e31b815260048101838152855160248301528551929094169363c299823893869391928392604490910191858101910280838360005b838110156200026d57818101518382015260200162000253565b5050505090500192505050600060405180830381600087803b1580156200029357600080fd5b505af1158015620002a8573d6000803e3d6000fd5b505050506040513d6000823e601f3d908101601f191682016040526020811015620002d257600080fd5b8101908080516040519392919084640100000000821115620002f357600080fd5b9083019060208201858111156200030957600080fd5b82518660208202830111640100000000821117156200032757600080fd5b82525081516020918201928201910280838360005b83811015620003565781810151838201526020016200033c565b505050509050016040525050505050505050856001600160a01b0316846001600160a01b0316636f307dc36040518163ffffffff1660e01b815260040160206040518083038186803b158015620003ac57600080fd5b505afa158015620003c1573d6000803e3d6000fd5b505050506040513d6020811015620003d857600080fd5b50516001600160a01b031614620004215760405162461bcd60e51b815260040180806020018281038252602181526020018062002a2c6021913960400191505060405180910390fd5b600a80546001600160a01b03199081166001600160a01b0395861617909155600c80548216938516938417905560088054821697851697881790556009805482169685169687179055600b8054821695851695909517909455600d8054909416921691909117909155600092835260126020526040808420805460ff1990811660019081179092559385528185208054851682179055918452832080549092161790556125549350839250620004d89150396000f3fe60806040526004361061021a5760003560e01c80636f307dc311610123578063bfd131f1116100ab578063d9cef7251161006f578063d9cef725146105c0578063f48d0c4a146105d5578063f77c4791146105ea578063f7c618c1146105ff578063fbfa77cf146106145761021a565b8063bfd131f114610542578063c2a2a07b14610557578063ccf3eb9f1461056c578063ce8c42e814610581578063d610101b146105ab5761021a565b8063975057e7116100f2578063975057e7146104c4578063a1764595146104d9578063a1dab23e146104ee578063b60f151a14610503578063ba09591e146105185761021a565b80636f307dc31461045257806377be00f3146104675780639137c1a71461047c57806392501f29146104af5761021a565b80634a8cfa69116101a6578063596fa9e311610175578063596fa9e3146103d25780635976317f146103e75780635aa6e675146104135780635dbeffe5146104285780635fe3b5671461043d5761021a565b80634a8cfa69146103605780634fa5d85414610375578063501859461461038a5780635641ec03146103bd5761021a565b80631113ef52116101ed5780631113ef52146102b25780631bd85bdb146102f55780633fd8cd981461030a57806345d01e4a146103365780634990f6dc1461034b5761021a565b8063026a0dd01461021c5780630910a5101461024357806309e5f66c14610258578063109d0af814610281575b005b34801561022857600080fd5b50610231610629565b60408051918252519081900360200190f35b34801561024f57600080fd5b5061023161062f565b34801561026457600080fd5b5061026d6106a5565b604080519115158252519081900360200190f35b34801561028d57600080fd5b506102966106ae565b604080516001600160a01b039092168252519081900360200190f35b3480156102be57600080fd5b5061021a600480360360608110156102d557600080fd5b506001600160a01b038135811691602081013590911690604001356106bd565b34801561030157600080fd5b5061021a6107ed565b34801561031657600080fd5b5061021a6004803603602081101561032d57600080fd5b50351515610853565b34801561034257600080fd5b506102316108f5565b34801561035757600080fd5b50610296610989565b34801561036c57600080fd5b5061021a6109a1565b34801561038157600080fd5b5061021a610b32565b34801561039657600080fd5b5061026d600480360360208110156103ad57600080fd5b50356001600160a01b0316610c15565b3480156103c957600080fd5b5061021a610c2a565b3480156103de57600080fd5b50610296610d38565b3480156103f357600080fd5b5061021a6004803603602081101561040a57600080fd5b50351515610d47565b34801561041f57600080fd5b50610296610de9565b34801561043457600080fd5b50610296610e38565b34801561044957600080fd5b50610296610e50565b34801561045e57600080fd5b50610296610e5f565b34801561047357600080fd5b50610296610e6e565b34801561048857600080fd5b5061021a6004803603602081101561049f57600080fd5b50356001600160a01b0316610e86565b3480156104bb57600080fd5b50610296610fbc565b3480156104d057600080fd5b50610296610fd4565b3480156104e557600080fd5b50610296610fe3565b3480156104fa57600080fd5b50610231610ff2565b34801561050f57600080fd5b50610231610ff8565b34801561052457600080fd5b5061021a6004803603602081101561053b57600080fd5b5035610ffe565b34801561054e57600080fd5b5061021a611092565b34801561056357600080fd5b5061026d6111d9565b34801561057857600080fd5b506102966111de565b34801561058d57600080fd5b5061021a600480360360208110156105a457600080fd5b50356111ed565b3480156105b757600080fd5b506102316113d4565b3480156105cc57600080fd5b506102966113da565b3480156105e157600080fd5b5061026d6113f2565b3480156105f657600080fd5b506102966113fb565b34801561060b57600080fd5b5061029661144a565b34801561062057600080fd5b50610296611459565b60025481565b60065460408051631d8e90d160e11b815290516000926001600160a01b031691633b1d21a2916004808301926020929190829003018186803b15801561067457600080fd5b505afa158015610688573d6000803e3d6000fd5b505050506040513d602081101561069e57600080fd5b5051905090565b600f5460ff1681565b600c546001600160a01b031681565b600054604080516337b87c3960e21b815233600482015290516001600160a01b039092169163dee1f0e491602480820192602092909190829003018186803b15801561070857600080fd5b505afa15801561071c573d6000803e3d6000fd5b505050506040513d602081101561073257600080fd5b5051610776576040805162461bcd60e51b815260206004820152600e60248201526d4e6f7420676f7665726e616e636560901b604482015290519081900360640190fd5b6001600160a01b03821660009081526012602052604090205460ff16156107ce5760405162461bcd60e51b815260040180806020018281038252602281526020018061242f6022913960400191505060405180910390fd5b6107e86001600160a01b038316848363ffffffff61146816565b505050565b600754604080516374d7814960e11b815230600482015290516001600160a01b039092169163e9af02929160248082019260009290919082900301818387803b15801561083957600080fd5b505af115801561084d573d6000803e3d6000fd5b50505050565b600b546001600160a01b0316331480610884575061086f6113fb565b6001600160a01b0316336001600160a01b0316145b806108a75750610892610de9565b6001600160a01b0316336001600160a01b0316145b6108e25760405162461bcd60e51b815260040180806020018281038252602c815260200180612451602c913960400191505060405180910390fd5b6011805460ff1916911515919091179055565b600e54600854604080516370a0823160e01b815230600482015290516000936109849390926001600160a01b03909116916370a0823191602480820192602092909190829003018186803b15801561094c57600080fd5b505afa158015610960573d6000803e3d6000fd5b505050506040513d602081101561097657600080fd5b50519063ffffffff6114ba16565b905090565b73a0b86991c6218b36c1d19d4a2e9eb0ce3606eb4881565b600b546001600160a01b03163314806109d257506109bd6113fb565b6001600160a01b0316336001600160a01b0316145b806109f557506109e0610de9565b6001600160a01b0316336001600160a01b0316145b610a305760405162461bcd60e51b815260040180806020018281038252602c815260200180612451602c913960400191505060405180910390fd5b600854604080516370a0823160e01b815230600482015290516000926001600160a01b0316916370a08231916024808301926020929190829003018186803b158015610a7b57600080fd5b505afa158015610a8f573d6000803e3d6000fd5b505050506040513d6020811015610aa557600080fd5b50519050610ab28161151d565b505060095460408051633af9e66960e01b815230600482015290516001600160a01b0390921691633af9e669916024808201926020929091908290030181600087803b158015610b0157600080fd5b505af1158015610b15573d6000803e3d6000fd5b505050506040513d6020811015610b2b57600080fd5b5051600e55565b600b546001600160a01b0316331480610b635750610b4e6113fb565b6001600160a01b0316336001600160a01b0316145b80610b865750610b71610de9565b6001600160a01b0316336001600160a01b0316145b610bc15760405162461bcd60e51b815260040180806020018281038252602c815260200180612451602c913960400191505060405180910390fd5b600f5460ff1615610be157610bd46107ed565b610bdc6116b5565b610c0b565b6040517f6e180aeefd7fd43a105253e3c10a794670b4c6ef64e8a4d8879de77cfb09d61290600090a15b610c136109a1565b565b60126020526000908152604090205460ff1681565b600054604080516337b87c3960e21b815233600482015290516001600160a01b039092169163dee1f0e491602480820192602092909190829003018186803b158015610c7557600080fd5b505afa158015610c89573d6000803e3d6000fd5b505050506040513d6020811015610c9f57600080fd5b5051610ce3576040805162461bcd60e51b815260206004820152600e60248201526d4e6f7420676f7665726e616e636560901b604482015290519081900360640190fd5b610ceb611ab9565b60095460408051633af9e66960e01b815230600482015290516001600160a01b0390921691633af9e669916024808201926020929091908290030181600087803b158015610b0157600080fd5b600d546001600160a01b031681565b600b546001600160a01b0316331480610d785750610d636113fb565b6001600160a01b0316336001600160a01b0316145b80610d9b5750610d86610de9565b6001600160a01b0316336001600160a01b0316145b610dd65760405162461bcd60e51b815260040180806020018281038252602c815260200180612451602c913960400191505060405180910390fd5b600f805460ff1916911515919091179055565b60008060009054906101000a90046001600160a01b03166001600160a01b0316635aa6e6756040518163ffffffff1660e01b815260040160206040518083038186803b15801561067457600080fd5b73c00e94cb662c3520282e6f5717214004a7f2688881565b600a546001600160a01b031681565b6008546001600160a01b031681565b737a250d5630b4cf539739df2c5dacb4c659f2488d81565b600054604080516337b87c3960e21b815233600482015290516001600160a01b039092169163dee1f0e491602480820192602092909190829003018186803b158015610ed157600080fd5b505afa158015610ee5573d6000803e3d6000fd5b505050506040513d6020811015610efb57600080fd5b5051610f3f576040805162461bcd60e51b815260206004820152600e60248201526d4e6f7420676f7665726e616e636560901b604482015290519081900360640190fd5b6001600160a01b038116610f9a576040805162461bcd60e51b815260206004820152601e60248201527f6e65772073746f726167652073686f756c646e277420626520656d7074790000604482015290519081900360640190fd5b600080546001600160a01b0319166001600160a01b0392909216919091179055565b733d9819210a31b4961b30ef54be2aed79b9c9cd3b81565b6000546001600160a01b031681565b6005546001600160a01b031681565b60105481565b60015481565b600b546001600160a01b031633148061102f575061101a6113fb565b6001600160a01b0316336001600160a01b0316145b80611052575061103d610de9565b6001600160a01b0316336001600160a01b0316145b61108d5760405162461bcd60e51b815260040180806020018281038252602c815260200180612451602c913960400191505060405180910390fd5b601055565b600b546001600160a01b03163314806110c357506110ae6113fb565b6001600160a01b0316336001600160a01b0316145b806110e657506110d1610de9565b6001600160a01b0316336001600160a01b0316145b6111215760405162461bcd60e51b815260040180806020018281038252602c815260200180612451602c913960400191505060405180910390fd5b60115460ff161561113957611134611ab9565b611141565b611141611b0b565b600b54600854604080516370a0823160e01b81523060048201529051610ceb936001600160a01b039081169316916370a08231916024808301926020929190829003018186803b15801561119457600080fd5b505afa1580156111a8573d6000803e3d6000fd5b505050506040513d60208110156111be57600080fd5b50516008546001600160a01b0316919063ffffffff61146816565b600190565b6009546001600160a01b031681565b600b546001600160a01b031633148061121e57506112096113fb565b6001600160a01b0316336001600160a01b0316145b80611241575061122c610de9565b6001600160a01b0316336001600160a01b0316145b61127c5760405162461bcd60e51b815260040180806020018281038252602c815260200180612451602c913960400191505060405180910390fd5b600854604080516370a0823160e01b815230600482015290516001600160a01b03909216916370a0823191602480820192602092909190829003018186803b1580156112c757600080fd5b505afa1580156112db573d6000803e3d6000fd5b505050506040513d60208110156112f157600080fd5b5051811161132157600b5460085461131c916001600160a01b0391821691168363ffffffff61146816565b611355565b61132a81611c26565b600b5460085461134d916001600160a01b0391821691168363ffffffff61146816565b6113556109a1565b60095460408051633af9e66960e01b815230600482015290516001600160a01b0390921691633af9e669916024808201926020929091908290030181600087803b1580156113a257600080fd5b505af11580156113b6573d6000803e3d6000fd5b505050506040513d60208110156113cc57600080fd5b5051600e5550565b600e5481565b7339aa39c021dfbae8fac545936693ac917d5e756381565b60115460ff1681565b60008060009054906101000a90046001600160a01b03166001600160a01b031663f77c47916040518163ffffffff1660e01b815260040160206040518083038186803b15801561067457600080fd5b6003546001600160a01b031681565b600b546001600160a01b031681565b604080516001600160a01b038416602482015260448082018490528251808303909101815260649091019091526020810180516001600160e01b031663a9059cbb60e01b1790526107e8908490611cdf565b600082820183811015611514576040805162461bcd60e51b815260206004820152601b60248201527f536166654d6174683a206164646974696f6e206f766572666c6f770000000000604482015290519081900360640190fd5b90505b92915050565b60048054604080516370a0823160e01b815230938101939093525160009283926001600160a01b0316916370a0823191602480820192602092909190829003018186803b15801561156d57600080fd5b505afa158015611581573d6000803e3d6000fd5b505050506040513d602081101561159757600080fd5b50519050808310156115a65750815b6006546004546115ca916001600160a01b039182169116600063ffffffff611e9716565b6006546004546115ed916001600160a01b0391821691168363ffffffff611e9716565b6006546040805163140e25ad60e31b81526004810184905290516000926001600160a01b03169163a0712d6891602480830192602092919082900301818787803b15801561163a57600080fd5b505af115801561164e573d6000803e3d6000fd5b505050506040513d602081101561166457600080fd5b5051905080156116ae576040805162461bcd60e51b815260206004820152601060248201526f14dd5c1c1b1e5a5b99c819985a5b195960821b604482015290519081900360640190fd5b5092915050565b600c54604080516370a0823160e01b815230600482015290516000926001600160a01b0316916370a08231916024808301926020929190829003018186803b15801561170057600080fd5b505afa158015611714573d6000803e3d6000fd5b505050506040513d602081101561172a57600080fd5b5051601054909150811015611768576040517fd26ff69ffdb9c21e34f9b534127733d71db1159e23eb2e5105a07b91fa2768ac90600090a150610c13565b61177181611faa565b600c54604080516370a0823160e01b815230600482015290516001600160a01b03909216916370a0823191602480820192602092909190829003018186803b1580156117bc57600080fd5b505afa1580156117d0573d6000803e3d6000fd5b505050506040513d60208110156117e657600080fd5b5051600d54600c54919250600191611812916001600160a01b039182169116600063ffffffff611e9716565b600d54600c54611835916001600160a01b0391821691168463ffffffff611e9716565b604080516003808252608082019092526060916020820183803883395050600c5482519293506001600160a01b03169183915060009061187157fe5b6001600160a01b03928316602091820292909201810191909152600d54604080516315ab88c960e31b81529051919093169263ad5c4648926004808301939192829003018186803b1580156118c557600080fd5b505afa1580156118d9573d6000803e3d6000fd5b505050506040513d60208110156118ef57600080fd5b505181518290600190811061190057fe5b6001600160a01b03928316602091820292909201015260085482519116908290600290811061192b57fe5b6001600160a01b03928316602091820292909201810191909152600d546040516338ed173960e01b815260048101878152602482018790523060648301819052426084840181905260a060448501908152885160a4860152885195909716966338ed1739968b968b968b96939260c490910191878201910280838360005b838110156119c15781810151838201526020016119a9565b505050509050019650505050505050600060405180830381600087803b1580156119ea57600080fd5b505af11580156119fe573d6000803e3d6000fd5b505050506040513d6000823e601f3d908101601f191682016040526020811015611a2757600080fd5b8101908080516040519392919084640100000000821115611a4757600080fd5b908301906020820185811115611a5c57600080fd5b8251866020820283011164010000000082111715611a7957600080fd5b82525081516020918201928201910280838360005b83811015611aa6578181015183820152602001611a8e565b5050505090500160405250505050505050565b600f5460ff1615611ad957611acc6107ed565b611ad46116b5565b611b03565b6040517f6e180aeefd7fd43a105253e3c10a794670b4c6ef64e8a4d8879de77cfb09d61290600090a15b610ceb612123565b600f5460ff1615611b2b57611b1e6107ed565b611b266116b5565b611b55565b6040517f6e180aeefd7fd43a105253e3c10a794670b4c6ef64e8a4d8879de77cfb09d61290600090a15b60095460408051633af9e66960e01b815230600482015290516000926001600160a01b031691633af9e66991602480830192602092919082900301818787803b158015611ba157600080fd5b505af1158015611bb5573d6000803e3d6000fd5b505050506040513d6020811015611bcb57600080fd5b50519050611bd881611c26565b5060095460408051633af9e66960e01b815230600482015290516001600160a01b0390921691633af9e669916024808201926020929091908290030181600087803b158015610b0157600080fd5b60095460408051631d8e90d160e11b8152905183926001600160a01b031691633b1d21a2916004808301926020929190829003018186803b158015611c6a57600080fd5b505afa158015611c7e573d6000803e3d6000fd5b505050506040513d6020811015611c9457600080fd5b50511015611cd35760405162461bcd60e51b81526004018080602001828103825260228152602001806124c86022913960400191505060405180910390fd5b611cdc8161212b565b50565b611cf1826001600160a01b03166121a9565b611d42576040805162461bcd60e51b815260206004820152601f60248201527f5361666545524332303a2063616c6c20746f206e6f6e2d636f6e747261637400604482015290519081900360640190fd5b60006060836001600160a01b0316836040518082805190602001908083835b60208310611d805780518252601f199092019160209182019101611d61565b6001836020036101000a0380198251168184511680821785525050505050509050019150506000604051808303816000865af19150503d8060008114611de2576040519150601f19603f3d011682016040523d82523d6000602084013e611de7565b606091505b509150915081611e3e576040805162461bcd60e51b815260206004820181905260248201527f5361666545524332303a206c6f772d6c6576656c2063616c6c206661696c6564604482015290519081900360640190fd5b80511561084d57808060200190516020811015611e5a57600080fd5b505161084d5760405162461bcd60e51b815260040180806020018281038252602a81526020018061249e602a913960400191505060405180910390fd5b801580611f1d575060408051636eb1769f60e11b81523060048201526001600160a01b03848116602483015291519185169163dd62ed3e91604480820192602092909190829003018186803b158015611eef57600080fd5b505afa158015611f03573d6000803e3d6000fd5b505050506040513d6020811015611f1957600080fd5b5051155b611f585760405162461bcd60e51b81526004018080602001828103825260368152602001806124ea6036913960400191505060405180910390fd5b604080516001600160a01b038416602482015260448082018490528251808303909101815260649091019091526020810180516001600160e01b031663095ea7b360e01b1790526107e8908490611cdf565b80156120e1576000611fd9600254611fcd600154856121e590919063ffffffff16565b9063ffffffff61223e16565b6040805184815260208101839052428183015290519192507f33fd2845a0f10293482de360244dd4ad31ddbb4b8c4a1ded3875cf8ebfba184b919081900360600190a16120416120276113fb565b6003546001600160a01b031690600063ffffffff611e9716565b61206561204c6113fb565b6003546001600160a01b0316908363ffffffff611e9716565b61206d6113fb565b60035460408051631ee0d7e560e31b81526001600160a01b039283166004820152602481018590529051929091169163f706bf289160448082019260009290919082900301818387803b1580156120c357600080fd5b505af11580156120d7573d6000803e3d6000fd5b5050505050611cdc565b6040805160008082526020820152428183015290517f33fd2845a0f10293482de360244dd4ad31ddbb4b8c4a1ded3875cf8ebfba184b9181900360600190a150565b610c13612280565b8015611cdc576006546040805163852a12e360e01b81526004810184905290516001600160a01b039092169163852a12e3916024808201926020929091908290030181600087803b15801561217f57600080fd5b505af1158015612193573d6000803e3d6000fd5b505050506040513d60208110156107e857600080fd5b6000813f7fc5d2460186f7233c927e7db2dcc703c0e500b653ca82273b7bfad8045d85a4708181148015906121dd57508115155b949350505050565b6000826121f457506000611517565b8282028284828161220157fe5b04146115145760405162461bcd60e51b815260040180806020018281038252602181526020018061247d6021913960400191505060405180910390fd5b600061151483836040518060400160405280601a81526020017f536166654d6174683a206469766973696f6e206279207a65726f00000000000081525061238c565b60065460408051631d8e90d160e11b815290516000926001600160a01b031691633b1d21a2916004808301926020929190829003018186803b1580156122c557600080fd5b505afa1580156122d9573d6000803e3d6000fd5b505050506040513d60208110156122ef57600080fd5b505160065460408051633af9e66960e01b815230600482015290519293506000926001600160a01b0390921691633af9e6699160248082019260209290919082900301818787803b15801561234357600080fd5b505af1158015612357573d6000803e3d6000fd5b505050506040513d602081101561236d57600080fd5b505190506123888183106123815781612383565b825b61212b565b5050565b600081836124185760405162461bcd60e51b81526004018080602001828103825283818151815260200191508051906020019080838360005b838110156123dd5781810151838201526020016123c5565b50505050905090810190601f16801561240a5780820380516001836020036101000a031916815260200191505b509250505060405180910390fd5b50600083858161242457fe5b049594505050505056fe746f6b656e20697320646566696e6564206173206e6f742073616c76616761626c655468652073656e6465722068617320746f2062652074686520636f6e74726f6c6c6572206f72207661756c74536166654d6174683a206d756c7469706c69636174696f6e206f766572666c6f775361666545524332303a204552433230206f7065726174696f6e20646964206e6f7420737563636565646d61726b657420636173682063616e6e6f7420636f766572206c69717569646974795361666545524332303a20617070726f76652066726f6d206e6f6e2d7a65726f20746f206e6f6e2d7a65726f20616c6c6f77616e6365a265627a7a723158204bc3f9defac8bc07ab850d64acc6967cd1408a692cce844654b607767e96afc664736f6c634300051000327661756c7420646f6573206e6f7420737570706f727420756e6465726c79696e67",
  "source": "pragma solidity 0.5.16;\n\nimport \"./CompoundNoFoldStrategy.sol\";\n\ncontract CompoundNoFoldStrategyUSDCMainnet is CompoundNoFoldStrategy {\n\n  // token addresses\n  address constant public __underlying = address(0xA0b86991c6218b36c1d19D4a2e9Eb0cE3606eB48);\n  address constant public __ctoken = address(0x39AA39c021dfbaE8faC545936693aC917d5E7563);\n  address constant public __comptroller = address(0x3d9819210A31b4961b30EF54bE2aeD79B9c9Cd3B);\n  address constant public __comp = address(0xc00e94Cb662C3520282E6f5717214004A7f26888);\n  address constant public __uniswap = address(0x7a250d5630B4cF539739dF2C5dAcb4c659F2488D);\n\n  constructor(\n    address _storage,\n    address _vault\n  )\n  CompoundNoFoldStrategy(\n    _storage,\n    __underlying,\n    __ctoken,\n    _vault,\n    __comptroller,\n    __comp,\n    __uniswap\n  )\n  public {\n  }\n\n}\n",
  "sourcePath": "/home/madhav/Vaults/contracts/strategies/compound/CompoundNoFoldStrategyUSDCMainnet.sol",
  "compiler": {
    "name": "solc",
    "version": "0.5.16+commit.9c3226ce.Emscripten.clang"
  },
  "schemaVersion": "3.2.5",
  "updatedAt": "2020-12-05T16:27:35.004Z",
  "devdoc": {
    "methods": {}
  },
  "userdoc": {
    "methods": {
      "claimComp()": {
        "notice": "Get COMP"
      },
      "doHardWork()": {
        "notice": "Withdraws all assets, liquidates COMP/CREAM, and invests again in the required ratio."
      },
      "investAllUnderlying()": {
        "notice": "The strategy invests by supplying the underlying as a collateral."
      },
      "investedUnderlyingBalance()": {
        "notice": "Returns the current balance. Ignores COMP/CREAM that was not liquidated and invested."
      },
      "salvage(address,address,uint256)": {
        "notice": "Salvages a token."
      },
      "setLiquidationAllowed(bool)": {
        "notice": "Allows liquidation"
      },
      "withdrawAllToVault()": {
        "notice": "Exits Compound and transfers everything to the vault."
      }
    }
  }
}