{
  "contractName": "Controllable",
  "abi": [
    {
      "inputs": [
        {
          "internalType": "address",
          "name": "_storage",
          "type": "address"
        }
      ],
      "payable": false,
      "stateMutability": "nonpayable",
      "type": "constructor"
    },
    {
      "constant": true,
      "inputs": [],
      "name": "governance",
      "outputs": [
        {
          "internalType": "address",
          "name": "",
          "type": "address"
        }
      ],
      "payable": false,
      "stateMutability": "view",
      "type": "function"
    },
    {
      "constant": false,
      "inputs": [
        {
          "internalType": "address",
          "name": "_store",
          "type": "address"
        }
      ],
      "name": "setStorage",
      "outputs": [],
      "payable": false,
      "stateMutability": "nonpayable",
      "type": "function"
    },
    {
      "constant": true,
      "inputs": [],
      "name": "store",
      "outputs": [
        {
          "internalType": "contract Storage",
          "name": "",
          "type": "address"
        }
      ],
      "payable": false,
      "stateMutability": "view",
      "type": "function"
    },
    {
      "constant": true,
      "inputs": [],
      "name": "controller",
      "outputs": [
        {
          "internalType": "address",
          "name": "",
          "type": "address"
        }
      ],
      "payable": false,
      "stateMutability": "view",
      "type": "function"
    }
  ],
  "bytecode": "0x608060405234801561001057600080fd5b506040516103b83803806103b88339818101604052602081101561003357600080fd5b5051806001600160a01b038116610091576040805162461bcd60e51b815260206004820152601e60248201527f6e65772073746f726167652073686f756c646e277420626520656d7074790000604482015290519081900360640190fd5b600080546001600160a01b039092166001600160a01b0319909216919091179055506102f6806100c26000396000f3fe608060405234801561001057600080fd5b506004361061004c5760003560e01c80635aa6e675146100515780639137c1a714610075578063975057e71461009d578063f77c4791146100a5575b600080fd5b6100596100ad565b604080516001600160a01b039092168252519081900360200190f35b61009b6004803603602081101561008b57600080fd5b50356001600160a01b031661012d565b005b610059610263565b610059610272565b60008060009054906101000a90046001600160a01b03166001600160a01b0316635aa6e6756040518163ffffffff1660e01b815260040160206040518083038186803b1580156100fc57600080fd5b505afa158015610110573d6000803e3d6000fd5b505050506040513d602081101561012657600080fd5b5051905090565b600054604080516337b87c3960e21b815233600482015290516001600160a01b039092169163dee1f0e491602480820192602092909190829003018186803b15801561017857600080fd5b505afa15801561018c573d6000803e3d6000fd5b505050506040513d60208110156101a257600080fd5b50516101e6576040805162461bcd60e51b815260206004820152600e60248201526d4e6f7420676f7665726e616e636560901b604482015290519081900360640190fd5b6001600160a01b038116610241576040805162461bcd60e51b815260206004820152601e60248201527f6e65772073746f726167652073686f756c646e277420626520656d7074790000604482015290519081900360640190fd5b600080546001600160a01b0319166001600160a01b0392909216919091179055565b6000546001600160a01b031681565b60008060009054906101000a90046001600160a01b03166001600160a01b031663f77c47916040518163ffffffff1660e01b815260040160206040518083038186803b1580156100fc57600080fdfea265627a7a723158204a4938581e99d0436a1c731fa715ca7b3142053132d9621e4e4b2b5eb9b746f664736f6c63430005100032",
  "source": "pragma solidity 0.5.16;\n\nimport \"./Governable.sol\";\n\ncontract Controllable is Governable {\n\n  constructor(address _storage) Governable(_storage) public {\n  }\n\n  modifier onlyController() {\n    require(store.isController(msg.sender), \"Not a controller\");\n    _;\n  }\n\n  modifier onlyControllerOrGovernance(){\n    require((store.isController(msg.sender) || store.isGovernance(msg.sender)),\n      \"The caller must be controller or governance\");\n    _;\n  }\n\n  function controller() public view returns (address) {\n    return store.controller();\n  }\n}\n",
  "sourcePath": "/home/madhav/Vaults/contracts/Controllable.sol",
  "compiler": {
    "name": "solc",
    "version": "0.5.16+commit.9c3226ce.Emscripten.clang"
  },
  "schemaVersion": "3.2.5",
  "updatedAt": "2020-12-05T16:27:34.788Z",
  "devdoc": {
    "methods": {}
  },
  "userdoc": {
    "methods": {}
  }
}