{
  "contractName": "CreamNoFoldStrategyWETHMainnet",
  "abi": [
    {
      "inputs": [
        {
          "internalType": "address",
          "name": "_storage",
          "type": "address"
        },
        {
          "internalType": "address",
          "name": "_vault",
          "type": "address"
        }
      ],
      "payable": false,
      "stateMutability": "nonpayable",
      "type": "constructor"
    },
    {
      "anonymous": false,
      "inputs": [
        {
          "indexed": false,
          "internalType": "uint256",
          "name": "profitAmount",
          "type": "uint256"
        },
        {
          "indexed": false,
          "internalType": "uint256",
          "name": "feeAmount",
          "type": "uint256"
        },
        {
          "indexed": false,
          "internalType": "uint256",
          "name": "timestamp",
          "type": "uint256"
        }
      ],
      "name": "ProfitLogInReward",
      "type": "event"
    },
    {
      "anonymous": false,
      "inputs": [],
      "name": "ProfitNotClaimed",
      "type": "event"
    },
    {
      "anonymous": false,
      "inputs": [],
      "name": "TooLowBalance",
      "type": "event"
    },
    {
      "payable": true,
      "stateMutability": "payable",
      "type": "fallback"
    },
    {
      "constant": true,
      "inputs": [],
      "name": "__comp",
      "outputs": [
        {
          "internalType": "address",
          "name": "",
          "type": "address"
        }
      ],
      "payable": false,
      "stateMutability": "view",
      "type": "function"
    },
    {
      "constant": true,
      "inputs": [],
      "name": "__comptroller",
      "outputs": [
        {
          "internalType": "address",
          "name": "",
          "type": "address"
        }
      ],
      "payable": false,
      "stateMutability": "view",
      "type": "function"
    },
    {
      "constant": true,
      "inputs": [],
      "name": "__ctoken",
      "outputs": [
        {
          "internalType": "address",
          "name": "",
          "type": "address"
        }
      ],
      "payable": false,
      "stateMutability": "view",
      "type": "function"
    },
    {
      "constant": true,
      "inputs": [],
      "name": "__underlying",
      "outputs": [
        {
          "internalType": "address",
          "name": "",
          "type": "address"
        }
      ],
      "payable": false,
      "stateMutability": "view",
      "type": "function"
    },
    {
      "constant": true,
      "inputs": [],
      "name": "__uniswap",
      "outputs": [
        {
          "internalType": "address",
          "name": "",
          "type": "address"
        }
      ],
      "payable": false,
      "stateMutability": "view",
      "type": "function"
    },
    {
      "constant": true,
      "inputs": [],
      "name": "_weth",
      "outputs": [
        {
          "internalType": "contract IERC20",
          "name": "",
          "type": "address"
        }
      ],
      "payable": false,
      "stateMutability": "view",
      "type": "function"
    },
    {
      "constant": true,
      "inputs": [],
      "name": "allowEmergencyLiquidityShortage",
      "outputs": [
        {
          "internalType": "bool",
          "name": "",
          "type": "bool"
        }
      ],
      "payable": false,
      "stateMutability": "view",
      "type": "function"
    },
    {
      "constant": false,
      "inputs": [],
      "name": "claimComp",
      "outputs": [],
      "payable": false,
      "stateMutability": "nonpayable",
      "type": "function"
    },
    {
      "constant": true,
      "inputs": [],
      "name": "comp",
      "outputs": [
        {
          "internalType": "contract ERC20Detailed",
          "name": "",
          "type": "address"
        }
      ],
      "payable": false,
      "stateMutability": "view",
      "type": "function"
    },
    {
      "constant": true,
      "inputs": [],
      "name": "comptroller",
      "outputs": [
        {
          "internalType": "contract ComptrollerInterface",
          "name": "",
          "type": "address"
        }
      ],
      "payable": false,
      "stateMutability": "view",
      "type": "function"
    },
    {
      "constant": true,
      "inputs": [],
      "name": "controller",
      "outputs": [
        {
          "internalType": "address",
          "name": "",
          "type": "address"
        }
      ],
      "payable": false,
      "stateMutability": "view",
      "type": "function"
    },
    {
      "constant": true,
      "inputs": [],
      "name": "ctoken",
      "outputs": [
        {
          "internalType": "contract CompleteCToken",
          "name": "",
          "type": "address"
        }
      ],
      "payable": false,
      "stateMutability": "view",
      "type": "function"
    },
    {
      "constant": true,
      "inputs": [],
      "name": "depositArbCheck",
      "outputs": [
        {
          "internalType": "bool",
          "name": "",
          "type": "bool"
        }
      ],
      "payable": false,
      "stateMutability": "view",
      "type": "function"
    },
    {
      "constant": false,
      "inputs": [],
      "name": "doHardWork",
      "outputs": [],
      "payable": false,
      "stateMutability": "nonpayable",
      "type": "function"
    },
    {
      "constant": false,
      "inputs": [],
      "name": "emergencyExit",
      "outputs": [],
      "payable": false,
      "stateMutability": "nonpayable",
      "type": "function"
    },
    {
      "constant": true,
      "inputs": [],
      "name": "getLiquidity",
      "outputs": [
        {
          "internalType": "uint256",
          "name": "",
          "type": "uint256"
        }
      ],
      "payable": false,
      "stateMutability": "view",
      "type": "function"
    },
    {
      "constant": true,
      "inputs": [],
      "name": "governance",
      "outputs": [
        {
          "internalType": "address",
          "name": "",
          "type": "address"
        }
      ],
      "payable": false,
      "stateMutability": "view",
      "type": "function"
    },
    {
      "constant": false,
      "inputs": [],
      "name": "investAllUnderlying",
      "outputs": [],
      "payable": false,
      "stateMutability": "nonpayable",
      "type": "function"
    },
    {
      "constant": true,
      "inputs": [],
      "name": "investedUnderlyingBalance",
      "outputs": [
        {
          "internalType": "uint256",
          "name": "",
          "type": "uint256"
        }
      ],
      "payable": false,
      "stateMutability": "view",
      "type": "function"
    },
    {
      "constant": true,
      "inputs": [],
      "name": "liquidationAllowed",
      "outputs": [
        {
          "internalType": "bool",
          "name": "",
          "type": "bool"
        }
      ],
      "payable": false,
      "stateMutability": "view",
      "type": "function"
    },
    {
      "constant": true,
      "inputs": [],
      "name": "liquidityLoanCurrent",
      "outputs": [
        {
          "internalType": "uint256",
          "name": "",
          "type": "uint256"
        }
      ],
      "payable": false,
      "stateMutability": "view",
      "type": "function"
    },
    {
      "constant": true,
      "inputs": [],
      "name": "liquidityLoanTarget",
      "outputs": [
        {
          "internalType": "uint256",
          "name": "",
          "type": "uint256"
        }
      ],
      "payable": false,
      "stateMutability": "view",
      "type": "function"
    },
    {
      "constant": true,
      "inputs": [],
      "name": "liquidityRecipient",
      "outputs": [
        {
          "internalType": "address",
          "name": "",
          "type": "address"
        }
      ],
      "payable": false,
      "stateMutability": "view",
      "type": "function"
    },
    {
      "constant": true,
      "inputs": [],
      "name": "profitSharingDenominator",
      "outputs": [
        {
          "internalType": "uint256",
          "name": "",
          "type": "uint256"
        }
      ],
      "payable": false,
      "stateMutability": "view",
      "type": "function"
    },
    {
      "constant": true,
      "inputs": [],
      "name": "profitSharingNumerator",
      "outputs": [
        {
          "internalType": "uint256",
          "name": "",
          "type": "uint256"
        }
      ],
      "payable": false,
      "stateMutability": "view",
      "type": "function"
    },
    {
      "constant": false,
      "inputs": [],
      "name": "provideLoan",
      "outputs": [],
      "payable": false,
      "stateMutability": "nonpayable",
      "type": "function"
    },
    {
      "constant": true,
      "inputs": [],
      "name": "rewardToken",
      "outputs": [
        {
          "internalType": "address",
          "name": "",
          "type": "address"
        }
      ],
      "payable": false,
      "stateMutability": "view",
      "type": "function"
    },
    {
      "constant": false,
      "inputs": [
        {
          "internalType": "address",
          "name": "recipient",
          "type": "address"
        },
        {
          "internalType": "address",
          "name": "token",
          "type": "address"
        },
        {
          "internalType": "uint256",
          "name": "amount",
          "type": "uint256"
        }
      ],
      "name": "salvage",
      "outputs": [],
      "payable": false,
      "stateMutability": "nonpayable",
      "type": "function"
    },
    {
      "constant": true,
      "inputs": [],
      "name": "sellFloor",
      "outputs": [
        {
          "internalType": "uint256",
          "name": "",
          "type": "uint256"
        }
      ],
      "payable": false,
      "stateMutability": "view",
      "type": "function"
    },
    {
      "constant": false,
      "inputs": [
        {
          "internalType": "bool",
          "name": "allowed",
          "type": "bool"
        }
      ],
      "name": "setAllowLiquidityShortage",
      "outputs": [],
      "payable": false,
      "stateMutability": "nonpayable",
      "type": "function"
    },
    {
      "constant": false,
      "inputs": [
        {
          "internalType": "bool",
          "name": "allowed",
          "type": "bool"
        }
      ],
      "name": "setLiquidationAllowed",
      "outputs": [],
      "payable": false,
      "stateMutability": "nonpayable",
      "type": "function"
    },
    {
      "constant": false,
      "inputs": [
        {
          "internalType": "uint256",
          "name": "target",
          "type": "uint256"
        }
      ],
      "name": "setLiquidityLoanTarget",
      "outputs": [],
      "payable": false,
      "stateMutability": "nonpayable",
      "type": "function"
    },
    {
      "constant": false,
      "inputs": [
        {
          "internalType": "address",
          "name": "recipient",
          "type": "address"
        }
      ],
      "name": "setLiquidityRecipient",
      "outputs": [],
      "payable": false,
      "stateMutability": "nonpayable",
      "type": "function"
    },
    {
      "constant": false,
      "inputs": [
        {
          "internalType": "uint256",
          "name": "value",
          "type": "uint256"
        }
      ],
      "name": "setSellFloor",
      "outputs": [],
      "payable": false,
      "stateMutability": "nonpayable",
      "type": "function"
    },
    {
      "constant": false,
      "inputs": [
        {
          "internalType": "address",
          "name": "_store",
          "type": "address"
        }
      ],
      "name": "setStorage",
      "outputs": [],
      "payable": false,
      "stateMutability": "nonpayable",
      "type": "function"
    },
    {
      "constant": false,
      "inputs": [
        {
          "internalType": "uint256",
          "name": "amount",
          "type": "uint256"
        }
      ],
      "name": "settleLoan",
      "outputs": [],
      "payable": false,
      "stateMutability": "nonpayable",
      "type": "function"
    },
    {
      "constant": true,
      "inputs": [],
      "name": "store",
      "outputs": [
        {
          "internalType": "contract Storage",
          "name": "",
          "type": "address"
        }
      ],
      "payable": false,
      "stateMutability": "view",
      "type": "function"
    },
    {
      "constant": true,
      "inputs": [],
      "name": "suppliedInWETH",
      "outputs": [
        {
          "internalType": "uint256",
          "name": "",
          "type": "uint256"
        }
      ],
      "payable": false,
      "stateMutability": "view",
      "type": "function"
    },
    {
      "constant": true,
      "inputs": [],
      "name": "tenWeth",
      "outputs": [
        {
          "internalType": "uint256",
          "name": "",
          "type": "uint256"
        }
      ],
      "payable": false,
      "stateMutability": "view",
      "type": "function"
    },
    {
      "constant": true,
      "inputs": [],
      "name": "underlying",
      "outputs": [
        {
          "internalType": "contract ERC20Detailed",
          "name": "",
          "type": "address"
        }
      ],
      "payable": false,
      "stateMutability": "view",
      "type": "function"
    },
    {
      "constant": true,
      "inputs": [],
      "name": "uniswapRouterV2",
      "outputs": [
        {
          "internalType": "address",
          "name": "",
          "type": "address"
        }
      ],
      "payable": false,
      "stateMutability": "view",
      "type": "function"
    },
    {
      "constant": true,
      "inputs": [
        {
          "internalType": "address",
          "name": "",
          "type": "address"
        }
      ],
      "name": "unsalvagableTokens",
      "outputs": [
        {
          "internalType": "bool",
          "name": "",
          "type": "bool"
        }
      ],
      "payable": false,
      "stateMutability": "view",
      "type": "function"
    },
    {
      "constant": true,
      "inputs": [],
      "name": "vault",
      "outputs": [
        {
          "internalType": "address",
          "name": "",
          "type": "address"
        }
      ],
      "payable": false,
      "stateMutability": "view",
      "type": "function"
    },
    {
      "constant": false,
      "inputs": [],
      "name": "withdrawAll",
      "outputs": [],
      "payable": false,
      "stateMutability": "nonpayable",
      "type": "function"
    },
    {
      "constant": false,
      "inputs": [],
      "name": "withdrawAllToVault",
      "outputs": [],
      "payable": false,
      "stateMutability": "nonpayable",
      "type": "function"
    },
    {
      "constant": false,
      "inputs": [
        {
          "internalType": "uint256",
          "name": "amountUnderlying",
          "type": "uint256"
        }
      ],
      "name": "withdrawToVault",
      "outputs": [],
      "payable": false,
      "stateMutability": "nonpayable",
      "type": "function"
    }
  ],
  "bytecode": "0x6080604052600580546001600160a01b03191673c02aaa39b223fe8d0a0e5c4f27ead9083c756cc21790556012805460ff1990811660011790915560006013556014805490911690553480156200005557600080fd5b50604051620034ae380380620034ae833981810160405260408110156200007b57600080fd5b5080516020909101518173c02aaa39b223fe8d0a0e5c4f27ead9083c756cc273d06527d5e56a3495252a528c4987003b712860ee83733d5bc3c8d13dcb8bf317092d84783c2697ae9258732ba592f78db6436527729929aaf6c908497cb200737a250d5630b4cf539739df2c5dacb4c659f2488d858584898581806001600160a01b03811662000152576040805162461bcd60e51b815260206004820152601e60248201527f6e65772073746f726167652073686f756c646e277420626520656d7074790000604482015290519081900360640190fd5b600080546001600160a01b039283166001600160a01b03199182161790915560038054601e60019081556064600255600160a01b60ff60a01b1997861692851692909217969096161790556007805482168784161790556004805482168984161790556006805490911691871691909117905550604080518281528082019091526060925090602080830190803883390190505090508281600081518110620001f757fe5b6001600160a01b03928316602091820292909201810191909152600754604051631853304760e31b815260048101838152855160248301528551929094169363c299823893869391928392604490910191858101910280838360005b838110156200026d57818101518382015260200162000253565b5050505090500192505050600060405180830381600087803b1580156200029357600080fd5b505af1158015620002a8573d6000803e3d6000fd5b505050506040513d6000823e601f3d908101601f191682016040526020811015620002d257600080fd5b8101908080516040519392919084640100000000821115620002f357600080fd5b9083019060208201858111156200030957600080fd5b82518660208202830111640100000000821117156200032757600080fd5b82525081516020918201928201910280838360005b83811015620003565781810151838201526020016200033c565b505050509190910160405250506005546001600160a01b038e81169116149650620003ba955050505050505760405162461bcd60e51b815260040180806020018281038252602e81526020018062003480602e913960400191505060405180910390fd5b600a80546001600160a01b03199081166001600160a01b0395861617909155600c80548216938516938417905560088054821697851697881790556009805482169685169687179055600b8054821695851695909517909455600d8054909416921691909117909155600092835260156020526040808420805460ff19908116600190811790925593855281852080548516821790559184528320805490921617905561300f9350839250620004719150396000f3fe60806040526004361061027d5760003560e01c80636f307dc31161014f578063b60f151a116100c1578063ce8c42e81161007a578063ce8c42e8146106fe578063d9cef72514610728578063f48d0c4a1461073d578063f77c479114610752578063f7c618c114610767578063fbfa77cf1461077c5761027d565b8063b60f151a1461066b578063ba09591e14610680578063bbfb2007146106aa578063bfd131f1146106bf578063c2a2a07b146106d4578063ccf3eb9f146106e95761027d565b80639137c1a7116101135780639137c1a7146105cf57806392501f29146106025780639642a65f14610617578063975057e71461062c578063a176459514610641578063a1dab23e146106565761027d565b80636f307dc31461055157806377be00f3146105665780637f09d3f31461057b578063824c4f4e146105a5578063853828b6146105ba5761027d565b806345d01e4a116101f35780635641ec03116101ac5780635641ec03146104bc578063596fa9e3146104d15780635976317f146104e65780635aa6e675146105125780635dbeffe5146105275780635fe3b5671461053c5761027d565b806345d01e4a146104205780634990f6dc146104355780634a8cfa691461044a5780634fa5d8541461045f578063501859461461047457806355b9b4a8146104a75761027d565b80631bd85bdb116102455780631bd85bdb14610358578063215677c21461036d57806327e4d20214610382578063373aff7f146103ac5780633b308579146103df5780633fd8cd98146103f45761027d565b8063026a0dd01461027f5780630910a510146102a657806309e5f66c146102bb578063109d0af8146102e45780631113ef5214610315575b005b34801561028b57600080fd5b50610294610791565b60408051918252519081900360200190f35b3480156102b257600080fd5b50610294610797565b3480156102c757600080fd5b506102d061080d565b604080519115158252519081900360200190f35b3480156102f057600080fd5b506102f9610816565b604080516001600160a01b039092168252519081900360200190f35b34801561032157600080fd5b5061027d6004803603606081101561033857600080fd5b506001600160a01b03813581169160208101359091169060400135610825565b34801561036457600080fd5b5061027d610955565b34801561037957600080fd5b506102946109bb565b34801561038e57600080fd5b5061027d600480360360208110156103a557600080fd5b50356109c7565b3480156103b857600080fd5b5061027d600480360360208110156103cf57600080fd5b50356001600160a01b0316610a85565b3480156103eb57600080fd5b50610294610bb3565b34801561040057600080fd5b5061027d6004803603602081101561041757600080fd5b50351515610bb9565b34801561042c57600080fd5b50610294610c5b565b34801561044157600080fd5b506102f9610d08565b34801561045657600080fd5b5061027d610d20565b34801561046b57600080fd5b5061027d610eb0565b34801561048057600080fd5b506102d06004803603602081101561049757600080fd5b50356001600160a01b0316610f93565b3480156104b357600080fd5b50610294610fa8565b3480156104c857600080fd5b5061027d610fae565b3480156104dd57600080fd5b506102f96110bc565b3480156104f257600080fd5b5061027d6004803603602081101561050957600080fd5b503515156110cb565b34801561051e57600080fd5b506102f961116d565b34801561053357600080fd5b506102f96111bc565b34801561054857600080fd5b506102f96111d4565b34801561055d57600080fd5b506102f96111e3565b34801561057257600080fd5b506102f96111f2565b34801561058757600080fd5b5061027d6004803603602081101561059e57600080fd5b503561120a565b3480156105b157600080fd5b506102946113f6565b3480156105c657600080fd5b5061027d6113fc565b3480156105db57600080fd5b5061027d600480360360208110156105f257600080fd5b50356001600160a01b03166114bd565b34801561060e57600080fd5b506102f96115f3565b34801561062357600080fd5b506102f961160b565b34801561063857600080fd5b506102f961161a565b34801561064d57600080fd5b506102f9611629565b34801561066257600080fd5b50610294611638565b34801561067757600080fd5b5061029461163e565b34801561068c57600080fd5b5061027d600480360360208110156106a357600080fd5b5035611644565b3480156106b657600080fd5b5061027d6116d8565b3480156106cb57600080fd5b5061027d611994565b3480156106e057600080fd5b506102d0611ac3565b3480156106f557600080fd5b506102f9611ac8565b34801561070a57600080fd5b5061027d6004803603602081101561072157600080fd5b5035611ad7565b34801561073457600080fd5b506102f9611d9d565b34801561074957600080fd5b506102d0611db5565b34801561075e57600080fd5b506102f9611dbe565b34801561077357600080fd5b506102f9611e0d565b34801561078857600080fd5b506102f9611e1c565b60025481565b60065460408051631d8e90d160e11b815290516000926001600160a01b031691633b1d21a2916004808301926020929190829003018186803b1580156107dc57600080fd5b505afa1580156107f0573d6000803e3d6000fd5b505050506040513d602081101561080657600080fd5b5051905090565b60125460ff1681565b600c546001600160a01b031681565b600054604080516337b87c3960e21b815233600482015290516001600160a01b039092169163dee1f0e491602480820192602092909190829003018186803b15801561087057600080fd5b505afa158015610884573d6000803e3d6000fd5b505050506040513d602081101561089a57600080fd5b50516108de576040805162461bcd60e51b815260206004820152600e60248201526d4e6f7420676f7665726e616e636560901b604482015290519081900360640190fd5b6001600160a01b03821660009081526015602052604090205460ff16156109365760405162461bcd60e51b8152600401808060200182810382526022815260200180612e896022913960400191505060405180910390fd5b6109506001600160a01b038316848363ffffffff611e2b16565b505050565b600754604080516374d7814960e11b815230600482015290516001600160a01b039092169163e9af02929160248082019260009290919082900301818387803b1580156109a157600080fd5b505af11580156109b5573d6000803e3d6000fd5b50505050565b678ac7230489e8000081565b600054604080516337b87c3960e21b815233600482015290516001600160a01b039092169163dee1f0e491602480820192602092909190829003018186803b158015610a1257600080fd5b505afa158015610a26573d6000803e3d6000fd5b505050506040513d6020811015610a3c57600080fd5b5051610a80576040805162461bcd60e51b815260206004820152600e60248201526d4e6f7420676f7665726e616e636560901b604482015290519081900360640190fd5b601155565b600054604080516337b87c3960e21b815233600482015290516001600160a01b039092169163dee1f0e491602480820192602092909190829003018186803b158015610ad057600080fd5b505afa158015610ae4573d6000803e3d6000fd5b505050506040513d6020811015610afa57600080fd5b5051610b3e576040805162461bcd60e51b815260206004820152600e60248201526d4e6f7420676f7665726e616e636560901b604482015290519081900360640190fd5b600f546001600160a01b03161580610b565750601054155b610b915760405162461bcd60e51b8152600401808060200182810382526033815260200180612ed76033913960400191505060405180910390fd5b600f80546001600160a01b0319166001600160a01b0392909216919091179055565b60105481565b600b546001600160a01b0316331480610bea5750610bd5611dbe565b6001600160a01b0316336001600160a01b0316145b80610c0d5750610bf861116d565b6001600160a01b0316336001600160a01b0316145b610c485760405162461bcd60e51b815260040180806020018281038252602c815260200180612eab602c913960400191505060405180910390fd5b6014805460ff1916911515919091179055565b600e54600854604080516370a0823160e01b815230600482015290516000938493610ceb9391926001600160a01b03909116916370a08231916024808301926020929190829003018186803b158015610cb357600080fd5b505afa158015610cc7573d6000803e3d6000fd5b505050506040513d6020811015610cdd57600080fd5b50519063ffffffff611e7d16565b9050610d0260105482611e7d90919063ffffffff16565b91505090565b73c02aaa39b223fe8d0a0e5c4f27ead9083c756cc281565b600b546001600160a01b0316331480610d515750610d3c611dbe565b6001600160a01b0316336001600160a01b0316145b80610d745750610d5f61116d565b6001600160a01b0316336001600160a01b0316145b610daf5760405162461bcd60e51b815260040180806020018281038252602c815260200180612eab602c913960400191505060405180910390fd5b600854604080516370a0823160e01b815230600482015290516000926001600160a01b0316916370a08231916024808301926020929190829003018186803b158015610dfa57600080fd5b505afa158015610e0e573d6000803e3d6000fd5b505050506040513d6020811015610e2457600080fd5b50519050610e3181611ee0565b5060095460408051633af9e66960e01b815230600482015290516001600160a01b0390921691633af9e669916024808201926020929091908290030181600087803b158015610e7f57600080fd5b505af1158015610e93573d6000803e3d6000fd5b505050506040513d6020811015610ea957600080fd5b5051600e55565b600b546001600160a01b0316331480610ee15750610ecc611dbe565b6001600160a01b0316336001600160a01b0316145b80610f045750610eef61116d565b6001600160a01b0316336001600160a01b0316145b610f3f5760405162461bcd60e51b815260040180806020018281038252602c815260200180612eab602c913960400191505060405180910390fd5b60125460ff1615610f5f57610f52610955565b610f5a6120ba565b610f89565b6040517f6e180aeefd7fd43a105253e3c10a794670b4c6ef64e8a4d8879de77cfb09d61290600090a15b610f91610d20565b565b60156020526000908152604090205460ff1681565b60115481565b600054604080516337b87c3960e21b815233600482015290516001600160a01b039092169163dee1f0e491602480820192602092909190829003018186803b158015610ff957600080fd5b505afa15801561100d573d6000803e3d6000fd5b505050506040513d602081101561102357600080fd5b5051611067576040805162461bcd60e51b815260206004820152600e60248201526d4e6f7420676f7665726e616e636560901b604482015290519081900360640190fd5b61106f612497565b60095460408051633af9e66960e01b815230600482015290516001600160a01b0390921691633af9e669916024808201926020929091908290030181600087803b158015610e7f57600080fd5b600d546001600160a01b031681565b600b546001600160a01b03163314806110fc57506110e7611dbe565b6001600160a01b0316336001600160a01b0316145b8061111f575061110a61116d565b6001600160a01b0316336001600160a01b0316145b61115a5760405162461bcd60e51b815260040180806020018281038252602c815260200180612eab602c913960400191505060405180910390fd5b6012805460ff1916911515919091179055565b60008060009054906101000a90046001600160a01b03166001600160a01b0316635aa6e6756040518163ffffffff1660e01b815260040160206040518083038186803b1580156107dc57600080fd5b732ba592f78db6436527729929aaf6c908497cb20081565b600a546001600160a01b031681565b6008546001600160a01b031681565b737a250d5630b4cf539739df2c5dacb4c659f2488d81565b60105461122590678ac7230489e8000063ffffffff611e7d16565b61122d610c5b565b111580611252575061123d61116d565b6001600160a01b0316336001600160a01b0316145b61128d5760405162461bcd60e51b815260040180806020018281038252602e815260200180612f0a602e913960400191505060405180910390fd5b3233146112d6576040805162461bcd60e51b81526020600482015260126024820152716e6f20736d61727420636f6e74726163747360701b604482015290519081900360640190fd5b6010546112e2576113f3565b600f60009054906101000a90046001600160a01b03166001600160a01b0316636527ba5c6040518163ffffffff1660e01b8152600401600060405180830381600087803b15801561133257600080fd5b505af1158015611346573d6000803e3d6000fd5b5050600f5460085461136e93506001600160a01b03908116925016308463ffffffff6124e916565b601054611381908263ffffffff61254316565b60108190556113f357600f60009054906101000a90046001600160a01b03166001600160a01b031663cfc9b68c6040518163ffffffff1660e01b8152600401600060405180830381600087803b1580156113da57600080fd5b505af11580156113ee573d6000803e3d6000fd5b505050505b50565b600e5481565b600054604080516337b87c3960e21b815233600482015290516001600160a01b039092169163dee1f0e491602480820192602092909190829003018186803b15801561144757600080fd5b505afa15801561145b573d6000803e3d6000fd5b505050506040513d602081101561147157600080fd5b50516114b5576040805162461bcd60e51b815260206004820152600e60248201526d4e6f7420676f7665726e616e636560901b604482015290519081900360640190fd5b610f91612585565b600054604080516337b87c3960e21b815233600482015290516001600160a01b039092169163dee1f0e491602480820192602092909190829003018186803b15801561150857600080fd5b505afa15801561151c573d6000803e3d6000fd5b505050506040513d602081101561153257600080fd5b5051611576576040805162461bcd60e51b815260206004820152600e60248201526d4e6f7420676f7665726e616e636560901b604482015290519081900360640190fd5b6001600160a01b0381166115d1576040805162461bcd60e51b815260206004820152601e60248201527f6e65772073746f726167652073686f756c646e277420626520656d7074790000604482015290519081900360640190fd5b600080546001600160a01b0319166001600160a01b0392909216919091179055565b733d5bc3c8d13dcb8bf317092d84783c2697ae925881565b600f546001600160a01b031681565b6000546001600160a01b031681565b6005546001600160a01b031681565b60135481565b60015481565b600b546001600160a01b03163314806116755750611660611dbe565b6001600160a01b0316336001600160a01b0316145b80611698575061168361116d565b6001600160a01b0316336001600160a01b0316145b6116d35760405162461bcd60e51b815260040180806020018281038252602c815260200180612eab602c913960400191505060405180910390fd5b601355565b600054604080516337b87c3960e21b815233600482015290516001600160a01b039092169163dee1f0e491602480820192602092909190829003018186803b15801561172357600080fd5b505afa158015611737573d6000803e3d6000fd5b505050506040513d602081101561174d57600080fd5b5051611791576040805162461bcd60e51b815260206004820152600e60248201526d4e6f7420676f7665726e616e636560901b604482015290519081900360640190fd5b6011546010541080156118185750600854604080516370a0823160e01b815230600482015290516000926001600160a01b0316916370a08231916024808301926020929190829003018186803b1580156117ea57600080fd5b505afa1580156117fe573d6000803e3d6000fd5b505050506040513d602081101561181457600080fd5b5051115b801561182e5750600f546001600160a01b031615155b15610f915760006118cb61184f60105460115461254390919063ffffffff16565b600854604080516370a0823160e01b815230600482015290516001600160a01b03909216916370a0823191602480820192602092909190829003018186803b15801561189a57600080fd5b505afa1580156118ae573d6000803e3d6000fd5b505050506040513d60208110156118c457600080fd5b505161259d565b600f546008549192506118f2916001600160a01b039081169116600063ffffffff6125b316565b600f54600854611915916001600160a01b0391821691168363ffffffff6125b316565b600f54604080516346401fe160e11b81526004810184905290516001600160a01b0390921691638c803fc29160248082019260009290919082900301818387803b15801561196257600080fd5b505af1158015611976573d6000803e3d6000fd5b505060105461198e925090508263ffffffff611e7d16565b60105550565b600b546001600160a01b03163314806119c557506119b0611dbe565b6001600160a01b0316336001600160a01b0316145b806119e857506119d361116d565b6001600160a01b0316336001600160a01b0316145b611a235760405162461bcd60e51b815260040180806020018281038252602c815260200180612eab602c913960400191505060405180910390fd5b611a2b612585565b600b54600854604080516370a0823160e01b8152306004820152905161106f936001600160a01b039081169316916370a08231916024808301926020929190829003018186803b158015611a7e57600080fd5b505afa158015611a92573d6000803e3d6000fd5b505050506040513d6020811015611aa857600080fd5b50516008546001600160a01b0316919063ffffffff611e2b16565b600190565b6009546001600160a01b031681565b600b546001600160a01b0316331480611b085750611af3611dbe565b6001600160a01b0316336001600160a01b0316145b80611b2b5750611b1661116d565b6001600160a01b0316336001600160a01b0316145b611b665760405162461bcd60e51b815260040180806020018281038252602c815260200180612eab602c913960400191505060405180910390fd5b600854604080516370a0823160e01b815230600482015290516001600160a01b03909216916370a0823191602480820192602092909190829003018186803b158015611bb157600080fd5b505afa158015611bc5573d6000803e3d6000fd5b505050506040513d6020811015611bdb57600080fd5b50518111611c0b57600b54600854611c06916001600160a01b0391821691168363ffffffff611e2b16565b611d1e565b611c14816126c6565b600854604080516370a0823160e01b8152306004820152905183926001600160a01b0316916370a08231916024808301926020929190829003018186803b158015611c5e57600080fd5b505afa158015611c72573d6000803e3d6000fd5b505050506040513d6020811015611c8857600080fd5b5051108015611c9957506000601054115b15611cf35760105415611cf3576040805162461bcd60e51b815260206004820181905260248201527f546865206c6f616e2068617320746f20626520736574746c6564206669727374604482015290519081900360640190fd5b600b54600854611d16916001600160a01b0391821691168363ffffffff611e2b16565b611d1e610d20565b60095460408051633af9e66960e01b815230600482015290516001600160a01b0390921691633af9e669916024808201926020929091908290030181600087803b158015611d6b57600080fd5b505af1158015611d7f573d6000803e3d6000fd5b505050506040513d6020811015611d9557600080fd5b5051600e5550565b73d06527d5e56a3495252a528c4987003b712860ee81565b60145460ff1681565b60008060009054906101000a90046001600160a01b03166001600160a01b031663f77c47916040518163ffffffff1660e01b815260040160206040518083038186803b1580156107dc57600080fd5b6003546001600160a01b031681565b600b546001600160a01b031681565b604080516001600160a01b038416602482015260448082018490528251808303909101815260649091019091526020810180516001600160e01b031663a9059cbb60e01b17905261095090849061277c565b600082820183811015611ed7576040805162461bcd60e51b815260206004820152601b60248201527f536166654d6174683a206164646974696f6e206f766572666c6f770000000000604482015290519081900360640190fd5b90505b92915050565b600354600160a01b900460ff16611f3e576040805162461bcd60e51b815260206004820152601f60248201527f5265656e7472616e637947756172643a207265656e7472616e742063616c6c00604482015290519081900360640190fd5b6003805460ff60a01b1916905560048054604080516370a0823160e01b81523093810193909352516000926001600160a01b03909216916370a08231916024808301926020929190829003018186803b158015611f9a57600080fd5b505afa158015611fae573d6000803e3d6000fd5b505050506040513d6020811015611fc457600080fd5b5051905080821015611fd35750805b60055460408051632e1a7d4d60e01b81526004810184905290516001600160a01b03909216918291632e1a7d4d91602480830192600092919082900301818387803b15801561202157600080fd5b505af1158015612035573d6000803e3d6000fd5b50505050600660009054906101000a90046001600160a01b03166001600160a01b0316631249c58b836040518263ffffffff1660e01b81526004016000604051808303818588803b15801561208957600080fd5b505af115801561209d573d6000803e3d6000fd5b50506003805460ff60a01b1916600160a01b179055505050505050565b600c54604080516370a0823160e01b815230600482015290516000926001600160a01b0316916370a08231916024808301926020929190829003018186803b15801561210557600080fd5b505afa158015612119573d6000803e3d6000fd5b505050506040513d602081101561212f57600080fd5b505160135490915081101561216d576040517fd26ff69ffdb9c21e34f9b534127733d71db1159e23eb2e5105a07b91fa2768ac90600090a150610f91565b80156113f35761217c81612934565b600c54604080516370a0823160e01b815230600482015290516001600160a01b03909216916370a0823191602480820192602092909190829003018186803b1580156121c757600080fd5b505afa1580156121db573d6000803e3d6000fd5b505050506040513d60208110156121f157600080fd5b5051600d54600c5491925060019161221d916001600160a01b039182169116600063ffffffff6125b316565b600d54600c54612240916001600160a01b0391821691168463ffffffff6125b316565b60408051600280825260608083018452926020830190803883395050600c5482519293506001600160a01b03169183915060009061227a57fe5b6001600160a01b03928316602091820292909201810191909152600d54604080516315ab88c960e31b81529051919093169263ad5c4648926004808301939192829003018186803b1580156122ce57600080fd5b505afa1580156122e2573d6000803e3d6000fd5b505050506040513d60208110156122f857600080fd5b505181518290600190811061230957fe5b6001600160a01b03928316602091820292909201810191909152600d546040516338ed173960e01b815260048101878152602482018790523060648301819052426084840181905260a060448501908152885160a4860152885195909716966338ed1739968b968b968b96939260c490910191878201910280838360005b8381101561239f578181015183820152602001612387565b505050509050019650505050505050600060405180830381600087803b1580156123c857600080fd5b505af11580156123dc573d6000803e3d6000fd5b505050506040513d6000823e601f3d908101601f19168201604052602081101561240557600080fd5b810190808051604051939291908464010000000082111561242557600080fd5b90830190602082018581111561243a57600080fd5b825186602082028301116401000000008211171561245757600080fd5b82525081516020918201928201910280838360005b8381101561248457818101518382015260200161246c565b5050505090500160405250505050505050565b60125460ff16156124b7576124aa610955565b6124b26120ba565b6124e1565b6040517f6e180aeefd7fd43a105253e3c10a794670b4c6ef64e8a4d8879de77cfb09d61290600090a15b61106f612aad565b604080516001600160a01b0385811660248301528416604482015260648082018490528251808303909101815260849091019091526020810180516001600160e01b03166323b872dd60e01b1790526109b590859061277c565b6000611ed783836040518060400160405280601e81526020017f536166654d6174683a207375627472616374696f6e206f766572666c6f770000815250612ab5565b61258d610955565b6125956120ba565b610f91612aad565b60008183106125ac5781611ed7565b5090919050565b801580612639575060408051636eb1769f60e11b81523060048201526001600160a01b03848116602483015291519185169163dd62ed3e91604480820192602092909190829003018186803b15801561260b57600080fd5b505afa15801561261f573d6000803e3d6000fd5b505050506040513d602081101561263557600080fd5b5051155b6126745760405162461bcd60e51b8152600401808060200182810382526036815260200180612fa56036913960400191505060405180910390fd5b604080516001600160a01b038416602482015260448082018490528251808303909101815260649091019091526020810180516001600160e01b031663095ea7b360e01b17905261095090849061277c565b60095460408051631d8e90d160e11b8152905183926001600160a01b031691633b1d21a2916004808301926020929190829003018186803b15801561270a57600080fd5b505afa15801561271e573d6000803e3d6000fd5b505050506040513d602081101561273457600080fd5b505110156127735760405162461bcd60e51b8152600401808060200182810382526022815260200180612f836022913960400191505060405180910390fd5b6113f381612b4c565b61278e826001600160a01b0316612bc2565b6127df576040805162461bcd60e51b815260206004820152601f60248201527f5361666545524332303a2063616c6c20746f206e6f6e2d636f6e747261637400604482015290519081900360640190fd5b60006060836001600160a01b0316836040518082805190602001908083835b6020831061281d5780518252601f1990920191602091820191016127fe565b6001836020036101000a0380198251168184511680821785525050505050509050019150506000604051808303816000865af19150503d806000811461287f576040519150601f19603f3d011682016040523d82523d6000602084013e612884565b606091505b5091509150816128db576040805162461bcd60e51b815260206004820181905260248201527f5361666545524332303a206c6f772d6c6576656c2063616c6c206661696c6564604482015290519081900360640190fd5b8051156109b5578080602001905160208110156128f757600080fd5b50516109b55760405162461bcd60e51b815260040180806020018281038252602a815260200180612f59602a913960400191505060405180910390fd5b8015612a6b57600061296360025461295760015485612bfe90919063ffffffff16565b9063ffffffff612c5716565b6040805184815260208101839052428183015290519192507f33fd2845a0f10293482de360244dd4ad31ddbb4b8c4a1ded3875cf8ebfba184b919081900360600190a16129cb6129b1611dbe565b6003546001600160a01b031690600063ffffffff6125b316565b6129ef6129d6611dbe565b6003546001600160a01b0316908363ffffffff6125b316565b6129f7611dbe565b60035460408051631ee0d7e560e31b81526001600160a01b039283166004820152602481018590529051929091169163f706bf289160448082019260009290919082900301818387803b158015612a4d57600080fd5b505af1158015612a61573d6000803e3d6000fd5b50505050506113f3565b6040805160008082526020820152428183015290517f33fd2845a0f10293482de360244dd4ad31ddbb4b8c4a1ded3875cf8ebfba184b9181900360600190a150565b610f91612c99565b60008184841115612b445760405162461bcd60e51b81526004018080602001828103825283818151815260200191508051906020019080838360005b83811015612b09578181015183820152602001612af1565b50505050905090810190601f168015612b365780820380516001836020036101000a031916815260200191505b509250505060405180910390fd5b505050900390565b80156113f357612b5b81612da5565b60055460408051630d0e30db60e41b815290516001600160a01b0390921691829163d0e30db091479160048082019260009290919082900301818588803b158015612ba557600080fd5b505af1158015612bb9573d6000803e3d6000fd5b50505050505050565b6000813f7fc5d2460186f7233c927e7db2dcc703c0e500b653ca82273b7bfad8045d85a470818114801590612bf657508115155b949350505050565b600082612c0d57506000611eda565b82820282848281612c1a57fe5b0414611ed75760405162461bcd60e51b8152600401808060200182810382526021815260200180612f386021913960400191505060405180910390fd5b6000611ed783836040518060400160405280601a81526020017f536166654d6174683a206469766973696f6e206279207a65726f000000000000815250612e23565b60065460408051631d8e90d160e11b815290516000926001600160a01b031691633b1d21a2916004808301926020929190829003018186803b158015612cde57600080fd5b505afa158015612cf2573d6000803e3d6000fd5b505050506040513d6020811015612d0857600080fd5b505160065460408051633af9e66960e01b815230600482015290519293506000926001600160a01b0390921691633af9e6699160248082019260209290919082900301818787803b158015612d5c57600080fd5b505af1158015612d70573d6000803e3d6000fd5b505050506040513d6020811015612d8657600080fd5b50519050612da1818310612d9a5781612d9c565b825b612b4c565b5050565b80156113f3576006546040805163852a12e360e01b81526004810184905290516001600160a01b039092169163852a12e3916024808201926020929091908290030181600087803b158015612df957600080fd5b505af1158015612e0d573d6000803e3d6000fd5b505050506040513d602081101561095057600080fd5b60008183612e725760405162461bcd60e51b8152602060048201818152835160248401528351909283926044909101919085019080838360008315612b09578181015183820152602001612af1565b506000838581612e7e57fe5b049594505050505056fe746f6b656e20697320646566696e6564206173206e6f742073616c76616761626c655468652073656e6465722068617320746f2062652074686520636f6e74726f6c6c6572206f72207661756c744c697175696469747920726563697069656e742077617320616c7265616479207365742c20616e64206861732061206c6f616e4275666665722065786973747320616e64207468652063616c6c6572206973206e6f7420676f7665726e616e6365536166654d6174683a206d756c7469706c69636174696f6e206f766572666c6f775361666545524332303a204552433230206f7065726174696f6e20646964206e6f7420737563636565646d61726b657420636173682063616e6e6f7420636f766572206c69717569646974795361666545524332303a20617070726f76652066726f6d206e6f6e2d7a65726f20746f206e6f6e2d7a65726f20616c6c6f77616e6365a265627a7a72315820ed2b06337a210c48e8e600a4a2d0707622368e47a6fa775b8bdceed6483cc08e64736f6c6343000510003257657468207374726174656779206e6565647320746f2068617665205745544820617320756e6465726c79696e67",
  "source": "pragma solidity 0.5.16;\n\nimport \"./WETHCreamNoFoldStrategy.sol\";\n\ncontract CreamNoFoldStrategyWETHMainnet is WETHCreamNoFoldStrategy {\n\n  // token addresses\n  address constant public __underlying = address(0xC02aaA39b223FE8D0A0e5C4F27eAD9083C756Cc2);\n  address constant public __ctoken = address(0xD06527D5e56A3495252A528C4987003b712860eE);\n  address constant public __comptroller = address(0x3d5BC3c8d13dcB8bF317092d84783c2697AE9258);\n  address constant public __comp = address(0x2ba592F78dB6436527729929AAf6c908497cB200);\n  address constant public __uniswap = address(0x7a250d5630B4cF539739dF2C5dAcb4c659F2488D);\n\n  constructor(\n    address _storage,\n    address _vault\n  )\n  WETHCreamNoFoldStrategy(\n    _storage,\n    __underlying,\n    __ctoken,\n    _vault,\n    __comptroller,\n    __comp,\n    __uniswap\n  )\n  public {\n  }\n\n}\n",
  "sourcePath": "/home/madhav/Vaults/contracts/strategies/compound/CreamNoFoldStrategyWETHMainnet.sol",
  "compiler": {
    "name": "solc",
    "version": "0.5.16+commit.9c3226ce.Emscripten.clang"
  },
  "schemaVersion": "3.2.5",
  "updatedAt": "2020-12-05T16:27:35.047Z",
  "devdoc": {
    "methods": {}
  },
  "userdoc": {
    "methods": {
      "claimComp()": {
        "notice": "Get COMP"
      },
      "doHardWork()": {
        "notice": "Withdraws all assets, liquidates COMP, and invests again in the required ratio."
      },
      "investAllUnderlying()": {
        "notice": "The strategy invests by supplying the underlying as a collateral and taking a loan in the required ratio. The borrowed money is then re-supplied."
      },
      "investedUnderlyingBalance()": {
        "notice": "Returns the current balance. Ignores COMP that was not liquidated and invested."
      },
      "provideLoan()": {
        "notice": "Provides a loan to the liquidity strategy. Sends in funds to fill out the loan target amount, if they are available."
      },
      "salvage(address,address,uint256)": {
        "notice": "Salvages a token."
      },
      "setLiquidationAllowed(bool)": {
        "notice": "Allows liquidation"
      },
      "settleLoan(uint256)": {
        "notice": "Settles a loan amount by forcing withdrawal inside the liquidity strategy, and then transferring the funds back to this strategy. This way, the loan can be settled partially, or completely. The method can be invoked only by EOAs to avoid market manipulation, and only by the governance unless there is not more than 10 WETH left in this strategy."
      },
      "withdrawAllToVault()": {
        "notice": "Exits Compound and transfers everything to the vault."
      }
    }
  }
}