{
  "contractName": "Governable",
  "abi": [
    {
      "inputs": [
        {
          "internalType": "address",
          "name": "_store",
          "type": "address"
        }
      ],
      "payable": false,
      "stateMutability": "nonpayable",
      "type": "constructor"
    },
    {
      "constant": true,
      "inputs": [],
      "name": "store",
      "outputs": [
        {
          "internalType": "contract Storage",
          "name": "",
          "type": "address"
        }
      ],
      "payable": false,
      "stateMutability": "view",
      "type": "function"
    },
    {
      "constant": false,
      "inputs": [
        {
          "internalType": "address",
          "name": "_store",
          "type": "address"
        }
      ],
      "name": "setStorage",
      "outputs": [],
      "payable": false,
      "stateMutability": "nonpayable",
      "type": "function"
    },
    {
      "constant": true,
      "inputs": [],
      "name": "governance",
      "outputs": [
        {
          "internalType": "address",
          "name": "",
          "type": "address"
        }
      ],
      "payable": false,
      "stateMutability": "view",
      "type": "function"
    }
  ],
  "bytecode": "0x608060405234801561001057600080fd5b506040516103543803806103548339818101604052602081101561003357600080fd5b50516001600160a01b038116610090576040805162461bcd60e51b815260206004820152601e60248201527f6e65772073746f726167652073686f756c646e277420626520656d7074790000604482015290519081900360640190fd5b600080546001600160a01b039092166001600160a01b0319909216919091179055610294806100c06000396000f3fe608060405234801561001057600080fd5b50600436106100415760003560e01c80635aa6e675146100465780639137c1a71461006a578063975057e714610092575b600080fd5b61004e61009a565b604080516001600160a01b039092168252519081900360200190f35b6100906004803603602081101561008057600080fd5b50356001600160a01b031661011a565b005b61004e610250565b60008060009054906101000a90046001600160a01b03166001600160a01b0316635aa6e6756040518163ffffffff1660e01b815260040160206040518083038186803b1580156100e957600080fd5b505afa1580156100fd573d6000803e3d6000fd5b505050506040513d602081101561011357600080fd5b5051905090565b600054604080516337b87c3960e21b815233600482015290516001600160a01b039092169163dee1f0e491602480820192602092909190829003018186803b15801561016557600080fd5b505afa158015610179573d6000803e3d6000fd5b505050506040513d602081101561018f57600080fd5b50516101d3576040805162461bcd60e51b815260206004820152600e60248201526d4e6f7420676f7665726e616e636560901b604482015290519081900360640190fd5b6001600160a01b03811661022e576040805162461bcd60e51b815260206004820152601e60248201527f6e65772073746f726167652073686f756c646e277420626520656d7074790000604482015290519081900360640190fd5b600080546001600160a01b0319166001600160a01b0392909216919091179055565b6000546001600160a01b03168156fea265627a7a72315820d54adca4170f465b5d889ae66938878dc9b8c6afaca9cf70aea73b90804024d464736f6c63430005100032",
  "source": "pragma solidity 0.5.16;\n\nimport \"./Storage.sol\";\n\ncontract Governable {\n\n  Storage public store;\n\n  constructor(address _store) public {\n    require(_store != address(0), \"new storage shouldn't be empty\");\n    store = Storage(_store);\n  }\n\n  modifier onlyGovernance() {\n    require(store.isGovernance(msg.sender), \"Not governance\");\n    _;\n  }\n\n  function setStorage(address _store) public onlyGovernance {\n    require(_store != address(0), \"new storage shouldn't be empty\");\n    store = Storage(_store);\n  }\n\n  function governance() public view returns (address) {\n    return store.governance();\n  }\n}\n",
  "sourcePath": "/home/madhav/Vaults/contracts/Governable.sol",
  "compiler": {
    "name": "solc",
    "version": "0.5.16+commit.9c3226ce.Emscripten.clang"
  },
  "schemaVersion": "3.2.5",
  "updatedAt": "2020-12-05T16:27:34.798Z",
  "devdoc": {
    "methods": {}
  },
  "userdoc": {
    "methods": {}
  }
}