{
  "contractName": "GovernableInit",
  "abi": [
    {
      "inputs": [],
      "payable": false,
      "stateMutability": "nonpayable",
      "type": "constructor"
    },
    {
      "constant": false,
      "inputs": [
        {
          "internalType": "address",
          "name": "_store",
          "type": "address"
        }
      ],
      "name": "initialize",
      "outputs": [],
      "payable": false,
      "stateMutability": "nonpayable",
      "type": "function"
    },
    {
      "constant": false,
      "inputs": [
        {
          "internalType": "address",
          "name": "_store",
          "type": "address"
        }
      ],
      "name": "setStorage",
      "outputs": [],
      "payable": false,
      "stateMutability": "nonpayable",
      "type": "function"
    },
    {
      "constant": true,
      "inputs": [],
      "name": "governance",
      "outputs": [
        {
          "internalType": "address",
          "name": "",
          "type": "address"
        }
      ],
      "payable": false,
      "stateMutability": "view",
      "type": "function"
    }
  ],
  "bytecode": "0x608060405234801561001057600080fd5b50604080517f656970313936372e676f7665726e61626c65496e69742e73746f7261676500008152905190819003601e0190207fa7ec62784904ff31cbcc32d09932a58e7f1e4476e1d041995b37c917990b16dc6000199091011461007157fe5b6103bb806100806000396000f3fe608060405234801561001057600080fd5b50600436106100415760003560e01c80635aa6e675146100465780639137c1a71461006a578063c4d66de814610092575b600080fd5b61004e6100b8565b604080516001600160a01b039092168252519081900360200190f35b6100906004803603602081101561008057600080fd5b50356001600160a01b031661012b565b005b610090600480360360208110156100a857600080fd5b50356001600160a01b031661025d565b60006100c2610309565b6001600160a01b0316635aa6e6756040518163ffffffff1660e01b815260040160206040518083038186803b1580156100fa57600080fd5b505afa15801561010e573d6000803e3d6000fd5b505050506040513d602081101561012457600080fd5b5051905090565b610133610309565b6001600160a01b031663dee1f0e4336040518263ffffffff1660e01b815260040180826001600160a01b03166001600160a01b0316815260200191505060206040518083038186803b15801561018857600080fd5b505afa15801561019c573d6000803e3d6000fd5b505050506040513d60208110156101b257600080fd5b50516101f6576040805162461bcd60e51b815260206004820152600e60248201526d4e6f7420676f7665726e616e636560901b604482015290519081900360640190fd5b6001600160a01b038116610251576040805162461bcd60e51b815260206004820152601e60248201527f6e65772073746f726167652073686f756c646e277420626520656d7074790000604482015290519081900360640190fd5b61025a8161032e565b50565b600054610100900460ff16806102765750610276610352565b80610284575060005460ff16155b6102bf5760405162461bcd60e51b815260040180806020018281038252602e815260200180610359602e913960400191505060405180910390fd5b600054610100900460ff161580156102ea576000805460ff1961ff0019909116610100171660011790555b6102f38261032e565b8015610305576000805461ff00191690555b5050565b7fa7ec62784904ff31cbcc32d09932a58e7f1e4476e1d041995b37c917990b16dc5490565b7fa7ec62784904ff31cbcc32d09932a58e7f1e4476e1d041995b37c917990b16dc55565b303b159056fe436f6e747261637420696e7374616e63652068617320616c7265616479206265656e20696e697469616c697a6564a265627a7a723158206cfbdcc233759b48304a31fe023808f7645db277a28f2cc41762090df37ed64164736f6c63430005100032",
  "source": "pragma solidity 0.5.16;\n\nimport \"@openzeppelin/upgrades/contracts/Initializable.sol\";\nimport \"./Storage.sol\";\n\n// A clone of Governable supporting the Initializable interface and pattern\ncontract GovernableInit is Initializable {\n\n  bytes32 internal constant _STORAGE_SLOT = 0xa7ec62784904ff31cbcc32d09932a58e7f1e4476e1d041995b37c917990b16dc;\n\n  modifier onlyGovernance() {\n    require(Storage(_storage()).isGovernance(msg.sender), \"Not governance\");\n    _;\n  }\n\n  constructor() public {\n    assert(_STORAGE_SLOT == bytes32(uint256(keccak256(\"eip1967.governableInit.storage\")) - 1));\n  }\n\n  function initialize(address _store) public initializer {\n    _setStorage(_store);\n  }\n\n  function _setStorage(address newStorage) private {\n    bytes32 slot = _STORAGE_SLOT;\n    // solhint-disable-next-line no-inline-assembly\n    assembly {\n      sstore(slot, newStorage)\n    }\n  }\n\n  function setStorage(address _store) public onlyGovernance {\n    require(_store != address(0), \"new storage shouldn't be empty\");\n    _setStorage(_store);\n  }\n\n  function _storage() internal view returns (address str) {\n    bytes32 slot = _STORAGE_SLOT;\n    // solhint-disable-next-line no-inline-assembly\n    assembly {\n      str := sload(slot)\n    }\n  }\n\n  function governance() public view returns (address) {\n    return Storage(_storage()).governance();\n  }\n}\n",
  "sourcePath": "/home/madhav/Vaults/contracts/GovernableInit.sol",
  "compiler": {
    "name": "solc",
    "version": "0.5.16+commit.9c3226ce.Emscripten.clang"
  },
  "schemaVersion": "3.2.5",
  "updatedAt": "2020-12-05T16:27:34.800Z",
  "devdoc": {
    "methods": {}
  },
  "userdoc": {
    "methods": {}
  }
}