{
  "contractName": "LiquidityRecipient",
  "abi": [
    {
      "inputs": [
        {
          "internalType": "address",
          "name": "_storage",
          "type": "address"
        },
        {
          "internalType": "address",
          "name": "_weth",
          "type": "address"
        },
        {
          "internalType": "address",
          "name": "_farm",
          "type": "address"
        },
        {
          "internalType": "address",
          "name": "_treasury",
          "type": "address"
        },
        {
          "internalType": "address",
          "name": "_uniswap",
          "type": "address"
        },
        {
          "internalType": "address",
          "name": "_uniLp",
          "type": "address"
        },
        {
          "internalType": "address",
          "name": "_wethStrategy",
          "type": "address"
        }
      ],
      "payable": false,
      "stateMutability": "nonpayable",
      "type": "constructor"
    },
    {
      "anonymous": false,
      "inputs": [
        {
          "indexed": false,
          "internalType": "uint256",
          "name": "farmIn",
          "type": "uint256"
        },
        {
          "indexed": false,
          "internalType": "uint256",
          "name": "wethIn",
          "type": "uint256"
        },
        {
          "indexed": false,
          "internalType": "uint256",
          "name": "lpOut",
          "type": "uint256"
        }
      ],
      "name": "LiquidityProvided",
      "type": "event"
    },
    {
      "anonymous": false,
      "inputs": [
        {
          "indexed": false,
          "internalType": "uint256",
          "name": "lpIn",
          "type": "uint256"
        },
        {
          "indexed": false,
          "internalType": "uint256",
          "name": "wethOut",
          "type": "uint256"
        },
        {
          "indexed": false,
          "internalType": "uint256",
          "name": "farmOut",
          "type": "uint256"
        }
      ],
      "name": "LiquidityRemoved",
      "type": "event"
    },
    {
      "constant": true,
      "inputs": [],
      "name": "controller",
      "outputs": [
        {
          "internalType": "address",
          "name": "",
          "type": "address"
        }
      ],
      "payable": false,
      "stateMutability": "view",
      "type": "function"
    },
    {
      "constant": true,
      "inputs": [],
      "name": "farm",
      "outputs": [
        {
          "internalType": "address",
          "name": "",
          "type": "address"
        }
      ],
      "payable": false,
      "stateMutability": "view",
      "type": "function"
    },
    {
      "constant": true,
      "inputs": [],
      "name": "governance",
      "outputs": [
        {
          "internalType": "address",
          "name": "",
          "type": "address"
        }
      ],
      "payable": false,
      "stateMutability": "view",
      "type": "function"
    },
    {
      "constant": false,
      "inputs": [
        {
          "internalType": "address",
          "name": "_store",
          "type": "address"
        }
      ],
      "name": "setStorage",
      "outputs": [],
      "payable": false,
      "stateMutability": "nonpayable",
      "type": "function"
    },
    {
      "constant": true,
      "inputs": [],
      "name": "store",
      "outputs": [
        {
          "internalType": "contract Storage",
          "name": "",
          "type": "address"
        }
      ],
      "payable": false,
      "stateMutability": "view",
      "type": "function"
    },
    {
      "constant": true,
      "inputs": [],
      "name": "treasury",
      "outputs": [
        {
          "internalType": "address",
          "name": "",
          "type": "address"
        }
      ],
      "payable": false,
      "stateMutability": "view",
      "type": "function"
    },
    {
      "constant": true,
      "inputs": [],
      "name": "uniLp",
      "outputs": [
        {
          "internalType": "address",
          "name": "",
          "type": "address"
        }
      ],
      "payable": false,
      "stateMutability": "view",
      "type": "function"
    },
    {
      "constant": true,
      "inputs": [],
      "name": "uniswap",
      "outputs": [
        {
          "internalType": "address",
          "name": "",
          "type": "address"
        }
      ],
      "payable": false,
      "stateMutability": "view",
      "type": "function"
    },
    {
      "constant": true,
      "inputs": [
        {
          "internalType": "address",
          "name": "",
          "type": "address"
        }
      ],
      "name": "unsalvagableTokens",
      "outputs": [
        {
          "internalType": "bool",
          "name": "",
          "type": "bool"
        }
      ],
      "payable": false,
      "stateMutability": "view",
      "type": "function"
    },
    {
      "constant": true,
      "inputs": [],
      "name": "weth",
      "outputs": [
        {
          "internalType": "address",
          "name": "",
          "type": "address"
        }
      ],
      "payable": false,
      "stateMutability": "view",
      "type": "function"
    },
    {
      "constant": true,
      "inputs": [],
      "name": "wethStrategy",
      "outputs": [
        {
          "internalType": "address",
          "name": "",
          "type": "address"
        }
      ],
      "payable": false,
      "stateMutability": "view",
      "type": "function"
    },
    {
      "constant": false,
      "inputs": [],
      "name": "doHardWork",
      "outputs": [],
      "payable": false,
      "stateMutability": "nonpayable",
      "type": "function"
    },
    {
      "constant": false,
      "inputs": [
        {
          "internalType": "uint256",
          "name": "amount",
          "type": "uint256"
        }
      ],
      "name": "takeLoan",
      "outputs": [],
      "payable": false,
      "stateMutability": "nonpayable",
      "type": "function"
    },
    {
      "constant": false,
      "inputs": [],
      "name": "settleLoan",
      "outputs": [],
      "payable": false,
      "stateMutability": "nonpayable",
      "type": "function"
    },
    {
      "constant": false,
      "inputs": [],
      "name": "wethOverdraft",
      "outputs": [],
      "payable": false,
      "stateMutability": "nonpayable",
      "type": "function"
    },
    {
      "constant": false,
      "inputs": [
        {
          "internalType": "address",
          "name": "recipient",
          "type": "address"
        },
        {
          "internalType": "address",
          "name": "token",
          "type": "address"
        },
        {
          "internalType": "uint256",
          "name": "amount",
          "type": "uint256"
        }
      ],
      "name": "salvage",
      "outputs": [],
      "payable": false,
      "stateMutability": "nonpayable",
      "type": "function"
    }
  ],
  "bytecode": "0x608060405234801561001057600080fd5b5060405161151a38038061151a833981810160405260e081101561003357600080fd5b508051602082015160408301516060840151608085015160a086015160c090960151949593949293919290919086806001600160a01b0381166100bd576040805162461bcd60e51b815260206004820152601e60248201527f6e65772073746f726167652073686f756c646e277420626520656d7074790000604482015290519081900360640190fd5b600080546001600160a01b03199081166001600160a01b03938416179091556001805482168a84161790556002805490911688831617905585161515905061014c576040805162461bcd60e51b815260206004820152601d60248201527f74726561737572792063616e6e6f742062652061646472657373283029000000604482015290519081900360640190fd5b600480546001600160a01b038087166001600160a01b03199283161790925560058054868416921691909117905582166101cd576040805162461bcd60e51b815260206004820152601a60248201527f756e694c702063616e6e6f742062652061646472657373283029000000000000604482015290519081900360640190fd5b600680546001600160a01b039384166001600160a01b03199182168117909255968316600090815260076020526040808220805460ff199081166001908117909255938352912080549092161790556003805491909216951694909417909355505050506112da806102406000396000f3fe608060405234801561001057600080fd5b50600436106101005760003560e01c80636527ba5c11610097578063cfc9b68c11610066578063cfc9b68c14610216578063d0aaa0c31461021e578063e587c68f14610226578063f77c47911461022e57610100565b80636527ba5c146101c35780638c803fc2146101cb5780639137c1a7146101e8578063975057e71461020e57610100565b80634fa5d854116100d35780634fa5d8541461017157806350185946146101795780635aa6e675146101b357806361d027b3146101bb57610100565b80631113ef52146101055780632681f7e41461013d57806336e9332d146101615780633fc8cef314610169575b600080fd5b61013b6004803603606081101561011b57600080fd5b506001600160a01b03813581169160208101359091169060400135610236565b005b610145610366565b604080516001600160a01b039092168252519081900360200190f35b610145610375565b610145610384565b61013b610393565b61019f6004803603602081101561018f57600080fd5b50356001600160a01b0316610456565b604080519115158252519081900360200190f35b61014561046b565b6101456104eb565b61013b6104fa565b61013b600480360360208110156101e157600080fd5b5035610600565b61013b600480360360208110156101fe57600080fd5b50356001600160a01b0316610687565b6101456107bd565b61013b6107cc565b61014561093d565b61014561094c565b61014561095b565b600054604080516337b87c3960e21b815233600482015290516001600160a01b039092169163dee1f0e491602480820192602092909190829003018186803b15801561028157600080fd5b505afa158015610295573d6000803e3d6000fd5b505050506040513d60208110156102ab57600080fd5b50516102ef576040805162461bcd60e51b815260206004820152600e60248201526d4e6f7420676f7665726e616e636560901b604482015290519081900360640190fd5b6001600160a01b03821660009081526007602052604090205460ff16156103475760405162461bcd60e51b81526004018080602001828103825260228152602001806111fc6022913960400191505060405180910390fd5b6103616001600160a01b038316848363ffffffff6109aa16565b505050565b6005546001600160a01b031681565b6002546001600160a01b031681565b6001546001600160a01b031681565b600054604080516337b87c3960e21b815233600482015290516001600160a01b039092169163dee1f0e491602480820192602092909190829003018186803b1580156103de57600080fd5b505afa1580156103f2573d6000803e3d6000fd5b505050506040513d602081101561040857600080fd5b505161044c576040805162461bcd60e51b815260206004820152600e60248201526d4e6f7420676f7665726e616e636560901b604482015290519081900360640190fd5b6104546109fc565b565b60076020526000908152604090205460ff1681565b60008060009054906101000a90046001600160a01b03166001600160a01b0316635aa6e6756040518163ffffffff1660e01b815260040160206040518083038186803b1580156104ba57600080fd5b505afa1580156104ce573d6000803e3d6000fd5b505050506040513d60208110156104e457600080fd5b5051905090565b6004546001600160a01b031681565b6003546001600160a01b031633148061052b575061051661046b565b6001600160a01b0316336001600160a01b0316145b6105665760405162461bcd60e51b815260040180806020018281038252602881526020018061121e6028913960400191505060405180910390fd5b61056e610c91565b600354600154610592916001600160a01b039182169116600063ffffffff610e9416565b6003546001546105b7916001600160a01b03918216911660001963ffffffff610e9416565b6004546002546105db916001600160a01b039182169116600063ffffffff610e9416565b600454600254610454916001600160a01b03918216911660001963ffffffff610e9416565b6003546001600160a01b03163314610658576040805162461bcd60e51b81526020600482015260166024820152756f6e6c7920746865207765746820737472617465677960501b604482015290519081900360640190fd5b60035460015461067c916001600160a01b039182169116308463ffffffff610fa716565b6106846109fc565b50565b600054604080516337b87c3960e21b815233600482015290516001600160a01b039092169163dee1f0e491602480820192602092909190829003018186803b1580156106d257600080fd5b505afa1580156106e6573d6000803e3d6000fd5b505050506040513d60208110156106fc57600080fd5b5051610740576040805162461bcd60e51b815260206004820152600e60248201526d4e6f7420676f7665726e616e636560901b604482015290519081900360640190fd5b6001600160a01b03811661079b576040805162461bcd60e51b815260206004820152601e60248201527f6e65772073746f726167652073686f756c646e277420626520656d7074790000604482015290519081900360640190fd5b600080546001600160a01b0319166001600160a01b0392909216919091179055565b6000546001600160a01b031681565b6003546001600160a01b03163314610824576040805162461bcd60e51b81526020600482015260166024820152756f6e6c7920746865207765746820737472617465677960501b604482015290519081900360640190fd5b600154604080516370a0823160e01b815230600482015290516000926001600160a01b0316916370a08231916024808301926020929190829003018186803b15801561086f57600080fd5b505afa158015610883573d6000803e3d6000fd5b505050506040513d602081101561089957600080fd5b505111156104545760048054600154604080516370a0823160e01b8152309481019490945251610454936001600160a01b0393841693909216916370a08231916024808301926020929190829003018186803b1580156108f857600080fd5b505afa15801561090c573d6000803e3d6000fd5b505050506040513d602081101561092257600080fd5b50516001546001600160a01b0316919063ffffffff6109aa16565b6006546001600160a01b031681565b6003546001600160a01b031681565b60008060009054906101000a90046001600160a01b03166001600160a01b031663f77c47916040518163ffffffff1660e01b815260040160206040518083038186803b1580156104ba57600080fd5b604080516001600160a01b038416602482015260448082018490528251808303909101815260649091019091526020810180516001600160e01b031663a9059cbb60e01b179052610361908490611007565b600254604080516370a0823160e01b815230600482015290516000926001600160a01b0316916370a08231916024808301926020929190829003018186803b158015610a4757600080fd5b505afa158015610a5b573d6000803e3d6000fd5b505050506040513d6020811015610a7157600080fd5b5051600154604080516370a0823160e01b815230600482015290519293506000926001600160a01b03909216916370a0823191602480820192602092909190829003018186803b158015610ac457600080fd5b505afa158015610ad8573d6000803e3d6000fd5b505050506040513d6020811015610aee57600080fd5b5051600554600254919250610b17916001600160a01b039081169116600063ffffffff610e9416565b600554600254610b3a916001600160a01b0391821691168463ffffffff610e9416565b600554600154610b5e916001600160a01b039182169116600063ffffffff610e9416565b600554600154610b81916001600160a01b0391821691168363ffffffff610e9416565b6005546002546001546040805162e8e33760e81b81526001600160a01b0393841660048201529183166024830152604482018690526064820185905260006084830181905260a483018190523060c48401524260e4840152905190938493849391169163e8e33700916101048082019260609290919082900301818787803b158015610c0c57600080fd5b505af1158015610c20573d6000803e3d6000fd5b505050506040513d6060811015610c3657600080fd5b5080516020808301516040938401518451848152928301829052828501819052935192965094509192507faa58f006cc244b2af6662862508bd39465f57169ff8386d1d1f7b0b903150abc9181900360600190a15050505050565b600654604080516370a0823160e01b815230600482015290516000926001600160a01b0316916370a08231916024808301926020929190829003018186803b158015610cdc57600080fd5b505afa158015610cf0573d6000803e3d6000fd5b505050506040513d6020811015610d0657600080fd5b505190508015610e5157600554600654610d34916001600160a01b039182169116600063ffffffff610e9416565b600554600654610d57916001600160a01b0391821691168363ffffffff610e9416565b60055460025460015460408051635d5155ef60e11b81526001600160a01b039384166004820152918316602483015260448201859052600060648301819052608483018190523060a48401524260c4840152815190948594169263baa2abde9260e480830193919282900301818787803b158015610dd457600080fd5b505af1158015610de8573d6000803e3d6000fd5b505050506040513d6040811015610dfe57600080fd5b508051602091820151604080518781529384018290528381018390525191945092507f0bb89aa54ed6940a7e7167bd262b2400d63945045ceff1a52a05f2601ed215f19181900360600190a15050610684565b604080516000808252602082018190528183015290517f0bb89aa54ed6940a7e7167bd262b2400d63945045ceff1a52a05f2601ed215f19181900360600190a150565b801580610f1a575060408051636eb1769f60e11b81523060048201526001600160a01b03848116602483015291519185169163dd62ed3e91604480820192602092909190829003018186803b158015610eec57600080fd5b505afa158015610f00573d6000803e3d6000fd5b505050506040513d6020811015610f1657600080fd5b5051155b610f555760405162461bcd60e51b81526004018080602001828103825260368152602001806112706036913960400191505060405180910390fd5b604080516001600160a01b038416602482015260448082018490528251808303909101815260649091019091526020810180516001600160e01b031663095ea7b360e01b179052610361908490611007565b604080516001600160a01b0385811660248301528416604482015260648082018490528251808303909101815260849091019091526020810180516001600160e01b03166323b872dd60e01b179052611001908590611007565b50505050565b611019826001600160a01b03166111bf565b61106a576040805162461bcd60e51b815260206004820152601f60248201527f5361666545524332303a2063616c6c20746f206e6f6e2d636f6e747261637400604482015290519081900360640190fd5b60006060836001600160a01b0316836040518082805190602001908083835b602083106110a85780518252601f199092019160209182019101611089565b6001836020036101000a0380198251168184511680821785525050505050509050019150506000604051808303816000865af19150503d806000811461110a576040519150601f19603f3d011682016040523d82523d6000602084013e61110f565b606091505b509150915081611166576040805162461bcd60e51b815260206004820181905260248201527f5361666545524332303a206c6f772d6c6576656c2063616c6c206661696c6564604482015290519081900360640190fd5b8051156110015780806020019051602081101561118257600080fd5b50516110015760405162461bcd60e51b815260040180806020018281038252602a815260200180611246602a913960400191505060405180910390fd5b6000813f7fc5d2460186f7233c927e7db2dcc703c0e500b653ca82273b7bfad8045d85a4708181148015906111f357508115155b94935050505056fe746f6b656e20697320646566696e6564206173206e6f742073616c76616761626c656f6e6c79206e6f74207468652077657468207374726174656779206f7220676f7665726e616e63655361666545524332303a204552433230206f7065726174696f6e20646964206e6f7420737563636565645361666545524332303a20617070726f76652066726f6d206e6f6e2d7a65726f20746f206e6f6e2d7a65726f20616c6c6f77616e6365a265627a7a72315820b0de5715251f4af245052031cc9a9cbe9099d1ac737e2cd9920a3732152fd0b964736f6c63430005100032",
  "source": "pragma solidity 0.5.16;\n\nimport \"@openzeppelin/contracts/math/Math.sol\";\nimport \"@openzeppelin/contracts/math/SafeMath.sol\";\nimport \"@openzeppelin/contracts/token/ERC20/ERC20Detailed.sol\";\nimport \"@openzeppelin/contracts/token/ERC20/SafeERC20.sol\";\nimport \"../Controllable.sol\";\nimport \"../uniswap/interfaces/IUniswapV2Router02.sol\";\n\ncontract LiquidityRecipient is Controllable {\n\n  using SafeMath for uint256;\n  using SafeERC20 for IERC20;\n\n  event LiquidityProvided(uint256 farmIn, uint256 wethIn, uint256 lpOut);\n  event LiquidityRemoved(uint256 lpIn, uint256 wethOut, uint256 farmOut);\n\n  modifier onlyStrategy() {\n    require(msg.sender == wethStrategy, \"only the weth strategy\");\n    _;\n  }\n\n  modifier onlyStrategyOrGovernance() {\n    require(msg.sender == wethStrategy || msg.sender == governance(),\n      \"only not the weth strategy or governance\");\n    _;\n  }\n\n  // Address for WETH\n  address public weth;\n\n  // Address for FARM\n  address public farm;\n\n  // The WETH strategy this contract is hooked up to. The strategy cannot be changed.\n  address public wethStrategy;\n\n  // The treasury to provide FARM, and to receive FARM or overdraft weth\n  address public treasury;\n\n  // The address of the uniswap router\n  address public uniswap;\n\n  // The UNI V2 LP token matching the pool\n  address public uniLp;\n\n  // These tokens cannot be claimed by the controller\n  mapping(address => bool) public unsalvagableTokens;\n\n  constructor(\n    address _storage,\n    address _weth,\n    address _farm,\n    address _treasury,\n    address _uniswap,\n    address _uniLp,\n    address _wethStrategy\n  )\n  Controllable(_storage)\n  public {\n    weth = _weth;\n    farm = _farm;\n    require(_treasury != address(0), \"treasury cannot be address(0)\");\n    treasury = _treasury;\n    uniswap = _uniswap;\n    require(_uniLp != address(0), \"uniLp cannot be address(0)\");\n    uniLp = _uniLp;\n    unsalvagableTokens[_weth] = true;\n    unsalvagableTokens[_uniLp] = true;\n    wethStrategy = _wethStrategy;\n  }\n\n  /**\n  * Adds liquidity to Uniswap.\n  */\n  function addLiquidity() internal {\n    uint256 farmBalance = IERC20(farm).balanceOf(address(this));\n    uint256 wethBalance = IERC20(weth).balanceOf(address(this));\n\n    IERC20(farm).safeApprove(uniswap, 0);\n    IERC20(farm).safeApprove(uniswap, farmBalance);\n    IERC20(weth).safeApprove(uniswap, 0);\n    IERC20(weth).safeApprove(uniswap, wethBalance);\n\n    (uint256 amountFarm,\n    uint256 amountWeth,\n    uint256 liquidity) = IUniswapV2Router02(uniswap).addLiquidity(farm,\n        weth,\n        farmBalance,\n        wethBalance,\n        0,\n        0,\n        address(this),\n        block.timestamp);\n\n    emit LiquidityProvided(amountFarm, amountWeth, liquidity);\n  }\n\n  /**\n  * Removes liquidity from Uniswap.\n  */\n  function removeLiquidity() internal {\n    uint256 lpBalance = IERC20(uniLp).balanceOf(address(this));\n    if (lpBalance > 0) {\n      IERC20(uniLp).safeApprove(uniswap, 0);\n      IERC20(uniLp).safeApprove(uniswap, lpBalance);\n      (uint256 amountFarm, uint256 amountWeth) = IUniswapV2Router02(uniswap).removeLiquidity(farm,\n        weth,\n        lpBalance,\n        0,\n        0,\n        address(this),\n        block.timestamp\n      );\n      emit LiquidityRemoved(lpBalance, amountWeth, amountFarm);\n    } else {\n      emit LiquidityRemoved(0, 0, 0);\n    }\n  }\n\n  /**\n  * Adds liquidity to Uniswap. There is no vault for this cannot be invoked via controller. It has\n  * to be restricted for market manipulation reasons, so only governance can call this method.\n  */\n  function doHardWork() public onlyGovernance {\n    addLiquidity();\n  }\n\n  /**\n  * Borrows the set amount of WETH from the strategy, and will invest all available liquidity\n  * to Uniswap. This assumes that an approval from the strategy exists.\n  */\n  function takeLoan(uint256 amount) public onlyStrategy {\n    IERC20(weth).safeTransferFrom(wethStrategy, address(this), amount);\n    addLiquidity();\n  }\n\n  /**\n  * Prepares for settling the loan to the strategy by withdrawing all liquidity from Uniswap,\n  * and providing approvals to the strategy (for WETH) and to treasury (for FARM). The strategy\n  * will make the WETH withdrawal by the pull pattern, and so will the treasury.\n  */\n  function settleLoan() public onlyStrategyOrGovernance {\n    removeLiquidity();\n    IERC20(weth).safeApprove(wethStrategy, 0);\n    IERC20(weth).safeApprove(wethStrategy, uint256(-1));\n    IERC20(farm).safeApprove(treasury, 0);\n    IERC20(farm).safeApprove(treasury, uint256(-1));\n  }\n\n  /**\n  * If Uniswap returns less FARM and more WETH, the WETH excess will be present in this strategy.\n  * The governance can send this WETH to the treasury by invoking this function through the\n  * strategy. The strategy ensures that this function is not called unless the entire WETH loan\n  * was settled.\n  */\n  function wethOverdraft() external onlyStrategy {\n    if (IERC20(weth).balanceOf(address(this)) > 0) {\n      IERC20(weth).safeTransfer(treasury, IERC20(weth).balanceOf(address(this)));      \n    }\n  }\n\n  /**\n  * Salvages a token.\n  */\n  function salvage(address recipient, address token, uint256 amount) external onlyGovernance {\n    // To make sure that governance cannot come in and take away the coins\n    require(!unsalvagableTokens[token], \"token is defined as not salvagable\");\n    IERC20(token).safeTransfer(recipient, amount);\n  }\n}\n",
  "sourcePath": "/home/madhav/Vaults/contracts/strategies/LiquidityRecipient.sol",
  "compiler": {
    "name": "solc",
    "version": "0.5.16+commit.9c3226ce.Emscripten.clang"
  },
  "schemaVersion": "3.2.5",
  "updatedAt": "2020-12-05T16:27:34.941Z",
  "devdoc": {
    "methods": {}
  },
  "userdoc": {
    "methods": {
      "doHardWork()": {
        "notice": "Adds liquidity to Uniswap. There is no vault for this cannot be invoked via controller. It has to be restricted for market manipulation reasons, so only governance can call this method."
      },
      "salvage(address,address,uint256)": {
        "notice": "Salvages a token."
      },
      "settleLoan()": {
        "notice": "Prepares for settling the loan to the strategy by withdrawing all liquidity from Uniswap, and providing approvals to the strategy (for WETH) and to treasury (for FARM). The strategy will make the WETH withdrawal by the pull pattern, and so will the treasury."
      },
      "takeLoan(uint256)": {
        "notice": "Borrows the set amount of WETH from the strategy, and will invest all available liquidity to Uniswap. This assumes that an approval from the strategy exists."
      },
      "wethOverdraft()": {
        "notice": "If Uniswap returns less FARM and more WETH, the WETH excess will be present in this strategy. The governance can send this WETH to the treasury by invoking this function through the strategy. The strategy ensures that this function is not called unless the entire WETH loan was settled."
      }
    }
  }
}