{
  "contractName": "NoopStrategyStable",
  "abi": [
    {
      "inputs": [
        {
          "internalType": "address",
          "name": "_storage",
          "type": "address"
        },
        {
          "internalType": "address",
          "name": "_vault",
          "type": "address"
        }
      ],
      "payable": false,
      "stateMutability": "nonpayable",
      "type": "constructor"
    },
    {
      "constant": true,
      "inputs": [],
      "name": "controller",
      "outputs": [
        {
          "internalType": "address",
          "name": "",
          "type": "address"
        }
      ],
      "payable": false,
      "stateMutability": "view",
      "type": "function"
    },
    {
      "constant": true,
      "inputs": [],
      "name": "governance",
      "outputs": [
        {
          "internalType": "address",
          "name": "",
          "type": "address"
        }
      ],
      "payable": false,
      "stateMutability": "view",
      "type": "function"
    },
    {
      "constant": false,
      "inputs": [
        {
          "internalType": "address",
          "name": "_store",
          "type": "address"
        }
      ],
      "name": "setStorage",
      "outputs": [],
      "payable": false,
      "stateMutability": "nonpayable",
      "type": "function"
    },
    {
      "constant": true,
      "inputs": [],
      "name": "store",
      "outputs": [
        {
          "internalType": "contract Storage",
          "name": "",
          "type": "address"
        }
      ],
      "payable": false,
      "stateMutability": "view",
      "type": "function"
    },
    {
      "constant": true,
      "inputs": [],
      "name": "underlying",
      "outputs": [
        {
          "internalType": "contract IERC20",
          "name": "",
          "type": "address"
        }
      ],
      "payable": false,
      "stateMutability": "view",
      "type": "function"
    },
    {
      "constant": true,
      "inputs": [
        {
          "internalType": "address",
          "name": "",
          "type": "address"
        }
      ],
      "name": "unsalvagableTokens",
      "outputs": [
        {
          "internalType": "bool",
          "name": "",
          "type": "bool"
        }
      ],
      "payable": false,
      "stateMutability": "view",
      "type": "function"
    },
    {
      "constant": true,
      "inputs": [],
      "name": "vault",
      "outputs": [
        {
          "internalType": "contract IVault",
          "name": "",
          "type": "address"
        }
      ],
      "payable": false,
      "stateMutability": "view",
      "type": "function"
    },
    {
      "constant": true,
      "inputs": [],
      "name": "depositArbCheck",
      "outputs": [
        {
          "internalType": "bool",
          "name": "",
          "type": "bool"
        }
      ],
      "payable": false,
      "stateMutability": "view",
      "type": "function"
    },
    {
      "constant": true,
      "inputs": [],
      "name": "investedUnderlyingBalance",
      "outputs": [
        {
          "internalType": "uint256",
          "name": "",
          "type": "uint256"
        }
      ],
      "payable": false,
      "stateMutability": "view",
      "type": "function"
    },
    {
      "constant": false,
      "inputs": [],
      "name": "investAllUnderlying",
      "outputs": [],
      "payable": false,
      "stateMutability": "nonpayable",
      "type": "function"
    },
    {
      "constant": false,
      "inputs": [],
      "name": "withdrawAllToVault",
      "outputs": [],
      "payable": false,
      "stateMutability": "nonpayable",
      "type": "function"
    },
    {
      "constant": false,
      "inputs": [
        {
          "internalType": "uint256",
          "name": "amount",
          "type": "uint256"
        }
      ],
      "name": "withdrawToVault",
      "outputs": [],
      "payable": false,
      "stateMutability": "nonpayable",
      "type": "function"
    },
    {
      "constant": false,
      "inputs": [],
      "name": "doHardWork",
      "outputs": [],
      "payable": false,
      "stateMutability": "nonpayable",
      "type": "function"
    },
    {
      "constant": false,
      "inputs": [
        {
          "internalType": "address",
          "name": "destination",
          "type": "address"
        },
        {
          "internalType": "address",
          "name": "token",
          "type": "address"
        },
        {
          "internalType": "uint256",
          "name": "amount",
          "type": "uint256"
        }
      ],
      "name": "salvage",
      "outputs": [],
      "payable": false,
      "stateMutability": "nonpayable",
      "type": "function"
    }
  ],
  "bytecode": "0x608060405234801561001057600080fd5b50604051610d72380380610d728339818101604052604081101561003357600080fd5b50805160209091015181806001600160a01b038116610099576040805162461bcd60e51b815260206004820152601e60248201527f6e65772073746f726167652073686f756c646e277420626520656d7074790000604482015290519081900360640190fd5b600080546001600160a01b0319166001600160a01b0392831617905582161515905061010c576040805162461bcd60e51b815260206004820152601660248201527f5f7661756c742063616e6e6f7420626520656d70747900000000000000000000604482015290519081900360640190fd5b600280546001600160a01b0319166001600160a01b03838116919091179182905560408051636f307dc360e01b815290519290911691636f307dc391600480820192602092909190829003018186803b15801561016857600080fd5b505afa15801561017c573d6000803e3d6000fd5b505050506040513d602081101561019257600080fd5b5051600180546001600160a01b039283166001600160a01b0319909116178082559091166000908152600360205260409020805460ff191690911790555050610b92806101e06000396000f3fe608060405234801561001057600080fd5b50600436106100ca5760003560e01c80639137c1a71161007c5780639137c1a714610197578063975057e7146101bd578063bfd131f1146101c5578063c2a2a07b146101cd578063ce8c42e8146101d5578063f77c4791146101f2578063fbfa77cf146101fa576100ca565b80631113ef52146100cf57806345d01e4a146101075780634a8cfa69146101215780634fa5d8541461012957806350185946146101315780635aa6e6751461016b5780636f307dc31461018f575b600080fd5b610105600480360360608110156100e557600080fd5b506001600160a01b03813581169160208101359091169060400135610202565b005b61010f610308565b60408051918252519081900360200190f35b610105610384565b610105610386565b6101576004803603602081101561014757600080fd5b50356001600160a01b0316610415565b604080519115158252519081900360200190f35b61017361042a565b604080516001600160a01b039092168252519081900360200190f35b610173610479565b610105600480360360208110156101ad57600080fd5b50356001600160a01b0316610488565b6101736105be565b6101056105cd565b610157610771565b610105600480360360208110156101eb57600080fd5b5035610776565b610173610831565b610173610880565b6002546001600160a01b0316331480610233575061021e610831565b6001600160a01b0316336001600160a01b0316145b80610256575061024161042a565b6001600160a01b0316336001600160a01b0316145b6102915760405162461bcd60e51b815260040180806020018281038252603a815260200180610ad7603a913960400191505060405180910390fd5b6001600160a01b03821660009081526003602052604090205460ff16156102e95760405162461bcd60e51b8152600401808060200182810382526023815260200180610b116023913960400191505060405180910390fd5b6103036001600160a01b038316848363ffffffff61088f16565b505050565b600154604080516370a0823160e01b815230600482015290516000926001600160a01b0316916370a08231916024808301926020929190829003018186803b15801561035357600080fd5b505afa158015610367573d6000803e3d6000fd5b505050506040513d602081101561037d57600080fd5b5051905090565b565b6002546001600160a01b03163314806103b757506103a2610831565b6001600160a01b0316336001600160a01b0316145b806103da57506103c561042a565b6001600160a01b0316336001600160a01b0316145b6103845760405162461bcd60e51b815260040180806020018281038252603a815260200180610ad7603a913960400191505060405180910390fd5b60036020526000908152604090205460ff1681565b60008060009054906101000a90046001600160a01b03166001600160a01b0316635aa6e6756040518163ffffffff1660e01b815260040160206040518083038186803b15801561035357600080fd5b6001546001600160a01b031681565b600054604080516337b87c3960e21b815233600482015290516001600160a01b039092169163dee1f0e491602480820192602092909190829003018186803b1580156104d357600080fd5b505afa1580156104e7573d6000803e3d6000fd5b505050506040513d60208110156104fd57600080fd5b5051610541576040805162461bcd60e51b815260206004820152600e60248201526d4e6f7420676f7665726e616e636560901b604482015290519081900360640190fd5b6001600160a01b03811661059c576040805162461bcd60e51b815260206004820152601e60248201527f6e65772073746f726167652073686f756c646e277420626520656d7074790000604482015290519081900360640190fd5b600080546001600160a01b0319166001600160a01b0392909216919091179055565b6000546001600160a01b031681565b6002546001600160a01b03163314806105fe57506105e9610831565b6001600160a01b0316336001600160a01b0316145b80610621575061060c61042a565b6001600160a01b0316336001600160a01b0316145b61065c5760405162461bcd60e51b815260040180806020018281038252603a815260200180610ad7603a913960400191505060405180910390fd5b600154604080516370a0823160e01b815230600482015290516000926001600160a01b0316916370a08231916024808301926020929190829003018186803b1580156106a757600080fd5b505afa1580156106bb573d6000803e3d6000fd5b505050506040513d60208110156106d157600080fd5b5051111561038457600254600154604080516370a0823160e01b81523060048201529051610384936001600160a01b039081169316916370a08231916024808301926020929190829003018186803b15801561072c57600080fd5b505afa158015610740573d6000803e3d6000fd5b505050506040513d602081101561075657600080fd5b50516001546001600160a01b0316919063ffffffff61088f16565b600190565b6002546001600160a01b03163314806107a75750610792610831565b6001600160a01b0316336001600160a01b0316145b806107ca57506107b561042a565b6001600160a01b0316336001600160a01b0316145b6108055760405162461bcd60e51b815260040180806020018281038252603a815260200180610ad7603a913960400191505060405180910390fd5b801561082e5760025460015461082e916001600160a01b0391821691168363ffffffff61088f16565b50565b60008060009054906101000a90046001600160a01b03166001600160a01b031663f77c47916040518163ffffffff1660e01b815260040160206040518083038186803b15801561035357600080fd5b6002546001600160a01b031681565b604080516001600160a01b038416602482015260448082018490528251808303909101815260649091019091526020810180516001600160e01b031663a9059cbb60e01b1790526103039084906108ee826001600160a01b0316610a9a565b61093f576040805162461bcd60e51b815260206004820152601f60248201527f5361666545524332303a2063616c6c20746f206e6f6e2d636f6e747261637400604482015290519081900360640190fd5b60006060836001600160a01b0316836040518082805190602001908083835b6020831061097d5780518252601f19909201916020918201910161095e565b6001836020036101000a0380198251168184511680821785525050505050509050019150506000604051808303816000865af19150503d80600081146109df576040519150601f19603f3d011682016040523d82523d6000602084013e6109e4565b606091505b509150915081610a3b576040805162461bcd60e51b815260206004820181905260248201527f5361666545524332303a206c6f772d6c6576656c2063616c6c206661696c6564604482015290519081900360640190fd5b805115610a9457808060200190516020811015610a5757600080fd5b5051610a945760405162461bcd60e51b815260040180806020018281038252602a815260200180610b34602a913960400191505060405180910390fd5b50505050565b6000813f7fc5d2460186f7233c927e7db2dcc703c0e500b653ca82273b7bfad8045d85a470818114801590610ace57508115155b94935050505056fe5468652073656e6465722068617320746f2062652074686520636f6e74726f6c6c6572206f72207661756c74206f7220676f7665726e616e6365746f6b656e20697320646566696e6564206173206e6f742073616c7661676561626c655361666545524332303a204552433230206f7065726174696f6e20646964206e6f742073756363656564a265627a7a72315820368cf3ce84b5bd3f72f90a1b0f54ef722c968a8b8b05d839672f022572cee88164736f6c63430005100032",
  "source": "pragma solidity 0.5.16;\n\nimport \"@openzeppelin/contracts/token/ERC20/IERC20.sol\";\nimport \"@openzeppelin/contracts/utils/Address.sol\";\nimport \"@openzeppelin/contracts/math/SafeMath.sol\";\nimport \"@openzeppelin/contracts/token/ERC20/SafeERC20.sol\";\nimport \"../hardworkInterface/IStrategy.sol\";\nimport \"../Controllable.sol\";\nimport \"../hardworkInterface/IVault.sol\";\n\n\ncontract NoopStrategyStable is IStrategy, Controllable {\n  using SafeERC20 for IERC20;\n  using Address for address;\n  using SafeMath for uint256;\n\n  IERC20 public underlying;\n  IVault public vault;\n\n  // These tokens cannot be claimed by the controller\n  mapping(address => bool) public unsalvagableTokens;\n\n  constructor(address _storage, address _vault) public\n  Controllable(_storage) {\n    require(_vault != address(0), \"_vault cannot be empty\");\n    vault = IVault(_vault);\n    underlying = IERC20(vault.underlying());\n    unsalvagableTokens[address(underlying)] = true;\n  }\n\n  modifier restricted() {\n    require(msg.sender == address(vault) || msg.sender == address(controller()) || msg.sender == address(governance()),\n      \"The sender has to be the controller or vault or governance\");\n    _;\n  }\n\n  function depositArbCheck() public view returns(bool) {\n    return true;\n  }\n\n  modifier onlyVault() {\n    require(msg.sender == address(vault), \"The caller must be the vault\");\n    _;\n  }\n\n  /*\n  * Returns the total invested amount.\n  */\n  function investedUnderlyingBalance() view public returns (uint256) {\n    // for real strategies, need to calculate the invested balance\n    return underlying.balanceOf(address(this));\n  }\n\n  /*\n  * Invests all tokens that were accumulated so far\n  */\n  function investAllUnderlying() public {\n    // a no-op\n  }\n\n  /*\n  * Cashes everything out and withdraws to the vault\n  */\n  function withdrawAllToVault() external restricted {\n    if (underlying.balanceOf(address(this)) > 0) {\n      underlying.safeTransfer(address(vault), underlying.balanceOf(address(this)));\n    }\n  }\n\n  /*\n  * Cashes some amount out and withdraws to the vault\n  */\n  function withdrawToVault(uint256 amount) external restricted {\n    if (amount > 0) {\n      underlying.safeTransfer(address(vault), amount);\n    }\n  }\n\n  /*\n  * Honest harvesting. It's not much, but it pays off\n  */\n  function doHardWork() external restricted {\n    // a no-op\n  }\n\n  // should only be called by controller\n  function salvage(address destination, address token, uint256 amount) external restricted {\n    require(!unsalvagableTokens[token], \"token is defined as not salvageable\");\n    IERC20(token).safeTransfer(destination, amount);\n  }\n}\n",
  "sourcePath": "/home/madhav/Vaults/contracts/strategies/NoopStrategyStable.sol",
  "compiler": {
    "name": "solc",
    "version": "0.5.16+commit.9c3226ce.Emscripten.clang"
  },
  "schemaVersion": "3.2.5",
  "updatedAt": "2020-12-05T16:27:34.949Z",
  "devdoc": {
    "methods": {}
  },
  "userdoc": {
    "methods": {}
  }
}