{
  "contractName": "ProfitNotifier",
  "abi": [
    {
      "inputs": [
        {
          "internalType": "address",
          "name": "_storage",
          "type": "address"
        },
        {
          "internalType": "address",
          "name": "_underlying",
          "type": "address"
        }
      ],
      "payable": false,
      "stateMutability": "nonpayable",
      "type": "constructor"
    },
    {
      "anonymous": false,
      "inputs": [
        {
          "indexed": false,
          "internalType": "uint256",
          "name": "oldBalance",
          "type": "uint256"
        },
        {
          "indexed": false,
          "internalType": "uint256",
          "name": "newBalance",
          "type": "uint256"
        },
        {
          "indexed": false,
          "internalType": "uint256",
          "name": "feeAmount",
          "type": "uint256"
        },
        {
          "indexed": false,
          "internalType": "uint256",
          "name": "timestamp",
          "type": "uint256"
        }
      ],
      "name": "ProfitLog",
      "type": "event"
    },
    {
      "constant": true,
      "inputs": [],
      "name": "controller",
      "outputs": [
        {
          "internalType": "address",
          "name": "",
          "type": "address"
        }
      ],
      "payable": false,
      "stateMutability": "view",
      "type": "function"
    },
    {
      "constant": true,
      "inputs": [],
      "name": "governance",
      "outputs": [
        {
          "internalType": "address",
          "name": "",
          "type": "address"
        }
      ],
      "payable": false,
      "stateMutability": "view",
      "type": "function"
    },
    {
      "constant": true,
      "inputs": [],
      "name": "profitSharingDenominator",
      "outputs": [
        {
          "internalType": "uint256",
          "name": "",
          "type": "uint256"
        }
      ],
      "payable": false,
      "stateMutability": "view",
      "type": "function"
    },
    {
      "constant": true,
      "inputs": [],
      "name": "profitSharingNumerator",
      "outputs": [
        {
          "internalType": "uint256",
          "name": "",
          "type": "uint256"
        }
      ],
      "payable": false,
      "stateMutability": "view",
      "type": "function"
    },
    {
      "constant": false,
      "inputs": [
        {
          "internalType": "address",
          "name": "_store",
          "type": "address"
        }
      ],
      "name": "setStorage",
      "outputs": [],
      "payable": false,
      "stateMutability": "nonpayable",
      "type": "function"
    },
    {
      "constant": true,
      "inputs": [],
      "name": "store",
      "outputs": [
        {
          "internalType": "contract Storage",
          "name": "",
          "type": "address"
        }
      ],
      "payable": false,
      "stateMutability": "view",
      "type": "function"
    },
    {
      "constant": true,
      "inputs": [],
      "name": "underlying",
      "outputs": [
        {
          "internalType": "address",
          "name": "",
          "type": "address"
        }
      ],
      "payable": false,
      "stateMutability": "view",
      "type": "function"
    }
  ],
  "bytecode": "0x608060405234801561001057600080fd5b506040516104403803806104408339818101604052604081101561003357600080fd5b50805160209091015181806001600160a01b038116610099576040805162461bcd60e51b815260206004820152601e60248201527f6e65772073746f726167652073686f756c646e277420626520656d7074790000604482015290519081900360640190fd5b600080546001600160a01b03199081166001600160a01b03938416179091556003805490911691841691909117905550601e6001556064600255505061035c806100e46000396000f3fe608060405234801561001057600080fd5b506004361061006d5760003560e01c8063026a0dd0146100725780635aa6e6751461008c5780636f307dc3146100b05780639137c1a7146100b8578063975057e7146100e0578063b60f151a146100e8578063f77c4791146100f0575b600080fd5b61007a6100f8565b60408051918252519081900360200190f35b6100946100fe565b604080516001600160a01b039092168252519081900360200190f35b61009461017e565b6100de600480360360208110156100ce57600080fd5b50356001600160a01b031661018d565b005b6100946102c3565b61007a6102d2565b6100946102d8565b60025481565b60008060009054906101000a90046001600160a01b03166001600160a01b0316635aa6e6756040518163ffffffff1660e01b815260040160206040518083038186803b15801561014d57600080fd5b505afa158015610161573d6000803e3d6000fd5b505050506040513d602081101561017757600080fd5b5051905090565b6003546001600160a01b031681565b600054604080516337b87c3960e21b815233600482015290516001600160a01b039092169163dee1f0e491602480820192602092909190829003018186803b1580156101d857600080fd5b505afa1580156101ec573d6000803e3d6000fd5b505050506040513d602081101561020257600080fd5b5051610246576040805162461bcd60e51b815260206004820152600e60248201526d4e6f7420676f7665726e616e636560901b604482015290519081900360640190fd5b6001600160a01b0381166102a1576040805162461bcd60e51b815260206004820152601e60248201527f6e65772073746f726167652073686f756c646e277420626520656d7074790000604482015290519081900360640190fd5b600080546001600160a01b0319166001600160a01b0392909216919091179055565b6000546001600160a01b031681565b60015481565b60008060009054906101000a90046001600160a01b03166001600160a01b031663f77c47916040518163ffffffff1660e01b815260040160206040518083038186803b15801561014d57600080fdfea265627a7a723158205eaef91c9b7d2e729732672d7f03514fc32758683d3c4571c38f770ba707fa6d64736f6c63430005100032",
  "source": "pragma solidity 0.5.16;\n\nimport \"@openzeppelin/contracts/math/SafeMath.sol\";\nimport \"@openzeppelin/contracts/token/ERC20/IERC20.sol\";\nimport \"@openzeppelin/contracts/token/ERC20/SafeERC20.sol\";\nimport \"../hardworkInterface/IController.sol\";\nimport \"../Controllable.sol\";\n\ncontract ProfitNotifier is Controllable {\n  using SafeMath for uint256;\n  using SafeERC20 for IERC20;\n\n  uint256 public profitSharingNumerator;\n  uint256 public profitSharingDenominator;\n  address public underlying;\n\n  event ProfitLog(\n    uint256 oldBalance,\n    uint256 newBalance,\n    uint256 feeAmount,\n    uint256 timestamp\n  );\n\n  constructor(\n    address _storage,\n    address _underlying\n  ) public Controllable(_storage){\n    underlying = _underlying;\n    // persist in the state for immutability of the fee\n    profitSharingNumerator = 30; //IController(controller()).profitSharingNumerator();\n    profitSharingDenominator = 100; //IController(controller()).profitSharingDenominator();\n    require(profitSharingNumerator < profitSharingDenominator, \"invalid profit share\");\n  }\n\n  function notifyProfit(uint256 oldBalance, uint256 newBalance) internal {\n    if (newBalance > oldBalance) {\n      uint256 profit = newBalance.sub(oldBalance);\n      uint256 feeAmount = profit.mul(profitSharingNumerator).div(profitSharingDenominator);\n      emit ProfitLog(oldBalance, newBalance, feeAmount, block.timestamp);\n\n      IERC20(underlying).safeApprove(controller(), 0);\n      IERC20(underlying).safeApprove(controller(), feeAmount);\n      IController(controller()).notifyFee(\n        underlying,\n        feeAmount\n      );\n    } else {\n      emit ProfitLog(oldBalance, newBalance, 0, block.timestamp);\n    }\n  }\n}\n",
  "sourcePath": "/home/madhav/Vaults/contracts/strategies/ProfitNotifier.sol",
  "compiler": {
    "name": "solc",
    "version": "0.5.16+commit.9c3226ce.Emscripten.clang"
  },
  "schemaVersion": "3.2.5",
  "updatedAt": "2020-12-05T16:27:34.951Z",
  "devdoc": {
    "methods": {}
  },
  "userdoc": {
    "methods": {}
  }
}