{
  "contractName": "RewardTokenProfitNotifier",
  "abi": [
    {
      "inputs": [
        {
          "internalType": "address",
          "name": "_storage",
          "type": "address"
        },
        {
          "internalType": "address",
          "name": "_rewardToken",
          "type": "address"
        }
      ],
      "payable": false,
      "stateMutability": "nonpayable",
      "type": "constructor"
    },
    {
      "anonymous": false,
      "inputs": [
        {
          "indexed": false,
          "internalType": "uint256",
          "name": "profitAmount",
          "type": "uint256"
        },
        {
          "indexed": false,
          "internalType": "uint256",
          "name": "feeAmount",
          "type": "uint256"
        },
        {
          "indexed": false,
          "internalType": "uint256",
          "name": "timestamp",
          "type": "uint256"
        }
      ],
      "name": "ProfitLogInReward",
      "type": "event"
    },
    {
      "constant": true,
      "inputs": [],
      "name": "controller",
      "outputs": [
        {
          "internalType": "address",
          "name": "",
          "type": "address"
        }
      ],
      "payable": false,
      "stateMutability": "view",
      "type": "function"
    },
    {
      "constant": true,
      "inputs": [],
      "name": "governance",
      "outputs": [
        {
          "internalType": "address",
          "name": "",
          "type": "address"
        }
      ],
      "payable": false,
      "stateMutability": "view",
      "type": "function"
    },
    {
      "constant": true,
      "inputs": [],
      "name": "profitSharingDenominator",
      "outputs": [
        {
          "internalType": "uint256",
          "name": "",
          "type": "uint256"
        }
      ],
      "payable": false,
      "stateMutability": "view",
      "type": "function"
    },
    {
      "constant": true,
      "inputs": [],
      "name": "profitSharingNumerator",
      "outputs": [
        {
          "internalType": "uint256",
          "name": "",
          "type": "uint256"
        }
      ],
      "payable": false,
      "stateMutability": "view",
      "type": "function"
    },
    {
      "constant": true,
      "inputs": [],
      "name": "rewardToken",
      "outputs": [
        {
          "internalType": "address",
          "name": "",
          "type": "address"
        }
      ],
      "payable": false,
      "stateMutability": "view",
      "type": "function"
    },
    {
      "constant": false,
      "inputs": [
        {
          "internalType": "address",
          "name": "_store",
          "type": "address"
        }
      ],
      "name": "setStorage",
      "outputs": [],
      "payable": false,
      "stateMutability": "nonpayable",
      "type": "function"
    },
    {
      "constant": true,
      "inputs": [],
      "name": "store",
      "outputs": [
        {
          "internalType": "contract Storage",
          "name": "",
          "type": "address"
        }
      ],
      "payable": false,
      "stateMutability": "view",
      "type": "function"
    }
  ],
  "bytecode": "0x608060405234801561001057600080fd5b506040516104403803806104408339818101604052604081101561003357600080fd5b50805160209091015181806001600160a01b038116610099576040805162461bcd60e51b815260206004820152601e60248201527f6e65772073746f726167652073686f756c646e277420626520656d7074790000604482015290519081900360640190fd5b600080546001600160a01b03199081166001600160a01b03938416179091556003805490911691841691909117905550601e6001556064600255505061035c806100e46000396000f3fe608060405234801561001057600080fd5b506004361061006d5760003560e01c8063026a0dd0146100725780635aa6e6751461008c5780639137c1a7146100b0578063975057e7146100d8578063b60f151a146100e0578063f77c4791146100e8578063f7c618c1146100f0575b600080fd5b61007a6100f8565b60408051918252519081900360200190f35b6100946100fe565b604080516001600160a01b039092168252519081900360200190f35b6100d6600480360360208110156100c657600080fd5b50356001600160a01b031661017e565b005b6100946102b4565b61007a6102c3565b6100946102c9565b610094610318565b60025481565b60008060009054906101000a90046001600160a01b03166001600160a01b0316635aa6e6756040518163ffffffff1660e01b815260040160206040518083038186803b15801561014d57600080fd5b505afa158015610161573d6000803e3d6000fd5b505050506040513d602081101561017757600080fd5b5051905090565b600054604080516337b87c3960e21b815233600482015290516001600160a01b039092169163dee1f0e491602480820192602092909190829003018186803b1580156101c957600080fd5b505afa1580156101dd573d6000803e3d6000fd5b505050506040513d60208110156101f357600080fd5b5051610237576040805162461bcd60e51b815260206004820152600e60248201526d4e6f7420676f7665726e616e636560901b604482015290519081900360640190fd5b6001600160a01b038116610292576040805162461bcd60e51b815260206004820152601e60248201527f6e65772073746f726167652073686f756c646e277420626520656d7074790000604482015290519081900360640190fd5b600080546001600160a01b0319166001600160a01b0392909216919091179055565b6000546001600160a01b031681565b60015481565b60008060009054906101000a90046001600160a01b03166001600160a01b031663f77c47916040518163ffffffff1660e01b815260040160206040518083038186803b15801561014d57600080fd5b6003546001600160a01b03168156fea265627a7a72315820998a58bca73a2d631daa245223a163e2d3431d43ac92841b49722fcd199582be64736f6c63430005100032",
  "source": "pragma solidity 0.5.16;\n\nimport \"@openzeppelin/contracts/math/SafeMath.sol\";\nimport \"@openzeppelin/contracts/token/ERC20/IERC20.sol\";\nimport \"@openzeppelin/contracts/token/ERC20/SafeERC20.sol\";\nimport \"../hardworkInterface/IController.sol\";\nimport \"../Controllable.sol\";\n\ncontract RewardTokenProfitNotifier is Controllable {\n  using SafeMath for uint256;\n  using SafeERC20 for IERC20;\n\n  uint256 public profitSharingNumerator;\n  uint256 public profitSharingDenominator;\n  address public rewardToken;\n\n  constructor(\n    address _storage,\n    address _rewardToken\n  ) public Controllable(_storage){\n    rewardToken = _rewardToken;\n    // persist in the state for immutability of the fee\n    profitSharingNumerator = 30; //IController(controller()).profitSharingNumerator();\n    profitSharingDenominator = 100; //IController(controller()).profitSharingDenominator();\n    require(profitSharingNumerator < profitSharingDenominator, \"invalid profit share\");\n  }\n\n  event ProfitLogInReward(uint256 profitAmount, uint256 feeAmount, uint256 timestamp);\n\n  function notifyProfitInRewardToken(uint256 _rewardBalance) internal {\n    if( _rewardBalance > 0 ){\n      uint256 feeAmount = _rewardBalance.mul(profitSharingNumerator).div(profitSharingDenominator);\n      emit ProfitLogInReward(_rewardBalance, feeAmount, block.timestamp);\n      IERC20(rewardToken).safeApprove(controller(), 0);\n      IERC20(rewardToken).safeApprove(controller(), feeAmount);\n      \n      IController(controller()).notifyFee(\n        rewardToken,\n        feeAmount\n      );\n    } else {\n      emit ProfitLogInReward(0, 0, block.timestamp);\n    }\n  }\n\n}\n",
  "sourcePath": "/home/madhav/Vaults/contracts/strategies/RewardTokenProfitNotifier.sol",
  "compiler": {
    "name": "solc",
    "version": "0.5.16+commit.9c3226ce.Emscripten.clang"
  },
  "schemaVersion": "3.2.5",
  "updatedAt": "2020-12-05T16:27:34.953Z",
  "devdoc": {
    "methods": {}
  },
  "userdoc": {
    "methods": {}
  }
}