{
  "contractName": "SplitterStrategy",
  "abi": [
    {
      "inputs": [
        {
          "internalType": "address",
          "name": "_storage",
          "type": "address"
        }
      ],
      "payable": false,
      "stateMutability": "nonpayable",
      "type": "constructor"
    },
    {
      "anonymous": false,
      "inputs": [
        {
          "indexed": false,
          "internalType": "address",
          "name": "strategy",
          "type": "address"
        }
      ],
      "name": "StrategyUnwhitelisted",
      "type": "event"
    },
    {
      "anonymous": false,
      "inputs": [
        {
          "indexed": false,
          "internalType": "address",
          "name": "strategy",
          "type": "address"
        },
        {
          "indexed": false,
          "internalType": "uint256",
          "name": "when",
          "type": "uint256"
        }
      ],
      "name": "StrategyWhitelistAnnounced",
      "type": "event"
    },
    {
      "anonymous": false,
      "inputs": [
        {
          "indexed": false,
          "internalType": "address",
          "name": "strategy",
          "type": "address"
        }
      ],
      "name": "StrategyWhitelisted",
      "type": "event"
    },
    {
      "constant": true,
      "inputs": [
        {
          "internalType": "uint256",
          "name": "",
          "type": "uint256"
        }
      ],
      "name": "activeStrategies",
      "outputs": [
        {
          "internalType": "address",
          "name": "",
          "type": "address"
        }
      ],
      "payable": false,
      "stateMutability": "view",
      "type": "function"
    },
    {
      "constant": true,
      "inputs": [
        {
          "internalType": "uint256",
          "name": "",
          "type": "uint256"
        }
      ],
      "name": "caps",
      "outputs": [
        {
          "internalType": "uint256",
          "name": "",
          "type": "uint256"
        }
      ],
      "payable": false,
      "stateMutability": "view",
      "type": "function"
    },
    {
      "constant": true,
      "inputs": [],
      "name": "controller",
      "outputs": [
        {
          "internalType": "address",
          "name": "",
          "type": "address"
        }
      ],
      "payable": false,
      "stateMutability": "view",
      "type": "function"
    },
    {
      "constant": true,
      "inputs": [],
      "name": "futureStrategy",
      "outputs": [
        {
          "internalType": "address",
          "name": "",
          "type": "address"
        }
      ],
      "payable": false,
      "stateMutability": "view",
      "type": "function"
    },
    {
      "constant": true,
      "inputs": [],
      "name": "governance",
      "outputs": [
        {
          "internalType": "address",
          "name": "",
          "type": "address"
        }
      ],
      "payable": false,
      "stateMutability": "view",
      "type": "function"
    },
    {
      "constant": true,
      "inputs": [],
      "name": "investmentRatioDenominator",
      "outputs": [
        {
          "internalType": "uint256",
          "name": "",
          "type": "uint256"
        }
      ],
      "payable": false,
      "stateMutability": "view",
      "type": "function"
    },
    {
      "constant": true,
      "inputs": [
        {
          "internalType": "uint256",
          "name": "",
          "type": "uint256"
        }
      ],
      "name": "investmentRatioNumerators",
      "outputs": [
        {
          "internalType": "uint256",
          "name": "",
          "type": "uint256"
        }
      ],
      "payable": false,
      "stateMutability": "view",
      "type": "function"
    },
    {
      "constant": true,
      "inputs": [],
      "name": "isInitialized",
      "outputs": [
        {
          "internalType": "bool",
          "name": "",
          "type": "bool"
        }
      ],
      "payable": false,
      "stateMutability": "view",
      "type": "function"
    },
    {
      "constant": true,
      "inputs": [
        {
          "internalType": "address",
          "name": "",
          "type": "address"
        }
      ],
      "name": "isStrategyWhitelisted",
      "outputs": [
        {
          "internalType": "bool",
          "name": "",
          "type": "bool"
        }
      ],
      "payable": false,
      "stateMutability": "view",
      "type": "function"
    },
    {
      "constant": false,
      "inputs": [
        {
          "internalType": "address",
          "name": "_store",
          "type": "address"
        }
      ],
      "name": "setStorage",
      "outputs": [],
      "payable": false,
      "stateMutability": "nonpayable",
      "type": "function"
    },
    {
      "constant": true,
      "inputs": [],
      "name": "store",
      "outputs": [
        {
          "internalType": "contract Storage",
          "name": "",
          "type": "address"
        }
      ],
      "payable": false,
      "stateMutability": "view",
      "type": "function"
    },
    {
      "constant": true,
      "inputs": [],
      "name": "underlying",
      "outputs": [
        {
          "internalType": "contract IERC20",
          "name": "",
          "type": "address"
        }
      ],
      "payable": false,
      "stateMutability": "view",
      "type": "function"
    },
    {
      "constant": true,
      "inputs": [
        {
          "internalType": "address",
          "name": "",
          "type": "address"
        }
      ],
      "name": "unsalvagableTokens",
      "outputs": [
        {
          "internalType": "bool",
          "name": "",
          "type": "bool"
        }
      ],
      "payable": false,
      "stateMutability": "view",
      "type": "function"
    },
    {
      "constant": true,
      "inputs": [],
      "name": "vault",
      "outputs": [
        {
          "internalType": "address",
          "name": "",
          "type": "address"
        }
      ],
      "payable": false,
      "stateMutability": "view",
      "type": "function"
    },
    {
      "constant": true,
      "inputs": [
        {
          "internalType": "uint256",
          "name": "",
          "type": "uint256"
        }
      ],
      "name": "whitelistedStrategies",
      "outputs": [
        {
          "internalType": "address",
          "name": "",
          "type": "address"
        }
      ],
      "payable": false,
      "stateMutability": "view",
      "type": "function"
    },
    {
      "constant": true,
      "inputs": [
        {
          "internalType": "uint256",
          "name": "",
          "type": "uint256"
        }
      ],
      "name": "withdrawalOrder",
      "outputs": [
        {
          "internalType": "address",
          "name": "",
          "type": "address"
        }
      ],
      "payable": false,
      "stateMutability": "view",
      "type": "function"
    },
    {
      "constant": false,
      "inputs": [
        {
          "internalType": "address",
          "name": "_underlying",
          "type": "address"
        },
        {
          "internalType": "address",
          "name": "_vault",
          "type": "address"
        },
        {
          "internalType": "address[]",
          "name": "_strategies",
          "type": "address[]"
        },
        {
          "internalType": "uint256[]",
          "name": "_investmentRatioNumerators",
          "type": "uint256[]"
        },
        {
          "internalType": "uint256[]",
          "name": "_caps",
          "type": "uint256[]"
        },
        {
          "internalType": "address[]",
          "name": "_withdrawalOrder",
          "type": "address[]"
        }
      ],
      "name": "initSplitter",
      "outputs": [],
      "payable": false,
      "stateMutability": "nonpayable",
      "type": "function"
    },
    {
      "constant": false,
      "inputs": [
        {
          "internalType": "address[]",
          "name": "_activeStrategies",
          "type": "address[]"
        },
        {
          "internalType": "uint256[]",
          "name": "_investmentRatioNumerators",
          "type": "uint256[]"
        },
        {
          "internalType": "uint256[]",
          "name": "_caps",
          "type": "uint256[]"
        },
        {
          "internalType": "address[]",
          "name": "_withdrawalOrder",
          "type": "address[]"
        }
      ],
      "name": "configureStrategies",
      "outputs": [],
      "payable": false,
      "stateMutability": "nonpayable",
      "type": "function"
    },
    {
      "constant": true,
      "inputs": [],
      "name": "depositArbCheck",
      "outputs": [
        {
          "internalType": "bool",
          "name": "",
          "type": "bool"
        }
      ],
      "payable": false,
      "stateMutability": "view",
      "type": "function"
    },
    {
      "constant": true,
      "inputs": [],
      "name": "investedUnderlyingBalance",
      "outputs": [
        {
          "internalType": "uint256",
          "name": "",
          "type": "uint256"
        }
      ],
      "payable": false,
      "stateMutability": "view",
      "type": "function"
    },
    {
      "constant": false,
      "inputs": [
        {
          "internalType": "address",
          "name": "strategy",
          "type": "address"
        },
        {
          "internalType": "uint256",
          "name": "amount",
          "type": "uint256"
        }
      ],
      "name": "withdrawFromStrategy",
      "outputs": [],
      "payable": false,
      "stateMutability": "nonpayable",
      "type": "function"
    },
    {
      "constant": false,
      "inputs": [
        {
          "internalType": "address",
          "name": "strategy",
          "type": "address"
        },
        {
          "internalType": "uint256",
          "name": "amount",
          "type": "uint256"
        }
      ],
      "name": "investIntoStrategy",
      "outputs": [],
      "payable": false,
      "stateMutability": "nonpayable",
      "type": "function"
    },
    {
      "constant": false,
      "inputs": [],
      "name": "withdrawAllToVault",
      "outputs": [],
      "payable": false,
      "stateMutability": "nonpayable",
      "type": "function"
    },
    {
      "constant": false,
      "inputs": [
        {
          "internalType": "uint256",
          "name": "amount",
          "type": "uint256"
        }
      ],
      "name": "withdrawToVault",
      "outputs": [],
      "payable": false,
      "stateMutability": "nonpayable",
      "type": "function"
    },
    {
      "constant": false,
      "inputs": [
        {
          "internalType": "address",
          "name": "_strategy",
          "type": "address"
        }
      ],
      "name": "doHardWork",
      "outputs": [],
      "payable": false,
      "stateMutability": "nonpayable",
      "type": "function"
    },
    {
      "constant": false,
      "inputs": [],
      "name": "doHardWork",
      "outputs": [],
      "payable": false,
      "stateMutability": "nonpayable",
      "type": "function"
    },
    {
      "constant": true,
      "inputs": [],
      "name": "whitelistedStrategyCount",
      "outputs": [
        {
          "internalType": "uint256",
          "name": "",
          "type": "uint256"
        }
      ],
      "payable": false,
      "stateMutability": "view",
      "type": "function"
    },
    {
      "constant": true,
      "inputs": [
        {
          "internalType": "address",
          "name": "_strategy",
          "type": "address"
        }
      ],
      "name": "canWhitelistStrategy",
      "outputs": [
        {
          "internalType": "bool",
          "name": "",
          "type": "bool"
        }
      ],
      "payable": false,
      "stateMutability": "view",
      "type": "function"
    },
    {
      "constant": false,
      "inputs": [
        {
          "internalType": "address",
          "name": "_strategy",
          "type": "address"
        }
      ],
      "name": "announceStrategyWhitelist",
      "outputs": [],
      "payable": false,
      "stateMutability": "nonpayable",
      "type": "function"
    },
    {
      "constant": false,
      "inputs": [],
      "name": "finalizeStrategyWhitelist",
      "outputs": [],
      "payable": false,
      "stateMutability": "nonpayable",
      "type": "function"
    },
    {
      "constant": false,
      "inputs": [
        {
          "internalType": "address",
          "name": "_strategy",
          "type": "address"
        }
      ],
      "name": "unwhitelistStrategy",
      "outputs": [],
      "payable": false,
      "stateMutability": "nonpayable",
      "type": "function"
    },
    {
      "constant": false,
      "inputs": [
        {
          "internalType": "address",
          "name": "_strategy",
          "type": "address"
        }
      ],
      "name": "whitelistStrategy",
      "outputs": [],
      "payable": false,
      "stateMutability": "nonpayable",
      "type": "function"
    },
    {
      "constant": false,
      "inputs": [
        {
          "internalType": "address",
          "name": "destination",
          "type": "address"
        },
        {
          "internalType": "address",
          "name": "token",
          "type": "address"
        },
        {
          "internalType": "uint256",
          "name": "amount",
          "type": "uint256"
        }
      ],
      "name": "salvage",
      "outputs": [],
      "payable": false,
      "stateMutability": "nonpayable",
      "type": "function"
    }
  ],
  "bytecode": "0x6080604052612710600b55600c805460ff1916905534801561002057600080fd5b5060405162003712380380620037128339818101604052602081101561004557600080fd5b505180806001600160a01b0381166100a4576040805162461bcd60e51b815260206004820152601e60248201527f6e65772073746f726167652073686f756c646e277420626520656d7074790000604482015290519081900360640190fd5b600080546001600160a01b039092166001600160a01b0319909216919091179055505061363b80620000d76000396000f3fe608060405234801561001057600080fd5b50600436106101fb5760003560e01c80639137c1a71161011a578063b7c3f4e8116100ad578063c5ac4e731161007c578063c5ac4e7314610935578063c834c6ae14610952578063ce8c42e81461095a578063f77c479114610977578063fbfa77cf1461097f576101fb565b8063b7c3f4e814610900578063bfd131f114610908578063c2a2a07b14610910578063c37c656d14610918576101fb565b8063aa0623e9116100e9578063aa0623e914610651578063ae77425614610891578063b20b2429146108b7578063b53d0958146108d4576101fb565b80639137c1a7146105d757806392a88847146105fd578063975057e714610623578063999ba27c1461062b576101fb565b8063429e3e50116101925780635aa6e675116101615780635aa6e675146105b75780635fe51e6d146105bf5780636f307dc3146105c7578063710bac99146105cf576101fb565b8063429e3e501461054357806345d01e4a1461056f5780634fa5d854146105895780635018594614610591576101fb565b80631708a3d6116101ce5780631708a3d6146102bd5780632983552f146104e457806329e0e0c11461051e578063392e53cd1461053b576101fb565b80630a852ba4146102005780630af210a1146102395780631113ef52146102615780631176facc14610297575b600080fd5b61021d6004803603602081101561021657600080fd5b5035610987565b604080516001600160a01b039092168252519081900360200190f35b61025f6004803603602081101561024f57600080fd5b50356001600160a01b03166109ae565b005b61025f6004803603606081101561027757600080fd5b506001600160a01b03813581169160208101359091169060400135610a93565b61025f600480360360208110156102ad57600080fd5b50356001600160a01b0316610b99565b61025f600480360360808110156102d357600080fd5b810190602081018135600160201b8111156102ed57600080fd5b8201836020820111156102ff57600080fd5b803590602001918460208302840111600160201b8311171561032057600080fd5b9190808060200260200160405190810160405280939291908181526020018383602002808284376000920191909152509295949360208101935035915050600160201b81111561036f57600080fd5b82018360208201111561038157600080fd5b803590602001918460208302840111600160201b831117156103a257600080fd5b9190808060200260200160405190810160405280939291908181526020018383602002808284376000920191909152509295949360208101935035915050600160201b8111156103f157600080fd5b82018360208201111561040357600080fd5b803590602001918460208302840111600160201b8311171561042457600080fd5b9190808060200260200160405190810160405280939291908181526020018383602002808284376000920191909152509295949360208101935035915050600160201b81111561047357600080fd5b82018360208201111561048557600080fd5b803590602001918460208302840111600160201b831117156104a657600080fd5b919080806020026020016040519081016040528093929190818152602001838360200280828437600092019190915250929550610e1f945050505050565b61050a600480360360208110156104fa57600080fd5b50356001600160a01b0316610eea565b604080519115158252519081900360200190f35b61021d6004803603602081101561053457600080fd5b5035610efe565b61050a610f0b565b61025f6004803603604081101561055957600080fd5b506001600160a01b038135169060200135610f14565b61057761102c565b60408051918252519081900360200190f35b61025f611164565b61050a600480360360208110156105a757600080fd5b50356001600160a01b0316611281565b61021d611296565b61021d611316565b61021d611325565b610577611334565b61025f600480360360208110156105ed57600080fd5b50356001600160a01b031661133a565b61025f6004803603602081101561061357600080fd5b50356001600160a01b0316611470565b61021d6117c2565b61050a6004803603602081101561064157600080fd5b50356001600160a01b03166117d1565b61025f600480360360c081101561066757600080fd5b6001600160a01b038235811692602081013590911691810190606081016040820135600160201b81111561069a57600080fd5b8201836020820111156106ac57600080fd5b803590602001918460208302840111600160201b831117156106cd57600080fd5b9190808060200260200160405190810160405280939291908181526020018383602002808284376000920191909152509295949360208101935035915050600160201b81111561071c57600080fd5b82018360208201111561072e57600080fd5b803590602001918460208302840111600160201b8311171561074f57600080fd5b9190808060200260200160405190810160405280939291908181526020018383602002808284376000920191909152509295949360208101935035915050600160201b81111561079e57600080fd5b8201836020820111156107b057600080fd5b803590602001918460208302840111600160201b831117156107d157600080fd5b9190808060200260200160405190810160405280939291908181526020018383602002808284376000920191909152509295949360208101935035915050600160201b81111561082057600080fd5b82018360208201111561083257600080fd5b803590602001918460208302840111600160201b8311171561085357600080fd5b9190808060200260200160405190810160405280939291908181526020018383602002808284376000920191909152509295506117e6945050505050565b61025f600480360360208110156108a757600080fd5b50356001600160a01b0316611b75565b61021d600480360360208110156108cd57600080fd5b5035611f1d565b61025f600480360360408110156108ea57600080fd5b506001600160a01b038135169060200135611f2a565b61057761207b565b61025f612081565b61050a6122c0565b6105776004803603602081101561092e57600080fd5b503561236e565b6105776004803603602081101561094b57600080fd5b503561238c565b61025f612399565b61025f6004803603602081101561097057600080fd5b503561245e565b61021d6127d9565b61021d612828565b6005818154811061099457fe5b6000918252602090912001546001600160a01b0316905081565b6002546001600160a01b03163314806109df57506109ca6127d9565b6001600160a01b0316336001600160a01b0316145b80610a0257506109ed611296565b6001600160a01b0316336001600160a01b0316145b610a3d5760405162461bcd60e51b815260040180806020018281038252603a8152602001806134b3603a913960400191505060405180910390fd5b806001600160a01b0316634fa5d8546040518163ffffffff1660e01b8152600401600060405180830381600087803b158015610a7857600080fd5b505af1158015610a8c573d6000803e3d6000fd5b5050505050565b6002546001600160a01b0316331480610ac45750610aaf6127d9565b6001600160a01b0316336001600160a01b0316145b80610ae75750610ad2611296565b6001600160a01b0316336001600160a01b0316145b610b225760405162461bcd60e51b815260040180806020018281038252603a8152602001806134b3603a913960400191505060405180910390fd5b6001600160a01b03821660009081526003602052604090205460ff1615610b7a5760405162461bcd60e51b81526004018080602001828103825260238152602001806134ed6023913960400191505060405180910390fd5b610b946001600160a01b038316848363ffffffff61283716565b505050565b600054604080516337b87c3960e21b815233600482015290516001600160a01b039092169163dee1f0e491602480820192602092909190829003018186803b158015610be457600080fd5b505afa158015610bf8573d6000803e3d6000fd5b505050506040513d6020811015610c0e57600080fd5b5051610c52576040805162461bcd60e51b815260206004820152600e60248201526d4e6f7420676f7665726e616e636560901b604482015290519081900360640190fd5b6001600160a01b038116610ca7576040805162461bcd60e51b815260206004820152601760248201527605f73747261746567792063616e6e6f742062652030783604c1b604482015290519081900360640190fd5b60015460408051636f307dc360e01b815290516001600160a01b0392831692841691636f307dc3916004808301926020929190829003018186803b158015610cee57600080fd5b505afa158015610d02573d6000803e3d6000fd5b505050506040513d6020811015610d1857600080fd5b50516001600160a01b031614610d5f5760405162461bcd60e51b815260040180806020018281038252603581526020018061347e6035913960400191505060405180910390fd5b306001600160a01b0316816001600160a01b031663fbfa77cf6040518163ffffffff1660e01b815260040160206040518083038186803b158015610da257600080fd5b505afa158015610db6573d6000803e3d6000fd5b505050506040513d6020811015610dcc57600080fd5b50516001600160a01b031614610e135760405162461bcd60e51b815260040180806020018281038252602d815260200180613554602d913960400191505060405180910390fd5b610e1c81612889565b50565b600054604080516337b87c3960e21b815233600482015290516001600160a01b039092169163dee1f0e491602480820192602092909190829003018186803b158015610e6a57600080fd5b505afa158015610e7e573d6000803e3d6000fd5b505050506040513d6020811015610e9457600080fd5b5051610ed8576040805162461bcd60e51b815260206004820152600e60248201526d4e6f7420676f7665726e616e636560901b604482015290519081900360640190fd5b610ee4848484846128ab565b50505050565b600a546001600160a01b0390811691161490565b6009818154811061099457fe5b600c5460ff1681565b6002546001600160a01b0316331480610f455750610f306127d9565b6001600160a01b0316336001600160a01b0316145b80610f685750610f53611296565b6001600160a01b0316336001600160a01b0316145b610fa35760405162461bcd60e51b815260040180806020018281038252603a8152602001806134b3603a913960400191505060405180910390fd5b6001600160a01b03821660009081526004602052604090205460ff1661100b576040805162461bcd60e51b81526020600482015260186024820152771cdd1c985d1959de481b9bdd081dda1a5d195b1a5cdd195960421b604482015290519081900360640190fd5b600154611028906001600160a01b0316838363ffffffff61283716565b5050565b600080805b6005548110156110d7576110cd6005828154811061104b57fe5b60009182526020918290200154604080516322e80f2560e11b815290516001600160a01b03909216926345d01e4a92600480840193829003018186803b15801561109457600080fd5b505afa1580156110a8573d6000803e3d6000fd5b505050506040513d60208110156110be57600080fd5b5051839063ffffffff612bf216565b9150600101611031565b50600154604080516370a0823160e01b8152306004820152905161115d926001600160a01b0316916370a08231916024808301926020929190829003018186803b15801561112457600080fd5b505afa158015611138573d6000803e3d6000fd5b505050506040513d602081101561114e57600080fd5b5051829063ffffffff612bf216565b9150505b90565b6002546001600160a01b031633148061119557506111806127d9565b6001600160a01b0316336001600160a01b0316145b806111b857506111a3611296565b6001600160a01b0316336001600160a01b0316145b6111f35760405162461bcd60e51b815260040180806020018281038252603a8152602001806134b3603a913960400191505060405180910390fd5b6111fb612c55565b60005b600654811015610e1c576006818154811061121557fe5b6000918252602082200154604080516313e9761560e21b815290516001600160a01b0390921692634fa5d8549260048084019382900301818387803b15801561125d57600080fd5b505af1158015611271573d6000803e3d6000fd5b5050600190920191506111fe9050565b60036020526000908152604090205460ff1681565b60008060009054906101000a90046001600160a01b03166001600160a01b0316635aa6e6756040518163ffffffff1660e01b815260040160206040518083038186803b1580156112e557600080fd5b505afa1580156112f9573d6000803e3d6000fd5b505050506040513d602081101561130f57600080fd5b5051905090565b600a546001600160a01b031681565b6001546001600160a01b031681565b60055490565b600054604080516337b87c3960e21b815233600482015290516001600160a01b039092169163dee1f0e491602480820192602092909190829003018186803b15801561138557600080fd5b505afa158015611399573d6000803e3d6000fd5b505050506040513d60208110156113af57600080fd5b50516113f3576040805162461bcd60e51b815260206004820152600e60248201526d4e6f7420676f7665726e616e636560901b604482015290519081900360640190fd5b6001600160a01b03811661144e576040805162461bcd60e51b815260206004820152601e60248201527f6e65772073746f726167652073686f756c646e277420626520656d7074790000604482015290519081900360640190fd5b600080546001600160a01b0319166001600160a01b0392909216919091179055565b600054604080516337b87c3960e21b815233600482015290516001600160a01b039092169163dee1f0e491602480820192602092909190829003018186803b1580156114bb57600080fd5b505afa1580156114cf573d6000803e3d6000fd5b505050506040513d60208110156114e557600080fd5b5051611529576040805162461bcd60e51b815260206004820152600e60248201526d4e6f7420676f7665726e616e636560901b604482015290519081900360640190fd5b6001600160a01b03811661157e576040805162461bcd60e51b815260206004820152601760248201527605f73747261746567792063616e6e6f742062652030783604c1b604482015290519081900360640190fd5b6001600160a01b03811660009081526004602052604090205460ff166115eb576040805162461bcd60e51b815260206004820152601c60248201527f5f7374726174656779206973206e6f742077686974656c697374656400000000604482015290519081900360640190fd5b6000819050806001600160a01b03166345d01e4a6040518163ffffffff1660e01b815260040160206040518083038186803b15801561162957600080fd5b505afa15801561163d573d6000803e3d6000fd5b505050506040513d602081101561165357600080fd5b5051156116915760405162461bcd60e51b81526004018080602001828103825260268152602001806135816026913960400191505060405180910390fd5b604080516001600160a01b038416815290517f94d1cdb70b84d6f46cae2882999f0674f651b67a8450c68bbf277d15c2c2a6669181900360200190a16001600160a01b0382166000908152600460205260408120805460ff191690555b600554811015610b9457826001600160a01b03166005828154811061170f57fe5b6000918252602090912001546001600160a01b031614156117ba576005546000190181101561179f5760058054600019810190811061174a57fe5b600091825260209091200154600580546001600160a01b03909216918390811061177057fe5b9060005260206000200160006101000a8154816001600160a01b0302191690836001600160a01b031602179055505b60058054906117b2906000198301613417565b505050610e1c565b6001016116ee565b6000546001600160a01b031681565b60046020526000908152604090205460ff1681565b600054604080516337b87c3960e21b815233600482015290516001600160a01b039092169163dee1f0e491602480820192602092909190829003018186803b15801561183157600080fd5b505afa158015611845573d6000803e3d6000fd5b505050506040513d602081101561185b57600080fd5b505161189f576040805162461bcd60e51b815260206004820152600e60248201526d4e6f7420676f7665726e616e636560901b604482015290519081900360640190fd5b600c5460ff16156118f7576040805162461bcd60e51b815260206004820152601f60248201527f73706c697474657220697320616c726561647920696e697469616c697a656400604482015290519081900360640190fd5b600c805460ff191660011790556001600160a01b03861661195f576040805162461bcd60e51b815260206004820152601b60248201527f5f756e6465726c79696e672063616e6e6f7420626520656d7074790000000000604482015290519081900360640190fd5b6001600160a01b0385166119b3576040805162461bcd60e51b81526020600482015260166024820152755f7661756c742063616e6e6f7420626520656d70747960501b604482015290519081900360640190fd5b856001600160a01b0316856001600160a01b0316636f307dc36040518163ffffffff1660e01b815260040160206040518083038186803b1580156119f657600080fd5b505afa158015611a0a573d6000803e3d6000fd5b505050506040513d6020811015611a2057600080fd5b50516001600160a01b031614611a75576040805162461bcd60e51b81526020600482015260156024820152740eadcc8cae4d8f2d2dcce40daeae6e840dac2e8c6d605b1b604482015290519081900360640190fd5b6001600160a01b038087166000818152600360205260408120805460ff1916600190811790915580546001600160a01b0319908116909317905560028054938916939092169290921790555b8451811015611b60576005858281518110611ad857fe5b60209081029190910181015182546001808201855560009485529284200180546001600160a01b0319166001600160a01b0390921691909117905586519091600491889085908110611b2657fe5b6020908102919091018101516001600160a01b03168252810191909152604001600020805460ff1916911515919091179055600101611ac1565b50611b6d848484846128ab565b505050505050565b600054604080516337b87c3960e21b815233600482015290516001600160a01b039092169163dee1f0e491602480820192602092909190829003018186803b158015611bc057600080fd5b505afa158015611bd4573d6000803e3d6000fd5b505050506040513d6020811015611bea57600080fd5b5051611c2e576040805162461bcd60e51b815260206004820152600e60248201526d4e6f7420676f7665726e616e636560901b604482015290519081900360640190fd5b611c3781610eea565b611c7e576040805162461bcd60e51b81526020600482015260136024820152725468652073747261746567792065786973747360681b604482015290519081900360640190fd5b6001600160a01b038116611cd3576040805162461bcd60e51b815260206004820152601760248201527605f73747261746567792063616e6e6f742062652030783604c1b604482015290519081900360640190fd5b60015460408051636f307dc360e01b815290516001600160a01b0392831692841691636f307dc3916004808301926020929190829003018186803b158015611d1a57600080fd5b505afa158015611d2e573d6000803e3d6000fd5b505050506040513d6020811015611d4457600080fd5b50516001600160a01b031614611d8b5760405162461bcd60e51b815260040180806020018281038252603581526020018061347e6035913960400191505060405180910390fd5b306001600160a01b0316816001600160a01b031663fbfa77cf6040518163ffffffff1660e01b815260040160206040518083038186803b158015611dce57600080fd5b505afa158015611de2573d6000803e3d6000fd5b505050506040513d6020811015611df857600080fd5b50516001600160a01b031614611e3f5760405162461bcd60e51b815260040180806020018281038252602d815260200180613554602d913960400191505060405180910390fd5b6005805460018082019092557f036b6384b5eca791c62761152d0c79bb0604c104a5fb6f4eb0703f3154bb3db00180546001600160a01b0319166001600160a01b038416908117909155600081815260046020908152604091829020805460ff19169094179093558051918252517f6b583e2e3ad2e182671d77905fee57b1ffd8ce2aa5c0b652ca029317919751a4929181900390910190a1600154611ef6906001600160a01b031682600063ffffffff612f2116565b600154611f15906001600160a01b03168260001963ffffffff612f2116565b610e1c612399565b6006818154811061099457fe5b6002546001600160a01b0316331480611f5b5750611f466127d9565b6001600160a01b0316336001600160a01b0316145b80611f7e5750611f69611296565b6001600160a01b0316336001600160a01b0316145b611fb95760405162461bcd60e51b815260040180806020018281038252603a8152602001806134b3603a913960400191505060405180910390fd5b6001600160a01b03821660009081526004602052604090205460ff16612021576040805162461bcd60e51b81526020600482015260186024820152771cdd1c985d1959de481b9bdd081dda1a5d195b1a5cdd195960421b604482015290519081900360640190fd5b816001600160a01b031663ce8c42e8826040518263ffffffff1660e01b815260040180828152602001915050600060405180830381600087803b15801561206757600080fd5b505af1158015611b6d573d6000803e3d6000fd5b600b5481565b6002546001600160a01b03163314806120b2575061209d6127d9565b6001600160a01b0316336001600160a01b0316145b806120d557506120c0611296565b6001600160a01b0316336001600160a01b0316145b6121105760405162461bcd60e51b815260040180806020018281038252603a8152602001806134b3603a913960400191505060405180910390fd5b60005b60095481101561221d5760006009828154811061212c57fe5b60009182526020918290200154604080516322e80f2560e11b815290516001600160a01b03909216926345d01e4a92600480840193829003018186803b15801561217557600080fd5b505afa158015612189573d6000803e3d6000fd5b505050506040513d602081101561219f57600080fd5b5051111561221557600981815481106121b457fe5b60009182526020822001546040805163bfd131f160e01b815290516001600160a01b039092169263bfd131f19260048084019382900301818387803b1580156121fc57600080fd5b505af1158015612210573d6000803e3d6000fd5b505050505b600101612113565b50600154604080516370a0823160e01b815230600482015290516000926001600160a01b0316916370a08231916024808301926020929190829003018186803b15801561226957600080fd5b505afa15801561227d573d6000803e3d6000fd5b505050506040513d602081101561229357600080fd5b505190508015610e1c57600254600154610e1c916001600160a01b0391821691168363ffffffff61283716565b6000805b60065481101561236657600681815481106122db57fe5b600091825260209182902001546040805163c2a2a07b60e01b815290516001600160a01b039092169263c2a2a07b92600480840193829003018186803b15801561232457600080fd5b505afa158015612338573d6000803e3d6000fd5b505050506040513d602081101561234e57600080fd5b505161235e576000915050611161565b6001016122c4565b506001905090565b6007818154811061237b57fe5b600091825260209091200154905081565b6008818154811061237b57fe5b600054604080516337b87c3960e21b815233600482015290516001600160a01b039092169163dee1f0e491602480820192602092909190829003018186803b1580156123e457600080fd5b505afa1580156123f8573d6000803e3d6000fd5b505050506040513d602081101561240e57600080fd5b5051612452576040805162461bcd60e51b815260206004820152600e60248201526d4e6f7420676f7665726e616e636560901b604482015290519081900360640190fd5b61245c6000612889565b565b6002546001600160a01b031633148061248f575061247a6127d9565b6001600160a01b0316336001600160a01b0316145b806124b2575061249d611296565b6001600160a01b0316336001600160a01b0316145b6124ed5760405162461bcd60e51b815260040180806020018281038252603a8152602001806134b3603a913960400191505060405180910390fd5b60008111612542576040805162461bcd60e51b815260206004820152601d60248201527f616d6f756e74206d7573742062652067726561746572207468616e2030000000604482015290519081900360640190fd5b60005b6009548110156126fa57600154604080516370a0823160e01b815230600482015290516000926001600160a01b0316916370a08231916024808301926020929190829003018186803b15801561259a57600080fd5b505afa1580156125ae573d6000803e3d6000fd5b505050506040513d60208110156125c457600080fd5b505190508281106125d557506126fa565b6000600983815481106125e457fe5b60009182526020918290200154604080516322e80f2560e11b815290516001600160a01b03909216926345d01e4a92600480840193829003018186803b15801561262d57600080fd5b505afa158015612641573d6000803e3d6000fd5b505050506040513d602081101561265757600080fd5b5051905080156126f0576009838154811061266e57fe5b6000918252602090912001546001600160a01b031663ce8c42e86126a161269b878663ffffffff61303416565b84613076565b6040518263ffffffff1660e01b815260040180828152602001915050600060405180830381600087803b1580156126d757600080fd5b505af11580156126eb573d6000803e3d6000fd5b505050505b5050600101612545565b50600154604080516370a0823160e01b8152306004820152905183926001600160a01b0316916370a08231916024808301926020929190829003018186803b15801561274557600080fd5b505afa158015612759573d6000803e3d6000fd5b505050506040513d602081101561276f57600080fd5b505110156127ae5760405162461bcd60e51b81526004018080602001828103825260298152602001806134556029913960400191505060405180910390fd5b6002546001546127d1916001600160a01b0391821691168363ffffffff61283716565b610e1c612c55565b60008060009054906101000a90046001600160a01b03166001600160a01b031663f77c47916040518163ffffffff1660e01b815260040160206040518083038186803b1580156112e557600080fd5b6002546001600160a01b031681565b604080516001600160a01b038416602482015260448082018490528251808303909101815260649091019091526020810180516001600160e01b031663a9059cbb60e01b179052610b9490849061308c565b600a80546001600160a01b0319166001600160a01b0392909216919091179055565b8251845114612901576040805162461bcd60e51b815260206004820181905260248201527f696e766573746d656e7420726174696f73206c656e67746820696e76616c6964604482015290519081900360640190fd5b815184511461294d576040805162461bcd60e51b815260206004820152601360248201527218d85c1cc81b195b99dd1a081a5b9d985b1a59606a1b604482015290519081900360640190fd5b8051600554146129a4576040805162461bcd60e51b815260206004820152601e60248201527f7769746864726177616c4f72646572206c656e67746820696e76616c69640000604482015290519081900360640190fd5b60006129b1600682613417565b5060006129bf600882613417565b5060006129cd600782613417565b5060005b8451811015612b1257600460008683815181106129ea57fe5b6020908102919091018101516001600160a01b031682528101919091526040016000205460ff16612a5d576040805162461bcd60e51b81526020600482015260186024820152771cdd1c985d1959de481b9bdd081dda1a5d195b1a5cdd195960421b604482015290519081900360640190fd5b6006858281518110612a6b57fe5b60209081029190910181015182546001810184556000938452919092200180546001600160a01b0319166001600160a01b039092169190911790558351600890859083908110612ab757fe5b602090810291909101810151825460018101845560009384529190922001558251600790849083908110612ae757fe5b60209081029190910181015182546001818101855560009485529290932090920191909155016129d1565b506000612b20600982613417565b5060005b8151811015610a8c5760046000838381518110612b3d57fe5b6020908102919091018101516001600160a01b031682528101919091526040016000205460ff16612b9f5760405162461bcd60e51b81526004018080602001828103825260238152602001806135106023913960400191505060405180910390fd5b6009828281518110612bad57fe5b60209081029190910181015182546001808201855560009485529290932090920180546001600160a01b0319166001600160a01b039093169290921790915501612b24565b600082820183811015612c4c576040805162461bcd60e51b815260206004820152601b60248201527f536166654d6174683a206164646974696f6e206f766572666c6f770000000000604482015290519081900360640190fd5b90505b92915050565b600154604080516370a0823160e01b815230600482015290516000926001600160a01b0316916370a08231916024808301926020929190829003018186803b158015612ca057600080fd5b505afa158015612cb4573d6000803e3d6000fd5b505050506040513d6020811015612cca57600080fd5b5051905060005b600654811015611028576000612d19600b54612d0d60088581548110612cf357fe5b90600052602060002001548661324490919063ffffffff16565b9063ffffffff61329d16565b600154604080516370a0823160e01b81523060048201529051929350600092612da19285926001600160a01b03909116916370a0823191602480820192602092909190829003018186803b158015612d7057600080fd5b505afa158015612d84573d6000803e3d6000fd5b505050506040513d6020811015612d9a57600080fd5b5051613076565b90508015612f1757600060078481548110612db857fe5b90600052602060002001541115612edf57600060068481548110612dd857fe5b60009182526020918290200154604080516322e80f2560e11b815290516001600160a01b03909216926345d01e4a92600480840193829003018186803b158015612e2157600080fd5b505afa158015612e35573d6000803e3d6000fd5b505050506040513d6020811015612e4b57600080fd5b5051600780549192509085908110612e5f57fe5b9060005260206000200154811015612ed95760008160078681548110612e8157fe5b9060005260206000200154039050612ed760068681548110612e9f57fe5b6000918252602090912001546001600160a01b0316612ebe8386613076565b6001546001600160a01b0316919063ffffffff61283716565b505b50612f17565b612f1760068481548110612eef57fe5b6000918252602090912001546001546001600160a01b0390811691168363ffffffff61283716565b5050600101612cd1565b801580612fa7575060408051636eb1769f60e11b81523060048201526001600160a01b03848116602483015291519185169163dd62ed3e91604480820192602092909190829003018186803b158015612f7957600080fd5b505afa158015612f8d573d6000803e3d6000fd5b505050506040513d6020811015612fa357600080fd5b5051155b612fe25760405162461bcd60e51b81526004018080602001828103825260368152602001806135d16036913960400191505060405180910390fd5b604080516001600160a01b038416602482015260448082018490528251808303909101815260649091019091526020810180516001600160e01b031663095ea7b360e01b179052610b9490849061308c565b6000612c4c83836040518060400160405280601e81526020017f536166654d6174683a207375627472616374696f6e206f766572666c6f7700008152506132df565b60008183106130855781612c4c565b5090919050565b61309e826001600160a01b0316613376565b6130ef576040805162461bcd60e51b815260206004820152601f60248201527f5361666545524332303a2063616c6c20746f206e6f6e2d636f6e747261637400604482015290519081900360640190fd5b60006060836001600160a01b0316836040518082805190602001908083835b6020831061312d5780518252601f19909201916020918201910161310e565b6001836020036101000a0380198251168184511680821785525050505050509050019150506000604051808303816000865af19150503d806000811461318f576040519150601f19603f3d011682016040523d82523d6000602084013e613194565b606091505b5091509150816131eb576040805162461bcd60e51b815260206004820181905260248201527f5361666545524332303a206c6f772d6c6576656c2063616c6c206661696c6564604482015290519081900360640190fd5b805115610ee45780806020019051602081101561320757600080fd5b5051610ee45760405162461bcd60e51b815260040180806020018281038252602a8152602001806135a7602a913960400191505060405180910390fd5b60008261325357506000612c4f565b8282028284828161326057fe5b0414612c4c5760405162461bcd60e51b81526004018080602001828103825260218152602001806135336021913960400191505060405180910390fd5b6000612c4c83836040518060400160405280601a81526020017f536166654d6174683a206469766973696f6e206279207a65726f0000000000008152506133b2565b6000818484111561336e5760405162461bcd60e51b81526004018080602001828103825283818151815260200191508051906020019080838360005b8381101561333357818101518382015260200161331b565b50505050905090810190601f1680156133605780820380516001836020036101000a031916815260200191505b509250505060405180910390fd5b505050900390565b6000813f7fc5d2460186f7233c927e7db2dcc703c0e500b653ca82273b7bfad8045d85a4708181148015906133aa57508115155b949350505050565b600081836134015760405162461bcd60e51b815260206004820181815283516024840152835190928392604490910191908501908083836000831561333357818101518382015260200161331b565b50600083858161340d57fe5b0495945050505050565b815481835581811115610b9457600083815260209020610b9491810190830161116191905b80821115613450576000815560010161343c565b509056fe73706c697474657220646f6573206e6f7420686176652073756666696369656e742062616c616e6365556e6465726c79696e67206f662073706c6974746572206d757374206d6174636820537472617465677920756e6465726c79696e675468652073656e6465722068617320746f2062652074686520636f6e74726f6c6c6572206f72207661756c74206f7220676f7665726e616e6365746f6b656e20697320646566696e6564206173206e6f742073616c7661676561626c657769746864726177616c207374726174656779206e6f742077686974656c6973746564536166654d6174683a206d756c7469706c69636174696f6e206f766572666c6f7754686520737472617465677920646f6573206e6f742062656c6f6e6720746f20746869732073706c697474657263616e206f6e6c7920756e77686974656c69737420616e20656d7074792073747261746567795361666545524332303a204552433230206f7065726174696f6e20646964206e6f7420737563636565645361666545524332303a20617070726f76652066726f6d206e6f6e2d7a65726f20746f206e6f6e2d7a65726f20616c6c6f77616e6365a265627a7a723158201308bca14cf58241d77c6dcec63f9ffbbb410a31d34c85ac229d9774d3ebfe5964736f6c63430005100032",
  "source": "pragma solidity 0.5.16;\n\nimport \"@openzeppelin/contracts/token/ERC20/IERC20.sol\";\nimport \"@openzeppelin/contracts/utils/Address.sol\";\nimport \"@openzeppelin/contracts-ethereum-package/contracts/math/Math.sol\";\nimport \"@openzeppelin/contracts/math/SafeMath.sol\";\nimport \"@openzeppelin/contracts/token/ERC20/SafeERC20.sol\";\nimport \"../hardworkInterface/IStrategy.sol\";\nimport \"../Controllable.sol\";\nimport \"../hardworkInterface/IMigrator.sol\";\nimport \"../hardworkInterface/IVault.sol\";\n\n\ncontract SplitterStrategy is IStrategy, Controllable {\n  using SafeERC20 for IERC20;\n  using Address for address;\n  using SafeMath for uint256;\n\n  IERC20 public underlying;\n  address public vault;\n\n  mapping(address => bool) public unsalvagableTokens;\n\n  mapping(address => bool) public isStrategyWhitelisted;\n  address[] public whitelistedStrategies;\n\n  address[] public activeStrategies;\n  uint256[] public caps;\n  uint256[] public investmentRatioNumerators;\n  address[] public withdrawalOrder;\n\n  address public futureStrategy;\n  //uint256 public strategyWhitelistTime;\n\n  uint256 public investmentRatioDenominator = 10000;\n  //uint256 public whitelistStrategyTimeLock = 12 hours;\n  bool public isInitialized = false;\n\n  event StrategyWhitelisted(\n    address strategy\n  );\n\n  event StrategyWhitelistAnnounced(\n    address strategy,\n    uint256 when\n  );\n\n  event StrategyUnwhitelisted(\n    address strategy\n  );\n\n  modifier restricted() {\n    require(msg.sender == vault || msg.sender == address(controller()) || msg.sender == address(governance()),\n      \"The sender has to be the controller or vault or governance\");\n    _;\n  }\n\n  constructor(address _storage) public Controllable(_storage) { }\n\n  function initSplitter(\n    address _underlying,\n    address _vault,\n    address[] memory _strategies,\n    uint256[] memory _investmentRatioNumerators,\n    uint256[] memory _caps,\n    address[] memory _withdrawalOrder\n  ) public onlyGovernance {\n    require(!isInitialized, \"splitter is already initialized\");\n    isInitialized = true;\n    require(_underlying != address(0), \"_underlying cannot be empty\");\n    require(_vault != address(0), \"_vault cannot be empty\");\n\n    require(IVault(_vault).underlying() == _underlying, \"underlying must match\");\n\n    unsalvagableTokens[_underlying] = true;\n    underlying = IERC20(_underlying);\n    vault = _vault;\n\n    for (uint256 i = 0; i < _strategies.length; i++) {\n      whitelistedStrategies.push(_strategies[i]);\n      isStrategyWhitelisted[_strategies[i]] = true;\n    }\n\n    _configureStrategies(_strategies, _investmentRatioNumerators, _caps, _withdrawalOrder);\n  }\n\n  /*\n  * Instant configuration of the active strategies, caps, investment ratios,\n  * and withdrawal orders\n  */\n  function configureStrategies(\n    address[] memory _activeStrategies,\n    uint256[] memory _investmentRatioNumerators,\n    uint256[] memory _caps,\n    address[] memory _withdrawalOrder\n  ) public onlyGovernance {\n    _configureStrategies(\n      _activeStrategies,\n      _investmentRatioNumerators,\n      _caps,\n      _withdrawalOrder\n    );\n  }\n\n  function _configureStrategies(\n    address[] memory _activeStrategies,\n    uint256[] memory _investmentRatioNumerators,\n    uint256[] memory _caps,\n    address[] memory _withdrawalOrder\n  ) internal {\n    require(_activeStrategies.length == _investmentRatioNumerators.length, \"investment ratios length invalid\");\n    require(_activeStrategies.length == _caps.length, \"caps length invalid\");\n    require(whitelistedStrategies.length == _withdrawalOrder.length, \"withdrawalOrder length invalid\");\n    activeStrategies.length = 0;\n    investmentRatioNumerators.length = 0;\n    caps.length = 0;\n    for (uint256 i = 0; i < _activeStrategies.length; i++) {\n      require(isStrategyWhitelisted[_activeStrategies[i]], \"strategy not whitelisted\");\n      activeStrategies.push(_activeStrategies[i]);\n      investmentRatioNumerators.push(_investmentRatioNumerators[i]);\n      caps.push(_caps[i]);\n    }\n\n    withdrawalOrder.length = 0;\n    for (uint256 i = 0; i < _withdrawalOrder.length; i++) {\n      require(isStrategyWhitelisted[_withdrawalOrder[i]], \"withdrawal strategy not whitelisted\");\n      withdrawalOrder.push(_withdrawalOrder[i]);\n    }\n  }\n\n  function depositArbCheck() public view returns(bool) {\n    for (uint256 i = 0; i < activeStrategies.length; i++) {\n      if (!IStrategy(activeStrategies[i]).depositArbCheck()) {\n        return false;\n      }\n    }\n    return true;\n  }\n\n  /*\n  * Returns the total amount.\n  * Iterates over all whitelisted strateges, not just active\n  */\n  function investedUnderlyingBalance() public view returns (uint256) {\n    uint256 result = 0;\n    for (uint256 i = 0; i < whitelistedStrategies.length; i++) {\n      result = result.add(IStrategy(whitelistedStrategies[i]).investedUnderlyingBalance());\n    }\n    return result.add(IERC20(underlying).balanceOf(address(this)));\n  }\n\n  /*\n  * Invests all tokens that were accumulated so far\n  */\n  function investAllUnderlying() internal {\n    uint256 splitterInitialBalance = IERC20(underlying).balanceOf(address(this));\n    for (uint256 i = 0; i < activeStrategies.length; i++) {\n      uint256 computedRatio = splitterInitialBalance.mul(investmentRatioNumerators[i]).div(investmentRatioDenominator);\n      uint256 toInvest = Math.min(computedRatio, IERC20(underlying).balanceOf(address(this)));\n\n      if (toInvest > 0) {\n        if (caps[i] > 0) { // there is a cap\n          uint256 strategyBalance = IStrategy(activeStrategies[i]).investedUnderlyingBalance();\n          if (strategyBalance < caps[i]) {\n            uint256 maxRemaining = caps[i] - strategyBalance;\n            IERC20(underlying).safeTransfer(activeStrategies[i], Math.min(maxRemaining, toInvest));\n          }\n        } else {  // no cap\n          IERC20(underlying).safeTransfer(activeStrategies[i], toInvest);\n        }\n      }\n    }\n    // the rest of the funds would stay in the strategy\n  }\n\n  /**\n  * Withdraws everything from a specific strategy\n  */\n  function withdrawFromStrategy(address strategy, uint256 amount) external restricted {\n    require(isStrategyWhitelisted[strategy], \"strategy not whitelisted\");\n    IStrategy(strategy).withdrawToVault(amount);\n  }\n\n  /**\n  * Invests into a specific strategy\n  */\n  function investIntoStrategy(address strategy, uint256 amount) external restricted {\n    require(isStrategyWhitelisted[strategy], \"strategy not whitelisted\");\n    IERC20(underlying).safeTransfer(strategy, amount);\n  }\n\n  /**\n  * Withdraws everything from all the vaults\n  */\n  function withdrawAllToVault() external restricted {\n    for (uint256 i = 0; i < withdrawalOrder.length; i++) {\n      if (IStrategy(withdrawalOrder[i]).investedUnderlyingBalance() > 0) {\n        IStrategy(withdrawalOrder[i]).withdrawAllToVault();\n      }\n    }\n    uint256 actualBalance = IERC20(underlying).balanceOf(address(this));\n    if (actualBalance > 0) {\n      IERC20(underlying).safeTransfer(vault, actualBalance);\n    }\n  }\n\n  /*\n  * Cashes some amount out and withdraws to the vault\n  */\n  function withdrawToVault(uint256 amount) external restricted {\n    require(amount > 0, \"amount must be greater than 0\");\n    for (uint256 i = 0; i < withdrawalOrder.length; i++) {\n      uint256 splitterBalance = IERC20(underlying).balanceOf(address(this));\n      if (splitterBalance >= amount) {\n        break;\n      }\n      uint256 strategyBalance = IStrategy(withdrawalOrder[i]).investedUnderlyingBalance();\n      if (strategyBalance > 0) {\n        IStrategy(withdrawalOrder[i]).withdrawToVault(\n          Math.min(amount.sub(splitterBalance), strategyBalance)\n        );\n      }\n    }\n    // we intend to fail if we don't have enough balance\n    require(IERC20(underlying).balanceOf(address(this)) >= amount, \"splitter does not have sufficient balance\");\n    IERC20(underlying).safeTransfer(vault, amount);\n    // investing back the rest if anything left\n    investAllUnderlying();\n  }\n\n  /**\n  * Calls doHardWork on all strategies\n  */\n  function doHardWork() public restricted {\n    investAllUnderlying();\n    for (uint256 i = 0; i < activeStrategies.length; i++) {\n      IStrategy(activeStrategies[i]).doHardWork();\n    }\n  }\n\n  /**\n  * Calls doHardWork on a specific strategy\n  */\n  function doHardWork(address _strategy) public restricted {\n    IStrategy(_strategy).doHardWork();\n  }\n\n  /*function _setStrategyWhitelistTime(uint256 _strategyWhitelistTime) internal {\n    strategyWhitelistTime = _strategyWhitelistTime;\n  }*/\n\n  function _setFutureStrategy(address _futureStrategy) internal {\n    futureStrategy = _futureStrategy;\n  }\n\n  function whitelistedStrategyCount() public view returns (uint256) {\n    return whitelistedStrategies.length;\n  }\n\n  function canWhitelistStrategy(address _strategy) public view returns (bool) {\n    return (_strategy == futureStrategy);\n      //&& block.timestamp > strategyWhitelistTime\n      //&& strategyWhitelistTime > 0); // or the timelock has passed\n  }\n\n  /**\n  * Indicates that a strategy would be added to the splitter\n  */\n  function announceStrategyWhitelist(address _strategy) public onlyGovernance {\n    require(_strategy != address(0), \"_strategy cannot be 0x0\");\n    require(IStrategy(_strategy).underlying() == address(underlying), \"Underlying of splitter must match Strategy underlying\");\n    require(IStrategy(_strategy).vault() == address(this), \"The strategy does not belong to this splitter\");\n\n    // records a new timestamp\n    //uint256 when = block.timestamp.add(whitelistStrategyTimeLock);\n    //_setStrategyWhitelistTime(when);\n    _setFutureStrategy(_strategy);\n    //emit StrategyWhitelistAnnounced(_strategy, when);\n  }\n\n  /**\n  * Finalizes (or cancels) the strategy update by resetting the data\n  */\n  function finalizeStrategyWhitelist() public onlyGovernance {\n    //_setStrategyWhitelistTime(0);\n    _setFutureStrategy(address(0));\n  }\n\n  /**\n  * Removes a given strategy from the whitelist\n  * It is only allowed in case its underlying balance is 0\n  */\n  function unwhitelistStrategy(address _strategy) public onlyGovernance {\n    require(_strategy != address(0), \"_strategy cannot be 0x0\");\n    require(isStrategyWhitelisted[_strategy], \"_strategy is not whitelisted\");\n\n    IStrategy strategy = IStrategy(_strategy);\n    require(strategy.investedUnderlyingBalance() == 0, \"can only unwhitelist an empty strategy\");\n\n    emit StrategyUnwhitelisted(_strategy);\n\n    isStrategyWhitelisted[_strategy] = false;\n    for (uint256 i = 0; i < whitelistedStrategies.length; i++) {\n      if (whitelistedStrategies[i] == _strategy) {\n        if (i < whitelistedStrategies.length - 1) {\n          whitelistedStrategies[i] = whitelistedStrategies[whitelistedStrategies.length - 1];\n        }\n        whitelistedStrategies.length--;\n        return;\n      }\n    }\n  }\n\n  /**\n  * Adds a given strategy into the whitelist\n  * Possible only after the timelock expired\n  */\n  function whitelistStrategy(address _strategy) public onlyGovernance {\n    require(canWhitelistStrategy(_strategy),\n      \"The strategy exists\");\n\n    require(_strategy != address(0), \"_strategy cannot be 0x0\");\n    require(IStrategy(_strategy).underlying() == address(underlying), \"Underlying of splitter must match Strategy underlying\");\n    require(IStrategy(_strategy).vault() == address(this), \"The strategy does not belong to this splitter\");\n\n    whitelistedStrategies.push(_strategy);\n    isStrategyWhitelisted[_strategy] = true;\n    emit StrategyWhitelisted(_strategy);\n    IERC20(underlying).safeApprove(_strategy, 0);\n    IERC20(underlying).safeApprove(_strategy, uint256(~0));\n    finalizeStrategyWhitelist();\n  }\n\n  // should only be called by controller\n  function salvage(address destination, address token, uint256 amount) external restricted {\n    require(!unsalvagableTokens[token], \"token is defined as not salvageable\");\n    IERC20(token).safeTransfer(destination, amount);\n  }\n}\n",
  "sourcePath": "/home/madhav/Vaults/contracts/strategies/SplitterStrategy.sol",
  "compiler": {
    "name": "solc",
    "version": "0.5.16+commit.9c3226ce.Emscripten.clang"
  },
  "schemaVersion": "3.2.5",
  "updatedAt": "2020-12-05T16:27:34.954Z",
  "devdoc": {
    "methods": {}
  },
  "userdoc": {
    "methods": {
      "announceStrategyWhitelist(address)": {
        "notice": "Indicates that a strategy would be added to the splitter"
      },
      "doHardWork()": {
        "notice": "Calls doHardWork on all strategies"
      },
      "doHardWork(address)": {
        "notice": "Calls doHardWork on a specific strategy"
      },
      "finalizeStrategyWhitelist()": {
        "notice": "Finalizes (or cancels) the strategy update by resetting the data"
      },
      "investIntoStrategy(address,uint256)": {
        "notice": "Invests into a specific strategy"
      },
      "unwhitelistStrategy(address)": {
        "notice": "Removes a given strategy from the whitelist It is only allowed in case its underlying balance is 0"
      },
      "whitelistStrategy(address)": {
        "notice": "Adds a given strategy into the whitelist Possible only after the timelock expired"
      },
      "withdrawAllToVault()": {
        "notice": "Withdraws everything from all the vaults"
      },
      "withdrawFromStrategy(address,uint256)": {
        "notice": "Withdraws everything from a specific strategy"
      }
    }
  }
}