{
  "contractName": "StableVaultMigrator",
  "abi": [
    {
      "inputs": [
        {
          "internalType": "address",
          "name": "_storage",
          "type": "address"
        }
      ],
      "payable": false,
      "stateMutability": "nonpayable",
      "type": "constructor"
    },
    {
      "constant": true,
      "inputs": [],
      "name": "controller",
      "outputs": [
        {
          "internalType": "address",
          "name": "",
          "type": "address"
        }
      ],
      "payable": false,
      "stateMutability": "view",
      "type": "function"
    },
    {
      "constant": true,
      "inputs": [],
      "name": "governance",
      "outputs": [
        {
          "internalType": "address",
          "name": "",
          "type": "address"
        }
      ],
      "payable": false,
      "stateMutability": "view",
      "type": "function"
    },
    {
      "constant": false,
      "inputs": [
        {
          "internalType": "address",
          "name": "_store",
          "type": "address"
        }
      ],
      "name": "setStorage",
      "outputs": [],
      "payable": false,
      "stateMutability": "nonpayable",
      "type": "function"
    },
    {
      "constant": true,
      "inputs": [],
      "name": "store",
      "outputs": [
        {
          "internalType": "contract Storage",
          "name": "",
          "type": "address"
        }
      ],
      "payable": false,
      "stateMutability": "view",
      "type": "function"
    },
    {
      "constant": false,
      "inputs": [
        {
          "internalType": "address",
          "name": "_oldVault",
          "type": "address"
        },
        {
          "internalType": "address",
          "name": "_newVault",
          "type": "address"
        },
        {
          "internalType": "address",
          "name": "_migratorStrategy",
          "type": "address"
        },
        {
          "internalType": "address",
          "name": "_newStrategy",
          "type": "address"
        },
        {
          "internalType": "address",
          "name": "_poolAddress",
          "type": "address"
        }
      ],
      "name": "migrateInOneTx",
      "outputs": [],
      "payable": false,
      "stateMutability": "nonpayable",
      "type": "function"
    }
  ],
  "bytecode": "0x608060405234801561001057600080fd5b5060405161125e38038061125e8339818101604052602081101561003357600080fd5b505180806001600160a01b038116610092576040805162461bcd60e51b815260206004820152601e60248201527f6e65772073746f726167652073686f756c646e277420626520656d7074790000604482015290519081900360640190fd5b600080546001600160a01b039092166001600160a01b0319909216919091179055505061119a806100c46000396000f3fe608060405234801561001057600080fd5b50600436106100575760003560e01c80635aa6e6751461005c5780635fe71f67146100805780639137c1a7146100ca578063975057e7146100f0578063f77c4791146100f8575b600080fd5b610064610100565b604080516001600160a01b039092168252519081900360200190f35b6100c8600480360360a081101561009657600080fd5b506001600160a01b03813581169160208101358216916040820135811691606081013582169160809091013516610180565b005b6100c8600480360360208110156100e057600080fd5b50356001600160a01b0316610bdc565b610064610d12565b610064610d21565b60008060009054906101000a90046001600160a01b03166001600160a01b0316635aa6e6756040518163ffffffff1660e01b815260040160206040518083038186803b15801561014f57600080fd5b505afa158015610163573d6000803e3d6000fd5b505050506040513d602081101561017957600080fd5b5051905090565b600054604080516337b87c3960e21b815233600482015290516001600160a01b039092169163dee1f0e491602480820192602092909190829003018186803b1580156101cb57600080fd5b505afa1580156101df573d6000803e3d6000fd5b505050506040513d60208110156101f557600080fd5b5051610239576040805162461bcd60e51b815260206004820152600e60248201526d4e6f7420676f7665726e616e636560901b604482015290519081900360640190fd5b6001600160a01b038516610294576040805162461bcd60e51b815260206004820152601960248201527f5f6f6c645661756c742063616e6e6f7420626520656d70747900000000000000604482015290519081900360640190fd5b6001600160a01b0384166102ef576040805162461bcd60e51b815260206004820152601960248201527f5f6e65775661756c742063616e6e6f7420626520656d70747900000000000000604482015290519081900360640190fd5b6001600160a01b0383166103345760405162461bcd60e51b815260040180806020018281038252602181526020018061111b6021913960400191505060405180910390fd5b6001600160a01b03821661038f576040805162461bcd60e51b815260206004820152601c60248201527f5f6e657753747261746567792063616e6e6f7420626520656d70747900000000604482015290519081900360640190fd5b60008590506000816001600160a01b031663c2baf3566040518163ffffffff1660e01b815260040160206040518083038186803b1580156103cf57600080fd5b505afa1580156103e3573d6000803e3d6000fd5b505050506040513d60208110156103f957600080fd5b505160408051636f307dc360e01b815290519192508791869188916001600160a01b03851691636f307dc3916004808301926020929190829003018186803b15801561044457600080fd5b505afa158015610458573d6000803e3d6000fd5b505050506040513d602081101561046e57600080fd5b505160408051636f307dc360e01b815290516001600160a01b0392831692881691636f307dc3916004808301926020929190829003018186803b1580156104b457600080fd5b505afa1580156104c8573d6000803e3d6000fd5b505050506040513d60208110156104de57600080fd5b50516001600160a01b03161461053b576040805162461bcd60e51b815260206004820152601960248201527f756e6465726c79696e67206d757374206d617463682028312900000000000000604482015290519081900360640190fd5b806001600160a01b0316636f307dc36040518163ffffffff1660e01b815260040160206040518083038186803b15801561057457600080fd5b505afa158015610588573d6000803e3d6000fd5b505050506040513d602081101561059e57600080fd5b505160408051636f307dc360e01b815290516001600160a01b0392831692861691636f307dc3916004808301926020929190829003018186803b1580156105e457600080fd5b505afa1580156105f8573d6000803e3d6000fd5b505050506040513d602081101561060e57600080fd5b50516001600160a01b03161461066b576040805162461bcd60e51b815260206004820152601960248201527f756e6465726c79696e67206d757374206d617463682028322900000000000000604482015290519081900360640190fd5b816001600160a01b0316636f307dc36040518163ffffffff1660e01b815260040160206040518083038186803b1580156106a457600080fd5b505afa1580156106b8573d6000803e3d6000fd5b505050506040513d60208110156106ce57600080fd5b505160408051636f307dc360e01b815290516001600160a01b0392831692861691636f307dc3916004808301926020929190829003018186803b15801561071457600080fd5b505afa158015610728573d6000803e3d6000fd5b505050506040513d602081101561073e57600080fd5b50516001600160a01b03161461079b576040805162461bcd60e51b815260206004820152601960248201527f756e6465726c79696e67206d757374206d617463682028332900000000000000604482015290519081900360640190fd5b846001600160a01b03166333a100ca826040518263ffffffff1660e01b815260040180826001600160a01b03166001600160a01b03168152602001915050600060405180830381600087803b1580156107f357600080fd5b505af1158015610807573d6000803e3d6000fd5b505050506000856001600160a01b0316631bf8e7be6040518163ffffffff1660e01b815260040160206040518083038186803b15801561084657600080fd5b505afa15801561085a573d6000803e3d6000fd5b505050506040513d602081101561087057600080fd5b50516040805163a5b1a24d60e01b815267016345785d89ffff600482015267016345785d8a0000602482015290519192506001600160a01b0388169163a5b1a24d9160448082019260009290919082900301818387803b1580156108d357600080fd5b505af11580156108e7573d6000803e3d6000fd5b50505050856001600160a01b0316634fa5d8546040518163ffffffff1660e01b8152600401600060405180830381600087803b15801561092657600080fd5b505af115801561093a573d6000803e3d6000fd5b50505050610a2982876001600160a01b031663c2baf3566040518163ffffffff1660e01b815260040160206040518083038186803b15801561097b57600080fd5b505afa15801561098f573d6000803e3d6000fd5b505050506040513d60208110156109a557600080fd5b505160408051636f307dc360e01b815290516001600160a01b038b1691636f307dc3916004808301926020929190829003018186803b1580156109e757600080fd5b505afa1580156109fb573d6000803e3d6000fd5b505050506040513d6020811015610a1157600080fd5b50516001600160a01b0316919063ffffffff610d7016565b816001600160a01b03166323cf3118886040518263ffffffff1660e01b815260040180826001600160a01b03166001600160a01b03168152602001915050600060405180830381600087803b158015610a8157600080fd5b505af1158015610a95573d6000803e3d6000fd5b50505050816001600160a01b0316639d46c0096040518163ffffffff1660e01b8152600401600060405180830381600087803b158015610ad457600080fd5b505af1158015610ae8573d6000803e3d6000fd5b505050506000610b018683610dc790919063ffffffff16565b9050846001600160a01b031663a5b1a24d82846040518363ffffffff1660e01b81526004018083815260200182815260200192505050600060405180830381600087803b158015610b5157600080fd5b505af1158015610b65573d6000803e3d6000fd5b50505050846001600160a01b0316634fa5d8546040518163ffffffff1660e01b8152600401600060405180830381600087803b158015610ba457600080fd5b505af1158015610bb8573d6000803e3d6000fd5b50505050610bc58c610e10565b610bce8b610e10565b505050505050505050505050565b600054604080516337b87c3960e21b815233600482015290516001600160a01b039092169163dee1f0e491602480820192602092909190829003018186803b158015610c2757600080fd5b505afa158015610c3b573d6000803e3d6000fd5b505050506040513d6020811015610c5157600080fd5b5051610c95576040805162461bcd60e51b815260206004820152600e60248201526d4e6f7420676f7665726e616e636560901b604482015290519081900360640190fd5b6001600160a01b038116610cf0576040805162461bcd60e51b815260206004820152601e60248201527f6e65772073746f726167652073686f756c646e277420626520656d7074790000604482015290519081900360640190fd5b600080546001600160a01b0319166001600160a01b0392909216919091179055565b6000546001600160a01b031681565b60008060009054906101000a90046001600160a01b03166001600160a01b031663f77c47916040518163ffffffff1660e01b815260040160206040518083038186803b15801561014f57600080fd5b604080516001600160a01b038416602482015260448082018490528251808303909101815260649091019091526020810180516001600160e01b031663a9059cbb60e01b179052610dc2908490610e89565b505050565b6000610e0983836040518060400160405280601e81526020017f536166654d6174683a207375627472616374696f6e206f766572666c6f770000815250611047565b9392505050565b60408051639137c1a760e01b815273c95cbe4ca30055c787cb784be99d6a8494d0d1976004820181905291516001600160a01b03841691639137c1a791602480830192600092919082900301818387803b158015610e6d57600080fd5b505af1158015610e81573d6000803e3d6000fd5b505050505050565b610e9b826001600160a01b03166110de565b610eec576040805162461bcd60e51b815260206004820152601f60248201527f5361666545524332303a2063616c6c20746f206e6f6e2d636f6e747261637400604482015290519081900360640190fd5b60006060836001600160a01b0316836040518082805190602001908083835b60208310610f2a5780518252601f199092019160209182019101610f0b565b6001836020036101000a0380198251168184511680821785525050505050509050019150506000604051808303816000865af19150503d8060008114610f8c576040519150601f19603f3d011682016040523d82523d6000602084013e610f91565b606091505b509150915081610fe8576040805162461bcd60e51b815260206004820181905260248201527f5361666545524332303a206c6f772d6c6576656c2063616c6c206661696c6564604482015290519081900360640190fd5b8051156110415780806020019051602081101561100457600080fd5b50516110415760405162461bcd60e51b815260040180806020018281038252602a81526020018061113c602a913960400191505060405180910390fd5b50505050565b600081848411156110d65760405162461bcd60e51b81526004018080602001828103825283818151815260200191508051906020019080838360005b8381101561109b578181015183820152602001611083565b50505050905090810190601f1680156110c85780820380516001836020036101000a031916815260200191505b509250505060405180910390fd5b505050900390565b6000813f7fc5d2460186f7233c927e7db2dcc703c0e500b653ca82273b7bfad8045d85a47081811480159061111257508115155b94935050505056fe5f6d69677261746f7253747261746567792063616e6e6f7420626520656d7074795361666545524332303a204552433230206f7065726174696f6e20646964206e6f742073756363656564a265627a7a723158204ecf2c5717387a11b02cac7713a99f5cff1ce7c27983e0177d0ff3a10390f03f64736f6c63430005100032",
  "source": "pragma solidity 0.5.16;\n\nimport \"@openzeppelin/contracts/token/ERC20/IERC20.sol\";\nimport \"@openzeppelin/contracts/utils/Address.sol\";\nimport \"@openzeppelin/contracts/math/SafeMath.sol\";\nimport \"@openzeppelin/contracts/token/ERC20/SafeERC20.sol\";\nimport \"../hardworkInterface/IStrategy.sol\";\nimport \"../Controllable.sol\";\nimport \"../hardworkInterface/IMigrator.sol\";\nimport \"../hardworkInterface/IVault.sol\";\nimport \"../Governable.sol\";\nimport \"./VaultMigratorStrategy.sol\";\n\ncontract StableVaultMigrator is Controllable {\n  using SafeERC20 for IERC20;\n  using Address for address;\n  using SafeMath for uint256;\n\n  constructor(\n    address _storage\n  ) public\n  Controllable(_storage) {\n  }\n\n  modifier restricted() {\n    require(msg.sender == address(controller()) || msg.sender == address(governance()),\n      \"The sender has to be the controller or governance\");\n    _;\n  }\n\n  function setStorageBack(address vault) internal {\n    address oldStorage = 0xc95CbE4ca30055c787CB784BE99D6a8494d0d197;\n    Governable(vault).setStorage(oldStorage);\n  }\n\n  function migrateInOneTx(\n    address _oldVault,\n    address _newVault,\n    address _migratorStrategy,\n    address _newStrategy,\n    address _poolAddress\n  ) external onlyGovernance {\n    require(_oldVault != address(0), \"_oldVault cannot be empty\");\n    require(_newVault != address(0), \"_newVault cannot be empty\");\n    require(_migratorStrategy != address(0), \"_migratorStrategy cannot be empty\");\n    require(_newStrategy != address(0), \"_newStrategy cannot be empty\");\n\n    IVault oldVault = IVault(_oldVault);\n    uint256 balanceInVault = oldVault.underlyingBalanceInVault();\n\n    IVault newVault = IVault(_newVault);\n    IStrategy newStrategy = IStrategy(_newStrategy);\n    VaultMigratorStrategy migratorStrategy = VaultMigratorStrategy(_migratorStrategy);\n\n    require(oldVault.underlying() == newVault.underlying(), \"underlying must match (1)\");\n    require(address(newVault.underlying()) == address(migratorStrategy.underlying()), \"underlying must match (2)\");\n    require(newVault.underlying() == newStrategy.underlying(), \"underlying must match (3)\");\n\n    // exit the strategy and enter the new vault with the migrator strategy\n    oldVault.setStrategy(address(migratorStrategy));\n    uint256 _toInvestDenominator = oldVault.underlyingBalanceWithInvestment();\n    oldVault.setVaultFractionToInvest(99999999999999999, 100000000000000000);\n    oldVault.doHardWork();\n    // settle the asset difference before migrating the assets\n    // we assume that the asset is present in this contract, otherwise the tx will fail\n    IERC20(oldVault.underlying()).safeTransfer(\n      address(migratorStrategy), IVault(oldVault).underlyingBalanceInVault()\n    );\n    migratorStrategy.setMigrator(_poolAddress);\n    migratorStrategy.migrateToNewVault();\n\n    // we need absolute numbers here to make the amount match, calculate before the call\n    uint256 _toInvestNumerator = _toInvestDenominator.sub(balanceInVault);\n    newVault.setVaultFractionToInvest(_toInvestNumerator, _toInvestDenominator);\n    // linking is done during the deployment\n    newVault.doHardWork();\n\n    // reset governance in both vaults\n    setStorageBack(_oldVault);\n    setStorageBack(_newVault);\n  }\n}\n",
  "sourcePath": "/home/madhav/Vaults/contracts/strategies/StableVaultMigrator.sol",
  "compiler": {
    "name": "solc",
    "version": "0.5.16+commit.9c3226ce.Emscripten.clang"
  },
  "schemaVersion": "3.2.5",
  "updatedAt": "2020-12-05T16:27:34.968Z",
  "devdoc": {
    "methods": {}
  },
  "userdoc": {
    "methods": {}
  }
}