{
  "contractName": "Storage",
  "abi": [
    {
      "inputs": [],
      "payable": false,
      "stateMutability": "nonpayable",
      "type": "constructor"
    },
    {
      "constant": true,
      "inputs": [],
      "name": "controller",
      "outputs": [
        {
          "internalType": "address",
          "name": "",
          "type": "address"
        }
      ],
      "payable": false,
      "stateMutability": "view",
      "type": "function"
    },
    {
      "constant": true,
      "inputs": [],
      "name": "governance",
      "outputs": [
        {
          "internalType": "address",
          "name": "",
          "type": "address"
        }
      ],
      "payable": false,
      "stateMutability": "view",
      "type": "function"
    },
    {
      "constant": false,
      "inputs": [
        {
          "internalType": "address",
          "name": "_governance",
          "type": "address"
        }
      ],
      "name": "setGovernance",
      "outputs": [],
      "payable": false,
      "stateMutability": "nonpayable",
      "type": "function"
    },
    {
      "constant": false,
      "inputs": [
        {
          "internalType": "address",
          "name": "_controller",
          "type": "address"
        }
      ],
      "name": "setController",
      "outputs": [],
      "payable": false,
      "stateMutability": "nonpayable",
      "type": "function"
    },
    {
      "constant": true,
      "inputs": [
        {
          "internalType": "address",
          "name": "account",
          "type": "address"
        }
      ],
      "name": "isGovernance",
      "outputs": [
        {
          "internalType": "bool",
          "name": "",
          "type": "bool"
        }
      ],
      "payable": false,
      "stateMutability": "view",
      "type": "function"
    },
    {
      "constant": true,
      "inputs": [
        {
          "internalType": "address",
          "name": "account",
          "type": "address"
        }
      ],
      "name": "isController",
      "outputs": [
        {
          "internalType": "bool",
          "name": "",
          "type": "bool"
        }
      ],
      "payable": false,
      "stateMutability": "view",
      "type": "function"
    }
  ],
  "bytecode": "0x608060405234801561001057600080fd5b50600080546001600160a01b03191633179055610362806100326000396000f3fe608060405234801561001057600080fd5b50600436106100625760003560e01c80635aa6e6751461006757806392eefe9b1461008b578063ab033ea9146100b3578063b429afeb146100d9578063dee1f0e414610113578063f77c479114610139575b600080fd5b61006f610141565b604080516001600160a01b039092168252519081900360200190f35b6100b1600480360360208110156100a157600080fd5b50356001600160a01b0316610150565b005b6100b1600480360360208110156100c957600080fd5b50356001600160a01b0316610202565b6100ff600480360360208110156100ef57600080fd5b50356001600160a01b03166102b4565b604080519115158252519081900360200190f35b6100ff6004803603602081101561012957600080fd5b50356001600160a01b03166102c8565b61006f6102dc565b6000546001600160a01b031681565b610159336102c8565b61019b576040805162461bcd60e51b815260206004820152600e60248201526d4e6f7420676f7665726e616e636560901b604482015290519081900360640190fd5b6001600160a01b0381166101e05760405162461bcd60e51b815260040180806020018281038252602181526020018061030d6021913960400191505060405180910390fd5b600180546001600160a01b0319166001600160a01b0392909216919091179055565b61020b336102c8565b61024d576040805162461bcd60e51b815260206004820152600e60248201526d4e6f7420676f7665726e616e636560901b604482015290519081900360640190fd5b6001600160a01b0381166102925760405162461bcd60e51b81526004018080602001828103825260218152602001806102ec6021913960400191505060405180910390fd5b600080546001600160a01b0319166001600160a01b0392909216919091179055565b6001546001600160a01b0390811691161490565b6000546001600160a01b0390811691161490565b6001546001600160a01b03168156fe6e657720676f7665726e616e63652073686f756c646e277420626520656d7074796e657720636f6e74726f6c6c65722073686f756c646e277420626520656d707479a265627a7a7231582083da3747199e5da8e05d323f7af60146a6dc4a17585dc7e3bebb438bd82e9e3264736f6c63430005100032",
  "source": "pragma solidity 0.5.16;\n\ncontract Storage {\n\n  address public governance;\n  address public controller;\n\n  constructor() public {\n    governance = msg.sender;\n  }\n\n  modifier onlyGovernance() {\n    require(isGovernance(msg.sender), \"Not governance\");\n    _;\n  }\n\n  function setGovernance(address _governance) public onlyGovernance {\n    require(_governance != address(0), \"new governance shouldn't be empty\");\n    governance = _governance;\n  }\n\n  function setController(address _controller) public onlyGovernance {\n    require(_controller != address(0), \"new controller shouldn't be empty\");\n    controller = _controller;\n  }\n\n  function isGovernance(address account) public view returns (bool) {\n    return account == governance;\n  }\n\n  function isController(address account) public view returns (bool) {\n    return account == controller;\n  }\n}\n",
  "sourcePath": "/home/madhav/Vaults/contracts/Storage.sol",
  "compiler": {
    "name": "solc",
    "version": "0.5.16+commit.9c3226ce.Emscripten.clang"
  },
  "schemaVersion": "3.2.5",
  "updatedAt": "2020-12-05T16:27:34.867Z",
  "devdoc": {
    "methods": {}
  },
  "userdoc": {
    "methods": {}
  }
}