{
  "contractName": "VaultUSDT",
  "abi": [
    {
      "anonymous": false,
      "inputs": [
        {
          "indexed": true,
          "internalType": "address",
          "name": "owner",
          "type": "address"
        },
        {
          "indexed": true,
          "internalType": "address",
          "name": "spender",
          "type": "address"
        },
        {
          "indexed": false,
          "internalType": "uint256",
          "name": "value",
          "type": "uint256"
        }
      ],
      "name": "Approval",
      "type": "event"
    },
    {
      "anonymous": false,
      "inputs": [
        {
          "indexed": true,
          "internalType": "address",
          "name": "beneficiary",
          "type": "address"
        },
        {
          "indexed": false,
          "internalType": "uint256",
          "name": "amount",
          "type": "uint256"
        }
      ],
      "name": "Deposit",
      "type": "event"
    },
    {
      "anonymous": false,
      "inputs": [
        {
          "indexed": false,
          "internalType": "uint256",
          "name": "amount",
          "type": "uint256"
        }
      ],
      "name": "Invest",
      "type": "event"
    },
    {
      "anonymous": false,
      "inputs": [
        {
          "indexed": false,
          "internalType": "address",
          "name": "newStrategy",
          "type": "address"
        },
        {
          "indexed": false,
          "internalType": "uint256",
          "name": "time",
          "type": "uint256"
        }
      ],
      "name": "StrategyAnnounced",
      "type": "event"
    },
    {
      "anonymous": false,
      "inputs": [
        {
          "indexed": false,
          "internalType": "address",
          "name": "newStrategy",
          "type": "address"
        },
        {
          "indexed": false,
          "internalType": "address",
          "name": "oldStrategy",
          "type": "address"
        }
      ],
      "name": "StrategyChanged",
      "type": "event"
    },
    {
      "anonymous": false,
      "inputs": [
        {
          "indexed": true,
          "internalType": "address",
          "name": "from",
          "type": "address"
        },
        {
          "indexed": true,
          "internalType": "address",
          "name": "to",
          "type": "address"
        },
        {
          "indexed": false,
          "internalType": "uint256",
          "name": "value",
          "type": "uint256"
        }
      ],
      "name": "Transfer",
      "type": "event"
    },
    {
      "anonymous": false,
      "inputs": [
        {
          "indexed": true,
          "internalType": "address",
          "name": "beneficiary",
          "type": "address"
        },
        {
          "indexed": false,
          "internalType": "uint256",
          "name": "amount",
          "type": "uint256"
        }
      ],
      "name": "Withdraw",
      "type": "event"
    },
    {
      "constant": true,
      "inputs": [],
      "name": "allowSharePriceDecrease",
      "outputs": [
        {
          "internalType": "bool",
          "name": "",
          "type": "bool"
        }
      ],
      "payable": false,
      "stateMutability": "view",
      "type": "function"
    },
    {
      "constant": true,
      "inputs": [
        {
          "internalType": "address",
          "name": "owner",
          "type": "address"
        },
        {
          "internalType": "address",
          "name": "spender",
          "type": "address"
        }
      ],
      "name": "allowance",
      "outputs": [
        {
          "internalType": "uint256",
          "name": "",
          "type": "uint256"
        }
      ],
      "payable": false,
      "stateMutability": "view",
      "type": "function"
    },
    {
      "constant": false,
      "inputs": [
        {
          "internalType": "address",
          "name": "_strategy",
          "type": "address"
        }
      ],
      "name": "announceStrategyUpdate",
      "outputs": [],
      "payable": false,
      "stateMutability": "nonpayable",
      "type": "function"
    },
    {
      "constant": false,
      "inputs": [
        {
          "internalType": "address",
          "name": "spender",
          "type": "address"
        },
        {
          "internalType": "uint256",
          "name": "amount",
          "type": "uint256"
        }
      ],
      "name": "approve",
      "outputs": [
        {
          "internalType": "bool",
          "name": "",
          "type": "bool"
        }
      ],
      "payable": false,
      "stateMutability": "nonpayable",
      "type": "function"
    },
    {
      "constant": true,
      "inputs": [],
      "name": "availableToInvestOut",
      "outputs": [
        {
          "internalType": "uint256",
          "name": "",
          "type": "uint256"
        }
      ],
      "payable": false,
      "stateMutability": "view",
      "type": "function"
    },
    {
      "constant": true,
      "inputs": [
        {
          "internalType": "address",
          "name": "account",
          "type": "address"
        }
      ],
      "name": "balanceOf",
      "outputs": [
        {
          "internalType": "uint256",
          "name": "",
          "type": "uint256"
        }
      ],
      "payable": false,
      "stateMutability": "view",
      "type": "function"
    },
    {
      "constant": true,
      "inputs": [
        {
          "internalType": "address",
          "name": "_strategy",
          "type": "address"
        }
      ],
      "name": "canUpdateStrategy",
      "outputs": [
        {
          "internalType": "bool",
          "name": "",
          "type": "bool"
        }
      ],
      "payable": false,
      "stateMutability": "view",
      "type": "function"
    },
    {
      "constant": true,
      "inputs": [],
      "name": "controller",
      "outputs": [
        {
          "internalType": "address",
          "name": "",
          "type": "address"
        }
      ],
      "payable": false,
      "stateMutability": "view",
      "type": "function"
    },
    {
      "constant": true,
      "inputs": [],
      "name": "decimals",
      "outputs": [
        {
          "internalType": "uint8",
          "name": "",
          "type": "uint8"
        }
      ],
      "payable": false,
      "stateMutability": "view",
      "type": "function"
    },
    {
      "constant": false,
      "inputs": [
        {
          "internalType": "address",
          "name": "spender",
          "type": "address"
        },
        {
          "internalType": "uint256",
          "name": "subtractedValue",
          "type": "uint256"
        }
      ],
      "name": "decreaseAllowance",
      "outputs": [
        {
          "internalType": "bool",
          "name": "",
          "type": "bool"
        }
      ],
      "payable": false,
      "stateMutability": "nonpayable",
      "type": "function"
    },
    {
      "constant": false,
      "inputs": [
        {
          "internalType": "uint256",
          "name": "amount",
          "type": "uint256"
        }
      ],
      "name": "deposit",
      "outputs": [],
      "payable": false,
      "stateMutability": "nonpayable",
      "type": "function"
    },
    {
      "constant": false,
      "inputs": [
        {
          "internalType": "uint256",
          "name": "amount",
          "type": "uint256"
        },
        {
          "internalType": "address",
          "name": "holder",
          "type": "address"
        }
      ],
      "name": "depositFor",
      "outputs": [],
      "payable": false,
      "stateMutability": "nonpayable",
      "type": "function"
    },
    {
      "constant": false,
      "inputs": [],
      "name": "doHardWork",
      "outputs": [],
      "payable": false,
      "stateMutability": "nonpayable",
      "type": "function"
    },
    {
      "constant": false,
      "inputs": [],
      "name": "finalizeStrategyUpdate",
      "outputs": [],
      "payable": false,
      "stateMutability": "nonpayable",
      "type": "function"
    },
    {
      "constant": false,
      "inputs": [],
      "name": "finalizeUpgrade",
      "outputs": [],
      "payable": false,
      "stateMutability": "nonpayable",
      "type": "function"
    },
    {
      "constant": true,
      "inputs": [],
      "name": "futureStrategy",
      "outputs": [
        {
          "internalType": "address",
          "name": "",
          "type": "address"
        }
      ],
      "payable": false,
      "stateMutability": "view",
      "type": "function"
    },
    {
      "constant": true,
      "inputs": [
        {
          "internalType": "uint256",
          "name": "numberOfShares",
          "type": "uint256"
        }
      ],
      "name": "getEstimatedWithdrawalAmount",
      "outputs": [
        {
          "internalType": "uint256",
          "name": "estimatedWithdrawal",
          "type": "uint256"
        },
        {
          "internalType": "uint256",
          "name": "realTimeCalculatedValue",
          "type": "uint256"
        }
      ],
      "payable": false,
      "stateMutability": "view",
      "type": "function"
    },
    {
      "constant": true,
      "inputs": [],
      "name": "getPricePerFullShare",
      "outputs": [
        {
          "internalType": "uint256",
          "name": "",
          "type": "uint256"
        }
      ],
      "payable": false,
      "stateMutability": "view",
      "type": "function"
    },
    {
      "constant": true,
      "inputs": [],
      "name": "getPricePerFullShareCheckpoint",
      "outputs": [
        {
          "internalType": "uint256",
          "name": "",
          "type": "uint256"
        }
      ],
      "payable": false,
      "stateMutability": "view",
      "type": "function"
    },
    {
      "constant": true,
      "inputs": [],
      "name": "governance",
      "outputs": [
        {
          "internalType": "address",
          "name": "",
          "type": "address"
        }
      ],
      "payable": false,
      "stateMutability": "view",
      "type": "function"
    },
    {
      "constant": false,
      "inputs": [
        {
          "internalType": "address",
          "name": "spender",
          "type": "address"
        },
        {
          "internalType": "uint256",
          "name": "addedValue",
          "type": "uint256"
        }
      ],
      "name": "increaseAllowance",
      "outputs": [
        {
          "internalType": "bool",
          "name": "",
          "type": "bool"
        }
      ],
      "payable": false,
      "stateMutability": "nonpayable",
      "type": "function"
    },
    {
      "constant": false,
      "inputs": [
        {
          "internalType": "string",
          "name": "name",
          "type": "string"
        },
        {
          "internalType": "string",
          "name": "symbol",
          "type": "string"
        },
        {
          "internalType": "uint8",
          "name": "decimals",
          "type": "uint8"
        }
      ],
      "name": "initialize",
      "outputs": [],
      "payable": false,
      "stateMutability": "nonpayable",
      "type": "function"
    },
    {
      "constant": false,
      "inputs": [
        {
          "internalType": "address",
          "name": "_underlying",
          "type": "address"
        },
        {
          "internalType": "uint256",
          "name": "_toInvestNumerator",
          "type": "uint256"
        },
        {
          "internalType": "uint256",
          "name": "_toInvestDenominator",
          "type": "uint256"
        },
        {
          "internalType": "uint256",
          "name": "_underlyingUnit",
          "type": "uint256"
        },
        {
          "internalType": "uint256",
          "name": "_implementationChangeDelay",
          "type": "uint256"
        },
        {
          "internalType": "uint256",
          "name": "_strategyChangeDelay",
          "type": "uint256"
        }
      ],
      "name": "initialize",
      "outputs": [],
      "payable": false,
      "stateMutability": "nonpayable",
      "type": "function"
    },
    {
      "constant": false,
      "inputs": [
        {
          "internalType": "address",
          "name": "_storage",
          "type": "address"
        }
      ],
      "name": "initialize",
      "outputs": [],
      "payable": false,
      "stateMutability": "nonpayable",
      "type": "function"
    },
    {
      "constant": false,
      "inputs": [
        {
          "internalType": "address",
          "name": "_storage",
          "type": "address"
        },
        {
          "internalType": "address",
          "name": "_underlying",
          "type": "address"
        },
        {
          "internalType": "uint256",
          "name": "_toInvestNumerator",
          "type": "uint256"
        },
        {
          "internalType": "uint256",
          "name": "_toInvestDenominator",
          "type": "uint256"
        }
      ],
      "name": "initializeVault",
      "outputs": [],
      "payable": false,
      "stateMutability": "nonpayable",
      "type": "function"
    },
    {
      "constant": true,
      "inputs": [],
      "name": "name",
      "outputs": [
        {
          "internalType": "string",
          "name": "",
          "type": "string"
        }
      ],
      "payable": false,
      "stateMutability": "view",
      "type": "function"
    },
    {
      "constant": true,
      "inputs": [],
      "name": "nextImplementation",
      "outputs": [
        {
          "internalType": "address",
          "name": "",
          "type": "address"
        }
      ],
      "payable": false,
      "stateMutability": "view",
      "type": "function"
    },
    {
      "constant": true,
      "inputs": [],
      "name": "nextImplementationDelay",
      "outputs": [
        {
          "internalType": "uint256",
          "name": "",
          "type": "uint256"
        }
      ],
      "payable": false,
      "stateMutability": "view",
      "type": "function"
    },
    {
      "constant": true,
      "inputs": [],
      "name": "nextImplementationTimestamp",
      "outputs": [
        {
          "internalType": "uint256",
          "name": "",
          "type": "uint256"
        }
      ],
      "payable": false,
      "stateMutability": "view",
      "type": "function"
    },
    {
      "constant": false,
      "inputs": [
        {
          "internalType": "address",
          "name": "impl",
          "type": "address"
        }
      ],
      "name": "scheduleUpgrade",
      "outputs": [],
      "payable": false,
      "stateMutability": "nonpayable",
      "type": "function"
    },
    {
      "constant": false,
      "inputs": [
        {
          "internalType": "bool",
          "name": "value",
          "type": "bool"
        }
      ],
      "name": "setAllowSharePriceDecrease",
      "outputs": [],
      "payable": false,
      "stateMutability": "nonpayable",
      "type": "function"
    },
    {
      "constant": false,
      "inputs": [
        {
          "internalType": "address",
          "name": "_store",
          "type": "address"
        }
      ],
      "name": "setStorage",
      "outputs": [],
      "payable": false,
      "stateMutability": "nonpayable",
      "type": "function"
    },
    {
      "constant": false,
      "inputs": [
        {
          "internalType": "address",
          "name": "_strategy",
          "type": "address"
        }
      ],
      "name": "setStrategy",
      "outputs": [],
      "payable": false,
      "stateMutability": "nonpayable",
      "type": "function"
    },
    {
      "constant": false,
      "inputs": [
        {
          "internalType": "uint256",
          "name": "numerator",
          "type": "uint256"
        },
        {
          "internalType": "uint256",
          "name": "denominator",
          "type": "uint256"
        }
      ],
      "name": "setVaultFractionToInvest",
      "outputs": [],
      "payable": false,
      "stateMutability": "nonpayable",
      "type": "function"
    },
    {
      "constant": false,
      "inputs": [
        {
          "internalType": "bool",
          "name": "value",
          "type": "bool"
        }
      ],
      "name": "setWithdrawBeforeReinvesting",
      "outputs": [],
      "payable": false,
      "stateMutability": "nonpayable",
      "type": "function"
    },
    {
      "constant": true,
      "inputs": [],
      "name": "shouldUpgrade",
      "outputs": [
        {
          "internalType": "bool",
          "name": "",
          "type": "bool"
        },
        {
          "internalType": "address",
          "name": "",
          "type": "address"
        }
      ],
      "payable": false,
      "stateMutability": "view",
      "type": "function"
    },
    {
      "constant": true,
      "inputs": [],
      "name": "strategy",
      "outputs": [
        {
          "internalType": "address",
          "name": "",
          "type": "address"
        }
      ],
      "payable": false,
      "stateMutability": "view",
      "type": "function"
    },
    {
      "constant": true,
      "inputs": [],
      "name": "strategyTimeLock",
      "outputs": [
        {
          "internalType": "uint256",
          "name": "",
          "type": "uint256"
        }
      ],
      "payable": false,
      "stateMutability": "view",
      "type": "function"
    },
    {
      "constant": true,
      "inputs": [],
      "name": "strategyUpdateTime",
      "outputs": [
        {
          "internalType": "uint256",
          "name": "",
          "type": "uint256"
        }
      ],
      "payable": false,
      "stateMutability": "view",
      "type": "function"
    },
    {
      "constant": true,
      "inputs": [],
      "name": "symbol",
      "outputs": [
        {
          "internalType": "string",
          "name": "",
          "type": "string"
        }
      ],
      "payable": false,
      "stateMutability": "view",
      "type": "function"
    },
    {
      "constant": true,
      "inputs": [],
      "name": "totalSupply",
      "outputs": [
        {
          "internalType": "uint256",
          "name": "",
          "type": "uint256"
        }
      ],
      "payable": false,
      "stateMutability": "view",
      "type": "function"
    },
    {
      "constant": false,
      "inputs": [
        {
          "internalType": "address",
          "name": "recipient",
          "type": "address"
        },
        {
          "internalType": "uint256",
          "name": "amount",
          "type": "uint256"
        }
      ],
      "name": "transfer",
      "outputs": [
        {
          "internalType": "bool",
          "name": "",
          "type": "bool"
        }
      ],
      "payable": false,
      "stateMutability": "nonpayable",
      "type": "function"
    },
    {
      "constant": false,
      "inputs": [
        {
          "internalType": "address",
          "name": "sender",
          "type": "address"
        },
        {
          "internalType": "address",
          "name": "recipient",
          "type": "address"
        },
        {
          "internalType": "uint256",
          "name": "amount",
          "type": "uint256"
        }
      ],
      "name": "transferFrom",
      "outputs": [
        {
          "internalType": "bool",
          "name": "",
          "type": "bool"
        }
      ],
      "payable": false,
      "stateMutability": "nonpayable",
      "type": "function"
    },
    {
      "constant": true,
      "inputs": [],
      "name": "underlying",
      "outputs": [
        {
          "internalType": "address",
          "name": "",
          "type": "address"
        }
      ],
      "payable": false,
      "stateMutability": "view",
      "type": "function"
    },
    {
      "constant": true,
      "inputs": [],
      "name": "underlyingBalanceInVault",
      "outputs": [
        {
          "internalType": "uint256",
          "name": "",
          "type": "uint256"
        }
      ],
      "payable": false,
      "stateMutability": "view",
      "type": "function"
    },
    {
      "constant": true,
      "inputs": [],
      "name": "underlyingBalanceWithInvestment",
      "outputs": [
        {
          "internalType": "uint256",
          "name": "",
          "type": "uint256"
        }
      ],
      "payable": false,
      "stateMutability": "view",
      "type": "function"
    },
    {
      "constant": true,
      "inputs": [
        {
          "internalType": "address",
          "name": "holder",
          "type": "address"
        }
      ],
      "name": "underlyingBalanceWithInvestmentForHolder",
      "outputs": [
        {
          "internalType": "uint256",
          "name": "",
          "type": "uint256"
        }
      ],
      "payable": false,
      "stateMutability": "view",
      "type": "function"
    },
    {
      "constant": true,
      "inputs": [],
      "name": "underlyingUnit",
      "outputs": [
        {
          "internalType": "uint256",
          "name": "",
          "type": "uint256"
        }
      ],
      "payable": false,
      "stateMutability": "view",
      "type": "function"
    },
    {
      "constant": true,
      "inputs": [],
      "name": "vaultFractionToInvestDenominator",
      "outputs": [
        {
          "internalType": "uint256",
          "name": "",
          "type": "uint256"
        }
      ],
      "payable": false,
      "stateMutability": "view",
      "type": "function"
    },
    {
      "constant": true,
      "inputs": [],
      "name": "vaultFractionToInvestNumerator",
      "outputs": [
        {
          "internalType": "uint256",
          "name": "",
          "type": "uint256"
        }
      ],
      "payable": false,
      "stateMutability": "view",
      "type": "function"
    },
    {
      "constant": false,
      "inputs": [
        {
          "internalType": "uint256",
          "name": "numberOfShares",
          "type": "uint256"
        }
      ],
      "name": "withdraw",
      "outputs": [],
      "payable": false,
      "stateMutability": "nonpayable",
      "type": "function"
    },
    {
      "constant": false,
      "inputs": [],
      "name": "withdrawAll",
      "outputs": [],
      "payable": false,
      "stateMutability": "nonpayable",
      "type": "function"
    },
    {
      "constant": true,
      "inputs": [],
      "name": "withdrawBeforeReinvesting",
      "outputs": [
        {
          "internalType": "bool",
          "name": "",
          "type": "bool"
        }
      ],
      "payable": false,
      "stateMutability": "view",
      "type": "function"
    }
  ],
  "bytecode": "0x608060408190527f656970313936372e7661756c7453746f726167652e756e6465726c79696e6700815260019080602362004e1982396023019050604051809103902060001c0360001b7fa66bc57d4b4eed7c7687876ca77997588987307cb13ecc23f5e52725192e5fff60001b146200007557fe5b6001604051808062004cdb603391396033019050604051809103902060001c0360001b7f39122c9adfb653455d0c05043bd52fcfbc2be864e832efd3abc72ce5a3d7ed5a60001b14620000c457fe5b6001604051808062004d6c603591396035019050604051809103902060001c0360001b7f469a3bad2fab7b936c45eecd1f5da52af89cead3e2ed7f732b6f3fc92ed3230860001b146200011357fe5b6001604051808062004e3c602791396027019050604051809103902060001c0360001b7fb1acf527cd7cd1668b30e5a9a1c0d845714604de29ce560150922c9d8c0937df60001b146200016257fe5b6001604051808062004d0e603091396030019050604051809103902060001c0360001b7f3bc747f4b148b37be485de3223c90b4468252967d2ea7f9fcbd8b6e653f434c960001b14620001b157fe5b6001604051808062004ded602c9139602c019050604051809103902060001c0360001b7f82ddc3be3f0c1a6870327f78f4979a0b37b21b16736ef5be6a7a7a35e530bcf060001b146200020057fe5b6001604051808062004dc8602591396025019050604051809103902060001c0360001b7f6d02338b2e4c913c0f7d380e2798409838a48a2c4d57d52742a808c82d713d8b60001b146200024f57fe5b6001604051808062004e8c602391396023019050604051809103902060001c0360001b7fb441b53a4e42c2ca9182bc7ede99bedba7a5d9360d9dfbd31fa8ee2dc859061060001b146200029e57fe5b6001604051808062004da1602791396027019050604051809103902060001c0360001b7f56e7c0e75875c6497f0de657009613a32558904b5c10771a825cc330feff7e7260001b14620002ed57fe5b6001604051808062004e63602991396029019050604051809103902060001c0360001b7fb1b621f8f6c231a376e5047acd2dcbe60d67c9e0b6b24f0600885e5e0f9b0d4d60001b146200033c57fe5b6001604051808062004caf602c9139602c019050604051809103902060001c0360001b7f22f7033891e85fc76735ebd320e0d3f546da431c4729c2f6d2613b11923aaaed60001b146200038b57fe5b6001604051808062004d3e602e9139602e019050604051809103902060001c0360001b7f4215fbb95dc0890d3e1660fb9089350f2d3f350c0a756934874cae6febf42a7960001b14620003da57fe5b6148c580620003ea6000396000f3fe608060405234801561001057600080fd5b50600436106102d75760003560e01c8063853828b611610188578063a9059cbb116100e4578063cc8af1b911610092578063cc8af1b9146108fb578063d0c7e88514610903578063dd62ed3e14610939578063eda199aa14610967578063f0cf91e71461096f578063f2768c1e14610995578063f77c47911461099d576102d7565b8063a9059cbb1461086c578063aa04462514610898578063b0f5f870146108a0578063b592c390146108a8578063b6b55f25146108b0578063c2baf356146108cd578063c4d66de8146108d5576102d7565b80639a508c8e116101415780639a508c8e146107d25780639d16acfd146107da578063a457c2d714610805578063a5b1a24d14610831578063a836569314610854578063a8c62e761461085c578063a90252dd14610864576102d7565b8063853828b61461071b5780638cb1d67f146107235780638fc1708c146107495780639137c1a71461078557806392871f98146107ab57806395d89b41146107ca576102d7565b806336efd16f1161023757806353ceb01c116101f057806353ceb01c146106c55780635aa6e675146106cd5780635fe51e6d146106d55780636f307dc3146106dd57806370a08231146106e557806377c7b8fc1461070b57806382de9c1b14610713576102d7565b806336efd16f146105fa578063395093511461062657806345ff4c80146106525780634af1758b146106965780634fa5d8541461069e5780635102b170146106a6576102d7565b80631624f6c6116102945780631624f6c61461042557806318160ddd146105535780631bf8e7be1461055b57806323b872dd146105635780632e1a7d4d14610599578063313ce567146105b657806333a100ca146105d4576102d7565b806306fdde03146102dc578063095ea7b31461035957806309ff18f0146103995780630a6bbeb3146103bd5780630ad2239d146103e55780630c80447a146103ff575b600080fd5b6102e46109a5565b6040805160208082528351818301528351919283929083019185019080838360005b8381101561031e578181015183820152602001610306565b50505050905090810190601f16801561034b5780820380516001836020036101000a031916815260200191505b509250505060405180910390f35b6103856004803603604081101561036f57600080fd5b506001600160a01b038135169060200135610a3c565b604080519115158252519081900360200190f35b6103a1610a5a565b604080516001600160a01b039092168252519081900360200190f35b6103e3600480360360208110156103d357600080fd5b50356001600160a01b0316610a69565b005b6103ed610c33565b60408051918252519081900360200190f35b6103e36004803603602081101561041557600080fd5b50356001600160a01b0316610c3d565b6103e36004803603606081101561043b57600080fd5b810190602081018135600160201b81111561045557600080fd5b82018360208201111561046757600080fd5b803590602001918460018302840111600160201b8311171561048857600080fd5b91908080601f0160208091040260200160405190810160405280939291908181526020018383808284376000920191909152509295949360208101935035915050600160201b8111156104da57600080fd5b8201836020820111156104ec57600080fd5b803590602001918460018302840111600160201b8311171561050d57600080fd5b91908080601f0160208091040260200160405190810160405280939291908181526020018383808284376000920191909152509295505050903560ff169150610d279050565b6103ed610e03565b6103ed610e09565b6103856004803603606081101561057957600080fd5b506001600160a01b03813581169160208101359091169060400135610eb5565b6103e3600480360360208110156105af57600080fd5b5035610f42565b6105be61120c565b6040805160ff9092168252519081900360200190f35b6103e3600480360360208110156105ea57600080fd5b50356001600160a01b0316611215565b6103e36004803603604081101561061057600080fd5b50803590602001356001600160a01b03166116b6565b6103856004803603604081101561063c57600080fd5b506001600160a01b038135169060200135611794565b6103e3600480360360c081101561066857600080fd5b506001600160a01b038135169060208101359060408101359060608101359060808101359060a001356117e8565b6103ed6118f7565b6103e3611901565b6103e3600480360360208110156106bc57600080fd5b50351515611bfd565b6103ed611cd1565b6103a1611cdb565b6103a1611d4e565b6103a1611d58565b6103ed600480360360208110156106fb57600080fd5b50356001600160a01b0316611d62565b6103ed611d7d565b6103ed611dc3565b6103e3611dcd565b6103ed6004803603602081101561073957600080fd5b50356001600160a01b0316611fd8565b6103e36004803603608081101561075f57600080fd5b506001600160a01b03813581169160208101359091169060408101359060600135611ff4565b6103e36004803603602081101561079b57600080fd5b50356001600160a01b0316612560565b6103e3600480360360208110156107c157600080fd5b5035151561268f565b6102e4612763565b6103e36127c4565b6107e26129ab565b6040805192151583526001600160a01b0390911660208301528051918290030190f35b6103856004803603604081101561081b57600080fd5b506001600160a01b0381351690602001356129f7565b6103e36004803603604081101561084757600080fd5b5080359060200135612a65565b6103ed612bc0565b6103a1612bca565b610385612bd4565b6103856004803603604081101561088257600080fd5b506001600160a01b038135169060200135612bde565b6103ed612bf2565b6103ed612bfc565b6103ed612c06565b6103e3600480360360208110156108c657600080fd5b5035612ce7565b6103ed612dc1565b6103e3600480360360208110156108eb57600080fd5b50356001600160a01b0316612e20565b610385612ecb565b6109206004803603602081101561091957600080fd5b5035612ed5565b6040805192835260208301919091528051918290030190f35b6103ed6004803603604081101561094f57600080fd5b506001600160a01b0381358116916020013516612f2e565b6103e3612f59565b6103856004803603602081101561098557600080fd5b50356001600160a01b03166130c1565b6103ed613122565b6103a161312c565b60688054604080516020601f6002600019610100600188161502019095169490940493840181900481028201810190925282815260609390929091830182828015610a315780601f10610a0657610100808354040283529160200191610a31565b820191906000526020600020905b815481529060010190602001808311610a1457829003601f168201915b505050505090505b90565b6000610a50610a4961316e565b8484613172565b5060015b92915050565b6000610a6461325e565b905090565b610a71613289565b6001600160a01b031663b429afeb336040518263ffffffff1660e01b815260040180826001600160a01b03166001600160a01b0316815260200191505060206040518083038186803b158015610ac657600080fd5b505afa158015610ada573d6000803e3d6000fd5b505050506040513d6020811015610af057600080fd5b505180610b825750610b00613289565b6001600160a01b031663dee1f0e4336040518263ffffffff1660e01b815260040180826001600160a01b03166001600160a01b0316815260200191505060206040518083038186803b158015610b5557600080fd5b505afa158015610b69573d6000803e3d6000fd5b505050506040513d6020811015610b7f57600080fd5b50515b610bbd5760405162461bcd60e51b815260040180806020018281038252602b8152602001806144ed602b913960400191505060405180910390fd5b6000610bd7610bca610c33565b429063ffffffff6132ae16565b9050610be28161330f565b610beb82613339565b604080516001600160a01b03841681526020810183905281517f7d5e1cfe55788983acd19d248da36a27c9413e8e43445ed36a76ae0e741a04ed929181900390910190a15050565b6000610a64613363565b610c45613289565b6001600160a01b031663dee1f0e4336040518263ffffffff1660e01b815260040180826001600160a01b03166001600160a01b0316815260200191505060206040518083038186803b158015610c9a57600080fd5b505afa158015610cae573d6000803e3d6000fd5b505050506040513d6020811015610cc457600080fd5b5051610d08576040805162461bcd60e51b815260206004820152600e60248201526d4e6f7420676f7665726e616e636560901b604482015290519081900360640190fd5b610d118161338e565b610d24610d1f610bca612bc0565b6133b8565b50565b600054610100900460ff1680610d405750610d406133e2565b80610d4e575060005460ff16155b610d895760405162461bcd60e51b815260040180806020018281038252602e8152602001806146f1602e913960400191505060405180910390fd5b600054610100900460ff16158015610db4576000805460ff1961ff0019909116610100171660011790555b8351610dc7906068906020870190614454565b508251610ddb906069906020860190614454565b50606a805460ff191660ff84161790558015610dfd576000805461ff00191690555b50505050565b60355490565b600080610e14612bca565b6001600160a01b03161415610e3257610e2b612dc1565b9050610a39565b610a64610e3d612bca565b6001600160a01b03166345d01e4a6040518163ffffffff1660e01b815260040160206040518083038186803b158015610e7557600080fd5b505afa158015610e89573d6000803e3d6000fd5b505050506040513d6020811015610e9f57600080fd5b5051610ea9612dc1565b9063ffffffff6132ae16565b6000610ec28484846133e8565b610f3884610ece61316e565b610f33856040518060600160405280602881526020016146c9602891396001600160a01b038a16600090815260346020526040812090610f0c61316e565b6001600160a01b03168152602081019190915260400160002054919063ffffffff61354616565b613172565b5060019392505050565b6000610f4c610e03565b11610f94576040805162461bcd60e51b81526020600482015260136024820152725661756c7420686173206e6f2073686172657360681b604482015290519081900360640190fd5b60008111610fd35760405162461bcd60e51b81526004018080602001828103825260258152602001806147596025913960400191505060405180910390fd5b6000610fdd610e03565b9050610fe933836135dd565b6000610ff36136d9565b90506000610fff611d7d565b9050600061103461100e611cd1565b61102861101b8686613704565b889063ffffffff61371a16565b9063ffffffff61377316565b905061103e612dc1565b8111156111ac57838514156110b657611055612bca565b6001600160a01b031663bfd131f16040518163ffffffff1660e01b8152600401600060405180830381600087803b15801561108f57600080fd5b505af11580156110a3573d6000803e3d6000fd5b505050506110af612dc1565b90506111ac565b60006110d06110c3612dc1565b839063ffffffff6137b516565b905060006110e883611028898563ffffffff61371a16565b90506110f2612bca565b6001600160a01b031663f59b3c5d8261110d84610ea9610e03565b6040518363ffffffff1660e01b81526004018083815260200182815260200192505050600060405180830381600087803b15801561114a57600080fd5b505af115801561115e573d6000803e3d6000fd5b5050505061116a611d7d565b93506000611193611179611cd1565b6110286111868989613704565b8b9063ffffffff61371a16565b90506111a6816111a1612dc1565b613704565b93505050505b6111cf33826111b9611d58565b6001600160a01b0316919063ffffffff6137f716565b60408051828152905133917f884edad9ce6fa2440d8a54cc123490eb96d2768479d49ff9c7366125a9424364919081900360200190a25050505050565b606a5460ff1690565b61121d613289565b6001600160a01b031663b429afeb336040518263ffffffff1660e01b815260040180826001600160a01b03166001600160a01b0316815260200191505060206040518083038186803b15801561127257600080fd5b505afa158015611286573d6000803e3d6000fd5b505050506040513d602081101561129c57600080fd5b50518061132e57506112ac613289565b6001600160a01b031663dee1f0e4336040518263ffffffff1660e01b815260040180826001600160a01b03166001600160a01b0316815260200191505060206040518083038186803b15801561130157600080fd5b505afa158015611315573d6000803e3d6000fd5b505050506040513d602081101561132b57600080fd5b50515b6113695760405162461bcd60e51b815260040180806020018281038252602b8152602001806144ed602b913960400191505060405180910390fd5b611372816130c1565b6113ad5760405162461bcd60e51b815260040180806020018281038252603a81526020018061471f603a913960400191505060405180910390fd5b6001600160a01b038116611408576040805162461bcd60e51b815260206004820152601d60248201527f6e6577205f73747261746567792063616e6e6f7420626520656d707479000000604482015290519081900360640190fd5b611410611d58565b6001600160a01b0316816001600160a01b0316636f307dc36040518163ffffffff1660e01b815260040160206040518083038186803b15801561145257600080fd5b505afa158015611466573d6000803e3d6000fd5b505050506040513d602081101561147c57600080fd5b50516001600160a01b0316146114c35760405162461bcd60e51b815260040180806020018281038252602f815260200180614679602f913960400191505060405180910390fd5b306001600160a01b0316816001600160a01b031663fbfa77cf6040518163ffffffff1660e01b815260040160206040518083038186803b15801561150657600080fd5b505afa15801561151a573d6000803e3d6000fd5b505050506040513d602081101561153057600080fd5b50516001600160a01b0316146115775760405162461bcd60e51b815260040180806020018281038252602a8152602001806145c7602a913960400191505060405180910390fd5b7f254c88e7a2ea123aeeb89b7cc413fb949188fefcdb7584c4f3d493294daf65c5816115a1612bca565b604080516001600160a01b03938416815291909216602082015281519081900390910190a16115ce612bca565b6001600160a01b0316816001600160a01b0316146116ae5760006115f0612bca565b6001600160a01b03161461168457611629611609612bca565b6000611613611d58565b6001600160a01b0316919063ffffffff61384e16565b611631612bca565b6001600160a01b031663bfd131f16040518163ffffffff1660e01b8152600401600060405180830381600087803b15801561166b57600080fd5b505af115801561167f573d6000803e3d6000fd5b505050505b61168d81613961565b611698611609612bca565b6116ae6116a3612bca565b600019611613611d58565b610d24612f59565b3332148061174a57506116c761312c565b6001600160a01b03166330e412ad336040518263ffffffff1660e01b815260040180826001600160a01b03166001600160a01b0316815260200191505060206040518083038186803b15801561171c57600080fd5b505afa158015611730573d6000803e3d6000fd5b505050506040513d602081101561174657600080fd5b5051155b6117855760405162461bcd60e51b81526004018080602001828103825260288152602001806146516028913960400191505060405180910390fd5b61179082338361398b565b5050565b6000610a506117a161316e565b84610f3385603460006117b261316e565b6001600160a01b03908116825260208083019390935260409182016000908120918c16815292529020549063ffffffff6132ae16565b600054610100900460ff168061180157506118016133e2565b8061180f575060005460ff16155b61184a5760405162461bcd60e51b815260040180806020018281038252602e8152602001806146f1602e913960400191505060405180910390fd5b600054610100900460ff16158015611875576000805460ff1961ff0019909116610100171660011790555b61187e87613ba2565b61188786613bcc565b61189085613bf6565b61189984613c20565b6118a283613c4a565b6118ab82613c74565b6118b5600061330f565b6118bf6000613339565b6118c884613c9e565b6118d26000613cc8565b6118dc6000613cf2565b80156118ee576000805461ff00191690555b50505050505050565b6000610a64613d1c565b600061190b612bca565b6001600160a01b03161415611962576040805162461bcd60e51b815260206004820152601860248201527714dd1c985d1959de481b5d5cdd081899481919599a5b995960421b604482015290519081900360640190fd5b61196a613289565b6001600160a01b031663b429afeb336040518263ffffffff1660e01b815260040180826001600160a01b03166001600160a01b0316815260200191505060206040518083038186803b1580156119bf57600080fd5b505afa1580156119d3573d6000803e3d6000fd5b505050506040513d60208110156119e957600080fd5b505180611a7b57506119f9613289565b6001600160a01b031663dee1f0e4336040518263ffffffff1660e01b815260040180826001600160a01b03166001600160a01b0316815260200191505060206040518083038186803b158015611a4e57600080fd5b505afa158015611a62573d6000803e3d6000fd5b505050506040513d6020811015611a7857600080fd5b50515b611ab65760405162461bcd60e51b815260040180806020018281038252602b8152602001806144ed602b913960400191505060405180910390fd5b611abe613d47565b15611b1e57611acb612bca565b6001600160a01b031663bfd131f16040518163ffffffff1660e01b8152600401600060405180830381600087803b158015611b0557600080fd5b505af1158015611b19573d6000803e3d6000fd5b505050505b611b26613d72565b611b2e612bca565b6001600160a01b0316634fa5d8546040518163ffffffff1660e01b8152600401600060405180830381600087803b158015611b6857600080fd5b505af1158015611b7c573d6000803e3d6000fd5b505050506000611b8a611d7d565b9050611b94612ecb565b611bf45780611ba16136d9565b1115611bf4576040805162461bcd60e51b815260206004820152601f60248201527f53686172652070726963652073686f756c64206e6f7420646563726561736500604482015290519081900360640190fd5b610d2481613c9e565b611c05613289565b6001600160a01b031663dee1f0e4336040518263ffffffff1660e01b815260040180826001600160a01b03166001600160a01b0316815260200191505060206040518083038186803b158015611c5a57600080fd5b505afa158015611c6e573d6000803e3d6000fd5b505050506040513d6020811015611c8457600080fd5b5051611cc8576040805162461bcd60e51b815260206004820152600e60248201526d4e6f7420676f7665726e616e636560901b604482015290519081900360640190fd5b610d2481613cc8565b6000610a64613e2f565b6000611ce5613289565b6001600160a01b0316635aa6e6756040518163ffffffff1660e01b815260040160206040518083038186803b158015611d1d57600080fd5b505afa158015611d31573d6000803e3d6000fd5b505050506040513d6020811015611d4757600080fd5b5051905090565b6000610a64613e5a565b6000610a64613e85565b6001600160a01b031660009081526033602052604090205490565b6000611d87610e03565b15611dbb57611db6611d97610e03565b611028611da2610e09565b611daa611cd1565b9063ffffffff61371a16565b610a64565b610a64611cd1565b6000610a64613eb0565b611dd5613289565b6001600160a01b031663b429afeb336040518263ffffffff1660e01b815260040180826001600160a01b03166001600160a01b0316815260200191505060206040518083038186803b158015611e2a57600080fd5b505afa158015611e3e573d6000803e3d6000fd5b505050506040513d6020811015611e5457600080fd5b505180611ee65750611e64613289565b6001600160a01b031663dee1f0e4336040518263ffffffff1660e01b815260040180826001600160a01b03166001600160a01b0316815260200191505060206040518083038186803b158015611eb957600080fd5b505afa158015611ecd573d6000803e3d6000fd5b505050506040513d6020811015611ee357600080fd5b50515b611f215760405162461bcd60e51b815260040180806020018281038252602b8152602001806144ed602b913960400191505060405180910390fd5b6000611f2b612bca565b6001600160a01b03161415611f82576040805162461bcd60e51b815260206004820152601860248201527714dd1c985d1959de481b5d5cdd081899481919599a5b995960421b604482015290519081900360640190fd5b611f8a612bca565b6001600160a01b031663bfd131f16040518163ffffffff1660e01b8152600401600060405180830381600087803b158015611fc457600080fd5b505af1158015610dfd573d6000803e3d6000fd5b600080611fec611fe784611d62565b612ed5565b509392505050565b600054610100900460ff168061200d575061200d6133e2565b8061201b575060005460ff16155b6120565760405162461bcd60e51b815260040180806020018281038252602e8152602001806146f1602e913960400191505060405180910390fd5b600054610100900460ff16158015612081576000805460ff1961ff0019909116610100171660011790555b818311156120d6576040805162461bcd60e51b815260206004820152601c60248201527f63616e6e6f7420696e76657374206d6f7265207468616e203130302500000000604482015290519081900360640190fd5b8161211d576040805162461bcd60e51b8152602060048201526012602482015271063616e6e6f742064697669646520627920360741b604482015290519081900360640190fd5b6124ba846001600160a01b03166395d89b416040518163ffffffff1660e01b815260040160006040518083038186803b15801561215957600080fd5b505afa15801561216d573d6000803e3d6000fd5b505050506040513d6000823e601f3d908101601f19168201604052602081101561219657600080fd5b8101908080516040519392919084600160201b8211156121b557600080fd5b9083019060208201858111156121ca57600080fd5b8251600160201b8111828201881017156121e357600080fd5b82525081516020918201929091019080838360005b838110156122105781810151838201526020016121f8565b50505050905090810190601f16801561223d5780820380516001836020036101000a031916815260200191505b506040525050506040516020018080644641524d5f60d81b81525060050182805190602001908083835b602083106122865780518252601f199092019160209182019101612267565b6001836020036101000a038019825116818451168082178552505050505050905001915050604051602081830303815290604052856001600160a01b03166395d89b416040518163ffffffff1660e01b815260040160006040518083038186803b1580156122f357600080fd5b505afa158015612307573d6000803e3d6000fd5b505050506040513d6000823e601f3d908101601f19168201604052602081101561233057600080fd5b8101908080516040519392919084600160201b82111561234f57600080fd5b90830190602082018581111561236457600080fd5b8251600160201b81118282018810171561237d57600080fd5b82525081516020918201929091019080838360005b838110156123aa578181015183820152602001612392565b50505050905090810190601f1680156123d75780820380516001836020036101000a031916815260200191505b506040525050506040516020018080603360f91b81525060010182805190602001908083835b6020831061241c5780518252601f1990920191602091820191016123fd565b6001836020036101000a038019825116818451168082178552505050505050905001915050604051602081830303815290604052866001600160a01b031663313ce5676040518163ffffffff1660e01b815260040160206040518083038186803b15801561248957600080fd5b505afa15801561249d573d6000803e3d6000fd5b505050506040513d60208110156124b357600080fd5b5051610d27565b6124c385612e20565b6000846001600160a01b031663313ce5676040518163ffffffff1660e01b815260040160206040518083038186803b1580156124fe57600080fd5b505afa158015612512573d6000803e3d6000fd5b505050506040513d602081101561252857600080fd5b505160ff16600a0a905061a8c0806125448787878685806117e8565b5050508015612559576000805461ff00191690555b5050505050565b612568613289565b6001600160a01b031663dee1f0e4336040518263ffffffff1660e01b815260040180826001600160a01b03166001600160a01b0316815260200191505060206040518083038186803b1580156125bd57600080fd5b505afa1580156125d1573d6000803e3d6000fd5b505050506040513d60208110156125e757600080fd5b505161262b576040805162461bcd60e51b815260206004820152600e60248201526d4e6f7420676f7665726e616e636560901b604482015290519081900360640190fd5b6001600160a01b038116612686576040805162461bcd60e51b815260206004820152601e60248201527f6e65772073746f726167652073686f756c646e277420626520656d7074790000604482015290519081900360640190fd5b610d2481613edb565b612697613289565b6001600160a01b031663dee1f0e4336040518263ffffffff1660e01b815260040180826001600160a01b03166001600160a01b0316815260200191505060206040518083038186803b1580156126ec57600080fd5b505afa158015612700573d6000803e3d6000fd5b505050506040513d602081101561271657600080fd5b505161275a576040805162461bcd60e51b815260206004820152600e60248201526d4e6f7420676f7665726e616e636560901b604482015290519081900360640190fd5b610d2481613cf2565b60698054604080516020601f6002600019610100600188161502019095169490940493840181900481028201810190925282815260609390929091830182828015610a315780601f10610a0657610100808354040283529160200191610a31565b6127cc613289565b6001600160a01b031663dee1f0e4336040518263ffffffff1660e01b815260040180826001600160a01b03166001600160a01b0316815260200191505060206040518083038186803b15801561282157600080fd5b505afa158015612835573d6000803e3d6000fd5b505050506040513d602081101561284b57600080fd5b505161288f576040805162461bcd60e51b815260206004820152600e60248201526d4e6f7420676f7665726e616e636560901b604482015290519081900360640190fd5b612899600061338e565b6128a360006133b8565b6128b36128ae611d7d565b613c9e565b6128bd6000613cc8565b6128c76000613cf2565b6128cf611d7d565b6128d7612bfc565b14612921576040805162461bcd60e51b81526020600482015260156024820152741cda185c99481c1c9a58d94818dbdc9c9d5c1d1959605a1b604482015290519081900360640190fd5b612929612bd4565b156129655760405162461bcd60e51b815260040180806020018281038252602681526020018061457f6026913960400191505060405180910390fd5b61296d612ecb565b156129a95760405162461bcd60e51b81526004018080602001828103825260248152602001806148126024913960400191505060405180910390fd5b565b6000806129b6611dc3565b158015906129ca57506129c7611dc3565b42115b80156129e7575060006129db610a5a565b6001600160a01b031614155b6129ef610a5a565b915091509091565b6000610a50612a0461316e565b84610f338560405180606001604052806025815260200161486c6025913960346000612a2e61316e565b6001600160a01b03908116825260208083019390935260409182016000908120918d1681529252902054919063ffffffff61354616565b612a6d613289565b6001600160a01b031663dee1f0e4336040518263ffffffff1660e01b815260040180826001600160a01b03166001600160a01b0316815260200191505060206040518083038186803b158015612ac257600080fd5b505afa158015612ad6573d6000803e3d6000fd5b505050506040513d6020811015612aec57600080fd5b5051612b30576040805162461bcd60e51b815260206004820152600e60248201526d4e6f7420676f7665726e616e636560901b604482015290519081900360640190fd5b60008111612b6f5760405162461bcd60e51b815260040180806020018281038252602281526020018061453b6022913960400191505060405180910390fd5b80821115612bae5760405162461bcd60e51b815260040180806020018281038252603a8152602001806145f1603a913960400191505060405180910390fd5b612bb782613bcc565b61179081613bf6565b6000610a64613eff565b6000610a64613f2a565b6000610a64613d47565b6000610a50612beb61316e565b84846133e8565b6000610a64613f55565b6000610a646136d9565b600080612c27612c14613122565b611028612c1f6118f7565b611daa610e09565b90506000612c33612bca565b6001600160a01b03166345d01e4a6040518163ffffffff1660e01b815260040160206040518083038186803b158015612c6b57600080fd5b505afa158015612c7f573d6000803e3d6000fd5b505050506040513d6020811015612c9557600080fd5b50519050818110612cab57600092505050610a39565b6000612cbd838363ffffffff6137b516565b9050612cc7612dc1565b811115612cdb57612cd6612dc1565b612cdd565b805b9350505050610a39565b33321480612d7b5750612cf861312c565b6001600160a01b03166330e412ad336040518263ffffffff1660e01b815260040180826001600160a01b03166001600160a01b0316815260200191505060206040518083038186803b158015612d4d57600080fd5b505afa158015612d61573d6000803e3d6000fd5b505050506040513d6020811015612d7757600080fd5b5051155b612db65760405162461bcd60e51b81526004018080602001828103825260288152602001806146516028913960400191505060405180910390fd5b610d2481333361398b565b6000612dcb611d58565b6001600160a01b03166370a08231306040518263ffffffff1660e01b815260040180826001600160a01b03166001600160a01b0316815260200191505060206040518083038186803b158015611d1d57600080fd5b600054610100900460ff1680612e395750612e396133e2565b80612e47575060005460ff16155b612e825760405162461bcd60e51b815260040180806020018281038252602e8152602001806146f1602e913960400191505060405180910390fd5b600054610100900460ff16158015612ead576000805460ff1961ff0019909116610100171660011790555b612eb682613f80565b8015611790576000805461ff00191690555050565b6000610a64614016565b6000806000612ee26136d9565b90506000612eee611d7d565b9050612f08612efb611cd1565b61102861101b8585613704565b612f23612f13611cd1565b611028888563ffffffff61371a16565b935093505050915091565b6001600160a01b03918216600090815260346020908152604080832093909416825291909152205490565b612f61613289565b6001600160a01b031663b429afeb336040518263ffffffff1660e01b815260040180826001600160a01b03166001600160a01b0316815260200191505060206040518083038186803b158015612fb657600080fd5b505afa158015612fca573d6000803e3d6000fd5b505050506040513d6020811015612fe057600080fd5b5051806130725750612ff0613289565b6001600160a01b031663dee1f0e4336040518263ffffffff1660e01b815260040180826001600160a01b03166001600160a01b0316815260200191505060206040518083038186803b15801561304557600080fd5b505afa158015613059573d6000803e3d6000fd5b505050506040513d602081101561306f57600080fd5b50515b6130ad5760405162461bcd60e51b815260040180806020018281038252602b8152602001806144ed602b913960400191505060405180910390fd5b6130b7600061330f565b6129a96000613339565b6000806130cc612bca565b6001600160a01b03161480610a5457506130e4611d4e565b6001600160a01b0316826001600160a01b031614801561310a5750613107612bf2565b42115b8015610a545750600061311b612bf2565b1192915050565b6000610a64614041565b6000613136613289565b6001600160a01b031663f77c47916040518163ffffffff1660e01b815260040160206040518083038186803b158015611d1d57600080fd5b3390565b6001600160a01b0383166131b75760405162461bcd60e51b81526004018080602001828103825260248152602001806147c46024913960400191505060405180910390fd5b6001600160a01b0382166131fc5760405162461bcd60e51b81526004018080602001828103825260228152602001806145a56022913960400191505060405180910390fd5b6001600160a01b03808416600081815260346020908152604080832094871680845294825291829020859055815185815291517f8c5be1e5ebec7d5bd14f71427d1e84f3dd0314c0f7b2291e5b200ac8c7c3b9259281900390910190a3505050565b6000610a647fb1acf527cd7cd1668b30e5a9a1c0d845714604de29ce560150922c9d8c0937df614068565b7fa7ec62784904ff31cbcc32d09932a58e7f1e4476e1d041995b37c917990b16dc5490565b600082820183811015613308576040805162461bcd60e51b815260206004820152601b60248201527f536166654d6174683a206164646974696f6e206f766572666c6f770000000000604482015290519081900360640190fd5b9392505050565b610d247f56e7c0e75875c6497f0de657009613a32558904b5c10771a825cc330feff7e728261406c565b610d247fb441b53a4e42c2ca9182bc7ede99bedba7a5d9360d9dfbd31fa8ee2dc85906108261406c565b6000610a647f6d02338b2e4c913c0f7d380e2798409838a48a2c4d57d52742a808c82d713d8b614068565b610d247fb1acf527cd7cd1668b30e5a9a1c0d845714604de29ce560150922c9d8c0937df8261406c565b610d247f3bc747f4b148b37be485de3223c90b4468252967d2ea7f9fcbd8b6e653f434c98261406c565b303b1590565b6001600160a01b03831661342d5760405162461bcd60e51b815260040180806020018281038252602581526020018061479f6025913960400191505060405180910390fd5b6001600160a01b0382166134725760405162461bcd60e51b81526004018080602001828103825260238152602001806145186023913960400191505060405180910390fd5b6134b58160405180606001604052806026815260200161462b602691396001600160a01b038616600090815260336020526040902054919063ffffffff61354616565b6001600160a01b0380851660009081526033602052604080822093909355908416815220546134ea908263ffffffff6132ae16565b6001600160a01b0380841660008181526033602090815260409182902094909455805185815290519193928716927fddf252ad1be2c89b69c2b068fc378daa952ba7f163c4a11628f55a4df523b3ef92918290030190a3505050565b600081848411156135d55760405162461bcd60e51b81526004018080602001828103825283818151815260200191508051906020019080838360005b8381101561359a578181015183820152602001613582565b50505050905090810190601f1680156135c75780820380516001836020036101000a031916815260200191505b509250505060405180910390fd5b505050900390565b6001600160a01b0382166136225760405162461bcd60e51b815260040180806020018281038252602181526020018061477e6021913960400191505060405180910390fd5b6136658160405180606001604052806022815260200161455d602291396001600160a01b038516600090815260336020526040902054919063ffffffff61354616565b6001600160a01b038316600090815260336020526040902055603554613691908263ffffffff6137b516565b6035556040805182815290516000916001600160a01b038516917fddf252ad1be2c89b69c2b068fc378daa952ba7f163c4a11628f55a4df523b3ef9181900360200190a35050565b6000610a647fb1b621f8f6c231a376e5047acd2dcbe60d67c9e0b6b24f0600885e5e0f9b0d4d614068565b60008183106137135781613308565b5090919050565b60008261372957506000610a54565b8282028284828161373657fe5b04146133085760405162461bcd60e51b81526004018080602001828103825260218152602001806146a86021913960400191505060405180910390fd5b600061330883836040518060400160405280601a81526020017f536166654d6174683a206469766973696f6e206279207a65726f000000000000815250614070565b600061330883836040518060400160405280601e81526020017f536166654d6174683a207375627472616374696f6e206f766572666c6f770000815250613546565b604080516001600160a01b038416602482015260448082018490528251808303909101815260649091019091526020810180516001600160e01b031663a9059cbb60e01b1790526138499084906140d5565b505050565b8015806138d4575060408051636eb1769f60e11b81523060048201526001600160a01b03848116602483015291519185169163dd62ed3e91604480820192602092909190829003018186803b1580156138a657600080fd5b505afa1580156138ba573d6000803e3d6000fd5b505050506040513d60208110156138d057600080fd5b5051155b61390f5760405162461bcd60e51b81526004018080602001828103825260368152602001806148366036913960400191505060405180910390fd5b604080516001600160a01b038416602482015260448082018490528251808303909101815260649091019091526020810180516001600160e01b031663095ea7b360e01b1790526138499084906140d5565b610d247ff1a169aa0f736c2813818fdfbdc5755c31e0839c8f49831a16543496b28574ea8261406c565b600083116139d3576040805162461bcd60e51b815260206004820152601060248201526f043616e6e6f74206465706f73697420360841b604482015290519081900360640190fd5b6001600160a01b038116613a27576040805162461bcd60e51b81526020600482015260166024820152751a1bdb19195c881b5d5cdd081899481919599a5b995960521b604482015290519081900360640190fd5b6000613a31612bca565b6001600160a01b031614613aeb57613a47612bca565b6001600160a01b031663c2a2a07b6040518163ffffffff1660e01b815260040160206040518083038186803b158015613a7f57600080fd5b505afa158015613a93573d6000803e3d6000fd5b505050506040513d6020811015613aa957600080fd5b5051613aeb576040805162461bcd60e51b815260206004820152600c60248201526b2a37b79036bab1b41030b93160a11b604482015290519081900360640190fd5b6000613af56136d9565b90506000613b01611d7d565b90506000613b2a613b12848461428d565b611028613b1d611cd1565b899063ffffffff61371a16565b9050613b36848261429d565b613b5b853088613b44611d58565b6001600160a01b031692919063ffffffff61438f16565b6040805187815290516001600160a01b038616917fe1fffcc4923d04b559f4d29a8bfc6cda04eb5b0d3c460751c2402c5c5cc9109c919081900360200190a2505050505050565b610d247f1994607607e11d53306ef62e45e3bd85762c58d9bf38b5578bc4a258a26a73718261406c565b610d247f39122c9adfb653455d0c05043bd52fcfbc2be864e832efd3abc72ce5a3d7ed5a8261406c565b610d247f469a3bad2fab7b936c45eecd1f5da52af89cead3e2ed7f732b6f3fc92ed323088261406c565b610d247fa66bc57d4b4eed7c7687876ca77997588987307cb13ecc23f5e52725192e5fff8261406c565b610d247f82ddc3be3f0c1a6870327f78f4979a0b37b21b16736ef5be6a7a7a35e530bcf08261406c565b610d247f6d02338b2e4c913c0f7d380e2798409838a48a2c4d57d52742a808c82d713d8b8261406c565b610d247fb1b621f8f6c231a376e5047acd2dcbe60d67c9e0b6b24f0600885e5e0f9b0d4d8261406c565b610d247f22f7033891e85fc76735ebd320e0d3f546da431c4729c2f6d2613b11923aaaed826143e9565b610d247f4215fbb95dc0890d3e1660fb9089350f2d3f350c0a756934874cae6febf42a79826143e9565b6000610a647f39122c9adfb653455d0c05043bd52fcfbc2be864e832efd3abc72ce5a3d7ed5a614068565b6000610a647f4215fbb95dc0890d3e1660fb9089350f2d3f350c0a756934874cae6febf42a79614404565b6000613d7c612bca565b6001600160a01b03161415613dd3576040805162461bcd60e51b815260206004820152601860248201527714dd1c985d1959de481b5d5cdd081899481919599a5b995960421b604482015290519081900360640190fd5b6000613ddd612c06565b90508015610d2457613df9613df0612bca565b826111b9611d58565b6040805182815290517fa09b7ae452b7bffb9e204c3a016e80caeecf46f554d112644f36fa114dac6ffa9181900360200190a150565b6000610a647fa66bc57d4b4eed7c7687876ca77997588987307cb13ecc23f5e52725192e5fff614068565b6000610a647fb441b53a4e42c2ca9182bc7ede99bedba7a5d9360d9dfbd31fa8ee2dc8590610614068565b6000610a647f1994607607e11d53306ef62e45e3bd85762c58d9bf38b5578bc4a258a26a7371614068565b6000610a647f3bc747f4b148b37be485de3223c90b4468252967d2ea7f9fcbd8b6e653f434c9614068565b7fa7ec62784904ff31cbcc32d09932a58e7f1e4476e1d041995b37c917990b16dc55565b6000610a647f82ddc3be3f0c1a6870327f78f4979a0b37b21b16736ef5be6a7a7a35e530bcf0614068565b6000610a647ff1a169aa0f736c2813818fdfbdc5755c31e0839c8f49831a16543496b28574ea614068565b6000610a647f56e7c0e75875c6497f0de657009613a32558904b5c10771a825cc330feff7e72614068565b600054610100900460ff1680613f995750613f996133e2565b80613fa7575060005460ff16155b613fe25760405162461bcd60e51b815260040180806020018281038252602e8152602001806146f1602e913960400191505060405180910390fd5b600054610100900460ff1615801561400d576000805460ff1961ff0019909116610100171660011790555b612eb682613edb565b6000610a647f22f7033891e85fc76735ebd320e0d3f546da431c4729c2f6d2613b11923aaaed614404565b6000610a647f469a3bad2fab7b936c45eecd1f5da52af89cead3e2ed7f732b6f3fc92ed323085b5490565b9055565b600081836140bf5760405162461bcd60e51b815260206004820181815283516024840152835190928392604490910191908501908083836000831561359a578181015183820152602001613582565b5060008385816140cb57fe5b0495945050505050565b6140e7826001600160a01b0316614418565b614138576040805162461bcd60e51b815260206004820152601f60248201527f5361666545524332303a2063616c6c20746f206e6f6e2d636f6e747261637400604482015290519081900360640190fd5b60006060836001600160a01b0316836040518082805190602001908083835b602083106141765780518252601f199092019160209182019101614157565b6001836020036101000a0380198251168184511680821785525050505050509050019150506000604051808303816000865af19150503d80600081146141d8576040519150601f19603f3d011682016040523d82523d6000602084013e6141dd565b606091505b509150915081614234576040805162461bcd60e51b815260206004820181905260248201527f5361666545524332303a206c6f772d6c6576656c2063616c6c206661696c6564604482015290519081900360640190fd5b805115610dfd5780806020019051602081101561425057600080fd5b5051610dfd5760405162461bcd60e51b815260040180806020018281038252602a8152602001806147e8602a913960400191505060405180910390fd5b6000818310156137135781613308565b6001600160a01b0382166142f8576040805162461bcd60e51b815260206004820152601f60248201527f45524332303a206d696e7420746f20746865207a65726f206164647265737300604482015290519081900360640190fd5b60355461430b908263ffffffff6132ae16565b6035556001600160a01b038216600090815260336020526040902054614337908263ffffffff6132ae16565b6001600160a01b03831660008181526033602090815260408083209490945583518581529351929391927fddf252ad1be2c89b69c2b068fc378daa952ba7f163c4a11628f55a4df523b3ef9281900390910190a35050565b604080516001600160a01b0385811660248301528416604482015260648082018490528251808303909101815260849091019091526020810180516001600160e01b03166323b872dd60e01b179052610dfd9085906140d5565b61179082826143f95760006143fc565b60015b60ff1661406c565b600061440f82614068565b60011492915050565b6000813f7fc5d2460186f7233c927e7db2dcc703c0e500b653ca82273b7bfad8045d85a47081811480159061444c57508115155b949350505050565b828054600181600116156101000203166002900490600052602060002090601f016020900481019282601f1061449557805160ff19168380011785556144c2565b828001600101855582156144c2579182015b828111156144c25782518255916020019190600101906144a7565b506144ce9291506144d2565b5090565b610a3991905b808211156144ce57600081556001016144d856fe5468652063616c6c6572206d75737420626520636f6e74726f6c6c6572206f7220676f7665726e616e636545524332303a207472616e7366657220746f20746865207a65726f206164647265737364656e6f6d696e61746f72206d7573742062652067726561746572207468616e203045524332303a206275726e20616d6f756e7420657863656564732062616c616e636577697468647261774265666f72655265696e76657374696e6720697320696e636f727265637445524332303a20617070726f766520746f20746865207a65726f206164647265737374686520737472617465677920646f6573206e6f742062656c6f6e6720746f2074686973207661756c7464656e6f6d696e61746f72206d7573742062652067726561746572207468616e206f7220657175616c20746f20746865206e756d657261746f7245524332303a207472616e7366657220616d6f756e7420657863656564732062616c616e63655468697320736d61727420636f6e747261637420686173206265656e2067726579206c69737465645661756c7420756e6465726c79696e67206d757374206d6174636820537472617465677920756e6465726c79696e67536166654d6174683a206d756c7469706c69636174696f6e206f766572666c6f7745524332303a207472616e7366657220616d6f756e74206578636565647320616c6c6f77616e6365436f6e747261637420696e7374616e63652068617320616c7265616479206265656e20696e697469616c697a65645468652073747261746567792065786973747320616e64207377697463682074696d656c6f636b20646964206e6f7420656c61707365207965746e756d6265724f66536861726573206d7573742062652067726561746572207468616e203045524332303a206275726e2066726f6d20746865207a65726f206164647265737345524332303a207472616e736665722066726f6d20746865207a65726f206164647265737345524332303a20617070726f76652066726f6d20746865207a65726f20616464726573735361666545524332303a204552433230206f7065726174696f6e20646964206e6f742073756363656564616c6c6f7753686172655072696365446563726561736520697320696e636f72726563745361666545524332303a20617070726f76652066726f6d206e6f6e2d7a65726f20746f206e6f6e2d7a65726f20616c6c6f77616e636545524332303a2064656372656173656420616c6c6f77616e63652062656c6f77207a65726fa265627a7a723158204fe30158e19aa0673823b3b214597ca9a354ee5aaac3a261713330af885bc33f64736f6c63430005100032656970313936372e7661756c7453746f726167652e616c6c6f77536861726550726963654465637265617365656970313936372e7661756c7453746f726167652e7661756c744672616374696f6e546f496e766573744e756d657261746f72656970313936372e7661756c7453746f726167652e6e657874496d706c656d656e746174696f6e54696d657374616d70656970313936372e7661756c7453746f726167652e77697468647261774265666f72655265696e76657374696e67656970313936372e7661756c7453746f726167652e7661756c744672616374696f6e546f496e7665737444656e6f6d696e61746f72656970313936372e7661756c7453746f726167652e737472617465677955706461746554696d65656970313936372e7661756c7453746f726167652e737472617465677954696d654c6f636b656970313936372e7661756c7453746f726167652e6e657874496d706c656d656e746174696f6e44656c6179656970313936372e7661756c7453746f726167652e756e6465726c79696e67556e6974656970313936372e7661756c7453746f726167652e6e657874496d706c656d656e746174696f6e656970313936372e7661756c7453746f726167652e73686172655072696365436865636b706f696e74656970313936372e7661756c7453746f726167652e6675747572655374726174656779",
  "source": "pragma solidity 0.5.16;\n\nimport \"../Vault.sol\";\n\ncontract VaultUSDT is Vault {\n}\n",
  "sourcePath": "/home/madhav/Vaults/contracts/Vaults/VaultUSDT.sol",
  "compiler": {
    "name": "solc",
    "version": "0.5.16+commit.9c3226ce.Emscripten.clang"
  },
  "schemaVersion": "3.2.5",
  "updatedAt": "2020-12-07T16:16:44.095Z",
  "devdoc": {
    "methods": {
      "allowance(address,address)": {
        "details": "See {IERC20-allowance}."
      },
      "approve(address,uint256)": {
        "details": "See {IERC20-approve}.     * Requirements:     * - `spender` cannot be the zero address."
      },
      "balanceOf(address)": {
        "details": "See {IERC20-balanceOf}."
      },
      "decimals()": {
        "details": "Returns the number of decimals used to get its user representation. For example, if `decimals` equals `2`, a balance of `505` tokens should be displayed to a user as `5,05` (`505 / 10 ** 2`).     * Tokens usually opt for a value of 18, imitating the relationship between Ether and Wei.     * NOTE: This information is only used for _display_ purposes: it in no way affects any of the arithmetic of the contract, including {IERC20-balanceOf} and {IERC20-transfer}."
      },
      "decreaseAllowance(address,uint256)": {
        "details": "Atomically decreases the allowance granted to `spender` by the caller.     * This is an alternative to {approve} that can be used as a mitigation for problems described in {IERC20-approve}.     * Emits an {Approval} event indicating the updated allowance.     * Requirements:     * - `spender` cannot be the zero address. - `spender` must have allowance for the caller of at least `subtractedValue`."
      },
      "increaseAllowance(address,uint256)": {
        "details": "Atomically increases the allowance granted to `spender` by the caller.     * This is an alternative to {approve} that can be used as a mitigation for problems described in {IERC20-approve}.     * Emits an {Approval} event indicating the updated allowance.     * Requirements:     * - `spender` cannot be the zero address."
      },
      "initialize(string,string,uint8)": {
        "details": "Sets the values for `name`, `symbol`, and `decimals`. All three of these values are immutable: they can only be set once during construction."
      },
      "name()": {
        "details": "Returns the name of the token."
      },
      "symbol()": {
        "details": "Returns the symbol of the token, usually a shorter version of the name."
      },
      "totalSupply()": {
        "details": "See {IERC20-totalSupply}."
      },
      "transfer(address,uint256)": {
        "details": "See {IERC20-transfer}.     * Requirements:     * - `recipient` cannot be the zero address. - the caller must have a balance of at least `amount`."
      },
      "transferFrom(address,address,uint256)": {
        "details": "See {IERC20-transferFrom}.     * Emits an {Approval} event indicating the updated allowance. This is not required by the EIP. See the note at the beginning of {ERC20};     * Requirements: - `sender` and `recipient` cannot be the zero address. - `sender` must have a balance of at least `amount`. - the caller must have allowance for `sender`'s tokens of at least `amount`."
      }
    }
  },
  "userdoc": {
    "methods": {
      "announceStrategyUpdate(address)": {
        "notice": "Indicates that the strategy update will happen in the future"
      },
      "doHardWork()": {
        "notice": "Chooses the best strategy and re-invests. If the strategy did not change, it just calls doHardWork on the current strategy. Call this through controller to claim hard rewards."
      },
      "finalizeStrategyUpdate()": {
        "notice": "Finalizes (or cancels) the strategy update by resetting the data"
      },
      "scheduleUpgrade(address)": {
        "notice": "Schedules an upgrade for this vault's proxy."
      }
    }
  }
}