{
  "contractName": "VaultMigratorStrategy",
  "abi": [
    {
      "inputs": [
        {
          "internalType": "address",
          "name": "_storage",
          "type": "address"
        },
        {
          "internalType": "address",
          "name": "_underlying",
          "type": "address"
        },
        {
          "internalType": "address",
          "name": "_vault",
          "type": "address"
        },
        {
          "internalType": "address",
          "name": "_newVault",
          "type": "address"
        }
      ],
      "payable": false,
      "stateMutability": "nonpayable",
      "type": "constructor"
    },
    {
      "constant": true,
      "inputs": [],
      "name": "controller",
      "outputs": [
        {
          "internalType": "address",
          "name": "",
          "type": "address"
        }
      ],
      "payable": false,
      "stateMutability": "view",
      "type": "function"
    },
    {
      "constant": true,
      "inputs": [],
      "name": "governance",
      "outputs": [
        {
          "internalType": "address",
          "name": "",
          "type": "address"
        }
      ],
      "payable": false,
      "stateMutability": "view",
      "type": "function"
    },
    {
      "constant": true,
      "inputs": [],
      "name": "migrator",
      "outputs": [
        {
          "internalType": "address",
          "name": "",
          "type": "address"
        }
      ],
      "payable": false,
      "stateMutability": "view",
      "type": "function"
    },
    {
      "constant": true,
      "inputs": [],
      "name": "newVault",
      "outputs": [
        {
          "internalType": "address",
          "name": "",
          "type": "address"
        }
      ],
      "payable": false,
      "stateMutability": "view",
      "type": "function"
    },
    {
      "constant": false,
      "inputs": [
        {
          "internalType": "address",
          "name": "_store",
          "type": "address"
        }
      ],
      "name": "setStorage",
      "outputs": [],
      "payable": false,
      "stateMutability": "nonpayable",
      "type": "function"
    },
    {
      "constant": true,
      "inputs": [],
      "name": "store",
      "outputs": [
        {
          "internalType": "contract Storage",
          "name": "",
          "type": "address"
        }
      ],
      "payable": false,
      "stateMutability": "view",
      "type": "function"
    },
    {
      "constant": true,
      "inputs": [],
      "name": "underlying",
      "outputs": [
        {
          "internalType": "contract IERC20",
          "name": "",
          "type": "address"
        }
      ],
      "payable": false,
      "stateMutability": "view",
      "type": "function"
    },
    {
      "constant": true,
      "inputs": [
        {
          "internalType": "address",
          "name": "",
          "type": "address"
        }
      ],
      "name": "unsalvagableTokens",
      "outputs": [
        {
          "internalType": "bool",
          "name": "",
          "type": "bool"
        }
      ],
      "payable": false,
      "stateMutability": "view",
      "type": "function"
    },
    {
      "constant": true,
      "inputs": [],
      "name": "vault",
      "outputs": [
        {
          "internalType": "contract IVault",
          "name": "",
          "type": "address"
        }
      ],
      "payable": false,
      "stateMutability": "view",
      "type": "function"
    },
    {
      "constant": true,
      "inputs": [],
      "name": "depositArbCheck",
      "outputs": [
        {
          "internalType": "bool",
          "name": "",
          "type": "bool"
        }
      ],
      "payable": false,
      "stateMutability": "view",
      "type": "function"
    },
    {
      "constant": true,
      "inputs": [],
      "name": "investedUnderlyingBalance",
      "outputs": [
        {
          "internalType": "uint256",
          "name": "",
          "type": "uint256"
        }
      ],
      "payable": false,
      "stateMutability": "view",
      "type": "function"
    },
    {
      "constant": false,
      "inputs": [],
      "name": "investAllUnderlying",
      "outputs": [],
      "payable": false,
      "stateMutability": "nonpayable",
      "type": "function"
    },
    {
      "constant": false,
      "inputs": [
        {
          "internalType": "address",
          "name": "_migrator",
          "type": "address"
        }
      ],
      "name": "setMigrator",
      "outputs": [],
      "payable": false,
      "stateMutability": "nonpayable",
      "type": "function"
    },
    {
      "constant": false,
      "inputs": [],
      "name": "rebalance",
      "outputs": [],
      "payable": false,
      "stateMutability": "nonpayable",
      "type": "function"
    },
    {
      "constant": false,
      "inputs": [],
      "name": "withdrawAllToVault",
      "outputs": [],
      "payable": false,
      "stateMutability": "nonpayable",
      "type": "function"
    },
    {
      "constant": false,
      "inputs": [
        {
          "internalType": "uint256",
          "name": "amountWei",
          "type": "uint256"
        }
      ],
      "name": "withdrawToVault",
      "outputs": [],
      "payable": false,
      "stateMutability": "nonpayable",
      "type": "function"
    },
    {
      "constant": false,
      "inputs": [],
      "name": "migrateToNewVault",
      "outputs": [],
      "payable": false,
      "stateMutability": "nonpayable",
      "type": "function"
    },
    {
      "constant": false,
      "inputs": [],
      "name": "doHardWork",
      "outputs": [],
      "payable": false,
      "stateMutability": "nonpayable",
      "type": "function"
    },
    {
      "constant": false,
      "inputs": [
        {
          "internalType": "address",
          "name": "destination",
          "type": "address"
        },
        {
          "internalType": "address",
          "name": "token",
          "type": "address"
        },
        {
          "internalType": "uint256",
          "name": "amount",
          "type": "uint256"
        }
      ],
      "name": "salvage",
      "outputs": [],
      "payable": false,
      "stateMutability": "nonpayable",
      "type": "function"
    }
  ],
  "bytecode": "0x608060405234801561001057600080fd5b506040516117bc3803806117bc8339818101604052608081101561003357600080fd5b508051602082015160408301516060909301519192909183806001600160a01b0381166100a7576040805162461bcd60e51b815260206004820152601e60248201527f6e65772073746f726167652073686f756c646e277420626520656d7074790000604482015290519081900360640190fd5b600080546001600160a01b0319166001600160a01b0392831617905584161515905061011a576040805162461bcd60e51b815260206004820152601b60248201527f5f756e6465726c79696e672063616e6e6f7420626520656d7074790000000000604482015290519081900360640190fd5b6001600160a01b038216610175576040805162461bcd60e51b815260206004820152601660248201527f5f7661756c742063616e6e6f7420626520656d70747900000000000000000000604482015290519081900360640190fd5b6001600160a01b0381166101d0576040805162461bcd60e51b815260206004820152601960248201527f5f6e65775661756c742063616e6e6f7420626520656d70747900000000000000604482015290519081900360640190fd5b826001600160a01b0316816001600160a01b0316636f307dc36040518163ffffffff1660e01b815260040160206040518083038186803b15801561021357600080fd5b505afa158015610227573d6000803e3d6000fd5b505050506040513d602081101561023d57600080fd5b50516001600160a01b03161461029a576040805162461bcd60e51b815260206004820152601560248201527f756e6465726c79696e67206d757374206d617463680000000000000000000000604482015290519081900360640190fd5b6001600160a01b039283166000818152600560205260409020805460ff1916600190811790915580546001600160a01b03199081169092179055600280549385169382169390931790925560038054919093169116179055506114ba806103026000396000f3fe608060405234801561001057600080fd5b50600436106101215760003560e01c80637d7c2a1c116100ad578063bfd131f111610071578063bfd131f11461025a578063c2a2a07b14610262578063ce8c42e81461026a578063f77c479114610287578063fbfa77cf1461028f57610121565b80637d7c2a1c1461019e57806388aaf0c81461021c5780639137c1a714610224578063975057e71461024a5780639d46c0091461025257610121565b80634fa5d854116100f45780634fa5d854146101a657806350185946146101ae5780635aa6e675146101e85780636f307dc31461020c5780637cd07e471461021457610121565b80631113ef521461012657806323cf31181461015e57806345d01e4a146101845780634a8cfa691461019e575b600080fd5b61015c6004803603606081101561013c57600080fd5b506001600160a01b03813581169160208101359091169060400135610297565b005b61015c6004803603602081101561017457600080fd5b50356001600160a01b031661039d565b61018c610478565b60408051918252519081900360200190f35b61015c6104f4565b61015c6104f6565b6101d4600480360360208110156101c457600080fd5b50356001600160a01b0316610555565b604080519115158252519081900360200190f35b6101f061056a565b604080516001600160a01b039092168252519081900360200190f35b6101f06105b9565b6101f06105c8565b6101f06105d7565b61015c6004803603602081101561023a57600080fd5b50356001600160a01b03166105e6565b6101f061071c565b61015c61072b565b61015c610d0b565b6101d4610e3a565b61015c6004803603602081101561028057600080fd5b5035610e3f565b6101f0610f05565b6101f0610f54565b6002546001600160a01b03163314806102c857506102b3610f05565b6001600160a01b0316336001600160a01b0316145b806102eb57506102d661056a565b6001600160a01b0316336001600160a01b0316145b6103265760405162461bcd60e51b815260040180806020018281038252603a81526020018061139d603a913960400191505060405180910390fd5b6001600160a01b03821660009081526005602052604090205460ff161561037e5760405162461bcd60e51b81526004018080602001828103825260238152602001806113d76023913960400191505060405180910390fd5b6103986001600160a01b038316848363ffffffff610f6316565b505050565b600054604080516337b87c3960e21b815233600482015290516001600160a01b039092169163dee1f0e491602480820192602092909190829003018186803b1580156103e857600080fd5b505afa1580156103fc573d6000803e3d6000fd5b505050506040513d602081101561041257600080fd5b5051610456576040805162461bcd60e51b815260206004820152600e60248201526d4e6f7420676f7665726e616e636560901b604482015290519081900360640190fd5b600480546001600160a01b0319166001600160a01b0392909216919091179055565b600154604080516370a0823160e01b815230600482015290516000926001600160a01b0316916370a08231916024808301926020929190829003018186803b1580156104c357600080fd5b505afa1580156104d7573d6000803e3d6000fd5b505050506040513d60208110156104ed57600080fd5b5051905090565b565b6002546001600160a01b031633146104f4576040805162461bcd60e51b815260206004820152601c60248201527f5468652063616c6c6572206d75737420626520746865207661756c7400000000604482015290519081900360640190fd5b60056020526000908152604090205460ff1681565b60008060009054906101000a90046001600160a01b03166001600160a01b0316635aa6e6756040518163ffffffff1660e01b815260040160206040518083038186803b1580156104c357600080fd5b6001546001600160a01b031681565b6004546001600160a01b031681565b6003546001600160a01b031681565b600054604080516337b87c3960e21b815233600482015290516001600160a01b039092169163dee1f0e491602480820192602092909190829003018186803b15801561063157600080fd5b505afa158015610645573d6000803e3d6000fd5b505050506040513d602081101561065b57600080fd5b505161069f576040805162461bcd60e51b815260206004820152600e60248201526d4e6f7420676f7665726e616e636560901b604482015290519081900360640190fd5b6001600160a01b0381166106fa576040805162461bcd60e51b815260206004820152601e60248201527f6e65772073746f726167652073686f756c646e277420626520656d7074790000604482015290519081900360640190fd5b600080546001600160a01b0319166001600160a01b0392909216919091179055565b6000546001600160a01b031681565b600054604080516337b87c3960e21b815233600482015290516001600160a01b039092169163dee1f0e491602480820192602092909190829003018186803b15801561077657600080fd5b505afa15801561078a573d6000803e3d6000fd5b505050506040513d60208110156107a057600080fd5b50516107e4576040805162461bcd60e51b815260206004820152600e60248201526d4e6f7420676f7665726e616e636560901b604482015290519081900360640190fd5b600154604080516370a0823160e01b815230600482015290516000926001600160a01b0316916370a08231916024808301926020929190829003018186803b15801561082f57600080fd5b505afa158015610843573d6000803e3d6000fd5b505050506040513d602081101561085957600080fd5b5051600154600354604080516370a0823160e01b81526001600160a01b039283166004820152905193945060009391909216916370a08231916024808301926020929190829003018186803b1580156108b157600080fd5b505afa1580156108c5573d6000803e3d6000fd5b505050506040513d60208110156108db57600080fd5b5051600354600154919250610904916001600160a01b039081169116600063ffffffff610fb516565b600354600154610927916001600160a01b0391821691168463ffffffff610fb516565b6003546040805163b6b55f2560e01b81526004810185905290516001600160a01b039092169163b6b55f259160248082019260009290919082900301818387803b15801561097457600080fd5b505af1158015610988573d6000803e3d6000fd5b5050600154600354604080516370a0823160e01b81526001600160a01b0392831660048201529051879550610a1d9450869392909216916370a0823191602480820192602092909190829003018186803b1580156109e557600080fd5b505afa1580156109f9573d6000803e3d6000fd5b505050506040513d6020811015610a0f57600080fd5b50519063ffffffff6110c816565b14610a6f576040805162461bcd60e51b815260206004820152601b60248201527f756e6465726c79696e672062616c616e6365206d69736d617463680000000000604482015290519081900360640190fd5b600354604080516370a0823160e01b815230600482015290516000926001600160a01b0316916370a08231916024808301926020929190829003018186803b158015610aba57600080fd5b505afa158015610ace573d6000803e3d6000fd5b505050506040513d6020811015610ae457600080fd5b50516004549091506001600160a01b0316610b3a576040805162461bcd60e51b81526020600482015260116024820152704d69677261746f72206e6f74207365742160781b604482015290519081900360640190fd5b60035460048054604080516370a0823160e01b81526001600160a01b03928316938101939093525160009391909116916370a08231916024808301926020929190829003018186803b158015610b8f57600080fd5b505afa158015610ba3573d6000803e3d6000fd5b505050506040513d6020811015610bb957600080fd5b5051600454600354919250610be2916001600160a01b039081169116600063ffffffff610fb516565b600454600354610c05916001600160a01b0391821691168463ffffffff610fb516565b60048054604080516364d45aad60e11b815290516001600160a01b039092169263c9a8b55a92828201926000929082900301818387803b158015610c4857600080fd5b505af1158015610c5c573d6000803e3d6000fd5b505060035460048054604080516370a0823160e01b81526001600160a01b039283169381019390935251879550610cba9450869391909116916370a08231916024808301926020929190829003018186803b1580156109e557600080fd5b14610d05576040805162461bcd60e51b81526020600482015260166024820152750e6d0c2e4ca40c4c2d8c2dcc6ca40dad2e6dac2e8c6d60531b604482015290519081900360640190fd5b50505050565b6002546001600160a01b0316331480610d3c5750610d27610f05565b6001600160a01b0316336001600160a01b0316145b80610d5f5750610d4a61056a565b6001600160a01b0316336001600160a01b0316145b610d9a5760405162461bcd60e51b815260040180806020018281038252603a81526020018061139d603a913960400191505060405180910390fd5b600154604080516370a0823160e01b815230600482015290516000926001600160a01b0316916370a08231916024808301926020929190829003018186803b158015610de557600080fd5b505afa158015610df9573d6000803e3d6000fd5b505050506040513d6020811015610e0f57600080fd5b5051600254600154919250610e37916001600160a01b0390811691168363ffffffff610f6316565b50565b600090565b6002546001600160a01b0316331480610e705750610e5b610f05565b6001600160a01b0316336001600160a01b0316145b80610e935750610e7e61056a565b6001600160a01b0316336001600160a01b0316145b610ece5760405162461bcd60e51b815260040180806020018281038252603a81526020018061139d603a913960400191505060405180910390fd5b60405162461bcd60e51b815260040180806020018281038252602c8152602001806113fa602c913960400191505060405180910390fd5b60008060009054906101000a90046001600160a01b03166001600160a01b031663f77c47916040518163ffffffff1660e01b815260040160206040518083038186803b1580156104c357600080fd5b6002546001600160a01b031681565b604080516001600160a01b038416602482015260448082018490528251808303909101815260649091019091526020810180516001600160e01b031663a9059cbb60e01b179052610398908490611111565b80158061103b575060408051636eb1769f60e11b81523060048201526001600160a01b03848116602483015291519185169163dd62ed3e91604480820192602092909190829003018186803b15801561100d57600080fd5b505afa158015611021573d6000803e3d6000fd5b505050506040513d602081101561103757600080fd5b5051155b6110765760405162461bcd60e51b81526004018080602001828103825260368152602001806114506036913960400191505060405180910390fd5b604080516001600160a01b038416602482015260448082018490528251808303909101815260649091019091526020810180516001600160e01b031663095ea7b360e01b179052610398908490611111565b600061110a83836040518060400160405280601e81526020017f536166654d6174683a207375627472616374696f6e206f766572666c6f7700008152506112c9565b9392505050565b611123826001600160a01b0316611360565b611174576040805162461bcd60e51b815260206004820152601f60248201527f5361666545524332303a2063616c6c20746f206e6f6e2d636f6e747261637400604482015290519081900360640190fd5b60006060836001600160a01b0316836040518082805190602001908083835b602083106111b25780518252601f199092019160209182019101611193565b6001836020036101000a0380198251168184511680821785525050505050509050019150506000604051808303816000865af19150503d8060008114611214576040519150601f19603f3d011682016040523d82523d6000602084013e611219565b606091505b509150915081611270576040805162461bcd60e51b815260206004820181905260248201527f5361666545524332303a206c6f772d6c6576656c2063616c6c206661696c6564604482015290519081900360640190fd5b805115610d055780806020019051602081101561128c57600080fd5b5051610d055760405162461bcd60e51b815260040180806020018281038252602a815260200180611426602a913960400191505060405180910390fd5b600081848411156113585760405162461bcd60e51b81526004018080602001828103825283818151815260200191508051906020019080838360005b8381101561131d578181015183820152602001611305565b50505050905090810190601f16801561134a5780820380516001836020036101000a031916815260200191505b509250505060405180910390fd5b505050900390565b6000813f7fc5d2460186f7233c927e7db2dcc703c0e500b653ca82273b7bfad8045d85a47081811480159061139457508115155b94935050505056fe5468652073656e6465722068617320746f2062652074686520636f6e74726f6c6c6572206f72207661756c74206f7220676f7665726e616e6365746f6b656e20697320646566696e6564206173206e6f742073616c7661676561626c65576974686472617773207468726f7567682074686973207374726174656779206172652064697361626c65645361666545524332303a204552433230206f7065726174696f6e20646964206e6f7420737563636565645361666545524332303a20617070726f76652066726f6d206e6f6e2d7a65726f20746f206e6f6e2d7a65726f20616c6c6f77616e6365a265627a7a72315820589a5f8f329876baed0337063c96e18f685c74b8eaef177a3b7c4dec953affb864736f6c63430005100032",
  "source": "pragma solidity 0.5.16;\n\nimport \"@openzeppelin/contracts/token/ERC20/IERC20.sol\";\nimport \"@openzeppelin/contracts/utils/Address.sol\";\nimport \"@openzeppelin/contracts/math/SafeMath.sol\";\nimport \"@openzeppelin/contracts/token/ERC20/SafeERC20.sol\";\nimport \"../hardworkInterface/IStrategy.sol\";\nimport \"../Controllable.sol\";\nimport \"../hardworkInterface/IMigrator.sol\";\nimport \"../hardworkInterface/IVault.sol\";\n\n\ncontract VaultMigratorStrategy is IStrategy, Controllable {\n  using SafeERC20 for IERC20;\n  using Address for address;\n  using SafeMath for uint256;\n\n  IERC20 public underlying;\n  IVault public vault;\n  address public newVault;\n  address public migrator;\n  mapping(address => bool) public unsalvagableTokens;\n\n  constructor(\n    address _storage,\n    address _underlying,\n    address _vault,\n    address _newVault\n  ) public\n  Controllable(_storage) {\n    require(_underlying != address(0), \"_underlying cannot be empty\");\n    require(_vault != address(0), \"_vault cannot be empty\");\n    require(_newVault != address(0), \"_newVault cannot be empty\");\n\n    require(IVault(_newVault).underlying() == _underlying, \"underlying must match\");\n\n    unsalvagableTokens[_underlying] = true;\n    underlying = IERC20(_underlying);\n    vault = IVault(_vault);\n    newVault = _newVault;\n  }\n\n  modifier restricted() {\n    require(msg.sender == address(vault) || msg.sender == address(controller()) || msg.sender == address(governance()),\n      \"The sender has to be the controller or vault or governance\");\n    _;\n  }\n\n  function depositArbCheck() public view returns(bool) {\n    return false; // disable deposits\n  }\n\n  modifier onlyVault() {\n    require(msg.sender == address(vault), \"The caller must be the vault\");\n    _;\n  }\n\n  /*\n  * Returns the total amount.\n  */\n  function investedUnderlyingBalance() view public returns (uint256) {\n    return underlying.balanceOf(address(this));\n  }\n\n  /*\n  * Invests all tokens that were accumulated so far\n  */\n  function investAllUnderlying() public {\n    // a no-op\n  }\n\n  function setMigrator(address _migrator) external onlyGovernance {\n    migrator = _migrator;\n  }\n\n  function rebalance() public {\n    // a no-op\n  }\n\n  /*\n  * withdraws to the vault (in case migration is aborted)\n  */\n  function withdrawAllToVault() external restricted {\n    uint256 balance = IERC20(underlying).balanceOf(address(this));\n    IERC20(underlying).safeTransfer(address(vault), balance);\n  }\n\n  /*\n  * Cashes some amount out and withdraws to the vault\n  */\n  function withdrawToVault(uint256 amountWei) external restricted {\n    revert(\"Withdraws through this strategy are disabled\");\n  }\n\n  // initiates the migration. Assumes all underling balance is already\n  // in the strategy (transferred from the vault by doHardWork)\n  function migrateToNewVault() external onlyGovernance {\n    uint256 entireUnderlyingBalance = underlying.balanceOf(address(this));\n\n    uint256 newVaultBalanceBefore = underlying.balanceOf(newVault);\n    underlying.safeApprove(newVault, 0);\n    underlying.safeApprove(newVault, entireUnderlyingBalance);\n    IVault(newVault).deposit(entireUnderlyingBalance);\n    require(underlying.balanceOf(newVault).sub(newVaultBalanceBefore) == entireUnderlyingBalance, \"underlying balance mismatch\");\n\n    uint256 entireShareBalance = IERC20(newVault).balanceOf(address(this));\n\n    require(migrator != address(0), \"Migrator not set!\");\n    uint256 migratorBalanceBefore = IERC20(newVault).balanceOf(migrator);\n    IERC20(newVault).safeApprove(migrator, 0);\n    IERC20(newVault).safeApprove(migrator, entireShareBalance);\n    IMigrator(migrator).pullFromStrategy();\n    require(IERC20(newVault).balanceOf(migrator).sub(migratorBalanceBefore) == entireShareBalance, \"share balance mismatch\");\n  }\n\n  function doHardWork() external onlyVault {\n    // a no-op\n  }\n\n  // should only be called by controller\n  function salvage(address destination, address token, uint256 amount) external restricted {\n    require(!unsalvagableTokens[token], \"token is defined as not salvageable\");\n    IERC20(token).safeTransfer(destination, amount);\n  }\n}\n",
  "sourcePath": "/home/madhav/Vaults/contracts/strategies/VaultMigratorStrategy.sol",
  "compiler": {
    "name": "solc",
    "version": "0.5.16+commit.9c3226ce.Emscripten.clang"
  },
  "schemaVersion": "3.2.5",
  "updatedAt": "2020-12-05T16:27:34.971Z",
  "devdoc": {
    "methods": {}
  },
  "userdoc": {
    "methods": {}
  }
}