{
  "contractName": "VaultFactory",
  "abi": [
    {
      "inputs": [
        {
          "internalType": "address",
          "name": "_storage",
          "type": "address"
        }
      ],
      "payable": false,
      "stateMutability": "nonpayable",
      "type": "constructor"
    },
    {
      "anonymous": false,
      "inputs": [
        {
          "indexed": false,
          "internalType": "address",
          "name": "vault",
          "type": "address"
        }
      ],
      "name": "NewVault",
      "type": "event"
    },
    {
      "constant": true,
      "inputs": [],
      "name": "controller",
      "outputs": [
        {
          "internalType": "address",
          "name": "",
          "type": "address"
        }
      ],
      "payable": false,
      "stateMutability": "view",
      "type": "function"
    },
    {
      "constant": true,
      "inputs": [],
      "name": "governance",
      "outputs": [
        {
          "internalType": "address",
          "name": "",
          "type": "address"
        }
      ],
      "payable": false,
      "stateMutability": "view",
      "type": "function"
    },
    {
      "constant": false,
      "inputs": [
        {
          "internalType": "address",
          "name": "_store",
          "type": "address"
        }
      ],
      "name": "setStorage",
      "outputs": [],
      "payable": false,
      "stateMutability": "nonpayable",
      "type": "function"
    },
    {
      "constant": true,
      "inputs": [],
      "name": "store",
      "outputs": [
        {
          "internalType": "contract Storage",
          "name": "",
          "type": "address"
        }
      ],
      "payable": false,
      "stateMutability": "view",
      "type": "function"
    },
    {
      "constant": false,
      "inputs": [
        {
          "internalType": "address",
          "name": "_implementation",
          "type": "address"
        },
        {
          "internalType": "address",
          "name": "_storage",
          "type": "address"
        },
        {
          "internalType": "address",
          "name": "_underlying",
          "type": "address"
        },
        {
          "internalType": "uint256",
          "name": "_toInvestNumerator",
          "type": "uint256"
        },
        {
          "internalType": "uint256",
          "name": "_toInvestDenominator",
          "type": "uint256"
        }
      ],
      "name": "createVault",
      "outputs": [
        {
          "internalType": "address",
          "name": "",
          "type": "address"
        }
      ],
      "payable": false,
      "stateMutability": "nonpayable",
      "type": "function"
    }
  ],
  "bytecode": "0x608060405234801561001057600080fd5b50604051610ad6380380610ad68339818101604052602081101561003357600080fd5b505180806001600160a01b038116610092576040805162461bcd60e51b815260206004820152601e60248201527f6e65772073746f726167652073686f756c646e277420626520656d7074790000604482015290519081900360640190fd5b600080546001600160a01b039092166001600160a01b03199092169190911790555050610a12806100c46000396000f3fe608060405234801561001057600080fd5b50600436106100575760003560e01c806310bdba0f1461005c5780635aa6e675146100ba5780639137c1a7146100c2578063975057e7146100ea578063f77c4791146100f2575b600080fd5b61009e600480360360a081101561007257600080fd5b506001600160a01b038135811691602081013582169160408201351690606081013590608001356100fa565b604080516001600160a01b039092168252519081900360200190f35b61009e6102b4565b6100e8600480360360208110156100d857600080fd5b50356001600160a01b0316610334565b005b61009e61046a565b61009e610479565b60008054604080516337b87c3960e21b815233600482015290516001600160a01b039092169163dee1f0e491602480820192602092909190829003018186803b15801561014657600080fd5b505afa15801561015a573d6000803e3d6000fd5b505050506040513d602081101561017057600080fd5b50516101b4576040805162461bcd60e51b815260206004820152600e60248201526d4e6f7420676f7665726e616e636560901b604482015290519081900360640190fd5b6000866040516101c3906104c8565b6001600160a01b03909116815260405190819003602001906000f0801580156101f0573d6000803e3d6000fd5b50604080516323f05c2360e21b81526001600160a01b03898116600483015288811660248301526044820188905260648201879052915192935090831691638fc1708c9160848082019260009290919082900301818387803b15801561025557600080fd5b505af1158015610269573d6000803e3d6000fd5b5050604080516001600160a01b038516815290517f2cd7a531712f8899004c782d9607e0886d1dbc91bfac7be88dadf6750d9e14199350908190036020019150a19695505050505050565b60008060009054906101000a90046001600160a01b03166001600160a01b0316635aa6e6756040518163ffffffff1660e01b815260040160206040518083038186803b15801561030357600080fd5b505afa158015610317573d6000803e3d6000fd5b505050506040513d602081101561032d57600080fd5b5051905090565b600054604080516337b87c3960e21b815233600482015290516001600160a01b039092169163dee1f0e491602480820192602092909190829003018186803b15801561037f57600080fd5b505afa158015610393573d6000803e3d6000fd5b505050506040513d60208110156103a957600080fd5b50516103ed576040805162461bcd60e51b815260206004820152600e60248201526d4e6f7420676f7665726e616e636560901b604482015290519081900360640190fd5b6001600160a01b038116610448576040805162461bcd60e51b815260206004820152601e60248201527f6e65772073746f726167652073686f756c646e277420626520656d7074790000604482015290519081900360640190fd5b600080546001600160a01b0319166001600160a01b0392909216919091179055565b6000546001600160a01b031681565b60008060009054906101000a90046001600160a01b03166001600160a01b031663f77c47916040518163ffffffff1660e01b815260040160206040518083038186803b15801561030357600080fd5b610508806104d68339019056fe608060405234801561001057600080fd5b506040516105083803806105088339818101604052602081101561003357600080fd5b5051610047816001600160e01b0361004d16565b506100c5565b610060816100bf60201b6103621760201c565b61009b5760405162461bcd60e51b815260040180806020018281038252603b8152602001806104cd603b913960400191505060405180910390fd5b7f360894a13ba1a3210667c828492db98dca3e2076cc3735a920a3ca505d382bbc55565b3b151590565b6103f9806100d46000396000f3fe6080604052600436106100295760003560e01c80635c60da1b14610033578063d55ec69714610064575b610031610079565b005b34801561003f57600080fd5b50610048610093565b604080516001600160a01b039092168252519081900360200190f35b34801561007057600080fd5b506100316100a2565b610081610091565b61009161008c610271565b610296565b565b600061009d610271565b905090565b600080306001600160a01b0316639d16acfd6040518163ffffffff1660e01b8152600401604080518083038186803b1580156100dd57600080fd5b505afa1580156100f1573d6000803e3d6000fd5b505050506040513d604081101561010757600080fd5b50805160209091015190925090508161015f576040805162461bcd60e51b8152602060048201526015602482015274155c19dc985919481b9bdd081cd8da19591d5b1959605a1b604482015290519081900360640190fd5b610168816102ba565b60408051600481526024810182526020810180516001600160e01b0316634d28464760e11b1781529151815160009360609330939092909182918083835b602083106101c55780518252601f1990920191602091820191016101a6565b6001836020036101000a038019825116818451168082178552505050505050905001915050600060405180830381855af49150503d8060008114610225576040519150601f19603f3d011682016040523d82523d6000602084013e61022a565b606091505b50915091508161026b5760405162461bcd60e51b81526004018080602001828103825260218152602001806103696021913960400191505060405180910390fd5b50505050565b7f360894a13ba1a3210667c828492db98dca3e2076cc3735a920a3ca505d382bbc5490565b3660008037600080366000845af43d6000803e8080156102b5573d6000f35b3d6000fd5b6102c3816102fa565b6040516001600160a01b038216907fbc7cd75a20ee27fd9adebab32041f755214dbc6bffa90cc0225b39da2e5c2d3b90600090a250565b61030381610362565b61033e5760405162461bcd60e51b815260040180806020018281038252603b81526020018061038a603b913960400191505060405180910390fd5b7f360894a13ba1a3210667c828492db98dca3e2076cc3735a920a3ca505d382bbc55565b3b15159056fe4973737565207768656e2066696e616c697a696e6720746865207570677261646543616e6e6f742073657420612070726f787920696d706c656d656e746174696f6e20746f2061206e6f6e2d636f6e74726163742061646472657373a265627a7a72315820858495ae67b8fdd37282619745999678092f9790f8405bed5797700a09976a8564736f6c6343000510003243616e6e6f742073657420612070726f787920696d706c656d656e746174696f6e20746f2061206e6f6e2d636f6e74726163742061646472657373a265627a7a72315820c08c0c453fca01b437b54e08d06573a3aecf0406c21031c05c164398ccb9f8aa64736f6c63430005100032",
  "source": "pragma solidity 0.5.16;\n\nimport \"./VaultProxy.sol\";\nimport \"./Vault.sol\";\nimport \"./Controllable.sol\";\n\ncontract VaultFactory is Controllable {\n\n  event NewVault(address vault);\n\n  constructor(address _storage) Controllable(_storage) public {}\n\n  function createVault(\n    address _implementation,\n    address _storage,\n    address _underlying,\n    uint256 _toInvestNumerator,\n    uint256 _toInvestDenominator\n  ) public onlyGovernance returns(address) {\n    VaultProxy proxy = new VaultProxy(_implementation);\n    Vault(address(proxy)).initializeVault(_storage,\n      _underlying,\n      _toInvestNumerator,\n      _toInvestDenominator\n    );\n    emit NewVault(address(proxy));\n    return address(proxy);\n  }\n}\n",
  "sourcePath": "/home/madhav/Vaults/contracts/VaultFactory.sol",
  "compiler": {
    "name": "solc",
    "version": "0.5.16+commit.9c3226ce.Emscripten.clang"
  },
  "schemaVersion": "3.2.5",
  "updatedAt": "2020-12-05T16:27:34.886Z",
  "devdoc": {
    "methods": {}
  },
  "userdoc": {
    "methods": {}
  }
}