{
  "contractName": "VaultWithdrawDisabledStrategy",
  "abi": [
    {
      "inputs": [
        {
          "internalType": "address",
          "name": "_storage",
          "type": "address"
        },
        {
          "internalType": "address",
          "name": "_underlying",
          "type": "address"
        },
        {
          "internalType": "address",
          "name": "_vault",
          "type": "address"
        }
      ],
      "payable": false,
      "stateMutability": "nonpayable",
      "type": "constructor"
    },
    {
      "constant": true,
      "inputs": [],
      "name": "allowWithdraw",
      "outputs": [
        {
          "internalType": "bool",
          "name": "",
          "type": "bool"
        }
      ],
      "payable": false,
      "stateMutability": "view",
      "type": "function"
    },
    {
      "constant": true,
      "inputs": [],
      "name": "controller",
      "outputs": [
        {
          "internalType": "address",
          "name": "",
          "type": "address"
        }
      ],
      "payable": false,
      "stateMutability": "view",
      "type": "function"
    },
    {
      "constant": true,
      "inputs": [],
      "name": "governance",
      "outputs": [
        {
          "internalType": "address",
          "name": "",
          "type": "address"
        }
      ],
      "payable": false,
      "stateMutability": "view",
      "type": "function"
    },
    {
      "constant": false,
      "inputs": [
        {
          "internalType": "address",
          "name": "_store",
          "type": "address"
        }
      ],
      "name": "setStorage",
      "outputs": [],
      "payable": false,
      "stateMutability": "nonpayable",
      "type": "function"
    },
    {
      "constant": true,
      "inputs": [],
      "name": "store",
      "outputs": [
        {
          "internalType": "contract Storage",
          "name": "",
          "type": "address"
        }
      ],
      "payable": false,
      "stateMutability": "view",
      "type": "function"
    },
    {
      "constant": true,
      "inputs": [],
      "name": "underlying",
      "outputs": [
        {
          "internalType": "contract IERC20",
          "name": "",
          "type": "address"
        }
      ],
      "payable": false,
      "stateMutability": "view",
      "type": "function"
    },
    {
      "constant": true,
      "inputs": [
        {
          "internalType": "address",
          "name": "",
          "type": "address"
        }
      ],
      "name": "unsalvagableTokens",
      "outputs": [
        {
          "internalType": "bool",
          "name": "",
          "type": "bool"
        }
      ],
      "payable": false,
      "stateMutability": "view",
      "type": "function"
    },
    {
      "constant": true,
      "inputs": [],
      "name": "vault",
      "outputs": [
        {
          "internalType": "contract IVault",
          "name": "",
          "type": "address"
        }
      ],
      "payable": false,
      "stateMutability": "view",
      "type": "function"
    },
    {
      "constant": true,
      "inputs": [],
      "name": "depositArbCheck",
      "outputs": [
        {
          "internalType": "bool",
          "name": "",
          "type": "bool"
        }
      ],
      "payable": false,
      "stateMutability": "view",
      "type": "function"
    },
    {
      "constant": true,
      "inputs": [],
      "name": "investedUnderlyingBalance",
      "outputs": [
        {
          "internalType": "uint256",
          "name": "",
          "type": "uint256"
        }
      ],
      "payable": false,
      "stateMutability": "view",
      "type": "function"
    },
    {
      "constant": false,
      "inputs": [],
      "name": "investAllUnderlying",
      "outputs": [],
      "payable": false,
      "stateMutability": "nonpayable",
      "type": "function"
    },
    {
      "constant": false,
      "inputs": [
        {
          "internalType": "bool",
          "name": "value",
          "type": "bool"
        }
      ],
      "name": "setAllowWithdraw",
      "outputs": [],
      "payable": false,
      "stateMutability": "nonpayable",
      "type": "function"
    },
    {
      "constant": false,
      "inputs": [],
      "name": "rebalance",
      "outputs": [],
      "payable": false,
      "stateMutability": "nonpayable",
      "type": "function"
    },
    {
      "constant": false,
      "inputs": [],
      "name": "withdrawAllToVault",
      "outputs": [],
      "payable": false,
      "stateMutability": "nonpayable",
      "type": "function"
    },
    {
      "constant": false,
      "inputs": [
        {
          "internalType": "uint256",
          "name": "amountWei",
          "type": "uint256"
        }
      ],
      "name": "withdrawToVault",
      "outputs": [],
      "payable": false,
      "stateMutability": "nonpayable",
      "type": "function"
    },
    {
      "constant": false,
      "inputs": [],
      "name": "doHardWork",
      "outputs": [],
      "payable": false,
      "stateMutability": "nonpayable",
      "type": "function"
    },
    {
      "constant": false,
      "inputs": [
        {
          "internalType": "address",
          "name": "destination",
          "type": "address"
        },
        {
          "internalType": "address",
          "name": "token",
          "type": "address"
        },
        {
          "internalType": "uint256",
          "name": "amount",
          "type": "uint256"
        }
      ],
      "name": "salvage",
      "outputs": [],
      "payable": false,
      "stateMutability": "nonpayable",
      "type": "function"
    }
  ],
  "bytecode": "0x608060405234801561001057600080fd5b50604051610efb380380610efb8339818101604052606081101561003357600080fd5b508051602082015160409092015190919082806001600160a01b0381166100a1576040805162461bcd60e51b815260206004820152601e60248201527f6e65772073746f726167652073686f756c646e277420626520656d7074790000604482015290519081900360640190fd5b600080546001600160a01b0319166001600160a01b03928316179055831615159050610114576040805162461bcd60e51b815260206004820152601b60248201527f5f756e6465726c79696e672063616e6e6f7420626520656d7074790000000000604482015290519081900360640190fd5b6001600160a01b03811661016f576040805162461bcd60e51b815260206004820152601660248201527f5f7661756c742063616e6e6f7420626520656d70747900000000000000000000604482015290519081900360640190fd5b816001600160a01b0316816001600160a01b0316636f307dc36040518163ffffffff1660e01b815260040160206040518083038186803b1580156101b257600080fd5b505afa1580156101c6573d6000803e3d6000fd5b505050506040513d60208110156101dc57600080fd5b50516001600160a01b031614610239576040805162461bcd60e51b815260206004820152601560248201527f756e6465726c79696e67206d757374206d617463680000000000000000000000604482015290519081900360640190fd5b6001600160a01b039182166000818152600360205260409020805460ff19908116600190811790925581546001600160a01b03199081169093179091556002805493909416929091169190911790915560048054909116905550610c59806102a26000396000f3fe608060405234801561001057600080fd5b506004361061010b5760003560e01c8063812806c2116100a2578063c2a2a07b11610071578063c2a2a07b1461022d578063ce8c42e814610235578063f1ead25214610252578063f77c47911461025a578063fbfa77cf146102625761010b565b8063812806c2146101d85780639137c1a7146101f7578063975057e71461021d578063bfd131f1146102255761010b565b806350185946116100de57806350185946146101725780635aa6e675146101ac5780636f307dc3146101d05780637d7c2a1c146101625761010b565b80631113ef521461011057806345d01e4a146101485780634a8cfa69146101625780634fa5d8541461016a575b600080fd5b6101466004803603606081101561012657600080fd5b506001600160a01b0381358116916020810135909116906040013561026a565b005b610150610370565b60408051918252519081900360200190f35b6101466103a9565b6101466103ab565b6101986004803603602081101561018857600080fd5b50356001600160a01b031661040a565b604080519115158252519081900360200190f35b6101b461041f565b604080516001600160a01b039092168252519081900360200190f35b6101b461049f565b610146600480360360208110156101ee57600080fd5b503515156104ae565b6101466004803603602081101561020d57600080fd5b50356001600160a01b031661057a565b6101b46106b0565b6101466106bf565b61019861078f565b6101466004803603602081101561024b57600080fd5b5035610794565b61019861085a565b6101b4610863565b6101b46108b2565b6002546001600160a01b031633148061029b5750610286610863565b6001600160a01b0316336001600160a01b0316145b806102be57506102a961041f565b6001600160a01b0316336001600160a01b0316145b6102f95760405162461bcd60e51b815260040180806020018281038252603a815260200180610b4a603a913960400191505060405180910390fd5b6001600160a01b03821660009081526003602052604090205460ff16156103515760405162461bcd60e51b8152600401808060200182810382526023815260200180610b846023913960400191505060405180910390fd5b61036b6001600160a01b038316848363ffffffff6108c116565b505050565b600060405162461bcd60e51b8152600401808060200182810382526041815260200180610b096041913960600191505060405180910390fd5b565b6002546001600160a01b031633146103a9576040805162461bcd60e51b815260206004820152601c60248201527f5468652063616c6c6572206d75737420626520746865207661756c7400000000604482015290519081900360640190fd5b60036020526000908152604090205460ff1681565b60008060009054906101000a90046001600160a01b03166001600160a01b0316635aa6e6756040518163ffffffff1660e01b815260040160206040518083038186803b15801561046e57600080fd5b505afa158015610482573d6000803e3d6000fd5b505050506040513d602081101561049857600080fd5b5051905090565b6001546001600160a01b031681565b600054604080516337b87c3960e21b815233600482015290516001600160a01b039092169163dee1f0e491602480820192602092909190829003018186803b1580156104f957600080fd5b505afa15801561050d573d6000803e3d6000fd5b505050506040513d602081101561052357600080fd5b5051610567576040805162461bcd60e51b815260206004820152600e60248201526d4e6f7420676f7665726e616e636560901b604482015290519081900360640190fd5b6004805460ff1916911515919091179055565b600054604080516337b87c3960e21b815233600482015290516001600160a01b039092169163dee1f0e491602480820192602092909190829003018186803b1580156105c557600080fd5b505afa1580156105d9573d6000803e3d6000fd5b505050506040513d60208110156105ef57600080fd5b5051610633576040805162461bcd60e51b815260206004820152600e60248201526d4e6f7420676f7665726e616e636560901b604482015290519081900360640190fd5b6001600160a01b03811661068e576040805162461bcd60e51b815260206004820152601e60248201527f6e65772073746f726167652073686f756c646e277420626520656d7074790000604482015290519081900360640190fd5b600080546001600160a01b0319166001600160a01b0392909216919091179055565b6000546001600160a01b031681565b6002546001600160a01b03163314806106f057506106db610863565b6001600160a01b0316336001600160a01b0316145b8061071357506106fe61041f565b6001600160a01b0316336001600160a01b0316145b61074e5760405162461bcd60e51b815260040180806020018281038252603a815260200180610b4a603a913960400191505060405180910390fd5b60045460ff166103a95760405162461bcd60e51b8152600401808060200182810382526054815260200180610bd16054913960600191505060405180910390fd5b600090565b6002546001600160a01b03163314806107c557506107b0610863565b6001600160a01b0316336001600160a01b0316145b806107e857506107d361041f565b6001600160a01b0316336001600160a01b0316145b6108235760405162461bcd60e51b815260040180806020018281038252603a815260200180610b4a603a913960400191505060405180910390fd5b60405162461bcd60e51b8152600401808060200182810382526054815260200180610bd16054913960600191505060405180910390fd5b60045460ff1681565b60008060009054906101000a90046001600160a01b03166001600160a01b031663f77c47916040518163ffffffff1660e01b815260040160206040518083038186803b15801561046e57600080fd5b6002546001600160a01b031681565b604080516001600160a01b038416602482015260448082018490528251808303909101815260649091019091526020810180516001600160e01b031663a9059cbb60e01b17905261036b908490610920826001600160a01b0316610acc565b610971576040805162461bcd60e51b815260206004820152601f60248201527f5361666545524332303a2063616c6c20746f206e6f6e2d636f6e747261637400604482015290519081900360640190fd5b60006060836001600160a01b0316836040518082805190602001908083835b602083106109af5780518252601f199092019160209182019101610990565b6001836020036101000a0380198251168184511680821785525050505050509050019150506000604051808303816000865af19150503d8060008114610a11576040519150601f19603f3d011682016040523d82523d6000602084013e610a16565b606091505b509150915081610a6d576040805162461bcd60e51b815260206004820181905260248201527f5361666545524332303a206c6f772d6c6576656c2063616c6c206661696c6564604482015290519081900360640190fd5b805115610ac657808060200190516020811015610a8957600080fd5b5051610ac65760405162461bcd60e51b815260040180806020018281038252602a815260200180610ba7602a913960400191505060405180910390fd5b50505050565b6000813f7fc5d2460186f7233c927e7db2dcc703c0e500b653ca82273b7bfad8045d85a470818114801590610b0057508115155b94935050505056fe44697361626c656420696e20746869732073747261746567792e204d69677261746520796f757220617373657473207573696e672074686520776562736974652e5468652073656e6465722068617320746f2062652074686520636f6e74726f6c6c6572206f72207661756c74206f7220676f7665726e616e6365746f6b656e20697320646566696e6564206173206e6f742073616c7661676561626c655361666545524332303a204552433230206f7065726174696f6e20646964206e6f742073756363656564576974686472617773207468726f7567682074686973207374726174656779206172652064697361626c65642e204d69677261746520796f757220617373657473207573696e672074686520776562736974652ea265627a7a723158205a6ed44fe3e67ec9726ad3d281acd47dd5db967d6f3adf459294c8a63f3a494d64736f6c63430005100032",
  "source": "pragma solidity 0.5.16;\n\nimport \"@openzeppelin/contracts/token/ERC20/IERC20.sol\";\nimport \"@openzeppelin/contracts/utils/Address.sol\";\nimport \"@openzeppelin/contracts/math/SafeMath.sol\";\nimport \"@openzeppelin/contracts/token/ERC20/SafeERC20.sol\";\nimport \"../hardworkInterface/IStrategy.sol\";\nimport \"../Controllable.sol\";\nimport \"../hardworkInterface/IMigrator.sol\";\nimport \"../hardworkInterface/IVault.sol\";\n\n\ncontract VaultWithdrawDisabledStrategy is IStrategy, Controllable {\n  using SafeERC20 for IERC20;\n  using Address for address;\n  using SafeMath for uint256;\n\n  IERC20 public underlying;\n  IVault public vault;\n  mapping(address => bool) public unsalvagableTokens;\n  bool public allowWithdraw;\n\n  constructor(\n    address _storage,\n    address _underlying,\n    address _vault\n  ) public\n  Controllable(_storage) {\n    require(_underlying != address(0), \"_underlying cannot be empty\");\n    require(_vault != address(0), \"_vault cannot be empty\");\n\n    require(IVault(_vault).underlying() == _underlying, \"underlying must match\");\n\n    unsalvagableTokens[_underlying] = true;\n    underlying = IERC20(_underlying);\n    vault = IVault(_vault);\n    allowWithdraw = false;\n  }\n\n  modifier restricted() {\n    require(msg.sender == address(vault) || msg.sender == address(controller()) || msg.sender == address(governance()),\n      \"The sender has to be the controller or vault or governance\");\n    _;\n  }\n\n  function depositArbCheck() public view returns(bool) {\n    return false; // disable deposits\n  }\n\n  modifier onlyVault() {\n    require(msg.sender == address(vault), \"The caller must be the vault\");\n    _;\n  }\n\n  /*\n  * Returns the total amount.\n  */\n  function investedUnderlyingBalance() view public returns (uint256) {\n    revert(\"Disabled in this strategy. Migrate your assets using the website.\");\n  }\n\n  /*\n  * Invests all tokens that were accumulated so far\n  */\n  function investAllUnderlying() public {\n    // a no-op\n  }\n\n  function setAllowWithdraw(bool value) external onlyGovernance {\n    allowWithdraw = value;\n  }\n\n  function rebalance() public {\n    // a no-op\n  }\n\n  /*\n  * withdraws to the vault (in case migration is aborted)\n  */\n  function withdrawAllToVault() external restricted {\n    if (!allowWithdraw) {\n      revert(\"Withdraws through this strategy are disabled. Migrate your assets using the website.\");\n    }\n  }\n\n  /*\n  * Cashes some amount out and withdraws to the vault\n  */\n  function withdrawToVault(uint256 amountWei) external restricted {\n    revert(\"Withdraws through this strategy are disabled. Migrate your assets using the website.\");\n  }\n\n  function doHardWork() external onlyVault {\n    // a no-op\n  }\n\n  // should only be called by controller\n  function salvage(address destination, address token, uint256 amount) external restricted {\n    require(!unsalvagableTokens[token], \"token is defined as not salvageable\");\n    IERC20(token).safeTransfer(destination, amount);\n  }\n}\n",
  "sourcePath": "/home/madhav/Vaults/contracts/strategies/VaultWithdrawDisabledStrategy.sol",
  "compiler": {
    "name": "solc",
    "version": "0.5.16+commit.9c3226ce.Emscripten.clang"
  },
  "schemaVersion": "3.2.5",
  "updatedAt": "2020-12-05T16:27:34.976Z",
  "devdoc": {
    "methods": {}
  },
  "userdoc": {
    "methods": {}
  }
}