{
  "contractName": "WETHCreamNoFoldStrategy",
  "abi": [
    {
      "inputs": [
        {
          "internalType": "address",
          "name": "_storage",
          "type": "address"
        },
        {
          "internalType": "address",
          "name": "_underlying",
          "type": "address"
        },
        {
          "internalType": "address",
          "name": "_ctoken",
          "type": "address"
        },
        {
          "internalType": "address",
          "name": "_vault",
          "type": "address"
        },
        {
          "internalType": "address",
          "name": "_comptroller",
          "type": "address"
        },
        {
          "internalType": "address",
          "name": "_comp",
          "type": "address"
        },
        {
          "internalType": "address",
          "name": "_uniswap",
          "type": "address"
        }
      ],
      "payable": false,
      "stateMutability": "nonpayable",
      "type": "constructor"
    },
    {
      "anonymous": false,
      "inputs": [
        {
          "indexed": false,
          "internalType": "uint256",
          "name": "profitAmount",
          "type": "uint256"
        },
        {
          "indexed": false,
          "internalType": "uint256",
          "name": "feeAmount",
          "type": "uint256"
        },
        {
          "indexed": false,
          "internalType": "uint256",
          "name": "timestamp",
          "type": "uint256"
        }
      ],
      "name": "ProfitLogInReward",
      "type": "event"
    },
    {
      "anonymous": false,
      "inputs": [],
      "name": "ProfitNotClaimed",
      "type": "event"
    },
    {
      "anonymous": false,
      "inputs": [],
      "name": "TooLowBalance",
      "type": "event"
    },
    {
      "payable": true,
      "stateMutability": "payable",
      "type": "fallback"
    },
    {
      "constant": true,
      "inputs": [],
      "name": "_weth",
      "outputs": [
        {
          "internalType": "contract IERC20",
          "name": "",
          "type": "address"
        }
      ],
      "payable": false,
      "stateMutability": "view",
      "type": "function"
    },
    {
      "constant": true,
      "inputs": [],
      "name": "allowEmergencyLiquidityShortage",
      "outputs": [
        {
          "internalType": "bool",
          "name": "",
          "type": "bool"
        }
      ],
      "payable": false,
      "stateMutability": "view",
      "type": "function"
    },
    {
      "constant": false,
      "inputs": [],
      "name": "claimComp",
      "outputs": [],
      "payable": false,
      "stateMutability": "nonpayable",
      "type": "function"
    },
    {
      "constant": true,
      "inputs": [],
      "name": "comp",
      "outputs": [
        {
          "internalType": "contract ERC20Detailed",
          "name": "",
          "type": "address"
        }
      ],
      "payable": false,
      "stateMutability": "view",
      "type": "function"
    },
    {
      "constant": true,
      "inputs": [],
      "name": "comptroller",
      "outputs": [
        {
          "internalType": "contract ComptrollerInterface",
          "name": "",
          "type": "address"
        }
      ],
      "payable": false,
      "stateMutability": "view",
      "type": "function"
    },
    {
      "constant": true,
      "inputs": [],
      "name": "controller",
      "outputs": [
        {
          "internalType": "address",
          "name": "",
          "type": "address"
        }
      ],
      "payable": false,
      "stateMutability": "view",
      "type": "function"
    },
    {
      "constant": true,
      "inputs": [],
      "name": "ctoken",
      "outputs": [
        {
          "internalType": "contract CompleteCToken",
          "name": "",
          "type": "address"
        }
      ],
      "payable": false,
      "stateMutability": "view",
      "type": "function"
    },
    {
      "constant": true,
      "inputs": [],
      "name": "getLiquidity",
      "outputs": [
        {
          "internalType": "uint256",
          "name": "",
          "type": "uint256"
        }
      ],
      "payable": false,
      "stateMutability": "view",
      "type": "function"
    },
    {
      "constant": true,
      "inputs": [],
      "name": "governance",
      "outputs": [
        {
          "internalType": "address",
          "name": "",
          "type": "address"
        }
      ],
      "payable": false,
      "stateMutability": "view",
      "type": "function"
    },
    {
      "constant": true,
      "inputs": [],
      "name": "liquidationAllowed",
      "outputs": [
        {
          "internalType": "bool",
          "name": "",
          "type": "bool"
        }
      ],
      "payable": false,
      "stateMutability": "view",
      "type": "function"
    },
    {
      "constant": true,
      "inputs": [],
      "name": "liquidityLoanCurrent",
      "outputs": [
        {
          "internalType": "uint256",
          "name": "",
          "type": "uint256"
        }
      ],
      "payable": false,
      "stateMutability": "view",
      "type": "function"
    },
    {
      "constant": true,
      "inputs": [],
      "name": "liquidityLoanTarget",
      "outputs": [
        {
          "internalType": "uint256",
          "name": "",
          "type": "uint256"
        }
      ],
      "payable": false,
      "stateMutability": "view",
      "type": "function"
    },
    {
      "constant": true,
      "inputs": [],
      "name": "liquidityRecipient",
      "outputs": [
        {
          "internalType": "address",
          "name": "",
          "type": "address"
        }
      ],
      "payable": false,
      "stateMutability": "view",
      "type": "function"
    },
    {
      "constant": true,
      "inputs": [],
      "name": "profitSharingDenominator",
      "outputs": [
        {
          "internalType": "uint256",
          "name": "",
          "type": "uint256"
        }
      ],
      "payable": false,
      "stateMutability": "view",
      "type": "function"
    },
    {
      "constant": true,
      "inputs": [],
      "name": "profitSharingNumerator",
      "outputs": [
        {
          "internalType": "uint256",
          "name": "",
          "type": "uint256"
        }
      ],
      "payable": false,
      "stateMutability": "view",
      "type": "function"
    },
    {
      "constant": true,
      "inputs": [],
      "name": "rewardToken",
      "outputs": [
        {
          "internalType": "address",
          "name": "",
          "type": "address"
        }
      ],
      "payable": false,
      "stateMutability": "view",
      "type": "function"
    },
    {
      "constant": true,
      "inputs": [],
      "name": "sellFloor",
      "outputs": [
        {
          "internalType": "uint256",
          "name": "",
          "type": "uint256"
        }
      ],
      "payable": false,
      "stateMutability": "view",
      "type": "function"
    },
    {
      "constant": false,
      "inputs": [
        {
          "internalType": "address",
          "name": "_store",
          "type": "address"
        }
      ],
      "name": "setStorage",
      "outputs": [],
      "payable": false,
      "stateMutability": "nonpayable",
      "type": "function"
    },
    {
      "constant": true,
      "inputs": [],
      "name": "store",
      "outputs": [
        {
          "internalType": "contract Storage",
          "name": "",
          "type": "address"
        }
      ],
      "payable": false,
      "stateMutability": "view",
      "type": "function"
    },
    {
      "constant": true,
      "inputs": [],
      "name": "suppliedInWETH",
      "outputs": [
        {
          "internalType": "uint256",
          "name": "",
          "type": "uint256"
        }
      ],
      "payable": false,
      "stateMutability": "view",
      "type": "function"
    },
    {
      "constant": true,
      "inputs": [],
      "name": "tenWeth",
      "outputs": [
        {
          "internalType": "uint256",
          "name": "",
          "type": "uint256"
        }
      ],
      "payable": false,
      "stateMutability": "view",
      "type": "function"
    },
    {
      "constant": true,
      "inputs": [],
      "name": "underlying",
      "outputs": [
        {
          "internalType": "contract ERC20Detailed",
          "name": "",
          "type": "address"
        }
      ],
      "payable": false,
      "stateMutability": "view",
      "type": "function"
    },
    {
      "constant": true,
      "inputs": [],
      "name": "uniswapRouterV2",
      "outputs": [
        {
          "internalType": "address",
          "name": "",
          "type": "address"
        }
      ],
      "payable": false,
      "stateMutability": "view",
      "type": "function"
    },
    {
      "constant": true,
      "inputs": [
        {
          "internalType": "address",
          "name": "",
          "type": "address"
        }
      ],
      "name": "unsalvagableTokens",
      "outputs": [
        {
          "internalType": "bool",
          "name": "",
          "type": "bool"
        }
      ],
      "payable": false,
      "stateMutability": "view",
      "type": "function"
    },
    {
      "constant": true,
      "inputs": [],
      "name": "vault",
      "outputs": [
        {
          "internalType": "address",
          "name": "",
          "type": "address"
        }
      ],
      "payable": false,
      "stateMutability": "view",
      "type": "function"
    },
    {
      "constant": true,
      "inputs": [],
      "name": "depositArbCheck",
      "outputs": [
        {
          "internalType": "bool",
          "name": "",
          "type": "bool"
        }
      ],
      "payable": false,
      "stateMutability": "view",
      "type": "function"
    },
    {
      "constant": false,
      "inputs": [],
      "name": "investAllUnderlying",
      "outputs": [],
      "payable": false,
      "stateMutability": "nonpayable",
      "type": "function"
    },
    {
      "constant": false,
      "inputs": [],
      "name": "withdrawAllToVault",
      "outputs": [],
      "payable": false,
      "stateMutability": "nonpayable",
      "type": "function"
    },
    {
      "constant": false,
      "inputs": [],
      "name": "emergencyExit",
      "outputs": [],
      "payable": false,
      "stateMutability": "nonpayable",
      "type": "function"
    },
    {
      "constant": false,
      "inputs": [],
      "name": "withdrawAll",
      "outputs": [],
      "payable": false,
      "stateMutability": "nonpayable",
      "type": "function"
    },
    {
      "constant": false,
      "inputs": [
        {
          "internalType": "uint256",
          "name": "amountUnderlying",
          "type": "uint256"
        }
      ],
      "name": "withdrawToVault",
      "outputs": [],
      "payable": false,
      "stateMutability": "nonpayable",
      "type": "function"
    },
    {
      "constant": false,
      "inputs": [],
      "name": "doHardWork",
      "outputs": [],
      "payable": false,
      "stateMutability": "nonpayable",
      "type": "function"
    },
    {
      "constant": false,
      "inputs": [
        {
          "internalType": "address",
          "name": "recipient",
          "type": "address"
        },
        {
          "internalType": "address",
          "name": "token",
          "type": "address"
        },
        {
          "internalType": "uint256",
          "name": "amount",
          "type": "uint256"
        }
      ],
      "name": "salvage",
      "outputs": [],
      "payable": false,
      "stateMutability": "nonpayable",
      "type": "function"
    },
    {
      "constant": true,
      "inputs": [],
      "name": "investedUnderlyingBalance",
      "outputs": [
        {
          "internalType": "uint256",
          "name": "",
          "type": "uint256"
        }
      ],
      "payable": false,
      "stateMutability": "view",
      "type": "function"
    },
    {
      "constant": false,
      "inputs": [
        {
          "internalType": "bool",
          "name": "allowed",
          "type": "bool"
        }
      ],
      "name": "setLiquidationAllowed",
      "outputs": [],
      "payable": false,
      "stateMutability": "nonpayable",
      "type": "function"
    },
    {
      "constant": false,
      "inputs": [
        {
          "internalType": "bool",
          "name": "allowed",
          "type": "bool"
        }
      ],
      "name": "setAllowLiquidityShortage",
      "outputs": [],
      "payable": false,
      "stateMutability": "nonpayable",
      "type": "function"
    },
    {
      "constant": false,
      "inputs": [
        {
          "internalType": "uint256",
          "name": "value",
          "type": "uint256"
        }
      ],
      "name": "setSellFloor",
      "outputs": [],
      "payable": false,
      "stateMutability": "nonpayable",
      "type": "function"
    },
    {
      "constant": false,
      "inputs": [],
      "name": "provideLoan",
      "outputs": [],
      "payable": false,
      "stateMutability": "nonpayable",
      "type": "function"
    },
    {
      "constant": false,
      "inputs": [
        {
          "internalType": "uint256",
          "name": "amount",
          "type": "uint256"
        }
      ],
      "name": "settleLoan",
      "outputs": [],
      "payable": false,
      "stateMutability": "nonpayable",
      "type": "function"
    },
    {
      "constant": false,
      "inputs": [
        {
          "internalType": "address",
          "name": "recipient",
          "type": "address"
        }
      ],
      "name": "setLiquidityRecipient",
      "outputs": [],
      "payable": false,
      "stateMutability": "nonpayable",
      "type": "function"
    },
    {
      "constant": false,
      "inputs": [
        {
          "internalType": "uint256",
          "name": "target",
          "type": "uint256"
        }
      ],
      "name": "setLiquidityLoanTarget",
      "outputs": [],
      "payable": false,
      "stateMutability": "nonpayable",
      "type": "function"
    }
  ],
  "bytecode": "0x6080604052600580546001600160a01b03191673c02aaa39b223fe8d0a0e5c4f27ead9083c756cc21790556012805460ff1990811660011790915560006013556014805490911690553480156200005557600080fd5b506040516200334d3803806200334d833981810160405260e08110156200007b57600080fd5b508051602082015160408301516060840151608085015160a086015160c0909601519495939492939192909190858584898581806001600160a01b0381166200010b576040805162461bcd60e51b815260206004820152601e60248201527f6e65772073746f726167652073686f756c646e277420626520656d7074790000604482015290519081900360640190fd5b600080546001600160a01b039283166001600160a01b03199182161790915560038054601e60019081556064600255600160a01b60ff60a01b1997861692851692909217969096161790556007805482168784161790556004805482168984161790556006805490911691871691909117905550604080518281528082019091526060925090602080830190803883390190505090508281600081518110620001b057fe5b6001600160a01b03928316602091820292909201810191909152600754604051631853304760e31b815260048101838152855160248301528551929094169363c299823893869391928392604490910191858101910280838360005b83811015620002265781810151838201526020016200020c565b5050505090500192505050600060405180830381600087803b1580156200024c57600080fd5b505af115801562000261573d6000803e3d6000fd5b505050506040513d6000823e601f3d908101601f1916820160405260208110156200028b57600080fd5b8101908080516040519392919084640100000000821115620002ac57600080fd5b908301906020820185811115620002c257600080fd5b8251866020820283011164010000000082111715620002e057600080fd5b82525081516020918201928201910280838360005b838110156200030f578181015183820152602001620002f5565b505050509190910160405250506005546001600160a01b038e8116911614965062000373955050505050505760405162461bcd60e51b815260040180806020018281038252602e8152602001806200331f602e913960400191505060405180910390fd5b600a80546001600160a01b03199081166001600160a01b0395861617909155600c80548216938516938417905560088054821697851697881790556009805482169685169687179055600b8054821695851695909517909455600d8054909416921691909117909155600092835260156020526040808420805460ff199081166001908117909255938552818520805485168217905591845283208054909216179055612ef7915081906200042890396000f3fe6080604052600436106102465760003560e01c80635fe3b56711610139578063b60f151a116100b6578063ccf3eb9f1161007a578063ccf3eb9f1461065e578063ce8c42e814610673578063f48d0c4a1461069d578063f77c4791146106b2578063f7c618c1146106c7578063fbfa77cf146106dc57610246565b8063b60f151a146105e0578063ba09591e146105f5578063bbfb20071461061f578063bfd131f114610634578063c2a2a07b1461064957610246565b80639137c1a7116100fd5780639137c1a7146105595780639642a65f1461058c578063975057e7146105a1578063a1764595146105b6578063a1dab23e146105cb57610246565b80635fe3b567146104db5780636f307dc3146104f05780637f09d3f314610505578063824c4f4e1461052f578063853828b61461054457610246565b80633fd8cd98116101c757806355b9b4a81161018b57806355b9b4a81461045b5780635641ec0314610470578063596fa9e3146104855780635976317f1461049a5780635aa6e675146104c657610246565b80633fd8cd98146103bd57806345d01e4a146103e95780634a8cfa69146103fe5780634fa5d85414610413578063501859461461042857610246565b80631bd85bdb1161020e5780631bd85bdb14610321578063215677c21461033657806327e4d2021461034b578063373aff7f146103755780633b308579146103a857610246565b8063026a0dd0146102485780630910a5101461026f57806309e5f66c14610284578063109d0af8146102ad5780631113ef52146102de575b005b34801561025457600080fd5b5061025d6106f1565b60408051918252519081900360200190f35b34801561027b57600080fd5b5061025d6106f7565b34801561029057600080fd5b5061029961076d565b604080519115158252519081900360200190f35b3480156102b957600080fd5b506102c2610776565b604080516001600160a01b039092168252519081900360200190f35b3480156102ea57600080fd5b506102466004803603606081101561030157600080fd5b506001600160a01b03813581169160208101359091169060400135610785565b34801561032d57600080fd5b506102466108b5565b34801561034257600080fd5b5061025d61091b565b34801561035757600080fd5b506102466004803603602081101561036e57600080fd5b5035610927565b34801561038157600080fd5b506102466004803603602081101561039857600080fd5b50356001600160a01b03166109e5565b3480156103b457600080fd5b5061025d610b13565b3480156103c957600080fd5b50610246600480360360208110156103e057600080fd5b50351515610b19565b3480156103f557600080fd5b5061025d610bbb565b34801561040a57600080fd5b50610246610c68565b34801561041f57600080fd5b50610246610df8565b34801561043457600080fd5b506102996004803603602081101561044b57600080fd5b50356001600160a01b0316610edb565b34801561046757600080fd5b5061025d610ef0565b34801561047c57600080fd5b50610246610ef6565b34801561049157600080fd5b506102c2611004565b3480156104a657600080fd5b50610246600480360360208110156104bd57600080fd5b50351515611013565b3480156104d257600080fd5b506102c26110b5565b3480156104e757600080fd5b506102c2611104565b3480156104fc57600080fd5b506102c2611113565b34801561051157600080fd5b506102466004803603602081101561052857600080fd5b5035611122565b34801561053b57600080fd5b5061025d61130e565b34801561055057600080fd5b50610246611314565b34801561056557600080fd5b506102466004803603602081101561057c57600080fd5b50356001600160a01b03166113d5565b34801561059857600080fd5b506102c261150b565b3480156105ad57600080fd5b506102c261151a565b3480156105c257600080fd5b506102c2611529565b3480156105d757600080fd5b5061025d611538565b3480156105ec57600080fd5b5061025d61153e565b34801561060157600080fd5b506102466004803603602081101561061857600080fd5b5035611544565b34801561062b57600080fd5b506102466115d8565b34801561064057600080fd5b50610246611894565b34801561065557600080fd5b506102996119c3565b34801561066a57600080fd5b506102c26119c8565b34801561067f57600080fd5b506102466004803603602081101561069657600080fd5b50356119d7565b3480156106a957600080fd5b50610299611c9d565b3480156106be57600080fd5b506102c2611ca6565b3480156106d357600080fd5b506102c2611cf5565b3480156106e857600080fd5b506102c2611d04565b60025481565b60065460408051631d8e90d160e11b815290516000926001600160a01b031691633b1d21a2916004808301926020929190829003018186803b15801561073c57600080fd5b505afa158015610750573d6000803e3d6000fd5b505050506040513d602081101561076657600080fd5b5051905090565b60125460ff1681565b600c546001600160a01b031681565b600054604080516337b87c3960e21b815233600482015290516001600160a01b039092169163dee1f0e491602480820192602092909190829003018186803b1580156107d057600080fd5b505afa1580156107e4573d6000803e3d6000fd5b505050506040513d60208110156107fa57600080fd5b505161083e576040805162461bcd60e51b815260206004820152600e60248201526d4e6f7420676f7665726e616e636560901b604482015290519081900360640190fd5b6001600160a01b03821660009081526015602052604090205460ff16156108965760405162461bcd60e51b8152600401808060200182810382526022815260200180612d716022913960400191505060405180910390fd5b6108b06001600160a01b038316848363ffffffff611d1316565b505050565b600754604080516374d7814960e11b815230600482015290516001600160a01b039092169163e9af02929160248082019260009290919082900301818387803b15801561090157600080fd5b505af1158015610915573d6000803e3d6000fd5b50505050565b678ac7230489e8000081565b600054604080516337b87c3960e21b815233600482015290516001600160a01b039092169163dee1f0e491602480820192602092909190829003018186803b15801561097257600080fd5b505afa158015610986573d6000803e3d6000fd5b505050506040513d602081101561099c57600080fd5b50516109e0576040805162461bcd60e51b815260206004820152600e60248201526d4e6f7420676f7665726e616e636560901b604482015290519081900360640190fd5b601155565b600054604080516337b87c3960e21b815233600482015290516001600160a01b039092169163dee1f0e491602480820192602092909190829003018186803b158015610a3057600080fd5b505afa158015610a44573d6000803e3d6000fd5b505050506040513d6020811015610a5a57600080fd5b5051610a9e576040805162461bcd60e51b815260206004820152600e60248201526d4e6f7420676f7665726e616e636560901b604482015290519081900360640190fd5b600f546001600160a01b03161580610ab65750601054155b610af15760405162461bcd60e51b8152600401808060200182810382526033815260200180612dbf6033913960400191505060405180910390fd5b600f80546001600160a01b0319166001600160a01b0392909216919091179055565b60105481565b600b546001600160a01b0316331480610b4a5750610b35611ca6565b6001600160a01b0316336001600160a01b0316145b80610b6d5750610b586110b5565b6001600160a01b0316336001600160a01b0316145b610ba85760405162461bcd60e51b815260040180806020018281038252602c815260200180612d93602c913960400191505060405180910390fd5b6014805460ff1916911515919091179055565b600e54600854604080516370a0823160e01b815230600482015290516000938493610c4b9391926001600160a01b03909116916370a08231916024808301926020929190829003018186803b158015610c1357600080fd5b505afa158015610c27573d6000803e3d6000fd5b505050506040513d6020811015610c3d57600080fd5b50519063ffffffff611d6516565b9050610c6260105482611d6590919063ffffffff16565b91505090565b600b546001600160a01b0316331480610c995750610c84611ca6565b6001600160a01b0316336001600160a01b0316145b80610cbc5750610ca76110b5565b6001600160a01b0316336001600160a01b0316145b610cf75760405162461bcd60e51b815260040180806020018281038252602c815260200180612d93602c913960400191505060405180910390fd5b600854604080516370a0823160e01b815230600482015290516000926001600160a01b0316916370a08231916024808301926020929190829003018186803b158015610d4257600080fd5b505afa158015610d56573d6000803e3d6000fd5b505050506040513d6020811015610d6c57600080fd5b50519050610d7981611dc8565b5060095460408051633af9e66960e01b815230600482015290516001600160a01b0390921691633af9e669916024808201926020929091908290030181600087803b158015610dc757600080fd5b505af1158015610ddb573d6000803e3d6000fd5b505050506040513d6020811015610df157600080fd5b5051600e55565b600b546001600160a01b0316331480610e295750610e14611ca6565b6001600160a01b0316336001600160a01b0316145b80610e4c5750610e376110b5565b6001600160a01b0316336001600160a01b0316145b610e875760405162461bcd60e51b815260040180806020018281038252602c815260200180612d93602c913960400191505060405180910390fd5b60125460ff1615610ea757610e9a6108b5565b610ea2611fa2565b610ed1565b6040517f6e180aeefd7fd43a105253e3c10a794670b4c6ef64e8a4d8879de77cfb09d61290600090a15b610ed9610c68565b565b60156020526000908152604090205460ff1681565b60115481565b600054604080516337b87c3960e21b815233600482015290516001600160a01b039092169163dee1f0e491602480820192602092909190829003018186803b158015610f4157600080fd5b505afa158015610f55573d6000803e3d6000fd5b505050506040513d6020811015610f6b57600080fd5b5051610faf576040805162461bcd60e51b815260206004820152600e60248201526d4e6f7420676f7665726e616e636560901b604482015290519081900360640190fd5b610fb761237f565b60095460408051633af9e66960e01b815230600482015290516001600160a01b0390921691633af9e669916024808201926020929091908290030181600087803b158015610dc757600080fd5b600d546001600160a01b031681565b600b546001600160a01b0316331480611044575061102f611ca6565b6001600160a01b0316336001600160a01b0316145b8061106757506110526110b5565b6001600160a01b0316336001600160a01b0316145b6110a25760405162461bcd60e51b815260040180806020018281038252602c815260200180612d93602c913960400191505060405180910390fd5b6012805460ff1916911515919091179055565b60008060009054906101000a90046001600160a01b03166001600160a01b0316635aa6e6756040518163ffffffff1660e01b815260040160206040518083038186803b15801561073c57600080fd5b600a546001600160a01b031681565b6008546001600160a01b031681565b60105461113d90678ac7230489e8000063ffffffff611d6516565b611145610bbb565b11158061116a57506111556110b5565b6001600160a01b0316336001600160a01b0316145b6111a55760405162461bcd60e51b815260040180806020018281038252602e815260200180612df2602e913960400191505060405180910390fd5b3233146111ee576040805162461bcd60e51b81526020600482015260126024820152716e6f20736d61727420636f6e74726163747360701b604482015290519081900360640190fd5b6010546111fa5761130b565b600f60009054906101000a90046001600160a01b03166001600160a01b0316636527ba5c6040518163ffffffff1660e01b8152600401600060405180830381600087803b15801561124a57600080fd5b505af115801561125e573d6000803e3d6000fd5b5050600f5460085461128693506001600160a01b03908116925016308463ffffffff6123d116565b601054611299908263ffffffff61242b16565b601081905561130b57600f60009054906101000a90046001600160a01b03166001600160a01b031663cfc9b68c6040518163ffffffff1660e01b8152600401600060405180830381600087803b1580156112f257600080fd5b505af1158015611306573d6000803e3d6000fd5b505050505b50565b600e5481565b600054604080516337b87c3960e21b815233600482015290516001600160a01b039092169163dee1f0e491602480820192602092909190829003018186803b15801561135f57600080fd5b505afa158015611373573d6000803e3d6000fd5b505050506040513d602081101561138957600080fd5b50516113cd576040805162461bcd60e51b815260206004820152600e60248201526d4e6f7420676f7665726e616e636560901b604482015290519081900360640190fd5b610ed961246d565b600054604080516337b87c3960e21b815233600482015290516001600160a01b039092169163dee1f0e491602480820192602092909190829003018186803b15801561142057600080fd5b505afa158015611434573d6000803e3d6000fd5b505050506040513d602081101561144a57600080fd5b505161148e576040805162461bcd60e51b815260206004820152600e60248201526d4e6f7420676f7665726e616e636560901b604482015290519081900360640190fd5b6001600160a01b0381166114e9576040805162461bcd60e51b815260206004820152601e60248201527f6e65772073746f726167652073686f756c646e277420626520656d7074790000604482015290519081900360640190fd5b600080546001600160a01b0319166001600160a01b0392909216919091179055565b600f546001600160a01b031681565b6000546001600160a01b031681565b6005546001600160a01b031681565b60135481565b60015481565b600b546001600160a01b03163314806115755750611560611ca6565b6001600160a01b0316336001600160a01b0316145b8061159857506115836110b5565b6001600160a01b0316336001600160a01b0316145b6115d35760405162461bcd60e51b815260040180806020018281038252602c815260200180612d93602c913960400191505060405180910390fd5b601355565b600054604080516337b87c3960e21b815233600482015290516001600160a01b039092169163dee1f0e491602480820192602092909190829003018186803b15801561162357600080fd5b505afa158015611637573d6000803e3d6000fd5b505050506040513d602081101561164d57600080fd5b5051611691576040805162461bcd60e51b815260206004820152600e60248201526d4e6f7420676f7665726e616e636560901b604482015290519081900360640190fd5b6011546010541080156117185750600854604080516370a0823160e01b815230600482015290516000926001600160a01b0316916370a08231916024808301926020929190829003018186803b1580156116ea57600080fd5b505afa1580156116fe573d6000803e3d6000fd5b505050506040513d602081101561171457600080fd5b5051115b801561172e5750600f546001600160a01b031615155b15610ed95760006117cb61174f60105460115461242b90919063ffffffff16565b600854604080516370a0823160e01b815230600482015290516001600160a01b03909216916370a0823191602480820192602092909190829003018186803b15801561179a57600080fd5b505afa1580156117ae573d6000803e3d6000fd5b505050506040513d60208110156117c457600080fd5b5051612485565b600f546008549192506117f2916001600160a01b039081169116600063ffffffff61249b16565b600f54600854611815916001600160a01b0391821691168363ffffffff61249b16565b600f54604080516346401fe160e11b81526004810184905290516001600160a01b0390921691638c803fc29160248082019260009290919082900301818387803b15801561186257600080fd5b505af1158015611876573d6000803e3d6000fd5b505060105461188e925090508263ffffffff611d6516565b60105550565b600b546001600160a01b03163314806118c557506118b0611ca6565b6001600160a01b0316336001600160a01b0316145b806118e857506118d36110b5565b6001600160a01b0316336001600160a01b0316145b6119235760405162461bcd60e51b815260040180806020018281038252602c815260200180612d93602c913960400191505060405180910390fd5b61192b61246d565b600b54600854604080516370a0823160e01b81523060048201529051610fb7936001600160a01b039081169316916370a08231916024808301926020929190829003018186803b15801561197e57600080fd5b505afa158015611992573d6000803e3d6000fd5b505050506040513d60208110156119a857600080fd5b50516008546001600160a01b0316919063ffffffff611d1316565b600190565b6009546001600160a01b031681565b600b546001600160a01b0316331480611a0857506119f3611ca6565b6001600160a01b0316336001600160a01b0316145b80611a2b5750611a166110b5565b6001600160a01b0316336001600160a01b0316145b611a665760405162461bcd60e51b815260040180806020018281038252602c815260200180612d93602c913960400191505060405180910390fd5b600854604080516370a0823160e01b815230600482015290516001600160a01b03909216916370a0823191602480820192602092909190829003018186803b158015611ab157600080fd5b505afa158015611ac5573d6000803e3d6000fd5b505050506040513d6020811015611adb57600080fd5b50518111611b0b57600b54600854611b06916001600160a01b0391821691168363ffffffff611d1316565b611c1e565b611b14816125ae565b600854604080516370a0823160e01b8152306004820152905183926001600160a01b0316916370a08231916024808301926020929190829003018186803b158015611b5e57600080fd5b505afa158015611b72573d6000803e3d6000fd5b505050506040513d6020811015611b8857600080fd5b5051108015611b9957506000601054115b15611bf35760105415611bf3576040805162461bcd60e51b815260206004820181905260248201527f546865206c6f616e2068617320746f20626520736574746c6564206669727374604482015290519081900360640190fd5b600b54600854611c16916001600160a01b0391821691168363ffffffff611d1316565b611c1e610c68565b60095460408051633af9e66960e01b815230600482015290516001600160a01b0390921691633af9e669916024808201926020929091908290030181600087803b158015611c6b57600080fd5b505af1158015611c7f573d6000803e3d6000fd5b505050506040513d6020811015611c9557600080fd5b5051600e5550565b60145460ff1681565b60008060009054906101000a90046001600160a01b03166001600160a01b031663f77c47916040518163ffffffff1660e01b815260040160206040518083038186803b15801561073c57600080fd5b6003546001600160a01b031681565b600b546001600160a01b031681565b604080516001600160a01b038416602482015260448082018490528251808303909101815260649091019091526020810180516001600160e01b031663a9059cbb60e01b1790526108b0908490612664565b600082820183811015611dbf576040805162461bcd60e51b815260206004820152601b60248201527f536166654d6174683a206164646974696f6e206f766572666c6f770000000000604482015290519081900360640190fd5b90505b92915050565b600354600160a01b900460ff16611e26576040805162461bcd60e51b815260206004820152601f60248201527f5265656e7472616e637947756172643a207265656e7472616e742063616c6c00604482015290519081900360640190fd5b6003805460ff60a01b1916905560048054604080516370a0823160e01b81523093810193909352516000926001600160a01b03909216916370a08231916024808301926020929190829003018186803b158015611e8257600080fd5b505afa158015611e96573d6000803e3d6000fd5b505050506040513d6020811015611eac57600080fd5b5051905080821015611ebb5750805b60055460408051632e1a7d4d60e01b81526004810184905290516001600160a01b03909216918291632e1a7d4d91602480830192600092919082900301818387803b158015611f0957600080fd5b505af1158015611f1d573d6000803e3d6000fd5b50505050600660009054906101000a90046001600160a01b03166001600160a01b0316631249c58b836040518263ffffffff1660e01b81526004016000604051808303818588803b158015611f7157600080fd5b505af1158015611f85573d6000803e3d6000fd5b50506003805460ff60a01b1916600160a01b179055505050505050565b600c54604080516370a0823160e01b815230600482015290516000926001600160a01b0316916370a08231916024808301926020929190829003018186803b158015611fed57600080fd5b505afa158015612001573d6000803e3d6000fd5b505050506040513d602081101561201757600080fd5b5051601354909150811015612055576040517fd26ff69ffdb9c21e34f9b534127733d71db1159e23eb2e5105a07b91fa2768ac90600090a150610ed9565b801561130b576120648161281c565b600c54604080516370a0823160e01b815230600482015290516001600160a01b03909216916370a0823191602480820192602092909190829003018186803b1580156120af57600080fd5b505afa1580156120c3573d6000803e3d6000fd5b505050506040513d60208110156120d957600080fd5b5051600d54600c54919250600191612105916001600160a01b039182169116600063ffffffff61249b16565b600d54600c54612128916001600160a01b0391821691168463ffffffff61249b16565b60408051600280825260608083018452926020830190803883395050600c5482519293506001600160a01b03169183915060009061216257fe5b6001600160a01b03928316602091820292909201810191909152600d54604080516315ab88c960e31b81529051919093169263ad5c4648926004808301939192829003018186803b1580156121b657600080fd5b505afa1580156121ca573d6000803e3d6000fd5b505050506040513d60208110156121e057600080fd5b50518151829060019081106121f157fe5b6001600160a01b03928316602091820292909201810191909152600d546040516338ed173960e01b815260048101878152602482018790523060648301819052426084840181905260a060448501908152885160a4860152885195909716966338ed1739968b968b968b96939260c490910191878201910280838360005b8381101561228757818101518382015260200161226f565b505050509050019650505050505050600060405180830381600087803b1580156122b057600080fd5b505af11580156122c4573d6000803e3d6000fd5b505050506040513d6000823e601f3d908101601f1916820160405260208110156122ed57600080fd5b810190808051604051939291908464010000000082111561230d57600080fd5b90830190602082018581111561232257600080fd5b825186602082028301116401000000008211171561233f57600080fd5b82525081516020918201928201910280838360005b8381101561236c578181015183820152602001612354565b5050505090500160405250505050505050565b60125460ff161561239f576123926108b5565b61239a611fa2565b6123c9565b6040517f6e180aeefd7fd43a105253e3c10a794670b4c6ef64e8a4d8879de77cfb09d61290600090a15b610fb7612995565b604080516001600160a01b0385811660248301528416604482015260648082018490528251808303909101815260849091019091526020810180516001600160e01b03166323b872dd60e01b179052610915908590612664565b6000611dbf83836040518060400160405280601e81526020017f536166654d6174683a207375627472616374696f6e206f766572666c6f77000081525061299d565b6124756108b5565b61247d611fa2565b610ed9612995565b60008183106124945781611dbf565b5090919050565b801580612521575060408051636eb1769f60e11b81523060048201526001600160a01b03848116602483015291519185169163dd62ed3e91604480820192602092909190829003018186803b1580156124f357600080fd5b505afa158015612507573d6000803e3d6000fd5b505050506040513d602081101561251d57600080fd5b5051155b61255c5760405162461bcd60e51b8152600401808060200182810382526036815260200180612e8d6036913960400191505060405180910390fd5b604080516001600160a01b038416602482015260448082018490528251808303909101815260649091019091526020810180516001600160e01b031663095ea7b360e01b1790526108b0908490612664565b60095460408051631d8e90d160e11b8152905183926001600160a01b031691633b1d21a2916004808301926020929190829003018186803b1580156125f257600080fd5b505afa158015612606573d6000803e3d6000fd5b505050506040513d602081101561261c57600080fd5b5051101561265b5760405162461bcd60e51b8152600401808060200182810382526022815260200180612e6b6022913960400191505060405180910390fd5b61130b81612a34565b612676826001600160a01b0316612aaa565b6126c7576040805162461bcd60e51b815260206004820152601f60248201527f5361666545524332303a2063616c6c20746f206e6f6e2d636f6e747261637400604482015290519081900360640190fd5b60006060836001600160a01b0316836040518082805190602001908083835b602083106127055780518252601f1990920191602091820191016126e6565b6001836020036101000a0380198251168184511680821785525050505050509050019150506000604051808303816000865af19150503d8060008114612767576040519150601f19603f3d011682016040523d82523d6000602084013e61276c565b606091505b5091509150816127c3576040805162461bcd60e51b815260206004820181905260248201527f5361666545524332303a206c6f772d6c6576656c2063616c6c206661696c6564604482015290519081900360640190fd5b805115610915578080602001905160208110156127df57600080fd5b50516109155760405162461bcd60e51b815260040180806020018281038252602a815260200180612e41602a913960400191505060405180910390fd5b801561295357600061284b60025461283f60015485612ae690919063ffffffff16565b9063ffffffff612b3f16565b6040805184815260208101839052428183015290519192507f33fd2845a0f10293482de360244dd4ad31ddbb4b8c4a1ded3875cf8ebfba184b919081900360600190a16128b3612899611ca6565b6003546001600160a01b031690600063ffffffff61249b16565b6128d76128be611ca6565b6003546001600160a01b0316908363ffffffff61249b16565b6128df611ca6565b60035460408051631ee0d7e560e31b81526001600160a01b039283166004820152602481018590529051929091169163f706bf289160448082019260009290919082900301818387803b15801561293557600080fd5b505af1158015612949573d6000803e3d6000fd5b505050505061130b565b6040805160008082526020820152428183015290517f33fd2845a0f10293482de360244dd4ad31ddbb4b8c4a1ded3875cf8ebfba184b9181900360600190a150565b610ed9612b81565b60008184841115612a2c5760405162461bcd60e51b81526004018080602001828103825283818151815260200191508051906020019080838360005b838110156129f15781810151838201526020016129d9565b50505050905090810190601f168015612a1e5780820380516001836020036101000a031916815260200191505b509250505060405180910390fd5b505050900390565b801561130b57612a4381612c8d565b60055460408051630d0e30db60e41b815290516001600160a01b0390921691829163d0e30db091479160048082019260009290919082900301818588803b158015612a8d57600080fd5b505af1158015612aa1573d6000803e3d6000fd5b50505050505050565b6000813f7fc5d2460186f7233c927e7db2dcc703c0e500b653ca82273b7bfad8045d85a470818114801590612ade57508115155b949350505050565b600082612af557506000611dc2565b82820282848281612b0257fe5b0414611dbf5760405162461bcd60e51b8152600401808060200182810382526021815260200180612e206021913960400191505060405180910390fd5b6000611dbf83836040518060400160405280601a81526020017f536166654d6174683a206469766973696f6e206279207a65726f000000000000815250612d0b565b60065460408051631d8e90d160e11b815290516000926001600160a01b031691633b1d21a2916004808301926020929190829003018186803b158015612bc657600080fd5b505afa158015612bda573d6000803e3d6000fd5b505050506040513d6020811015612bf057600080fd5b505160065460408051633af9e66960e01b815230600482015290519293506000926001600160a01b0390921691633af9e6699160248082019260209290919082900301818787803b158015612c4457600080fd5b505af1158015612c58573d6000803e3d6000fd5b505050506040513d6020811015612c6e57600080fd5b50519050612c89818310612c825781612c84565b825b612a34565b5050565b801561130b576006546040805163852a12e360e01b81526004810184905290516001600160a01b039092169163852a12e3916024808201926020929091908290030181600087803b158015612ce157600080fd5b505af1158015612cf5573d6000803e3d6000fd5b505050506040513d60208110156108b057600080fd5b60008183612d5a5760405162461bcd60e51b81526020600482018181528351602484015283519092839260449091019190850190808383600083156129f15781810151838201526020016129d9565b506000838581612d6657fe5b049594505050505056fe746f6b656e20697320646566696e6564206173206e6f742073616c76616761626c655468652073656e6465722068617320746f2062652074686520636f6e74726f6c6c6572206f72207661756c744c697175696469747920726563697069656e742077617320616c7265616479207365742c20616e64206861732061206c6f616e4275666665722065786973747320616e64207468652063616c6c6572206973206e6f7420676f7665726e616e6365536166654d6174683a206d756c7469706c69636174696f6e206f766572666c6f775361666545524332303a204552433230206f7065726174696f6e20646964206e6f7420737563636565646d61726b657420636173682063616e6e6f7420636f766572206c69717569646974795361666545524332303a20617070726f76652066726f6d206e6f6e2d7a65726f20746f206e6f6e2d7a65726f20616c6c6f77616e6365a265627a7a72315820ad7e372acf659a998b64d25f30e10c038656f456c7fef065490592000affdb0864736f6c6343000510003257657468207374726174656779206e6565647320746f2068617665205745544820617320756e6465726c79696e67",
  "source": "pragma solidity 0.5.16;\n\nimport \"@openzeppelin/contracts/math/Math.sol\";\nimport \"@openzeppelin/contracts/math/SafeMath.sol\";\nimport \"@openzeppelin/contracts/token/ERC20/ERC20Detailed.sol\";\nimport \"@openzeppelin/contracts/token/ERC20/SafeERC20.sol\";\nimport \"./CompoundInteractor.sol\";\nimport \"./CompleteCToken.sol\";\nimport \"../LiquidityRecipient.sol\";\nimport \"../../Controllable.sol\";\nimport \"../RewardTokenProfitNotifier.sol\";\nimport \"../../compound/ComptrollerInterface.sol\";\nimport \"../../compound/CTokenInterfaces.sol\";\nimport \"../../hardworkInterface/IStrategy.sol\";\nimport \"../../uniswap/interfaces/IUniswapV2Router02.sol\";\n\n// (1) Cream is a fork of Compound, we will be using the CompoundInteractor as well.\n// (2) WETH has its own special strategy because its liquidation path would not\n//     use WETH as intermediate asset for obvious reason.\n\ncontract WETHCreamNoFoldStrategy is IStrategy, RewardTokenProfitNotifier, CompoundInteractor {\n\n  using SafeMath for uint256;\n  using SafeERC20 for IERC20;\n\n  event ProfitNotClaimed();\n  event TooLowBalance();\n\n  ERC20Detailed public underlying;\n  CompleteCToken public ctoken;\n  ComptrollerInterface public comptroller;\n\n  address public vault;\n  ERC20Detailed public comp; // this will be Cream\n\n  address public uniswapRouterV2;\n  uint256 public suppliedInWETH;\n\n  // The strategy supplying liquidity to Uniswap\n  address public liquidityRecipient;\n  // The current loan\n  uint256 public liquidityLoanCurrent;\n  // The target loan\n  uint256 public liquidityLoanTarget;\n\n  bool public liquidationAllowed = true;\n  uint256 public sellFloor = 0;\n  bool public allowEmergencyLiquidityShortage = false;\n\n\n  uint256 public constant tenWeth = 10 * 1e18;\n\n  // These tokens cannot be claimed by the controller\n  mapping (address => bool) public unsalvagableTokens;\n\n  modifier restricted() {\n    require(msg.sender == vault || msg.sender == address(controller()) || msg.sender == address(governance()),\n      \"The sender has to be the controller or vault\");\n    _;\n  }\n\n  constructor(\n    address _storage,\n    address _underlying,\n    address _ctoken,\n    address _vault,\n    address _comptroller,\n    address _comp,\n    address _uniswap\n  )\n  RewardTokenProfitNotifier(_storage, _comp)\n  CompoundInteractor(_underlying, _ctoken, _comptroller) public {\n    require(_underlying == address(_weth), \"Weth strategy needs to have WETH as underlying\");\n    comptroller = ComptrollerInterface(_comptroller);\n    comp = ERC20Detailed(_comp);\n    underlying = ERC20Detailed(_underlying);\n    ctoken = CompleteCToken(_ctoken);\n    vault = _vault;\n    uniswapRouterV2 = _uniswap;\n\n    // set these tokens to be not salvagable\n    unsalvagableTokens[_underlying] = true;\n    unsalvagableTokens[_ctoken] = true;\n    unsalvagableTokens[_comp] = true;\n  }\n\n  modifier updateSupplyInTheEnd() {\n    _;\n    suppliedInWETH = ctoken.balanceOfUnderlying(address(this));\n  }\n\n  function depositArbCheck() public view returns(bool) {\n    // there's no arb here.\n    return true;\n  }\n\n  /**\n  * The strategy invests by supplying the underlying as a collateral and taking\n  * a loan in the required ratio. The borrowed money is then re-supplied.\n  */\n  function investAllUnderlying() public restricted updateSupplyInTheEnd {\n    uint256 balance = underlying.balanceOf(address(this));\n    _supplyEtherInWETH(balance);\n  }\n\n  /**\n  * Exits Compound and transfers everything to the vault.\n  */\n  function withdrawAllToVault() external restricted updateSupplyInTheEnd {\n    // This function allows for withdrawing tokens without the loan being settled for the sake\n    // of being able to switch strategies whenever needed. Only last shareholder can suffer from\n    // this as withdrawToVault is used in other cases.\n    _withdrawAll();\n    IERC20(address(underlying)).safeTransfer(vault, underlying.balanceOf(address(this)));\n  }\n\n  function emergencyExit() external onlyGovernance updateSupplyInTheEnd {\n    withdrawMaximum();\n  }\n\n  function withdrawAll() public onlyGovernance {\n    _withdrawAll();\n  }\n\n  function _withdrawAll() internal {\n    claimComp();\n    liquidateComp();\n    redeemMaximum();\n  }\n\n  function withdrawMaximum() internal updateSupplyInTheEnd {\n    if (liquidationAllowed) {\n      claimComp();\n      liquidateComp();\n    } else {\n      emit ProfitNotClaimed();\n    }\n    redeemMaximum();\n  }\n\n  function withdrawAllWeInvested() internal updateSupplyInTheEnd {\n    if (liquidationAllowed) {\n      claimComp();\n      liquidateComp();\n    } else {\n      emit ProfitNotClaimed();\n    }\n    uint256 currentBalance = ctoken.balanceOfUnderlying(address(this));\n    mustRedeemPartial(currentBalance);\n  }  \n\n  function withdrawToVault(uint256 amountUnderlying) external restricted updateSupplyInTheEnd {\n    if (amountUnderlying <= underlying.balanceOf(address(this))) {\n      IERC20(address(underlying)).safeTransfer(vault, amountUnderlying);\n      return;\n    }\n\n    // get some of the underlying\n    mustRedeemPartial(amountUnderlying);\n\n    // If there is some liquidity loan and we do not have enough funds to send back, \n    // fail the transaction. If this happens, the user should first withdraw the rest of the funds \n    // that are available, then they can settle the loan in a separate transaction, and continue\n    // withdrawing the rest. The withdrawal for the rest of the funds does not need to bring\n    // balance to exactly 0 (that may be hard due to rounding errors); anything less than 10 WETH\n    // will suffice.\n    if (underlying.balanceOf(address(this)) < amountUnderlying && liquidityLoanCurrent > 0) {\n      require(liquidityLoanCurrent == 0, \"The loan has to be settled first\");\n    }\n\n    // transfer the amount requested (or the amount we have) back to vault\n    IERC20(address(underlying)).safeTransfer(vault, amountUnderlying);\n\n    // invest back to cream\n    investAllUnderlying();\n  }\n\n  /**\n  * Withdraws all assets, liquidates COMP, and invests again in the required ratio.\n  */\n  function doHardWork() public restricted {\n    if (liquidationAllowed) {\n      claimComp();\n      liquidateComp();\n    } else {\n      emit ProfitNotClaimed();\n    }\n    investAllUnderlying();\n  }\n\n  /**\n  * Redeems maximum that can be redeemed from Compound.\n  * Redeem the minimum of the WETH we own, and the WETH that the cToken can\n  * immediately retrieve. Ensures that `redeemMaximum` doesn't fail silently.\n  *\n  * DOES NOT ensure that the strategy crWETH balance becomes 0.\n  */\n  function redeemMaximum() internal {\n    redeemMaximumWeth();\n  }\n\n  /**\n  * Redeems `amountUnderlying` or fails.\n  */\n  function mustRedeemPartial(uint256 amountUnderlying) internal {\n    require(\n      ctoken.getCash() >= amountUnderlying,\n      \"market cash cannot cover liquidity\"\n    );\n    redeemUnderlyingInWeth(amountUnderlying);\n  }\n\n  /**\n  * Salvages a token.\n  */\n  function salvage(address recipient, address token, uint256 amount) public onlyGovernance {\n    // To make sure that governance cannot come in and take away the coins\n    require(!unsalvagableTokens[token], \"token is defined as not salvagable\");\n    IERC20(token).safeTransfer(recipient, amount);\n  }\n\n  function liquidateComp() internal {\n    uint256 balance = comp.balanceOf(address(this));\n\n    if (balance < sellFloor) {\n      emit TooLowBalance();\n      return;\n    }\n\n    if (balance > 0) {\n      notifyProfitInRewardToken(balance);\n\n      balance = comp.balanceOf(address(this));\n      // we can accept 1 as minimum as this will be called by trusted roles only\n      uint256 amountOutMin = 1;\n      IERC20(address(comp)).safeApprove(address(uniswapRouterV2), 0);\n      IERC20(address(comp)).safeApprove(address(uniswapRouterV2), balance);\n      address[] memory path = new address[](2);\n      path[0] = address(comp);\n      path[1] = IUniswapV2Router02(uniswapRouterV2).WETH();\n      IUniswapV2Router02(uniswapRouterV2).swapExactTokensForTokens(\n        balance,\n        amountOutMin,\n        path,\n        address(this),\n        block.timestamp\n      );\n    }\n  }\n\n  /**\n  * Returns the current balance. Ignores COMP that was not liquidated and invested.\n  */\n  function investedUnderlyingBalance() public view returns (uint256) {\n    // underlying in this strategy + underlying redeemable from Compound/Cream\n    uint256 assets = underlying.balanceOf(address(this)).add(suppliedInWETH);\n    // adding the liquidity that is loaned\n    return assets.add(liquidityLoanCurrent);\n  }\n\n  /**\n  * Allows liquidation\n  */\n  function setLiquidationAllowed(\n    bool allowed\n  ) external restricted {\n    liquidationAllowed = allowed;\n  }\n\n  function setAllowLiquidityShortage(\n    bool allowed\n  ) external restricted {\n    allowEmergencyLiquidityShortage = allowed;\n  }\n\n  function setSellFloor(uint256 value) external restricted {\n    sellFloor = value;\n  }  \n\n  /**\n  * Provides a loan to the liquidity strategy. Sends in funds to fill out the loan target amount,\n  * if they are available.\n  */\n  function provideLoan() public onlyGovernance {\n\n    if (liquidityLoanCurrent < liquidityLoanTarget\n      && IERC20(underlying).balanceOf(address(this)) > 0\n      && liquidityRecipient != address(0)) {\n      uint256 diff = Math.min(\n        liquidityLoanTarget.sub(liquidityLoanCurrent), \n        IERC20(underlying).balanceOf(address(this))\n      );\n      IERC20(underlying).safeApprove(liquidityRecipient, 0);\n      IERC20(underlying).safeApprove(liquidityRecipient, diff);\n      // use the pull pattern so that this fails if the contract is not set properly\n      LiquidityRecipient(liquidityRecipient).takeLoan(diff);\n      liquidityLoanCurrent = liquidityLoanCurrent.add(diff);\n    }\n\n  }\n\n  /**\n  * Settles a loan amount by forcing withdrawal inside the liquidity strategy, and then transferring\n  * the funds back to this strategy. This way, the loan can be settled partially, or completely.\n  * The method can be invoked only by EOAs to avoid market manipulation, and only by the governance\n  * unless there is not more than 10 WETH left in this strategy.\n  */\n  function settleLoan(uint256 amount) public {\n    require(\n      // the only funds in are in the loan, other than 10 WETH\n      investedUnderlyingBalance() <= liquidityLoanCurrent.add(tenWeth)\n      // or the governance wants this to happen\n      || msg.sender == governance(), \n      \"Buffer exists and the caller is not governance\"\n    );\n    // market manipulation prevention\n    require(tx.origin == msg.sender, \"no smart contracts\");\n\n    if(liquidityLoanCurrent == 0)\n      return ;\n\n    LiquidityRecipient(liquidityRecipient).settleLoan();\n    IERC20(underlying).safeTransferFrom(liquidityRecipient, address(this), amount);\n    liquidityLoanCurrent = liquidityLoanCurrent.sub(amount);\n    if (liquidityLoanCurrent == 0) {\n      LiquidityRecipient(liquidityRecipient).wethOverdraft();\n    }\n  }\n  \n  function setLiquidityRecipient(address recipient) public onlyGovernance {\n    require(liquidityRecipient == address(0) || liquidityLoanCurrent == 0,\n      \"Liquidity recipient was already set, and has a loan\");\n    liquidityRecipient = recipient;\n  }\n\n  function setLiquidityLoanTarget(uint256 target) public onlyGovernance {\n    liquidityLoanTarget = target;\n  }\n}\n",
  "sourcePath": "/home/madhav/Vaults/contracts/strategies/compound/WETHCreamNoFoldStrategy.sol",
  "compiler": {
    "name": "solc",
    "version": "0.5.16+commit.9c3226ce.Emscripten.clang"
  },
  "schemaVersion": "3.2.5",
  "updatedAt": "2020-12-05T16:27:35.054Z",
  "devdoc": {
    "methods": {}
  },
  "userdoc": {
    "methods": {
      "claimComp()": {
        "notice": "Get COMP"
      },
      "doHardWork()": {
        "notice": "Withdraws all assets, liquidates COMP, and invests again in the required ratio."
      },
      "investAllUnderlying()": {
        "notice": "The strategy invests by supplying the underlying as a collateral and taking a loan in the required ratio. The borrowed money is then re-supplied."
      },
      "investedUnderlyingBalance()": {
        "notice": "Returns the current balance. Ignores COMP that was not liquidated and invested."
      },
      "provideLoan()": {
        "notice": "Provides a loan to the liquidity strategy. Sends in funds to fill out the loan target amount, if they are available."
      },
      "salvage(address,address,uint256)": {
        "notice": "Salvages a token."
      },
      "setLiquidationAllowed(bool)": {
        "notice": "Allows liquidation"
      },
      "settleLoan(uint256)": {
        "notice": "Settles a loan amount by forcing withdrawal inside the liquidity strategy, and then transferring the funds back to this strategy. This way, the loan can be settled partially, or completely. The method can be invoked only by EOAs to avoid market manipulation, and only by the governance unless there is not more than 10 WETH left in this strategy."
      },
      "withdrawAllToVault()": {
        "notice": "Exits Compound and transfers everything to the vault."
      }
    }
  }
}